:100000000C9446050C946E050C946E050C946E05CC
:100010000C946E050C946E050C946E050C945D1595
:100020000C946E050C946E050C946E050C946E0584
:100030000C946E050C946E050C946E050C946E0574
:100040000C9413150C946E050C9405160C94DF1586
:100050000C946E050C946E050C946E050C946E0554
:100060000C9437160C946E0500000000003E5B4FA8
:100070005B3E3E6B4F6B3E1C3E7C3E1C183C7E3C08
:10008000181C577D571C1C5E7F5E1C00183C180016
:10009000FFE7C3E7FF0018241800FFE7DBE7FF30A6
:1000A000483A060E2629792926407F050507407F14
:1000B00005253F5A3CE73C5A7F3E1C1C08081C1C87
:1000C0003E7F14227F22145F5F005F5F06097F017D
:1000D0007F006689956A606060606094A2FFA29468
:1000E00008047E040810207E201008082A1C080836
:1000F0001C2A08081E101010100C1E0C1E0C303884
:100100003E3830060E3E0E06000000000000005F84
:1001100000000007000700147F147F14242A7F2AA0
:100120001223130864623649562050000807030062
:10013000001C2241000041221C002A1C7F1C2A08AE
:10014000083E080800807030000808080808000011
:1001500060600020100804023E5149453E00427F85
:10016000400072494949462141494D331814127FD4
:100170001027454545393C4A494931412111090774
:100180003649494936464949291E000014000000F5
:1001900040340000000814224114141414140041C7
:1001A00022140802015909063E415D594E7C121184
:1001B000127C7F494949363E414141227F414141BC
:1001C0003E7F494949417F090909013E4141517337
:1001D0007F0808087F00417F41002040413F017FA8
:1001E000081422417F404040407F021C027F7F0470
:1001F00008107F3E4141413E7F090909063E4151B9
:10020000215E7F09192946264949493203017F01A8
:10021000033F4040403F1F2040201F3F4038403FA9
:10022000631408146303047804036159494D4300BF
:100230007F4141410204081020004141417F0402F6
:10024000010204404040404000030708002054548D
:1002500078407F284444383844444428384444286B
:100260007F385454541800087E090218A4A49C78BE
:100270007F0804047800447D40002040403D007F1A
:100280001028440000417F40007C047804787C08FA
:100290000404783844444438FC18242418182424CE
:1002A00018FC7C08040408485454542404043F44B3
:1002B000243C4040207C1C2040201C3C4030403CE2
:1002C00044281028444C9090907C4464544C440042
:1002D00008364100000077000000413608000201A6
:1002E0000204023C2623263C1EA1A161123A404092
:1002F000207A38545455592155557941225454780F
:1003000042215554784020545579400C1E527212A7
:100310003955555559395454545939555454580030
:1003200000457C410002457D420001457C407D1234
:1003300011127DF0282528F07C5455450020545496
:100340007C547C0A097F4932494949323A44444441
:100350003A324A4848303A4141217A3A424020787C
:10036000009DA0A07D3D4242423D3D4040403D3C7D
:1003700024FF2424487E4943662B2FFC2F2BFF09A2
:1003800029F620C0887E0903205454794100004496
:100390007D413048484A32384040227A007A0A0A81
:1003A000727D0D19317D2629292F282629292926F4
:1003B00030484D4020380808080808080808382F39
:1003C00010C8ACBA2F102834FA00007B00000814C3
:1003D0002A142222142A14085500550055AA55AA99
:1003E00055AAFF55FF55FF000000FF00101010FF39
:1003F00000141414FF001010FF00FF1010F010F094
:10040000141414FC001414F700FF0000FF00FF1484
:1004100014F404FC141417101F10101F101F1414D0
:10042000141F00101010F0000000001F101010101A
:100430001F10101010F010000000FF10101010100E
:1004400010101010FF10000000FF140000FF00FF4C
:1004500000001F10170000FC04F4141417101714E8
:1004600014F404F40000FF00F7141414141414140A
:10047000F700F7141414171410101F101F1414147D
:10048000F4141010F010F000001F101F0000001FE7
:1004900014000000FC140000F010F01010FF10FF1A
:1004A000141414FF141010101F00000000F010FFAF
:1004B000FFFFFFFFF0F0F0F0F0FFFFFF0000000093
:1004C00000FFFF0F0F0F0F0F3844443844FC4A4A17
:1004D0004A347E02020606027E027E0263554941CC
:1004E000633844443C04407E201E2006027E020203
:1004F00099A5E7A5991C2A492A1C4C7201724C3017
:100500004A4D4D303048784830BC625A463D3E49ED
:100510004949007E0101017E2A2A2A2A2A44445F91
:10052000444440514A444040444A51400000FF0185
:1005300003E080FF000008086B6B08361236243693
:10054000060F090F060000181800000010100030F8
:1005500040FF0101001F01011E00191D1712003C80
:100560003C3C3C0000000000000103070F1F3F7FE0
:100570000080C0E0F0F8FCFEDB40A4A62EAF200017
:10058000A1C8D300408DAED580A800006000000057
:100590000000000000000000000000E0000000007B
:1005A00000000000000000000001E000000000006A
:1005B000000000000000000001F00000000000004A
:1005C0000000000000000003F00000000000000038
:1005D00000000000000007F0000000000000000024
:1005E000000000000007F80000000000000000000C
:1005F000000000000FF800000003C0007E000001B2
:10060000E0007F0FF800000003C000FE000001E0E2
:1006100000FFEFF800000003C000FE000001E00052
:10062000FFFFF800000003C000F00000000F007F93
:10063000FE7FC0000003C000F00000000F003FFE7E
:100640007FF83FF1FBCFFCFEF3BC3DEFE01FFE7FE8
:10065000FF7FFBFFDFFEFEFFBC3DEFE01FC6FFFF9D
:100660007FFBFFDFFEFEFFBC3DEFE00FE3C7FE7840
:100670007BC3DE1EF0FFBC3DEF0007FF87FC787BED
:10068000C3DE1EF0F83C3DEF0001FFFFF0007BC32E
:10069000C01EF0F03C3DEF0001F37FE03FFBC3CF15
:1006A000FEF0F03C3DEF0003E33F807FFBC3DFFE45
:1006B000F0F03C3DEF0007E73C00787BC3DE1EF026
:1006C000F03C3DEF0007FFBE00787BC3DE1EF0F07C
:1006D0003C3DEF0007FFFE00787BC3DE1EF0F03CE0
:1006E0003DEF000FFFFE007FFBFFDFFEF0F03FFD60
:1006F000EFE00FFFFF007FFBFFDFFEF0F03FFDEFBD
:10070000E00FF9FF003E79F9CF9EF0F01F3DE7E0E2
:100710001FF1FF0000000000000000000000001FAB
:1007200080FF007FFFFFFFFFFFFFFFFFFFE01C00D8
:100730007F007FFFFFFFFEB46D888D18E000001F73
:10074000007FFFFFFFFE95AD7DB577E000000F0055
:100750007FFFFFFFFEA5AD9D8D19E0000006007F25
:10076000FFFFFFFEB5ADEDB57EE00000000000012B
:100770008000000000000000000003800000000076
:10078000000000000007C0000000000000000000A2
:1007900007C00000000000000000000FC0000000C3
:1007A0000000000000001FE000000000000000004A
:1007B000001FE00000000000000000003FE000001B
:1007C000000000000000003FF000000000000000FA
:1007D00000007FF0000000000000001FF87FF00024
:1007E0000000000000003FFE7FF00000000000005D
:1007F000003FFF7FF0000000000000001FFFFBE053
:10080000000000000000000FFFF9FFC00000000022
:1008100000000FFFF9FFF800000000000007FFF1E3
:10082000FFFF00000000000003FC73FFFF800000DA
:1008300000000001FE3FFFFF80000000000000FFFD
:100840001E0FFF000000000000007FFE1FFC0000E4
:1008500000000000003FFFFFF80000000000000063
:100860000FDFFFE0000000000000001F19FFC000C4
:100870000000000000003F3CFF00000000000000FE
:10088000007E7CF800000000000000007FFE7C007D
:1008900000000000000000FFFFFC0000000000005E
:1008A0000000FFFFFE0000000000000000FFFFFE50
:1008B0000000000000000001FFEFFE00000000004B
:1008C000000001FFCFFE0000000000000003FF0752
:1008D000FE0000000000000003FC07FE0000000016
:1008E00000000003F003FE00000000000000018093
:1008F00000FE000000000000000000007E0000007C
:10090000000000000000003E0000000000000000A9
:1009100000000C000000000000078000FC00000345
:10092000C0000000078001FC000003C000000007B9
:100930008001FC000003C0000000078001E000000F
:10094000001E000000078001E00000001E007FE3A1
:10095000F79FF9FDE7787BDFC0FFF7FFBFFDFDFFE5
:10096000787BDFC0FFF7FFBFFDFDFF787BDFC0F0C6
:10097000F787BC3DE1FF787BDE00F0F787BC3DE107
:10098000F0787BDE0000F787803DE1E0787BDE00D9
:100990007FF7879FFDE1E0787BDE00FFF787BFFDF3
:1009A000E1E0787BDE00F0F787BC3DE1E0787BDEBC
:1009B00000F0F787BC3DE1E0787BDE00F0F787BC14
:1009C0003DE1E0787BDE00FFF7FFBFFDE1E07FFB6C
:1009D000DFC0FFF7FFBFFDE1E07FFBDFC07CF3F38B
:1009E0009F3DE1E03E7BCFC0000000000000000022
:1009F000000000FFFFFFFFFFFFFFFFFFFFC0FFFF43
:100A0000FFFFFD68DB111A31C0FFFFFFFFFD2B5A0E
:100A1000FB6AEFC0FFFFFFFFFD4B5B3B1A33C0FFDC
:100A2000FFFFFFFD6B5BDB6AFDC0022200FF2100C0
:100A300000000000240027002A000000000025001C
:100A400028002B00000000002300260029000404D9
:100A50000404040404040202020202020303030366
:100A60000303010204081020408001020408102042
:100A70000102040810200000000800020100000329
:100A800004070000000000000000561711241FBEDC
:100A9000CFEFD8E0DEBFCDBF11E0A0E0B1E0E8EAE3
:100AA000F9E402C005900D92A239B107D9F723E00D
:100AB000A2E9B1E001C01D92A831B207E1F715E04B
:100AC000C6E4D5E004C02197FE010E940522C5348A
:100AD000D107C9F70E9487180C94D2240C94000007
:100AE0003F924F925F926F927F928F929F92AF92BE
:100AF000BF92CF92DF92EF92FF920F931F93CF930B
:100B0000DF9300D000D0CDB7DEB79C838B833B0151
:100B10006A015901DC01ED91FC910284F385E02D1D
:100B200009952801B7E04B0E511C93E0559447946A
:100B30009A95E1F7C6018E0D9F1D9A838983912CAA
:100B4000812C312CF12CE12CC70187709927330CB3
:100B5000892B59F4F70183E0F595E7958A95E1F73C
:100B6000E80DF91DEA0DFB1D349037FE10C0AB8176
:100B7000BC81ED91FC9111970484F585E02D21E075
:100B800030E0A601B701660D771DCD010995BFEFD5
:100B9000EB1AFB0A0E151F05B9F68FEFC81AD80A13
:100BA000840C951CA981BA81CA16DB0659F6AB8163
:100BB000BC81ED91FC9111970688F789E02DCD015C
:100BC0000F900F900F900F90DF91CF911F910F9189
:100BD000FF90EF90DF90CF90BF90AF909F908F905D
:100BE0007F906F905F904F903F900994833081F099
:100BF00028F4813099F08230A9F008958730A9F067
:100C00008830C9F08430B1F4809180008F7D03C0BA
:100C1000809180008F7780938000089584B58F77CE
:100C200084BD089584B58F7DFBCF8091B0008F7710
:100C30008093B00008958091B0008F7DF9CFCF935D
:100C4000DF93282F30E0F901EA58F54F8491F9013C
:100C5000EE59F54FD491F901E25BF54FC491CC23E5
:100C6000A1F081110E94F605EC2FF0E0EE0FFF1FBE
:100C7000EC5BF54FA591B491EC91ED2381E090E010
:100C800009F480E0DF91CF91089580E090E0FACF01
:100C90001F93CF93DF93282F30E0F901EA58F54FE7
:100CA0008491F901EE59F54FD491F901E25BF54FCA
:100CB000C491CC23A9F0162F81110E94F605EC2FC8
:100CC000F0E0EE0FFF1FE65CF54FA591B4918FB7F2
:100CD000F894EC91111108C0D095DE23DC938FBFFE
:100CE000DF91CF911F910895DE2BF8CFCF93DF9343
:100CF00090E0FC01EE59F54F2491825B954FFC0189
:100D000084918823D1F090E0880F991FFC01E05D69
:100D1000F54FA591B491FC01E65CF54FC591D491D6
:100D200061110EC09FB7F8948C91E22FE0958E234D
:100D30008C932881E223E8839FBFDF91CF910895B0
:100D40008FB7F894EC91E22BEC938FBFF6CF3FB7BF
:100D5000F89480915F0290916002A0916102B0913D
:100D6000620226B5A89B05C02F3F19F00196A11D70
:100D7000B11D3FBFBA2FA92F982F8827BC01CD01E5
:100D8000620F711D811D911D42E0660F771F881F44
:100D9000991F4A95D1F708958F929F92AF92BF9273
:100DA000CF92DF92EF92FF924B015C010E94A70667
:100DB0006B017C010E94A7066C197D098E099F09B1
:100DC000683E734081059105A8F321E0821A9108DD
:100DD000A108B10888EEC80E83E0D81EE11CF11C02
:100DE00081149104A104B10429F7FF90EF90DF90E2
:100DF000CF90BF90AF909F908F900895EF92FF9209
:100E00000F931F93CF93DF93082F61E088E00E9438
:100E1000480661E070E080E090E00E94CC0661E06E
:100E200087E00E94480661E070E080E090E00E9468
:100E3000CC0661E086E00E94480661E070E080E058
:100E400090E00E94CC0660E086E00E94480661E0E7
:100E500070E080E090E00E94CC06D0E0C0E0EE249C
:100E6000E394F12C10E0B7010C2E02C0660F771F3F
:100E70000A94E2F7602371230C2E02C075956795E2
:100E80000A94E2F787E00E94480661E070E080E0A3
:100E900090E00E94CC0661E086E00E94480661E096
:100EA00070E080E090E00E94CC0660E086E00E9466
:100EB000480661E070E080E090E00E94CC06219658
:100EC000C530D10581F660E087E00E94480661E008
:100ED00070E080E090E00E94CC0661E086E00E9435
:100EE000480661E070E080E090E00E94CC0660E09F
:100EF00086E00E94480661E070E080E090E00E9499
:100F0000CC0661E087E00E94480661E070E080E086
:100F100090E00E94CC0661E086E00E94480661E015
:100F200070E080E090E00E94CC0660E087E00E94E4
:100F3000760661E070E080E090E00E94CC06D0E0B0
:100F4000C0E010E060E086E00E94480661E070E0EA
:100F500080E090E00E94CC0687E00E941F060C2EE5
:100F600001C0880F0A94EAF7180F61E086E00E943A
:100F7000480661E070E080E090E00E94CC06219697
:100F8000C830D105F9F660E086E00E94480661E0CD
:100F900070E080E090E00E94CC0660E086E00E9475
:100FA000480661E070E080E090E00E94CC0661E0DD
:100FB00087E00E94760661E070E080E090E00E94A9
:100FC000CC06812FDF91CF911F910F91FF90EF9071
:100FD000089508950895AF92BF92CF92DF92EF9255
:100FE000FF920F931F93CF93DF936C017B018B01D3
:100FF000040F151FEB015E01AE18BF08C017D10723
:1010000059F06991D601ED91FC910190F081E02DAC
:10101000C6010995892B79F7C501DF91CF911F9101
:101020000F91FF90EF90DF90CF90BF90AF90089519
:10103000FC01538D448D252F30E0842F90E0821BDE
:10104000930B541710F0CF96089501970895FC0163
:10105000918D828D981761F0A28DAE0FBF2FB11DBB
:101060005D968C91928D9F5F9F73928F90E0089513
:101070008FEF9FEF0895FC01918D828D981731F0CD
:10108000828DE80FF11D858D90E008958FEF9FEF21
:101090000895FC01918D228D892F90E0805C9F4FF7
:1010A000821B91098F739927089583E692E00E942D
:1010B000490821E0892B09F420E0822F089580E07F
:1010C00090E0892B29F00E94550881110C940000B2
:1010D0000895FC01A48DA80FB92FB11DA35ABF4FCD
:1010E0002C91848D90E001968F739927848FA68927
:1010F000B7892C93A089B1898C91837080648C937B
:10110000938D848D981306C00288F389E02D808129
:101110008F7D80830895EF92FF920F931F93CF935B
:10112000DF93EC0181E0888F9B8D8C8D98131AC022
:10113000E889F989808185FF15C09FB7F894EE8909
:10114000FF896083E889F989808183708064808366
:101150009FBF81E090E0DF91CF911F910F91FF90B1
:10116000EF900895F62E0B8D10E00F5F1F4F0F7359
:101170001127E02E8C8D8E110CC00FB607FCFACF14
:10118000E889F989808185FFF5CFCE010E94690841
:10119000F1CFEB8DEC0FFD2FF11DE35AFF4FF082E5
:1011A0009FB7F8940B8FEA89FB8980818062CFCF4B
:1011B000CF93DF93EC01888D8823B9F0AA89BB898E
:1011C000E889F9898C9185FD03C0808186FD0DC079
:1011D0000FB607FCF7CF8C9185FFF2CF808185FF9A
:1011E000EDCFCE010E946908E9CFDF91CF9108953C
:1011F000EF92FF920F931F93CF93DF93EC01EC805C
:10120000FD806E157F050CF070C057FF04C0240FE1
:10121000351F50E040E08E819F81FA01E20FF31FFD
:101220008E179F071CF49C01241B350B1216130606
:101230000CF05BC0922F842F8695869586958E9DA7
:10124000D0018F9DB00D11246A0F7B1FAF8DB8A107
:10125000A60FB71F477049F188E0841B482F682FFD
:1012600070E0FB01E059FA4FE491281708F063C0E1
:10127000621B71092FEF30E002C0359527956A9502
:10128000E2F7E2230130110539F0B0F10230110527
:1012900061F58C91E82702C08C91E82BEC939417B0
:1012A00020F12C813D81A20FB31FE92FE41BE83010
:1012B00078F00230110521F58E2F9C9190959C932A
:1012C0002C813D81A20FB31F88508830B0F7E770A2
:1012D000EE2359F0F0E0E859FA4FE491013011059E
:1012E000F9F010F10230110519F1DF91CF911F9142
:1012F0000F91FF90EF900895E0958C91E823CECF69
:1013000081E00115110509F480E081959E2F8C93F1
:101310002C813D81A20FB31F98509830C0F7D7CFD2
:101320008C91E82BEC93E1CFE0958C91E823FACFF8
:101330008C91E827F7CF0130110509F4ADCFE0F229
:101340000230110509F4A5CFAE0DBF1DAECF0F932E
:101350001F93CF93DF9377FF04C0260F371F70E0F2
:1013600060E0DC011496CD91DC91FB01E20FF31FEC
:10137000CE17DF071CF49E01261B370B121613062F
:101380004CF5FA0157FD3796A3E0F595E795AA9538
:10139000E1F7EC9FD001ED9FB00DFC9FB00D112443
:1013A0006A0F7B1FDC015F96ED91FC91E60FF71F42
:1013B0004770552781E090E001C0880F4A95EAF711
:1013C000482F0130110559F0A8F02E0F3F1F0230B1
:1013D0001105E1F0DF91CF911F910F9108952E0F2C
:1013E0003F1FE217F307B1F38191DF011197842BBF
:1013F0008C93F7CF80952E0F3F1FE217F30751F321
:101400009191DF01119798239C93F7CFE217F3078F
:1014100009F38191DF01119784278C93F7CF0F9304
:101420001F93FA01DC0156964C9156974230E9F031
:101430004330A1F1413061F514964D915C91DA0190
:10144000AE1BBF0BFD01E21BF30B77FD0BC0DC01F4
:1014500016964D915C916417750724F4AB01BF019A
:101460000E94A7091F910F91089514964D915C91C8
:10147000DA01A61BB70BBD0161507109DC0116969C
:101480004D915C91DA01AE1BBF0BFD01E21BF30B2A
:1014900077FDE8CFAF010E94F808E4CF16964D9192
:1014A0005C91DA01A61BB70BBD0161507109CDCF6C
:1014B0000F931F93FA01DC0156964C9156974230D8
:1014C000A9F0433091F1413019F514964D915C919A
:1014D000DA01AE1BBF0BFD013197F7FD04C0AB0174
:1014E000BF010E94F8081F910F91089514964D9125
:1014F0005C91DA01A61BB70BBD01DC0116964D917C
:101500005C91DA01AE1BBF0BFD013197621B730BBF
:10151000F7FDE9CFDC0116964D915C91E417F507D4
:1015200014F7AF010E94A709DECF16964D915C918A
:10153000DA01A61BB70BBD01621B730BCECFFC01FA
:1015400077FD64C080859185681779070CF05EC0CF
:1015500057FD5CC082859385481759070CF056C02B
:1015600086898230B1F0833029F1813041F4848161
:101570009581841B950BAB01BC0161507109213031
:10158000310509F108F443C02230310509F463C084
:10159000089584819581DC01A61BB70BBD016150C4
:1015A000710986819781DC01A41BB50BAD01415007
:1015B0005109E5CF86819781861B970BBA01AC0153
:1015C00041505109DCCFCA0157FD0796A3E095951C
:1015D0008795AA95E1F7A481B5818A9F90018B9F99
:1015E000300D9A9F300D1124620F731F078CF0A1EC
:1015F000E02DE60FF71F4770552721E030E001C0CE
:10160000220F4A95EAF78081822B80830895CA01D0
:1016100057FD079633E0959587953A95E1F7A481B4
:10162000B5818A9F90018B9F300D9A9F300D1124B8
:10163000620F731F078CF0A1E02DE60FF71F4770B4
:10164000552781E090E001C0880F4A95EAF7809520
:1016500090818923DACFCA0157FD079623E095953B
:1016600087952A95E1F7A481B5818A9F90018B9F88
:10167000300D9A9F300D1124620F731F078CF0A15B
:10168000E02DE60FF71F4770552721E030E001C03D
:10169000220F4A95EAF780818227B7CF08958EBD41
:1016A00000000DB407FEFDCF8EB508958CBD9DBD25
:1016B00008950895FC016370668B8481958126816D
:1016C0003781613039F0633029F091878087338723
:1016D00022870895318720879387828708952F92E4
:1016E0003F924F925F926F927F928F929F92AF92B2
:1016F000BF92CF92DF92EF92FF920F931F93CF93FF
:10170000DF93CDB7DEB76A970FB6F894DEBF0FBE92
:10171000CDBF9A8F898F7A8369834A01D22E188729
:101720000F833701BC2CDC0159962D913C915A97BF
:101730002115310509F015C118968D919C911997C5
:10174000681779070CF0D7C11A968D919C914817AC
:1017500059070CF0D0C14C2C512CB6E0CB9E600D3B
:10176000711D11247C876B87161617060CF0C3C1F8
:10177000EA2DF0E0FA87E98793E0EE0FFF1F9A95D4
:10178000E1F7F88BEF87CF01840F951F1816190624
:101790000CF0B1C1A98DBA8D58968C91811104C0FD
:1017A000BFEABD1508F4D394A98DBA8DED91FC91D3
:1017B00011970284F385E02DCD010995B5E0DB9EFC
:1017C000C0011124E981FA81FC83EB83312C212CA7
:1017D0009C0128593F4F388F2F8B4A2D50E05E8B4C
:1017E0004D8BEF89F88DE20DF31D44919E828D8221
:1017F000D12CC12C69817A81620D731D7A8B698B22
:10180000842F90E09C8B8B8BE98DFA8DA081B18128
:1018100040FF82C0F1E0BF126FC0AF126DC01C96D6
:10182000ED91FC912F813885A4014C0D5D1D6989D6
:101830007A89898D9A8D0995EB89FC89F595E795CB
:101840004E2F5FEFC51AD50A6D817E818D899E89E5
:10185000680F791F7E836D8398E0C916D10481F6E5
:10186000AFEF2A1A3A0AEB81FC81E40DF51DFC83E7
:10187000EB83F5E02F16310409F0B3CF2F813885C3
:1018800026153705B9F0A98DBA8DED91FC91B1E01F
:10189000BB1257C0AB1255C069817A816B5F7F4F15
:1018A0000088F189E02D830128E030E0A401898DD2
:1018B0009A8D0995A98DBA8DED91FC9111970688A5
:1018C000F789E02DCD016A960FB6F894DEBF0FBE02
:1018D000CDBFDF91CF911F910F91FF90EF90DF90DF
:1018E000CF90BF90AF909F908F907F906F905F90C0
:1018F0004F903F902F9009941E96ED91FC91EF80B0
:10190000F88409851A8592014D815E816B817C8105
:10191000898D9A8D099590CF2F81388526153705A9
:1019200009F48ACF31E0B31207C0A31205C01C9698
:10193000ED91FC91930178CF1E96ED91FC9173018E
:10194000E0CF6B857C85641975090684F785E02DE9
:1019500073010F8518899201A401898D9A8D0995CB
:10196000A9CFF90134969491329745915491D91A9F
:10197000B7E0DB9E400D511D1124F90125913491F2
:101980003C8B2B8BFA0125903490FA01329674909F
:1019900031963491398B329664903196449041E07F
:1019A0004C1518F04A1508F07FC0662D062C000C67
:1019B000770B7C836B83842D042C000C990B9E8306
:1019C0008D83A98DBA8DED91FC9111970284F385D9
:1019D000E02DCD010995512CD12CC12CEA2DF0E040
:1019E000FA87E9872B2D30E03C872B87A401440D33
:1019F000511D47FC5A95588F4F8B69817A81660D2E
:101A0000711D67FC7A957E876D877989C71608F006
:101A100051CF2C2D30E04D815E81420F531FA9859F
:101A2000BA854A9FC0014B9F900D5A9F900D11247B
:101A3000FC01E80DF91DF88BEF87852D612C4F898E
:101A4000588D420F531F5E8B4D8B671408F050C0AA
:101A500044244394480E877041F4C1010196EB89F8
:101A6000FC89E20DF31DD4901C01D7FE19C0A98D8D
:101A7000BA8DED91FC91662D70E0B1E0BB1219C0FA
:101A8000AB1217C02D853E85620F731F0484F58548
:101A9000E02D2F8138854D895E89898D9A8D099534
:101AA000DD0C6394842DD1CF1E821D821C821B828B
:101AB00088CF4B815C81640F751FAB85BC856A9FA5
:101AC000C0016B9F900D7A9F900D112469817A81DE
:101AD000680F791F0684F785E02DEF80F88409856B
:101AE0001A859D014F855889898D9A8D0995D8CF82
:101AF000570CC3948ACF6A960FB6F894DEBF0FBE18
:101B0000CDBFDF91CF911F910F91FF90EF90DF90AC
:101B1000CF90BF90AF909F908F907F906F905F908D
:101B20004F903F902F9008958F929F92AF92CF92B7
:101B3000EF92FF920F931F93CF93DF93EC01262F29
:101B4000898D9A8D009709F051C06A30D1F41D86B5
:101B50001C868D8948E0849F900111248E859F8585
:101B6000820F931F9F878E8781E090E0DF91CF9156
:101B70001F910F91FF90EF90CF90AF909F908F901B
:101B800008956D3089F3CC88AD888F898823C1F0A2
:101B90008C859D8536E0C39E800D911D112448855E
:101BA00059854817590764F44E855F851D861C8644
:101BB00038E0A39EC0011124840F951F9F878E8754
:101BC000EA88FB88088919894E855F856C857D8543
:101BD000CE010E946F0B2C898C859D8546E0249F49
:101BE000800D911D11249D878C87BECF6A3069F4CA
:101BF0001D861C86FC013896E4912D898E859F8573
:101C0000E29F800D911D1124ADCF6D3009F4ACCF52
:101C1000FC0134963491631708F4A6CF3296E49110
:101C2000E61708F4A1CFFC01329685909490462FD8
:101C3000431B342F47E0349F800C911C1124F40186
:101C4000329634913196E4913323A9F1EE2399F140
:101C5000CC88F4013596E491AD884F89442301F195
:101C60000E2E000CFF0BE30FF11DCE9EA001CF9EA8
:101C7000500D11246C857D85460F571F6885798529
:101C8000641775076CF44E855F851D861C86FC0104
:101C90003896E491AE9E400D511D11245F874E870A
:101CA000EA88FB88088919894E855F856C857D8562
:101CB000CE010E946F0BF4013496E4912C898C853F
:101CC0009D85E29F800D911D11248DCF6F927F9293
:101CD0008F929F92AF92BF92CF92DF92EF92FF923C
:101CE0000F931F93CF93DF93EC016B015A013901DE
:101CF0004801E881F9810284F385E02D0995E881A6
:101D0000F9810288F389E02D87019301A501B601CD
:101D1000CE010995A501480D591D41505109E88191
:101D2000F9810288F389E02D9301B601CE0109956E
:101D3000E881F9810088F189E02D9401A501B601BF
:101D4000CE010995C60CD71CB60161507109E88116
:101D5000F9810088F189E02D9401A501CE01099552
:101D6000E881F9810688F789E02DCE01DF91CF91D6
:101D70001F910F91FF90EF90DF90CF90BF90AF90A9
:101D80009F908F907F906F9009946F927F928F9227
:101D90009F92AF92BF92CF92DF92EF92FF920F93FA
:101DA0001F93CF93DF935C01EB016A014901380176
:101DB0008701DC01ED91FC916217730719F5641638
:101DC00075062CF0962D872D3A01C92ED82E960136
:101DD000261937092F5F3F4F048CF58DE02DA301A5
:101DE000BE01C5010995DF91CF911F910F91FF9021
:101DF000EF90DF90CF90BF90AF909F908F907F90AB
:101E00006F9008954615570591F42617370724F06B
:101E1000892D4B01C22FD82F9E01281939092F5F18
:101E20003F4F068CF78DE02DA601B401DACF028476
:101E3000F385E02D0995D501ED91FC910488F58994
:101E4000E02D83019401A601BE01C5010995D501CC
:101E5000ED91FC910688F789E02DC501DF91CF91C6
:101E60001F910F91FF90EF90DF90CF90BF90AF90B8
:101E70009F908F907F906F900994EF92FF920F93B5
:101E80001F93DC011A960D911C911B9718962D91AA
:101E90003C911997ED91FC9100A0F1A1E02D7B01FF
:101EA00050E040E070E060E009951F910F91FF90D5
:101EB000EF9008954F925F926F927F928F929F92D0
:101EC000AF92BF92CF92DF92EF92FF920F931F9348
:101ED000CF93DF936C012B015A0139014801DC01DA
:101EE000ED91FC910284F385E02D0995E201640CEB
:101EF000751CD601ED91FC91C615D7055CF40088E0
:101F0000F189E02D87019401A501BE01C601099563
:101F10002196EFCF0688F789E02DC601DF91CF919A
:101F20001F910F91FF90EF90DF90CF90BF90AF90F7
:101F30009F908F907F906F905F904F9009948F92B9
:101F40009F92AF92BF92CF92DF92EF92FF920F9348
:101F50001F93CF93DF93EC015B014A016901E88194
:101F6000F9810284F385E02D099595012C0D3D1D25
:101F700021503109E881F9810488F589E02D780143
:101F80008401A401B501CE010995E881F981068893
:101F9000F789E02DCE01DF91CF911F910F91FF9036
:101FA000EF90DF90CF90BF90AF909F908F9009946B
:101FB0008F929F92AF92BF92CF92DF92EF92FF9259
:101FC0000F931F93CF93DF93EC015B014A016901EB
:101FD0007801E881F9810284F385E02D0995C80C28
:101FE000D91C860101501109E881F9810488F5891D
:101FF000E02D9501A401B501CE010995E881F98193
:102000000688F789E02DCE01DF91CF911F910F91C6
:10201000FF90EF90DF90CF90BF90AF909F908F9008
:1020200009940895EF92FF920F931F93DC01ED91B5
:10203000FC9100A0F1A1E02D09951F910F91FF9057
:10204000EF9008950F931F93DC01ED91FC91068CA6
:10205000F78DE02D09951F910F9108950F931F9310
:10206000DC01ED91FC91048CF58DE02D09951F911B
:102070000F910895DC01ED91FC910084F185E02D34
:1020800009942F923F924F925F926F927F928F921C
:102090009F92AF92BF92CF92DF92EF92FF920F93F7
:1020A0001F93CF93DF9300D000D000D0CDB7DEB721
:1020B0003C016A013E832D83FC82EB825801A41A05
:1020C000B50AB7FE03C0B194A194B1088D809E807B
:1020D000861A970A97FE03C09194819491088A14F6
:1020E0009B045CF0902F812F0D811E819D838E8338
:1020F0009C2D8D2D6B01692F782F0C151D055CF023
:102100009D818E817E836D83692F782F902F812F03
:102110008601C92ED82E1601201A310A2B012D81D5
:102120003E81421A530A57FE03C05194419451080C
:10213000710137FE03C03FEFE31AF30AF594E79409
:102140008D819E81861797075CF5A1E0B0E0BA8388
:10215000A983C016D1064CF1D301ED91FC91048402
:10216000F585E02D2B813C81A8016D817E818A144B
:102170009B041CF04D815E81B801C3010995E418F0
:10218000F508F7FE0AC02D813E8189819A81280FCA
:10219000391F3E832D83E20CF31C0F5F1F4FD9CFF5
:1021A0002FEF3FEF3A832983D4CF26960FB6F894CA
:1021B000DEBF0FBECDBFDF91CF911F910F91FF907A
:1021C000EF90DF90CF90BF90AF909F908F907F90D7
:1021D0006F905F904F903F902F90089508952091B9
:1021E000F801260F3327331F21323105ECF42091FB
:1021F0001C02FC0190E080E0243069F082E0089548
:10220000A091F8012191AC0148525E4FA40FB52F67
:10221000B11D2C930196861798F38091F801680FF1
:102220006093F80180E0089581E0089510921C0207
:1022300081E080931E0210921D0261E082E10E9403
:10224000480661E083E10E944806E9EBF0E0808106
:102250008E7F808380818D7F808388E48093B80027
:1022600085E48093BC000895CF93DF9391E0909331
:10227000D7018823B9F0C091B800D091BA008091FD
:10228000BC008A7B8093BC0060E082E10E9448062B
:1022900060E083E10E9448060E941611D093BA00C4
:1022A000C093B800DF91CF910895E09148028091EA
:1022B0004702E81730F4F0E0EE54FE4F808190E0E2
:1022C00008958FEF9FEF0895909148028091470203
:1022D0002FEF3FEF981748F4E92FF0E0EE54FE4F50
:1022E000208130E09F5F90934802C901089580915A
:1022F000470290914802891B990B0895CF92DF9273
:10230000EF92FF920F931F93CF93DF937C01CB014A
:102310008A0120915D02222389F0EB016B01C40E3A
:10232000D51ECC15DD0569F06991D701ED91FC91C1
:102330000190F081E02DC7010995F3CF642F0E9431
:10234000EF10C801DF91CF911F910F91FF90EF9097
:10235000DF90CF900895CF93DF931F92CDB7DEB774
:10236000698320915D022223F9F020915A022032E4
:1023700058F021E030E0FC013383228390E080E0DC
:102380000F90DF91CF91089580915B02E82FF0E0EC
:10239000EE56FE4F998190838F5F80935B0280930E
:1023A0005A0281E090E0ECCF61E0CE0101960E94FC
:1023B000EF10F7CFCF92DF92EF92FF920F931F9320
:1023C000CF93DF93D0915A0281E0D13208F09CC0C4
:1023D000C0915C020E94A7066B017C0180911C02E7
:1023E00081116CC082E080931C0281E080931E0208
:1023F0008FEF80931B0210924002D0933F02A2E91C
:10240000B1E0EFE1F2E080E0D8138DC0109241021C
:1024100080914102CC0FC82BC093410280911D02D4
:10242000813009F084C010921D020E94A7066B0142
:102430007C01809141028093BB008091D3019091F7
:10244000D401A091D501B091D601892B8A2B8B2B79
:10245000A1F00E94A7060091D3011091D401209110
:10246000D5013091D6016C197D098E099F09061797
:1024700017072807390708F442C08091BC0083FD84
:10248000D8CF85EC8093BC000E94A7066B017C012D
:1024900080911C02823009F44CC080911B028F3F56
:1024A00009F469C080911B02803209F466C08091F2
:1024B0001B02803309F463C084E026C08091D301FD
:1024C0009091D401A091D501B091D601892B8A2B8E
:1024D0008B2B09F483CF0E94A7060091D3011091A2
:1024E000D4012091D5013091D6016C197D098E0956
:1024F0009F09061717072807390708F06FCF809143
:10250000D2010E94341185E010925B0210925A02AF
:1025100010925D02DF91CF911F910F91FF90EF908C
:10252000DF90CF9008959D9191938F5F6DCF85EE51
:10253000A9CF8091D3019091D401A091D501B09100
:10254000D601892B8A2B8B2B09F4A2CF0E94A706D8
:102550000091D3011091D4012091D5013091D60181
:102560006C197D098E099F09061717072807390777
:1025700008F08ECFC4CF80E0C7CF82E0C5CF83E024
:10258000C3CFCF92DF92EF92FF920F931F93CF931F
:10259000DF93EC016B01142F8D8D9E8D009709F454
:1025A00054C029A131E030935D0220935C02109267
:1025B0005B0210925A02DC01ED91FC910190F081D6
:1025C000E02D60E009957601CC24C394D12C01E084
:1025D00011508D8D9E8D1F3F71F1B0E2CB16D1044D
:1025E000C0F00E94DA118D8D9E8D29A100935D02AD
:1025F00020935C0210925B0210925A02DC01ED9172
:10260000FC910190F081E02D60E00995CC24C39409
:10261000D12C8D8D9E8DF7016491DC01ED91FC91A3
:102620000190F081E02D0995BFEFCB1ADB0AEFEFA7
:10263000EE1AFE0ACDCFDF91CF911F910F91FF903F
:10264000EF90DF90CF900C94DA11EDA5FEA590816C
:102650008BA98095892380837B01115070F1F7014C
:1026600084912B8D3C8D232B31F00E944F0BFFEF7B
:10267000EF1AFF0AF2CF28E030E040E8E9A5FAA51A
:1026800099A9582F5423A9F05081952B9083EBA53D
:10269000FCA590815AA9952B9083EBA5FCA55081B0
:1026A0009AA990959523908346952150310931F749
:1026B000DECF508190959523E9CFDF91CF911F9187
:1026C0000F91FF90EF90DF90CF9008951F93CF93DD
:1026D000DF93EC018D8D9E8D009721F1162F29A19E
:1026E00031E030935D0220935C0210925B02109205
:1026F0005A02DC01ED91FC910190F081E02D60E047
:1027000009958D8D9E8DDC01ED91FC910190F081FC
:10271000E02D612F09958D8D9E8DDF91CF911F91B9
:102720000C94DA11ADA5BEA59C918BA98095892347
:102730008C938B8D9C8D892B31F0862FDF91CF91DF
:102740001F910C944F0B28E030E080E8A9A5BAA5B2
:1027500099A9462F4823C1F04C91942B9C93ABA58B
:10276000BCA59C914AA9942B9C93ABA5BCA54C916C
:102770009AA9909594239C9386952150310931F71D
:10278000DF91CF911F9108954C9190959423E6CFBE
:102790001F93CF93DF93EC01162F8D8D9E8D892B88
:1027A000B1F12DA93EA94FA958AD60E074E284EFC4
:1027B00090E00E94A121205131094109510956950B
:1027C0004795379527952093B80066EA111167EA77
:1027D000CE010E9466138D8D9E8D892B41F129AD0E
:1027E0003AAD4BAD5CAD60E074E284EF90E00E94E6
:1027F000A121205131094109510956954795379535
:1028000027952093B800DF91CF911F9108958B8D6C
:102810009C8D892B21F08EAD9FAD0E94560BEFA5AC
:10282000F8A990818CA9809589238083CECFEFA5CC
:10283000F8A980819CA9892B8083E5CF90E080E076
:1028400008950E94C624FB0101900020E9F731970A
:10285000AF01461B570BDC01ED91FC910280F38127
:10286000E02D09944F925F926F927F928F929F9288
:10287000AF92BF92CF92DF92EF92FF920F931F938E
:10288000CF93DF93CDB7DEB7A1970FB6F894DEBF35
:102890000FBECDBF8C016B01770FEE08FF08F7FE6E
:1028A00049C0DC01ED91FC910190F081E02D6DE2D9
:1028B00009955C0122273327A9012C193D094E09EE
:1028C0005F0919A2FE01B1967F019AE0492E512CB1
:1028D000612C712CCA01B901A30192010E94A121AE
:1028E000605DD7016E937D012115310541055105CC
:1028F00089F790E080E0109721F0BD01C8010E94A7
:1029000023148A0D9B1DA1960FB6F894DEBF0FBE4F
:10291000CDBFDF91CF911F910F91FF90EF90DF908E
:10292000CF90BF90AF909F908F907F906F905F906F
:102930004F900895A701960119A2FE01B1967F015B
:102940008AE0882E912CA12CB12CCA01B901A501D5
:1029500094010E94A121605DD7016E937D01211534
:1029600031054105510589F790E080E0109759F253
:10297000BD01C8010E942314C6CFFC018681978146
:102980009C01295F3F4F37FF02C0295F3F4F83E023
:10299000359527958A95E1F784819581289FA00137
:1029A000299F500D389F500D112470E060E0878DF5
:1029B00090A10C94CB2485ED8093BC008091D30131
:1029C0009091D401A091D501B091D6010796A11D97
:1029D000B11D23E0B695A795979587952A95D1F7D0
:1029E0002091BC0024FD03C010921C020895409168
:1029F000D3015091D4016091D5017091D601452B3E
:102A0000462B472B69F30097A105B10541F025E35B
:102A10002A95F1F700000197A109B109E1CF809152
:102A2000D2010C9434111F920F920FB60F92112401
:102A30002F933F938F939F93AF93BF9380910C03FA
:102A400090910D03A0910E03B0910F0330915E029F
:102A500023E0230F2D3758F50196A11DB11D2093BA
:102A60005E0280930C0390930D03A0930E03B0932A
:102A70000F0380915F0290916002A0916102B0917A
:102A800062020196A11DB11D80935F0290936002C6
:102A9000A0936102B0936202BF91AF919F918F9119
:102AA0003F912F910F900FBE0F901F90189526E821
:102AB000230F0296A11DB11DD2CF1F920F920FB608
:102AC0000F9211242F933F934F935F936F937F93B4
:102AD0008F939F93AF93BF93EF93FF9380914E0299
:102AE00090914F02A0915002B0915102892B8A2BF4
:102AF0008B2BD1F190914902E0914A02F0914B0267
:102B000080818927808380914E0290914F02A0910D
:102B10005002B0915102181619061A061B069CF4B1
:102B200080914E0290914F02A0915002B0915102BB
:102B30000197A109B10980934E0290934F02A0938F
:102B40005002B0935102FF91EF91BF91AF919F91CD
:102B50008F917F916F915F914F913F912F910F9046
:102B60000FBE0F901F90189580910001EAE2FAE0E5
:102B7000E4919FEF90930001E13051F030F0E230AA
:102B800069F060E00E944806DECF10926E00F9CF37
:102B900090916F009D7F90936F00F3CF90917000A4
:102BA0009D7F9093700091E09093B0009091B10060
:102BB000987F94609093B1001092B300E2CF1F927F
:102BC0000F920FB60F9211242F933F934F935F9361
:102BD0006F937F938F939F93AF93BF93EF93FF93E5
:102BE00083E692E00E946908FF91EF91BF91AF9157
:102BF0009F918F917F916F915F914F913F912F9115
:102C00000F900FBE0F901F9018951F920F920FB646
:102C10000F9211242F938F939F93EF93FF93E09143
:102C20007302F09174028081E0917902F0917A024E
:102C300082FD1BC0908180917C028F5F8F732091F9
:102C40007D02821741F0E0917C02F0E0ED59FD4FEA
:102C5000958F80937C02FF91EF919F918F912F919F
:102C60000F900FBE0F901F9018958081F4CF1F9288
:102C70000F920FB60F9211242F933F934F935F93B0
:102C80006F937F938F939F93AF93BF93EF93FF9334
:102C90008091B900887F803609F44AC0F0F5883207
:102CA00009F4A7C018F5803109F49BC0B8F4882353
:102CB00009F4F9C0883009F494C0FF91EF91BF91F5
:102CC000AF919F918F917F916F915F914F913F91C4
:102CD0002F910F900FBE0F901F901895883109F417
:102CE00088C0803251F780931B0214C0803409F4ED
:102CF0009DC040F48033B9F38833F9F680931B020A
:102D000085ECB0C0803509F485C0883509F496C0DB
:102D1000883499F60E94DB14D0CF883909F48CC02E
:102D200038F5883729F050F4883611F0803729F6C5
:102D300083E080931C0210921A0257C0883809F46D
:102D40007BC0803919F0803809F0B7CF80911A0222
:102D5000803208F071C0E0911A0281E08E0F8093FA
:102D60001A028091BB00F0E0E650FE4F80833DC028
:102D7000803B39F0E0F4803A09F479C0883A09F0F0
:102D80009CCF84E080931C021092F9011092F8010C
:102D9000E0914502F091460209958091F801811178
:102DA0000FC081E08093F8011092D80109C0803CE7
:102DB00009F4A6CF883C09F4A3CF883B09F07DCF66
:102DC000E091F90181E08E0F8093F901F0E0E85283
:102DD000FE4F80818093BB009091F9018091F801B2
:102DE00029C0809141028093BB0085EC8093BC0098
:102DF00064CF9091400280913F02981758F5E0917E
:102E0000400281E08E0F80934002F0E0E15EFD4FD2
:102E10008081E9CFE091400281E08E0F80934002F3
:102E20008091BB00F0E0E15EFD4F80839091400215
:102E300080913F029817C8F285E8D8CFE091400210
:102E400081E08E0F809340028091BB00F0E0E15E54
:102E5000FD4F808380911E0281115CCF81E08093C1
:102E60001D0284EA8093BC0010921C0226CF85ECE0
:102E70008093BC0010921C0280911A02803230F4C0
:102E8000E0911A02F0E0E650FE4F108260911A02C3
:102E900070E0E0914302F09144028AEF91E00995DD
:102EA00010921A020ACF10921B0234CFAF92BF9237
:102EB000CF92DF92EF92FF920F931F93CF93DF9306
:102EC000E3E6F2E01382128288EE93E0A0E0B0E045
:102ED00084839583A683B7832BE031E031832083FD
:102EE00025EC30E03587248724EC30E037872687CF
:102EF00020EC30E0318B208B21EC30E0338B228BC7
:102F000022EC30E0358B248B26EC30E0378B268B9F
:102F1000118E128E138E148E20E0E22E23E0F22EFC
:102F2000F7011382128284839583A683B7838DE190
:102F300091E0918380838DE190E00E94A1238C0138
:102F400080E290E00E94A123EC0130E8A32EB12C96
:102F5000B982A88240E4C42ED12CDB82CA8280E4EC
:102F600090E00E94A123FC0113821282B582A48208
:102F7000D782C682B186A086D386C286168A158677
:102F800014861786168681E0858B848B2FEF3FEFA2
:102F9000338B228B318B208B878B108E128E118E70
:102FA0008FE291E091838083148E138EF68EE58EEE
:102FB00010A2178E8FEF84A385A386A387A380A773
:102FC00080E89AE1A6E0B0E085AB96ABA7ABB0AFE6
:102FD00080EA96E8A1E0B0E081AF92AFA3AFB4AFD2
:102FE00080E586AF17AEFD83EC8381E090E09F83A0
:102FF0008E831986188620E230E03B872A879D87DA
:103000008C871E861F86188A198A1B8A1C8A1D8A2D
:103010001E8A1F8A188E198E1A8E1B8E1C8E1D8E6C
:103020001E8E1F8EF801D183C0832FB7F894809134
:103030000C0390910D03A0910E03B0910F032FBFCD
:1030400082839383A483B5831682178210861186A8
:10305000128613861486158616861786118A108A9C
:10306000128A138A148A158A178A168A108E118E6C
:10307000128E138E148E61E08CE00E94760661E061
:103080008BE00E94760661E08AE00E94760660E0AE
:103090008CE00E94480660E08BE00E94480660E0F9
:1030A0008AE00E94480661E085E00E94760610935F
:1030B00013030093120381E090E00E94A123EC012E
:1030C00061E086E00E94760660E086E00E944806A5
:1030D00061E088E00E94760660E088E00E94480691
:1030E00061E087E00E94760660E087E00E94480683
:1030F000D0931103C0931003DF91CF911F910F91D3
:10310000FF90EF90DF90CF90BF90AF900895CF9356
:10311000DF93CDB7DEB7E0970FB6F894DEBF0FBEF2
:10312000CDBF789484B5826084BD84B5816084BD50
:1031300085B5826085BD85B5816085BD80916E0055
:10314000816080936E001092810080918100826086
:1031500080938100809181008160809381008091C3
:1031600080008160809380008091B10084608093B2
:10317000B1008091B00081608093B00080917A00AE
:10318000846080937A0080917A00826080937A00D4
:1031900080917A00816080937A0080917A008068C3
:1031A00080937A001092C100E0917302F091740252
:1031B00082E08083E0916F02F09170021082E091D2
:1031C0007102F09172028FEC808310927B02E09189
:1031D0007702F091780286E08083E0917502F091A9
:1031E0007602808180618083E0917502F0917602A1
:1031F000808188608083E0917502F0917602808101
:1032000080688083E0917502F091760280818F7DE5
:10321000808360E08EE00E947606E0911203F091D8
:1032200013030190F081E02DC480D580D6015F9614
:103230008D919C919097892B51F516962D913C91EB
:10324000C901079697FD079623E0959587952A95DE
:10325000E1F7F601248135815C01A29EC001A39EA5
:10326000900DB29E900D11240E94A123D60190963C
:103270009C938E935F97892B51F467E571E083E609
:1032800092E00E94231481E090E00E94D224C601C3
:103290000E94BD14F6018681978164817581AC011D
:1032A00081970CF4CDC24054510957FF02C04F5FC3
:1032B0005F4F559547956255710977FF02C06F5F63
:1032C0007F4F7595679510E4E12EF12C02E510E033
:1032D0002AE637E0C6010E94700582E0D601929688
:1032E0008C9392975D968D919C915E97892B09F4B2
:1032F000BFC28CE391968C931092480210924702C1
:1033000010925B0210925A020E94161189EE97E009
:1033100090934602809345028AEE97E09093440290
:1033200080934302D60198968C9187FD1FC061E07F
:103330000E94760661E0F60180A50E94480661E0E1
:1033400070E080E090E00E94CC0660E0D6019896A4
:103350008C910E9448066AE070E080E090E00E9454
:10336000CC0661E0F60180A50E944806D6015D9674
:103370008D919C915E97892B09F43FC3D5962D9131
:103380003D914D915C91D89760E074E284EF90E0BC
:103390000E94A121205131094109510956954795B3
:1033A000379527952093B80044E066E875E0C6019C
:1033B0000E94C112F60166816150C6010E94661327
:1033C00044E062E875E0C6010E94C112D6019296FF
:1033D0008C9160E1813009F064E1C6010E946613BE
:1033E00044E06EE775E0C6010E94C1128FE8F60165
:1033F00085AF848195818038910509F015C3868158
:1034000097818034910509F01DC382A1813009F0B4
:1034100009C38FE9D601DD968C9312E16AEDC601EE
:103420000E946613612FC6010E94661361E8C601FF
:103430000E946613F60165ADC6010E94661369ED30
:10344000C6010E946613D60192968C9162E2813089
:1034500009F061EFC6010E94661346E068E775E077
:10346000C6010E94C112F601858D968D892B09F443
:10347000EDC221AD32AD43AD54AD60E074E284EFF6
:1034800090E00E94A121205131094109510956952E
:103490004795379527952093B800E0911203F09156
:1034A00013030190F081E02D848195810E94BD1469
:1034B000FE013196FAA7E9A78E01075D1F4F1CA7F1
:1034C0000BA7E0911203F09113032FB7F8948091AA
:1034D0000C0390910D03A0910E03B0910F032FBF29
:1034E00086839783A087B1870091120310911303FD
:1034F000D801ED90FC9083E00E941F0621E0009728
:1035000009F420E0F7012687128A892B09F446C0C6
:10351000F80186819781A085B185F7014789508D93
:10352000618D728D5C016D01A41AB50AC60AD70AB5
:10353000B601A501493E53406105710530F021E017
:10354000218B878B908FA18FB28FF7012189222346
:1035500009F486C28788908CA18CB28CAC01BD0125
:103560004159514061097109481959096A097B0992
:10357000473552406105710508F072C291E0D701EC
:1035800052969C93529751961C92519750961C922A
:10359000D801ED91FC91878D8927878FC090120308
:1035A000D0901303D601ED91FC91878D882309F407
:1035B0007FC20091100310911103848195810E94B4
:1035C000BD14D601ED91FC910480F581E02D8EE1D2
:1035D00090E09587848734E1A32EB12CB786A68628
:1035E00082E0848B858B81E090E0938B828B918B42
:1035F000808B82E00E94FE06D8018C93682F70E0D9
:1036000044E0759567954A95E1F763707727D60191
:10361000ED91FC91848195810E943214F8016081C2
:103620006F7070E0E0911203F09113030190F0814C
:10363000E02D848195810E943214E0911203F09173
:1036400013030190F081E02D6FE871E08481958192
:103650000E94231481E00E94FE06D8018C9382957B
:103660008F70682F70E0E0911203F09113030190C6
:10367000F081E02D848195810E943214F8016081EF
:103680006F7070E0E0911203F09113030190F081EC
:10369000E02D848195810E943214E0911203F09113
:1036A00013030190F081E02D6FE871E08481958132
:1036B0000E94231480E00E94FE06D8018C93682F9C
:1036C00070E054E0759567955A95E1F76770772734
:1036D000E0911203F09113030190F081E02D8481B9
:1036E00095810E943214F80160816F7070E0E09162
:1036F0001203F09113030190F081E02D84819581F4
:103700000E943214E0911203F09113030190F081B2
:10371000E02DE480F580D7015D968D919C915E97B8
:10372000892B09F46CC5D5962D913D914D915C91F5
:10373000D89760E074E284EF90E00E94A1212051CC
:103740003109410951095695479537952795209399
:10375000B80045E06BE27AE0C7010E94C112F701B0
:1037600064816150C7010E946613D70116962D919E
:103770003C91C901079697FD079673E0959587954B
:103780007A95E1F7F70124813581829F5001839F6B
:10379000B00C929FB00C1124C78CD0A0858D968D53
:1037A000AC0CBD1C009709F468C521A131E0309331
:1037B0005D0220935C0210925B0210925A02DC01BF
:1037C000ED91FC910190F081E02D60E4099501E01C
:1037D00010E099249394F701858D968DAC14BD0467
:1037E00009F422C500321105D8F00E94DA11D70180
:1037F0005D968D919C915E9791962C9190925D0231
:1038000020935C0210925B0210925A02DC01ED914F
:10381000FC910190F081E02D60E4099501E010E059
:10382000F701858D968DD6016D916D01DC01ED91CD
:10383000FC910190F081E02D09950F5F1F4FCBCFD8
:103840004052510957FF02C04F5F5F4F5595479552
:103850006357710977FF02C06F5F7F4F759567955A
:10386000F0E2EF2EF12C03E710E02AE835E032CD4C
:1038700061E0F60186A10E94760661E0D601979686
:103880008C910E947606F60186A1082E000C990BF9
:10389000FC01E25BF54FE491F0E0EE0FFF1FE65C08
:1038A000F54F25913491D6019E963C932E939D978A
:1038B000FC01EE59F54FE491D396EC93D39797968C
:1038C0008C91082E000C990BFC01E25BF54FE49102
:1038D000F0E0EE0FFF1FE65CF54FA591B491F60105
:1038E000B0ABA7A7FC01EE59F54F9491F60194AB4C
:1038F0008C91E92FE82BEC93D6015B968D919C91EE
:10390000892B09F434C01FB7F894809142028111C9
:1039100027C0E8E5FAE08491ECE6FAE09491E82F1C
:10392000F0E0EE0FFF1FE05DF54FA591B491EC9133
:10393000E92321F461E08AE00E94480661E08AE020
:103940000E9476068CB580618CBD8CB580648CBD80
:1039500061E08DE00E94760661E08BE00E947606D1
:10396000809142028F5F809342021FBFDBCC61E0F7
:10397000F60184A10E94760661E0D60195968C91AD
:103980000E947606F60184A1082E000C990BFC011A
:10399000E25BF54FE491F0E0EE0FFF1FE65CF54FC0
:1039A00025913491D6019A963C932E939997FC01D8
:1039B000EE59F54FE491D196EC93D19795968C9171
:1039C000082E000C990BFC01E25BF54FE491F0E04E
:1039D000EE0FFF1FE65CF54FA591B491F601B4A779
:1039E000A3A7FC01EE59F54F9491F60192AB8C918F
:1039F000E92FE095E823EC9395CCF601838D948D27
:103A0000892B21F086AD97AD0E94560BD6019F966B
:103A1000ED91FC91D0979081D4968C9180958923DB
:103A20008083C2CC8FECF6CC8036910559F4868128
:103A30009781409739F482A1813031F480E1D60139
:103A4000DD968C9312E0EACC8FEAF9CFD60107A479
:103A5000F0A9E02D8081D4969C91892B80831DCD87
:103A6000F70143895489658976895C016D01A41A3F
:103A7000B50AC60AD70AB601A501413D57406105FE
:103A8000710508F48BCD208931E02327208B838BAF
:103A9000948BA58BB68B64E871E083E692E00E947C
:103AA00023146CE871E083E692E00E94231476CD43
:103AB00088E2A9A5BAA51D928A95E9F7FE0131967B
:103AC0004F015F0120E420937C0080917A008064A4
:103AD00080937A0080917A0086FDFCCF90917800E7
:103AE00080917900892798278927D5018D939D9307
:103AF0005D01EBA5FCA5EA17FB0729F7FE0131964E
:103B000030E020E081919191280E391E233131055A
:103B100031F4C10164E170E00E948D211B012F5F2F
:103B20003F4F2431310571F7E0911203F0911303F7
:103B30000190F081E02D20853185C90101969187A2
:103B400080878138910544F0848195812F57310910
:103B5000318720870E94BD14D4018D919D914D0124
:103B6000E0911203F09113030190F081E02D228582
:103B70003385281639060CF08DC082199309281B4D
:103B8000390B338722878481958160857185028511
:103B90001385DC01ED91FC9104A0F5A1E02DEE244C
:103BA000E394F12C9B0140E250E00995A814B9047C
:103BB00099F6E0911203F09113030081118186853B
:103BC000D8011A962D913C91213231050CF468C030
:103BD000882309F44AC086809780A084B1848285B6
:103BE0009385A485B585A5019401281B390B4A0B43
:103BF0005B0B82E056954795379527958A95D1F7C7
:103C000060E67AEE80E090E00E94A121F601318B1F
:103C1000208B2F313105ECF0D80114960D911C91B9
:103C200085E090E0F801958784879787868781E013
:103C300090E0918B808B138A128A82E0848B858B33
:103C4000B901C8010E9432146CE871E0C8010E94F9
:103C50002314E0911203F091130382869386A486C5
:103C6000B586868591E089278687D60150968D9105
:103C70009C919C012253310928323105A8F461E05E
:103C80008AE00E94480660E08CE00E94480660E0FE
:103C90008BE01BC08101081B190B200F311F71CF56
:103CA0008111E3CF81E0E0CF9C012A553109203515
:103CB000310508F041C061E08BE00E94480660E0F9
:103CC0008CE00E94480660E08AE00E944806A090CE
:103CD0001203B0901303D501ED91FC9111978089E7
:103CE000882309F40FCD5096ED90FC90B7010F2C6E
:103CF000000C880B990B0E947F229B01AC0160E0B5
:103D000070E080E792E40E940B222B013C01F50158
:103D1000428A538A648A758A8FEF90E0F2E3EF1645
:103D2000F10424F1C701C2978997B8F48AE590E0BD
:103D3000F501978B868B1FC09C012A5A31092233CB
:103D4000310520F04E9760E0449708F461E08CE084
:103D50000E94480660E08AE098CFC7018A55910921
:103D60008135910508F00CC182E090E0D5015796AD
:103D70009C938E935697D50116966D917D918D915A
:103D80009C91199758960D911D912D913C915B979F
:103D9000601B710B820B930B0E947D226DA77EA787
:103DA0008FA798AB20E030E04AE754E4C301B201AA
:103DB0000E9410239B01AC016DA57EA58FA598A93B
:103DC0000E940B2318160CF09DCCBFE1EB16F104FA
:103DD0000CF498CCF5018688978880910001853095
:103DE00009F0D7C0EAE2FAE0149117FDB9C161E029
:103DF00085E00E9476061123A1F0712C612C60E011
:103E000072E18AE790E0A30194010E94C321690155
:103E10007A01F1E0CF1AD108E108F108123009F077
:103E2000ABC12401712C612C60E072E18AE790E063
:103E3000A30194010E94C3212DA73EA74FA758AB11
:103E400069017A0101E0C01AD108E108F1082FEFF9
:103E5000C216D104E104F10409F00CF457C160E486
:103E600072E48FE090E0A30194010E94C3216901F4
:103E70007A0181E0C81AD108E108F108123009F08E
:103E8000FAC082E09FEFC916D104E104F10409F001
:103E90000CF46FC060E970ED83E090E0A301940141
:103EA0000E94C32169017A01A1E0CA1AD108E10880
:103EB000F10883E0BFEFCB16D104E104F10409F06F
:103EC0000CF457C068E478EE81E090E0A30194011F
:103ED0000E94C32169017A01F1E0CF1AD108E108FB
:103EE000F10884E00FEFC016D104E104F10409F0F9
:103EF0000CF43FC064E274EF80E090E0A301920113
:103F00000E94C32169017A0101E0C01AD108E108C9
:103F1000F10885E0AFEFCA16D104E104F10449F1DC
:103F200040F162E17AE780E090E0A30192010E9413
:103F3000C32169017A0181E0C81AD108E108F108BA
:103F400086E09FEFC916D104E104F10491F088F0F6
:103F5000CDA4DEA4EFA4F8A89AE0F594E794D79452
:103F6000C7949A95D1F7B1E0CB1AD108E108F108CE
:103F700087E09091B100987F892B8093B100CDC0EC
:103F8000C7018B5A9109C19708F0F5CE81E090E006
:103F9000CFCE8F3F09F0E4C085E080930001EAE2D4
:103FA000FAE014911F3F09F4DBC0113021F150F009
:103FB000123009F43EC017FDD3C061E085E00E94D5
:103FC00076061BCF14BC15BC84B5826084BD85B554
:103FD000816085BDE3E5FAE0E491F0E0EE0FFF1FBC
:103FE000E65CF54F85919491E7E6FAE0E491E09381
:103FF0004D0210E0FCCE1092800010928100809162
:10400000810088608093810080918100816080932D
:104010008100E3E5FAE0E491F0E0EE0FFF1FE65CDB
:10402000F54F85919491E7E6FAE0E491E0934C0234
:10403000DECE1092B0001092B1008091B00082608C
:104040008093B0008091B10081608093B100E3E57E
:10405000FAE0E491F0E0EE0FFF1FE65CF54F85918A
:10406000949190934B0280934A02E7E6FAE0E49140
:10407000E0934902BCCEEFEFCE16D104E104F10487
:1040800009F00CF477C068E478EE81E090E0A301D9
:1040900094010E94C32169017A01F1E0CF1AD1088D
:1040A000E108F10884E0111135CF83E02FEFC2164B
:1040B000D104E104F10469F164F162E17AE780E09E
:1040C00090E0A30192010E94C32169017A0181E07D
:1040D000C81AD108E108F10884E09FEFC916D1049D
:1040E000E104F104B1F0A8F0CDA4DEA4EFA4F8A897
:1040F0008AE0F594E794D794C7948A95D1F7E1E0E4
:10410000CE1AD108E108F10885E003C081E0111161
:1041100030CF95B5987F892B85BD9401220F331F31
:10412000A2E3B0E00E94E22128EE33E040E050E05C
:104130000E94A121113009F440C0123009F44FC08F
:1041400011110EC0C7BC2093560230935702409302
:1041500058025093590280916E00826080936E00E5
:10416000F50186819781A085B185808F918FA28F7F
:10417000B38FC8CA82E0CBCF91E0C114D104A1E0D3
:10418000EA06F10484F068E478EE81E090E0A301AF
:1041900094010E94C32169017A01B1E0CB1AD108D0
:1041A000E108F10893E0113009F0B7CF8091810068
:1041B000887F892B80938100B0CFD0928900C092F4
:1041C000880020935202309353024093540250933C
:1041D000550280916F00826080936F00C1CFC092C2
:1041E000B30020934E0230934F02409350025093FD
:1041F000510280917000826080937000B1CFF7010E
:10420000838D948D892B21F086AD97AD0E94560B3E
:10421000D7019F96ED91FC91D0979081D4968C9187
:1042200080958923808395CA0E94DA11F701858DD4
:10423000968D892B09F467C021AD32AD43AD54ADE5
:1042400060E074E284EF90E00E94A12120513109E6
:104250004109510956954795379527952093B80000
:1042600080E090E0892B09F42CC90E94550888232E
:1042700009F41EC90E9400001BC9D70105A4F6A5B8
:10428000E02D8081D3969C91892B8083AC14BD0452
:1042900069F2F60181916F01D7015B962D913C91F6
:1042A000232B19F00E944F0BF1CF28E030E040E8BB
:1042B000D7019996ED91FC919A97D1969C91582FA0
:1042C0005423E9F05081952B9083D7019B96ED9173
:1042D000FC919C979081D2965C91D297952B90837C
:1042E0009B96ED91FC919C975081D2969C919095D4
:1042F00095239083469521503109D1F6C7CF50813F
:1043000090959523E1CFD70107A4F0A9E02D8081F6
:10431000D4969C91892B8083A3CF97FB072E16F40C
:10432000009407D077FD09D00E94F12107FC05D049
:104330003EF4909581959F4F0895709561957F4FBC
:104340000895A1E21A2EAA1BBB1BFD010DC0AA1FD6
:10435000BB1FEE1FFF1FA217B307E407F50720F0EE
:10436000A21BB30BE40BF50B661F771F881F991F69
:104370001A9469F760957095809590959B01AC01B2
:10438000BD01CF010895052E97FB1EF400940E94F5
:10439000DA2157FD07D00E94A12107FC03D04EF47B
:1043A0000C94DA2150954095309521953F4F4F4F11
:1043B0005F4F089590958095709561957F4F8F4FD1
:1043C0009F4F0895A29FB001B39FC001A39F700D9E
:1043D000811D1124911DB29F700D811D1124911D0D
:1043E0000895AA1BBB1B51E107C0AA1FBB1FA6173C
:1043F000B70710F0A61BB70B881F991F5A95A9F78E
:1044000080959095BC01CD010895EE0FFF1F05909A
:10441000F491E02D09940E941F220C94D1220E9455
:10442000CA2258F00E94C32240F029F45F3F29F0CD
:104430000C94BA2251110C9405230C94C0220E94B2
:10444000E22268F39923B1F3552391F3951B550BA1
:10445000BB27AA2762177307840738F09F5F5F4F57
:10446000220F331F441FAA1FA9F335D00E2E3AF096
:10447000E0E832D091505040E695001CCAF72BD0AE
:10448000FE2F29D0660F771F881FBB1F26173707FF
:104490004807AB07B0E809F0BB0B802DBF01FF2731
:1044A00093585F4F3AF09E3F510578F00C94BA2232
:1044B0000C9405235F3FE4F3983ED4F386957795FB
:1044C0006795B795F7959F5FC9F7880F911D9695EA
:1044D000879597F90895E1E0660F771F881FBB1F46
:1044E000621773078407BA0720F0621B730B840BF3
:1044F000BA0BEE1F88F7E0950895E89409C097FB82
:104500003EF490958095709561957F4F8F4F9F4FAA
:104510009923A9F0F92F96E9BB279395F6958795EE
:1045200077956795B795F111F8CFFAF4BB0F11F4B1
:1045300060FF1BC06F5F7F4F8F4F9F4F16C0882358
:1045400011F096E911C0772321F09EE8872F762F8E
:1045500005C0662371F096E8862F70E060E02AF0CF
:104560009A95660F771F881FDAF7880F96958795BB
:1045700097F9089597F99F6780E870E060E00895E3
:104580009FEF80EC089500240A941616170618066B
:104590000906089500240A94121613061406050647
:1045A0000895092E0394000C11F4882352F0BB0FD8
:1045B00040F4BF2B11F460FF04C06F5F7F4F8F4F3B
:1045C0009F4F089557FD9058440F551F59F05F3F76
:1045D00071F04795880F97FB991F61F09F3F79F025
:1045E00087950895121613061406551FF2CF4695A7
:1045F000F1DF08C0161617061806991FF1CF869529
:104600007105610508940895E894BB27662777270C
:10461000CB0197F908950E947D2308F48FEF089548
:104620000E9423230C94D1220E94C32238F00E94BE
:10463000CA2220F0952311F00C94BA220C94C022C7
:1046400011240C9405230E94E22270F3959FC1F37C
:10465000950F50E0551F629FF001729FBB27F00D30
:10466000B11D639FAA27F00DB11DAA1F649F662785
:10467000B00DA11D661F829F2227B00DA11D621FD4
:10468000739FB00DA11D621F839FA00D611D221F8E
:10469000749F3327A00D611D231F849F600D211D72
:1046A000822F762F6A2F11249F5750409AF0F1F0F5
:1046B00088234AF0EE0FFF1FBB1F661F771F881F5E
:1046C00091505040A9F79E3F510580F00C94BA22BA
:1046D0000C9405235F3FE4F3983ED4F386957795D9
:1046E0006795B795F795E7959F5FC1F7FE2B880F04
:1046F000911D9695879597F90895990F0008550F84
:10470000AA0BE0E8FEEF16161706E807F907C0F057
:1047100012161306E407F50798F0621B730B840B5F
:10472000950B39F40A2661F0232B242B252B21F439
:1047300008950A2609F4A140A6958FEF811D811DD9
:1047400008950F931F93CF93DF938230910510F458
:1047500082E090E0E0911603F091170330E020E052
:10476000B0E0A0E0309799F42115310509F44AC072
:10477000281B390B24303105D8F58A819B816115BE
:10478000710589F1FB0193838283FE0111C0408191
:1047900051810281138148175907E0F048175907E2
:1047A00099F4109761F012960C93129713961C933C
:1047B0003296CF01DF91CF911F910F910895009311
:1047C000160310931703F4CF2115310551F042174A
:1047D000530738F0A901DB019A01BD01DF01F8019F
:1047E000C1CFEF01F9CF9093170380931603CDCF7C
:1047F000FE01E20FF31F8193919322503109398317
:104800002883D7CF2091140330911503232B41F433
:104810002091030130910401309315032093140378
:1048200020910101309102012115310541F42DB78C
:104830003EB74091050150910601241B350BE091D4
:104840001403F0911503E217F307A0F42E1B3F0B9E
:104850002817390778F0AC014E5F5F4F24173507F2
:1048600048F04E0F5F1F509315034093140381933C
:1048700091939FCFF0E0E0E09CCFCF93DF93009740
:10488000E9F0FC01329713821282A0911603B091D5
:104890001703ED0130E020E01097A1F42081318171
:1048A000820F931F209114033091150328173907A5
:1048B00009F061C0F0931503E0931403DF91CF91E9
:1048C0000895EA01CE17DF07E8F54A815B819E0172
:1048D00041155105B1F7E901FB83EA8349915991EB
:1048E000C40FD51FEC17FD0761F4808191810296FA
:1048F000840F951FE90199838883828193819B832B
:104900008A83F0E0E0E012968D919C9113970097D6
:10491000B9F52D913C911197CD010296820F931F0D
:1049200020911403309115032817390739F6309771
:1049300051F51092170310921603B0931503A0932C
:104940001403BCCFD383C28340815181840F951F50
:10495000C817D90761F44E5F5F4F88819981480F6E
:10496000591F518340838A819B81938382832115C0
:10497000310509F0B0CFF0931703E09316039ECFF3
:10498000FD01DC01C0CF13821282D7CF81E090E01D
:10499000F8940C94D224DC0101C06D934150504036
:0849A000E0F70895F894FFCF41
:1049A800FF000018038000000000008B08EB0718C8
:1049B80008D808490827083B0800000000AB117E0A
:1049C800111E141110771164115511000000009484
:1049D8000DEB071E14EE109F0A11103A1012102E3C
:1049E800102210411011105A0BC8130F0A580A5AF6
:1049F8000F3D0FC50E660E446973706C61793120E6
:104A0800696E697469616C697A6174696F6E206630
:104A180061696C65642C2065786974696E672E2EEF
:104A28002E2E0A0077652068657265000D0A003A27
:024A380000007C
:00000001FF
