:100000000C9446050C946E050C946E050C946E05CC
:100010000C946E050C946E050C946E050C946E0594
:100020000C946E050C946E050C946E050C946E0584
:100030000C946E050C946E050C946E050C946E0574
:100040000C9436150C946E050C94A6150C94801522
:100050000C946E050C946E050C946E050C946E0554
:100060000C94D8150C946E0500000000003E5B4F08
:100070005B3E3E6B4F6B3E1C3E7C3E1C183C7E3C08
:10008000181C577D571C1C5E7F5E1C00183C180016
:10009000FFE7C3E7FF0018241800FFE7DBE7FF30A6
:1000A000483A060E2629792926407F050507407F14
:1000B00005253F5A3CE73C5A7F3E1C1C08081C1C87
:1000C0003E7F14227F22145F5F005F5F06097F017D
:1000D0007F006689956A606060606094A2FFA29468
:1000E00008047E040810207E201008082A1C080836
:1000F0001C2A08081E101010100C1E0C1E0C303884
:100100003E3830060E3E0E06000000000000005F84
:1001100000000007000700147F147F14242A7F2AA0
:100120001223130864623649562050000807030062
:10013000001C2241000041221C002A1C7F1C2A08AE
:10014000083E080800807030000808080808000011
:1001500060600020100804023E5149453E00427F85
:10016000400072494949462141494D331814127FD4
:100170001027454545393C4A494931412111090774
:100180003649494936464949291E000014000000F5
:1001900040340000000814224114141414140041C7
:1001A00022140802015909063E415D594E7C121184
:1001B000127C7F494949363E414141227F414141BC
:1001C0003E7F494949417F090909013E4141517337
:1001D0007F0808087F00417F41002040413F017FA8
:1001E000081422417F404040407F021C027F7F0470
:1001F00008107F3E4141413E7F090909063E4151B9
:10020000215E7F09192946264949493203017F01A8
:10021000033F4040403F1F2040201F3F4038403FA9
:10022000631408146303047804036159494D4300BF
:100230007F4141410204081020004141417F0402F6
:10024000010204404040404000030708002054548D
:1002500078407F284444383844444428384444286B
:100260007F385454541800087E090218A4A49C78BE
:100270007F0804047800447D40002040403D007F1A
:100280001028440000417F40007C047804787C08FA
:100290000404783844444438FC18242418182424CE
:1002A00018FC7C08040408485454542404043F44B3
:1002B000243C4040207C1C2040201C3C4030403CE2
:1002C00044281028444C9090907C4464544C440042
:1002D00008364100000077000000413608000201A6
:1002E0000204023C2623263C1EA1A161123A404092
:1002F000207A38545455592155557941225454780F
:1003000042215554784020545579400C1E527212A7
:100310003955555559395454545939555454580030
:1003200000457C410002457D420001457C407D1234
:1003300011127DF0282528F07C5455450020545496
:100340007C547C0A097F4932494949323A44444441
:100350003A324A4848303A4141217A3A424020787C
:10036000009DA0A07D3D4242423D3D4040403D3C7D
:1003700024FF2424487E4943662B2FFC2F2BFF09A2
:1003800029F620C0887E0903205454794100004496
:100390007D413048484A32384040227A007A0A0A81
:1003A000727D0D19317D2629292F282629292926F4
:1003B00030484D4020380808080808080808382F39
:1003C00010C8ACBA2F102834FA00007B00000814C3
:1003D0002A142222142A14085500550055AA55AA99
:1003E00055AAFF55FF55FF000000FF00101010FF39
:1003F00000141414FF001010FF00FF1010F010F094
:10040000141414FC001414F700FF0000FF00FF1484
:1004100014F404FC141417101F10101F101F1414D0
:10042000141F00101010F0000000001F101010101A
:100430001F10101010F010000000FF10101010100E
:1004400010101010FF10000000FF140000FF00FF4C
:1004500000001F10170000FC04F4141417101714E8
:1004600014F404F40000FF00F7141414141414140A
:10047000F700F7141414171410101F101F1414147D
:10048000F4141010F010F000001F101F0000001FE7
:1004900014000000FC140000F010F01010FF10FF1A
:1004A000141414FF141010101F00000000F010FFAF
:1004B000FFFFFFFFF0F0F0F0F0FFFFFF0000000093
:1004C00000FFFF0F0F0F0F0F3844443844FC4A4A17
:1004D0004A347E02020606027E027E0263554941CC
:1004E000633844443C04407E201E2006027E020203
:1004F00099A5E7A5991C2A492A1C4C7201724C3017
:100500004A4D4D303048784830BC625A463D3E49ED
:100510004949007E0101017E2A2A2A2A2A44445F91
:10052000444440514A444040444A51400000FF0185
:1005300003E080FF000008086B6B08361236243693
:10054000060F090F060000181800000010100030F8
:1005500040FF0101001F01011E00191D1712003C80
:100560003C3C3C0000000000000103070F1F3F7FE0
:100570000080C0E0F0F8FCFEDB40A4A62EAF200017
:10058000A1C8D300408DAED580A800006000000057
:100590000000000000000000000000E0000000007B
:1005A00000000000000000000001E000000000006A
:1005B000000000000000000001F00000000000004A
:1005C0000000000000000003F00000000000000038
:1005D00000000000000007F0000000000000000024
:1005E000000000000007F80000000000000000000C
:1005F000000000000FF800000003C0007E000001B2
:10060000E0007F0FF800000003C000FE000001E0E2
:1006100000FFEFF800000003C000FE000001E00052
:10062000FFFFF800000003C000F00000000F007F93
:10063000FE7FC0000003C000F00000000F003FFE7E
:100640007FF83FF1FBCFFCFEF3BC3DEFE01FFE7FE8
:10065000FF7FFBFFDFFEFEFFBC3DEFE01FC6FFFF9D
:100660007FFBFFDFFEFEFFBC3DEFE00FE3C7FE7840
:100670007BC3DE1EF0FFBC3DEF0007FF87FC787BED
:10068000C3DE1EF0F83C3DEF0001FFFFF0007BC32E
:10069000C01EF0F03C3DEF0001F37FE03FFBC3CF15
:1006A000FEF0F03C3DEF0003E33F807FFBC3DFFE45
:1006B000F0F03C3DEF0007E73C00787BC3DE1EF026
:1006C000F03C3DEF0007FFBE00787BC3DE1EF0F07C
:1006D0003C3DEF0007FFFE00787BC3DE1EF0F03CE0
:1006E0003DEF000FFFFE007FFBFFDFFEF0F03FFD60
:1006F000EFE00FFFFF007FFBFFDFFEF0F03FFDEFBD
:10070000E00FF9FF003E79F9CF9EF0F01F3DE7E0E2
:100710001FF1FF0000000000000000000000001FAB
:1007200080FF007FFFFFFFFFFFFFFFFFFFE01C00D8
:100730007F007FFFFFFFFEB46D888D18E000001F73
:10074000007FFFFFFFFE95AD7DB577E000000F0055
:100750007FFFFFFFFEA5AD9D8D19E0000006007F25
:10076000FFFFFFFEB5ADEDB57EE00000000000012B
:100770008000000000000000000003800000000076
:10078000000000000007C0000000000000000000A2
:1007900007C00000000000000000000FC0000000C3
:1007A0000000000000001FE000000000000000004A
:1007B000001FE00000000000000000003FE000001B
:1007C000000000000000003FF000000000000000FA
:1007D00000007FF0000000000000001FF87FF00024
:1007E0000000000000003FFE7FF00000000000005D
:1007F000003FFF7FF0000000000000001FFFFBE053
:10080000000000000000000FFFF9FFC00000000022
:1008100000000FFFF9FFF800000000000007FFF1E3
:10082000FFFF00000000000003FC73FFFF800000DA
:1008300000000001FE3FFFFF80000000000000FFFD
:100840001E0FFF000000000000007FFE1FFC0000E4
:1008500000000000003FFFFFF80000000000000063
:100860000FDFFFE0000000000000001F19FFC000C4
:100870000000000000003F3CFF00000000000000FE
:10088000007E7CF800000000000000007FFE7C007D
:1008900000000000000000FFFFFC0000000000005E
:1008A0000000FFFFFE0000000000000000FFFFFE50
:1008B0000000000000000001FFEFFE00000000004B
:1008C000000001FFCFFE0000000000000003FF0752
:1008D000FE0000000000000003FC07FE0000000016
:1008E00000000003F003FE00000000000000018093
:1008F00000FE000000000000000000007E0000007C
:10090000000000000000003E0000000000000000A9
:1009100000000C000000000000078000FC00000345
:10092000C0000000078001FC000003C000000007B9
:100930008001FC000003C0000000078001E000000F
:10094000001E000000078001E00000001E007FE3A1
:10095000F79FF9FDE7787BDFC0FFF7FFBFFDFDFFE5
:10096000787BDFC0FFF7FFBFFDFDFF787BDFC0F0C6
:10097000F787BC3DE1FF787BDE00F0F787BC3DE107
:10098000F0787BDE0000F787803DE1E0787BDE00D9
:100990007FF7879FFDE1E0787BDE00FFF787BFFDF3
:1009A000E1E0787BDE00F0F787BC3DE1E0787BDEBC
:1009B00000F0F787BC3DE1E0787BDE00F0F787BC14
:1009C0003DE1E0787BDE00FFF7FFBFFDE1E07FFB6C
:1009D000DFC0FFF7FFBFFDE1E07FFBDFC07CF3F38B
:1009E0009F3DE1E03E7BCFC0000000000000000022
:1009F000000000FFFFFFFFFFFFFFFFFFFFC0FFFF43
:100A0000FFFFFD68DB111A31C0FFFFFFFFFD2B5A0E
:100A1000FB6AEFC0FFFFFFFFFD4B5B3B1A33C0FFDC
:100A2000FFFFFFFD6B5BDB6AFDC02200FF210000C2
:100A3000000000240027002A0000000000250028F4
:100A4000002B0000000000230026002900040404FD
:100A50000404040404020202020202030303030367
:100A60000301020408102040800102040810200144
:100A70000204081020000000080002010000030426
:100A800007000000000000000000F71611241FBE40
:100A9000CFEFD8E0DEBFCDBF11E0A0E0B1E0EAE6E5
:100AA000FFE302C005900D92A838B107D9F722E004
:100AB000A8E8B1E001C01D92AD3FB207E1F715E033
:100AC000C6E4D5E004C02197FE010E947C1EC53417
:100AD000D107C9F70E940A180C94B31F0C940000A8
:100AE000EF92FF920F931F93E091F702F091F802BB
:100AF0000190F081E02D84819581DC01ED91FC91E4
:100B000000A0F1A1E02DF12CE12C00E410E020E8A0
:100B100030E050E040E070E060E009951F910F91F7
:100B2000FF90EF9008953F924F925F926F927F9265
:100B30008F929F92AF92BF92CF92DF92EF92FF92ED
:100B40000F931F93CF93DF9300D000D0CDB7DEB7C4
:100B50009C838B833B016A015901DC01ED91FC917F
:100B60000284F385E02D09952801B7E04B0E511C56
:100B700093E0559447949A95E1F7C6018E0D9F1D19
:100B80009A838983912C812C312CF12CE12CC70183
:100B900087709927330C892B59F4F70183E0F59579
:100BA000E7958A95E1F7E80DF91DEA0DFB1D3490F4
:100BB00037FE10C0AB81BC81ED91FC91119704848C
:100BC000F585E02D21E030E0A601B701660D771D27
:100BD000CD010995BFEFEB1AFB0A0E151F05B9F6FB
:100BE0008FEFC81AD80A840C951CA981BA81CA163D
:100BF000DB0659F6AB81BC81ED91FC91119706881B
:100C0000F789E02DCD010F900F900F900F90DF919D
:100C1000CF911F910F91FF90EF90DF90CF90BF90F9
:100C2000AF909F908F907F906F905F904F903F908C
:100C30000994833081F028F4813099F08230A9F052
:100C400008958730A9F08830C9F08430B1F48091DC
:100C500080008F7D03C0809180008F77809380001B
:100C6000089584B58F7784BD089584B58F7DFBCFBB
:100C70008091B0008F778093B00008958091B0008C
:100C80008F7DF9CFCF93DF93282F30E0F901EB5818
:100C9000F54F8491F901EF59F54FD491F901E35BD8
:100CA000F54FC491CC23A1F081110E941906EC2FBD
:100CB000F0E0EE0FFF1FED5BF54FA591B491EC91C5
:100CC000ED2381E090E009F480E0DF91CF91089579
:100CD00080E090E0FACF1F93CF93DF93282F30E08E
:100CE000F901EB58F54F8491F901EF59F54FD49183
:100CF000F901E35BF54FC491CC23A9F0162F8111C4
:100D00000E941906EC2FF0E0EE0FFF1FE75CF54F95
:100D1000A591B4918FB7F894EC91111108C0D095BA
:100D2000DE23DC938FBFDF91CF911F910895DE2BDF
:100D3000F8CFCF93DF9390E0FC01EF59F54F24916A
:100D4000835B954FFC0184918823D1F090E0880F5C
:100D5000991FFC01E15DF54FA591B491FC01E75CA1
:100D6000F54FC591D49161110EC09FB7F8948C9145
:100D7000E22FE0958E238C932881E223E8839FBFA6
:100D8000DF91CF9108958FB7F894EC91E22BEC931B
:100D90008FBFF6CF3FB7F8948091440290914502FF
:100DA000A0914602B091470226B5A89B05C02F3FEF
:100DB00019F00196A11DB11D3FBFBA2FA92F982F81
:100DC0008827BC01CD01620F711D811D911D42E07C
:100DD000660F771F881F991F4A95D1F708958F9244
:100DE0009F92AF92BF92CF92DF92EF92FF924B0110
:100DF0005C010E94CA066B017C010E94CA066C1944
:100E00007D098E099F09683E734081059105A8F30D
:100E100021E0821A9108A108B10888EEC80E83E08B
:100E2000D81EE11CF11C81149104A104B10429F71E
:100E3000FF90EF90DF90CF90BF90AF909F908F90FA
:100E40000895EF92FF920F931F93CF93DF93082F94
:100E500061E088E00E946B0661E070E080E090E075
:100E60000E94EF0661E087E00E946B0661E070E09F
:100E700080E090E00E94EF0661E086E00E946B0651
:100E800061E070E080E090E00E94EF0660E086E0C4
:100E90000E946B0661E070E080E090E00E94EF0647
:100EA000D0E0C0E0EE24E394F12C10E0B7010C2E6A
:100EB00002C0660F771F0A94E2F7602371230C2E9D
:100EC00002C0759567950A94E2F787E00E946B0669
:100ED00061E070E080E090E00E94EF0661E086E073
:100EE0000E946B0661E070E080E090E00E94EF06F7
:100EF00060E086E00E946B0661E070E080E090E0D8
:100F00000E94EF062196C530D10581F660E087E0AA
:100F10000E946B0661E070E080E090E00E94EF06C6
:100F200061E086E00E946B0661E070E080E090E0A6
:100F30000E94EF0660E086E00E946B0661E070E0D0
:100F400080E090E00E94EF0661E087E00E946B067F
:100F500061E070E080E090E00E94EF0661E086E0F2
:100F60000E946B0661E070E080E090E00E94EF0676
:100F700060E087E00E94990661E070E080E090E028
:100F80000E94EF06D0E0C0E010E060E086E00E9442
:100F90006B0661E070E080E090E00E94EF0687E081
:100FA0000E9442060C2E01C0880F0A94EAF7180F1F
:100FB00061E086E00E946B0661E070E080E090E016
:100FC0000E94EF062196C830D105F9F660E086E070
:100FD0000E946B0661E070E080E090E00E94EF0606
:100FE00060E086E00E946B0661E070E080E090E0E7
:100FF0000E94EF0661E087E00E94990661E070E0E0
:1010000080E090E00E94EF06812FDF91CF911F9149
:101010000F91FF90EF90089508950895AF92BF92B9
:10102000CF92DF92EF92FF920F931F93CF93DF93B4
:101030006C017B018B01040F151FEB015E01AE18E3
:10104000BF08C017D10759F06991D601ED91FC9105
:101050000190F081E02DC6010995892B79F7C50132
:10106000DF91CF911F910F91FF90EF90DF90CF9084
:10107000BF90AF900895FC01538D448D252F30E033
:10108000842F90E0821B930B541710F0CF96089595
:1010900001970895FC01918D828D981761F0A28DC2
:1010A000AE0FBF2FB11D5D968C91928D9F5F9F7388
:1010B000928F90E008958FEF9FEF0895FC01918D3E
:1010C000828D981731F0828DE80FF11D858D90E0AB
:1010D00008958FEF9FEF0895FC01918D228D892F48
:1010E00090E0805C9F4F821B91098F739927089530
:1010F00088E492E00E946C0821E0892B09F420E04A
:10110000822F089580E090E0892B29F00E947808D2
:1011100081110C9400000895FC01A48DA80FB92F33
:10112000B11DA35ABF4F2C91848D90E001968F730F
:101130009927848FA689B7892C93A089B1898C912E
:10114000837080648C93938D848D981306C002887D
:10115000F389E02D80818F7D80830895EF92FF9247
:101160000F931F93CF93DF93EC0181E0888F9B8DCA
:101170008C8D98131AC0E889F989808185FF15C084
:101180009FB7F894EE89FF896083E889F9898081A7
:101190008370806480839FBF81E090E0DF91CF9176
:1011A0001F910F91FF90EF900895F62E0B8D10E098
:1011B0000F5F1F4F0F731127E02E8C8D8E110CC007
:1011C0000FB607FCFACFE889F989808185FFF5CF52
:1011D000CE010E948C08F1CFEB8DEC0FFD2FF11D9D
:1011E000E35AFF4FF0829FB7F8940B8FEA89FB898F
:1011F00080818062CFCFCF93DF93EC01888D8823ED
:10120000B9F0AA89BB89E889F9898C9185FD03C069
:10121000808186FD0DC00FB607FCF7CF8C9185FF4E
:10122000F2CF808185FFEDCFCE010E948C08E9CFFF
:10123000DF91CF910895EF92FF920F931F93CF9379
:10124000DF93EC01EC80FD806E157F050CF070C023
:1012500057FF04C0240F351F50E040E08E819F816E
:10126000FA01E20FF31F8E179F071CF49C01241B49
:10127000350B121613060CF05BC0922F842F869547
:10128000869586958E9DD0018F9DB00D11246A0F95
:101290007B1FAF8DB8A1A60FB71F477049F188E03B
:1012A000841B482F682F70E0FB01E059FA4FE4914E
:1012B000281708F063C0621B71092FEF30E002C0ED
:1012C000359527956A95E2F7E2230130110539F04B
:1012D000B0F10230110561F58C91E82702C08C91C4
:1012E000E82BEC93941720F12C813D81A20FB31FC2
:1012F000E92FE41BE83078F00230110521F58E2F3C
:101300009C9190959C932C813D81A20FB31F885096
:101310008830B0F7E770EE2359F0F0E0E859FA4F63
:10132000E49101301105F9F010F10230110519F1C5
:10133000DF91CF911F910F91FF90EF900895E0956D
:101340008C91E823CECF81E00115110509F480E0EE
:1013500081959E2F8C932C813D81A20FB31F9850B5
:101360009830C0F7D7CF8C91E82BEC93E1CFE09584
:101370008C91E823FACF8C91E827F7CF0130110543
:1013800009F4ADCFE0F20230110509F4A5CFAE0D9E
:10139000BF1DAECF0F931F93CF93DF9377FF04C092
:1013A000260F371F70E060E0DC011496CD91DC91D0
:1013B000FB01E20FF31FCE17DF071CF49E01261B73
:1013C000370B121613064CF5FA0157FD3796A3E0BA
:1013D000F595E795AA95E1F7EC9FD001ED9FB00D4B
:1013E000FC9FB00D11246A0F7B1FDC015F96ED910D
:1013F000FC91E60FF71F4770552781E090E001C090
:10140000880F4A95EAF7482F0130110559F0A8F0E6
:101410002E0F3F1F02301105E1F0DF91CF911F9198
:101420000F9108952E0F3F1FE217F307B1F381913B
:10143000DF011197842B8C93F7CF80952E0F3F1FE0
:10144000E217F30751F39191DF01119798239C93D1
:10145000F7CFE217F30709F38191DF011197842792
:101460008C93F7CF0F931F93FA01DC0156964C91A2
:1014700056974230E9F04330A1F1413061F51496BE
:101480004D915C91DA01AE1BBF0BFD01E21BF30B2A
:1014900077FD0BC0DC0116964D915C9164177507C2
:1014A00024F4AB01BF010E94CA091F910F91089556
:1014B00014964D915C91DA01A61BB70BBD016150EA
:1014C0007109DC0116964D915C91DA01AE1BBF0BE0
:1014D000FD01E21BF30B77FDE8CFAF010E941B0972
:1014E000E4CF16964D915C91DA01A61BB70BBD01B6
:1014F00061507109CDCF0F931F93FA01DC0156960D
:101500004C9156974230A9F0433091F1413019F592
:1015100014964D915C91DA01AE1BBF0BFD01319722
:10152000F7FD04C0AB01BF010E941B091F910F9181
:10153000089514964D915C91DA01A61BB70BBD017D
:10154000DC0116964D915C91DA01AE1BBF0BFD01DB
:101550003197621B730BF7FDE9CFDC0116964D91B5
:101560005C91E417F50714F7AF010E94CA09DECFBA
:1015700016964D915C91DA01A61BB70BBD01621B5B
:10158000730BCECFFC0177FD64C080859185681711
:1015900079070CF05EC057FD5CC0828593854817C3
:1015A00059070CF056C086898230B1F0833029F19A
:1015B000813041F484819581841B950BAB01BC0182
:1015C000615071092130310509F108F443C022301E
:1015D000310509F463C0089584819581DC01A61B5F
:1015E000B70BBD016150710986819781DC01A41B95
:1015F000B50BAD0141505109E5CF86819781861B1E
:10160000970BBA01AC0141505109DCCFCA0157FD1B
:101610000796A3E095958795AA95E1F7A481B581F2
:101620008A9F90018B9F300D9A9F300D1124620F7D
:10163000731F078CF0A1E02DE60FF71F47705527A9
:1016400021E030E001C0220F4A95EAF78081822B29
:1016500080830895CA0157FD079633E095958795D5
:101660003A95E1F7A481B5818A9F90018B9F300D57
:101670009A9F300D1124620F731F078CF0A1E02D8B
:10168000E60FF71F4770552781E090E001C0880FF3
:101690004A95EAF7809590818923DACFCA0157FDF0
:1016A000079623E0959587952A95E1F7A481B58162
:1016B0008A9F90018B9F300D9A9F300D1124620FED
:1016C000731F078CF0A1E02DE60FF71F4770552719
:1016D00021E030E001C0220F4A95EAF7808182279D
:1016E000B7CF08958EBD00000DB407FEFDCF8EB5B7
:1016F00008958CBD9DBD08950895FC016370668BAF
:101700008481958126813781613039F0633029F0F9
:101710009187808733872287089531872087938731
:10172000828708952F923F924F925F926F927F929D
:101730008F929F92AF92BF92CF92DF92EF92FF92E1
:101740000F931F93CF93DF93CDB7DEB76A970FB692
:10175000F894DEBF0FBECDBF9A8F898F7A836983DD
:101760004A01D22E18870F833701BC2CDC01599611
:101770002D913C915A972115310509F015C1189604
:101780008D919C911997681779070CF0D7C11A961B
:101790008D919C91481759070CF0D0C14C2C512CBD
:1017A000B6E0CB9E600D711D11247C876B871616E9
:1017B00017060CF0C3C1EA2DF0E0FA87E98793E041
:1017C000EE0FFF1F9A95E1F7F88BEF87CF01840F9B
:1017D000951F181619060CF0B1C1A98DBA8D58962F
:1017E0008C91811104C0BFEABD1508F4D394A98D72
:1017F000BA8DED91FC9111970284F385E02DCD0116
:101800000995B5E0DB9EC0011124E981FA81FC83D2
:10181000EB83312C212C9C0128593F4F388F2F8B83
:101820004A2D50E05E8B4D8BEF89F88DE20DF31D54
:1018300044919E828D82D12CC12C69817A81620D66
:10184000731D7A8B698B842F90E09C8B8B8BE98D39
:10185000FA8DA081B18140FF82C0F1E0BF126FC05C
:10186000AF126DC01C96ED91FC912F813885A401BB
:101870004C0D5D1D69897A89898D9A8D0995EB8951
:10188000FC89F595E7954E2F5FEFC51AD50A6D8156
:101890007E818D899E89680F791F7E836D8398E094
:1018A000C916D10481F6AFEF2A1A3A0AEB81FC81FE
:1018B000E40DF51DFC83EB83F5E02F16310409F0F0
:1018C000B3CF2F81388526153705B9F0A98DBA8D8C
:1018D000ED91FC91B1E0BB1257C0AB1255C06981CC
:1018E0007A816B5F7F4F0088F189E02D830128E0CA
:1018F00030E0A401898D9A8D0995A98DBA8DED915D
:10190000FC9111970688F789E02DCD016A960FB6F4
:10191000F894DEBF0FBECDBFDF91CF911F910F9125
:10192000FF90EF90DF90CF90BF90AF909F908F90FF
:101930007F906F905F904F903F902F9009941E96EC
:10194000ED91FC91EF80F88409851A8592014D8113
:101950005E816B817C81898D9A8D099590CF2F81D5
:1019600038852615370509F48ACF31E0B31207C050
:10197000A31205C01C96ED91FC91930178CF1E96A1
:10198000ED91FC917301E0CF6B857C85641975093D
:101990000684F785E02D73010F8518899201A40153
:1019A000898D9A8D0995A9CFF90134969491329732
:1019B00045915491D91AB7E0DB9E400D511D112479
:1019C000F901259134913C8B2B8BFA0125903490B1
:1019D000FA013296749031963491398B3296649034
:1019E0003196449041E04C1518F04A1508F07FC03C
:1019F000662D062C000C770B7C836B83842D042CC6
:101A0000000C990B9E838D83A98DBA8DED91FC916D
:101A100011970284F385E02DCD010995512CD12C2D
:101A2000C12CEA2DF0E0FA87E9872B2D30E03C87C6
:101A30002B87A401440D511D47FC5A95588F4F8B9D
:101A400069817A81660D711D67FC7A957E876D8745
:101A50007989C71608F051CF2C2D30E04D815E8179
:101A6000420F531FA985BA854A9FC0014B9F900D15
:101A70005A9F900D1124FC01E80DF91DF88BEF879A
:101A8000852D612C4F89588D420F531F5E8B4D8BD6
:101A9000671408F050C044244394480E877041F402
:101AA000C1010196EB89FC89E20DF31DD4901C0164
:101AB000D7FE19C0A98DBA8DED91FC91662D70E00D
:101AC000B1E0BB1219C0AB1217C02D853E85620F65
:101AD000731F0484F585E02D2F8138854D895E893B
:101AE000898D9A8D0995DD0C6394842DD1CF1E824A
:101AF0001D821C821B8288CF4B815C81640F751F05
:101B0000AB85BC856A9FC0016B9F900D7A9F900D3D
:101B1000112469817A81680F791F0684F785E02D89
:101B2000EF80F88409851A859D014F855889898D34
:101B30009A8D0995D8CF570CC3948ACF6A960FB661
:101B4000F894DEBF0FBECDBFDF91CF911F910F91F3
:101B5000FF90EF90DF90CF90BF90AF909F908F90CD
:101B60007F906F905F904F903F902F9008958F924D
:101B70009F92AF92CF92EF92FF920F931F93CF93CA
:101B8000DF93EC01262F898D9A8D009709F051C0C3
:101B90006A30D1F41D861C868D8948E0849F9001AF
:101BA00011248E859F85820F931F9F878E8781E0EA
:101BB00090E0DF91CF911F910F91FF90EF90CF9028
:101BC000AF909F908F9008956D3089F3CC88AD8849
:101BD0008F898823C1F08C859D8536E0C39E800D5A
:101BE000911D1124488559854817590764F44E857D
:101BF0005F851D861C8638E0A39EC0011124840FDA
:101C0000951F9F878E87EA88FB88088919894E85EA
:101C10005F856C857D85CE010E94920B2C898C8519
:101C20009D8546E0249F800D911D11249D878C8702
:101C3000BECF6A3069F41D861C86FC013896E4919B
:101C40002D898E859F85E29F800D911D1124ADCF3A
:101C50006D3009F4ACCFFC0134963491631708F46D
:101C6000A6CF3296E491E61708F4A1CFFC01329694
:101C700085909490462F431B342F47E0349F800C6F
:101C8000911C1124F401329634913196E49133235E
:101C9000A9F1EE2399F1CC88F4013596E491AD8851
:101CA0004F89442301F10E2E000CFF0BE30FF11DB1
:101CB000CE9EA001CF9E500D11246C857D85460FD0
:101CC000571F68857985641775076CF44E855F85A5
:101CD0001D861C86FC013896E491AE9E400D511D78
:101CE00011245F874E87EA88FB88088919894E8509
:101CF0005F856C857D85CE010E94920BF401349640
:101D0000E4912C898C859D85E29F800D911D112485
:101D10008DCF6F927F928F929F92AF92BF92CF9210
:101D2000DF92EF92FF920F931F93CF93DF93EC011B
:101D30006B015A0139014801E881F9810284F38578
:101D4000E02D0995E881F9810288F389E02D87016A
:101D50009301A501B601CE010995A501480D591DB4
:101D600041505109E881F9810288F389E02D9301FE
:101D7000B601CE010995E881F9810088F189E02D4D
:101D80009401A501B601CE010995C60CD71CB60178
:101D900061507109E881F9810088F189E02D940191
:101DA000A501CE010995E881F9810688F789E02D22
:101DB000CE01DF91CF911F910F91FF90EF90DF90B7
:101DC000CF90BF90AF909F908F907F906F9009942D
:101DD0006F927F928F929F92AF92BF92CF92DF923B
:101DE000EF92FF920F931F93CF93DF935C01EB0170
:101DF0006A01490138018701DC01ED91FC9162170C
:101E0000730719F5641675062CF0962D872D3A0187
:101E1000C92ED82E9601261937092F5F3F4F048C03
:101E2000F58DE02DA301BE01C5010995DF91CF918C
:101E30001F910F91FF90EF90DF90CF90BF90AF90E8
:101E40009F908F907F906F9008954615570591F45D
:101E50002617370724F0892D4B01C22FD82F9E015A
:101E6000281939092F5F3F4F068CF78DE02DA60109
:101E7000B401DACF0284F385E02D0995D501ED9107
:101E8000FC910488F589E02D83019401A601BE012F
:101E9000C5010995D501ED91FC910688F789E02DE2
:101EA000C501DF91CF911F910F91FF90EF90DF90CF
:101EB000CF90BF90AF909F908F907F906F9009943C
:101EC000EF92FF920F931F93DC011A960D911C91D4
:101ED0001B9718962D913C911997ED91FC9100A0BC
:101EE000F1A1E02D7B0150E040E070E060E0099559
:101EF0001F910F91FF90EF9008954F925F926F9214
:101F00007F928F929F92AF92BF92CF92DF92EF9289
:101F1000FF920F931F93CF93DF936C012B015A0114
:101F200039014801DC01ED91FC910284F385E02D3B
:101F30000995E201640C751CD601ED91FC91C61562
:101F4000D7055CF40088F189E02D87019401A50193
:101F5000BE01C60109952196EFCF0688F789E02DCD
:101F6000C601DF91CF911F910F91FF90EF90DF900D
:101F7000CF90BF90AF909F908F907F906F905F9029
:101F80004F9009948F929F92AF92BF92CF92DF921F
:101F9000EF92FF920F931F93CF93DF93EC015B01BE
:101FA0004A016901E881F9810284F385E02D0995F0
:101FB00095012C0D3D1D21503109E881F9810488DE
:101FC000F589E02D78018401A401B501CE010995C0
:101FD000E881F9810688F789E02DCE01DF91CF9164
:101FE0001F910F91FF90EF90DF90CF90BF90AF9037
:101FF0009F908F9009948F929F92AF92BF92CF92B1
:10200000DF92EF92FF920F931F93CF93DF93EC0138
:102010005B014A0169017801E881F9810284F38555
:10202000E02D0995C80CD91C860101501109E881E1
:10203000F9810488F589E02D9501A401B501CE014F
:102040000995E881F9810688F789E02DCE01DF91B5
:10205000CF911F910F91FF90EF90DF90CF90BF90A5
:10206000AF909F908F9009940895EF92FF920F93F5
:102070001F93DC01ED91FC9100A0F1A1E02D0995E9
:102080001F910F91FF90EF9008950F931F93DC0124
:10209000ED91FC91068CF78DE02D09951F910F9124
:1020A00008950F931F93DC01ED91FC91048CF58D45
:1020B000E02D09951F910F910895DC01ED91FC91A0
:1020C0000084F185E02D09942F923F924F925F9208
:1020D0006F927F928F929F92AF92BF92CF92DF9238
:1020E000EF92FF920F931F93CF93DF9300D000D016
:1020F00000D0CDB7DEB73C016A013E832D83FC8260
:10210000EB825801A41AB50AB7FE03C0B194A1949A
:10211000B1088D809E80861A970A97FE03C091941D
:10212000819491088A149B045CF0902F812F0D817B
:102130001E819D838E839C2D8D2D6B01692F782FA1
:102140000C151D055CF09D818E817E836D83692F4A
:10215000782F902F812F8601C92ED82E1601201A94
:10216000310A2B012D813E81421A530A57FE03C0CA
:10217000519441945108710137FE03C03FEFE31AB7
:10218000F30AF594E7948D819E81861797075CF595
:10219000A1E0B0E0BA83A983C016D1064CF1D30107
:1021A000ED91FC910484F585E02D2B813C81A80103
:1021B0006D817E818A149B041CF04D815E81B80183
:1021C000C3010995E418F508F7FE0AC02D813E8188
:1021D00089819A81280F391F3E832D83E20CF31CDD
:1021E0000F5F1F4FD9CF2FEF3FEF3A832983D4CF13
:1021F00026960FB6F894DEBF0FBECDBFDF91CF910C
:102200001F910F91FF90EF90DF90CF90BF90AF9014
:102210009F908F907F906F905F904F903F902F9006
:10222000089508952091EE01260F3327331F2132A0
:102230003105ECF420911202FC0190E080E02430A2
:1022400069F082E00895A091EE012191AC01425322
:102250005E4FA40FB52FB11D2C930196861798F3EE
:102260008091EE01680F6093EE0180E0089581E0B7
:1022700008951092120281E08093140210921302CA
:1022800061E082E10E946B0661E083E10E946B06DF
:10229000E9EBF0E080818E7F808380818D7F808379
:1022A00088E48093B80085E48093BC000895CF93C0
:1022B000DF9391E09093CD018823B9F0C091B800ED
:1022C000D091BA008091BC008A7B8093BC0060E012
:1022D00082E10E946B0660E083E10E946B060E942F
:1022E0003911D093BA00C093B800DF91CF9108950F
:1022F000E0913E0280913D02E81730F4F0E0E855AD
:10230000FE4F808190E008958FEF9FEF08959091A8
:102310003E0280913D022FEF3FEF981748F4E92FDE
:10232000F0E0E855FE4F208130E09F5F90933E0241
:10233000C901089580913D0290913E02891B990B3D
:102340000895CF92DF92EF92FF920F931F93CF9356
:10235000DF937C01CB018A0120914202222389F084
:10236000EB016B01C40ED51ECC15DD0569F069913A
:10237000D701ED91FC910190F081E02DC701099505
:10238000F3CF642F0E941211C801DF91CF911F91EA
:102390000F91FF90EF90DF90CF900895CF93DF9350
:1023A0001F92CDB7DEB76983209142022223F9F054
:1023B00020913F02203258F021E030E0FC013383CD
:1023C000228390E080E00F90DF91CF91089580917B
:1023D0004002E82FF0E0E857FE4F998190838F5F2D
:1023E0008093400280933F0281E090E0ECCF61E077
:1023F000CE0101960E941211F7CFCF92DF92EF9299
:10240000FF920F931F93CF93DF93D0913F0281E010
:10241000D13208F09CC0C09141020E94CA066B01F3
:102420007C018091120281116CC082E080931202C3
:1024300081E0809314028FEF809311021092360294
:10244000D0933502A8E8B1E0E5E1F2E080E0D813EE
:102450008DC01092370280913702CC0FC82BC093E9
:10246000370280911302813009F084C01092130268
:102470000E94CA066B017C01809137028093BB00E9
:102480008091C9019091CA01A091CB01B091CC017A
:10249000892B8A2B8B2BA1F00E94CA060091C901BF
:1024A0001091CA012091CB013091CC016C197D09AA
:1024B0008E099F09061717072807390708F442C035
:1024C0008091BC0083FDD8CF85EC8093BC000E9436
:1024D000CA066B017C0180911202823009F44CC063
:1024E000809111028F3F09F469C0809111028032FE
:1024F00009F466C080911102803309F463C084E05E
:1025000026C08091C9019091CA01A091CB01B091E0
:10251000CC01892B8A2B8B2B09F483CF0E94CA060E
:102520000091C9011091CA012091CB013091CC01D9
:102530006C197D098E099F090617170728073907A7
:1025400008F06FCF8091C8010E94571185E010926A
:10255000400210923F0210924202DF91CF911F91F0
:102560000F91FF90EF90DF90CF9008959D91919300
:102570008F5F6DCF85EEA9CF8091C9019091CA017F
:10258000A091CB01B091CC01892B8A2B8B2B09F424
:10259000A2CF0E94CA060091C9011091CA012091E0
:1025A000CB013091CC016C197D098E099F0906176A
:1025B00017072807390708F08ECFC4CF80E0C7CFB0
:1025C00082E0C5CF83E0C3CFCF92DF92EF92FF923C
:1025D0000F931F93CF93DF93EC016B01142F8D8D1D
:1025E0009E8D009709F454C029A131E03093420236
:1025F000209341021092400210923F02DC01ED91C3
:10260000FC910190F081E02D60E009957601CC24E9
:10261000C394D12C01E011508D8D9E8D1F3F71F11F
:10262000B0E2CB16D104C0F00E94FD118D8D9E8DBD
:1026300029A100934202209341021092400210927D
:102640003F02DC01ED91FC910190F081E02D60E012
:102650000995CC24C394D12C8D8D9E8DF701649166
:10266000DC01ED91FC910190F081E02D0995BFEF27
:10267000CB1ADB0AEFEFEE1AFE0ACDCFDF91CF9136
:102680001F910F91FF90EF90DF90CF900C94FD1170
:10269000EDA5FEA590818BA98095892380837B0180
:1026A000115070F1F70184912B8D3C8D232B31F06B
:1026B0000E94720BFFEFEF1AFF0AF2CF28E030E022
:1026C00040E8E9A5FAA599A9582F5423A9F050810B
:1026D000952B9083EBA5FCA590815AA9952B90830F
:1026E000EBA5FCA550819AA99095952390834695DA
:1026F0002150310931F7DECF508190959523E9CFF4
:10270000DF91CF911F910F91FF90EF90DF90CF90CD
:1027100008951F93CF93DF93EC018D8D9E8D0097CD
:1027200021F1162F29A131E030934202209341027A
:102730001092400210923F02DC01ED91FC91019059
:10274000F081E02D60E009958D8D9E8DDC01ED918D
:10275000FC910190F081E02D612F09958D8D9E8D6A
:10276000DF91CF911F910C94FD11ADA5BEA59C9159
:102770008BA9809589238C938B8D9C8D892B31F02F
:10278000862FDF91CF911F910C94720B28E030E0DF
:1027900080E8A9A5BAA599A9462F4823C1F04C9174
:1027A000942B9C93ABA5BCA59C914AA9942B9C937C
:1027B000ABA5BCA54C919AA9909594239C93869522
:1027C0002150310931F7DF91CF911F9108954C913C
:1027D00090959423E6CF1F93CF93DF93EC01162FB0
:1027E0008D8D9E8D892BB1F12DA93EA94FA958AD94
:1027F00060E074E284EF90E00E94461E20513109AF
:102800004109510956954795379527952093B8006A
:1028100066EA111167EACE010E9489138D8D9E8DA3
:10282000892B41F129AD3AAD4BAD5CAD60E074E26E
:1028300084EF90E00E94461E205131094109510960
:1028400056954795379527952093B800DF91CF91FE
:102850001F9108958B8D9C8D892B21F08EAD9FAD9E
:102860000E94790BEFA5F8A990818CA98095892306
:102870008083CECFEFA5F8A980819CA9892B808386
:10288000E5CF90E080E008950E94A71FFB01019032
:102890000020E9F73197AF01461B570BDC01ED91A2
:1028A000FC910280F381E02D09944F925F926F9228
:1028B0007F928F929F92AF92BF92CF92DF92EF92D0
:1028C000FF920F931F93CF93DF93CDB7DEB7A197FE
:1028D0000FB6F894DEBF0FBECDBF8C016B01770F32
:1028E000EE08FF08F7FE49C0DC01ED91FC91019074
:1028F000F081E02D6DE209955C0122273327A901C3
:102900002C193D094E095F0919A2FE01B1967F01FC
:102910009AE0492E512C612C712CCA01B901A301F6
:1029200092010E94461E605DD7016E937D012115C4
:1029300031054105510589F790E080E0109721F0BD
:10294000BD01C8010E9446148A0D9B1DA1960FB6B9
:10295000F894DEBF0FBECDBFDF91CF911F910F91D5
:10296000FF90EF90DF90CF90BF90AF909F908F90AF
:102970007F906F905F904F900895A701960119A2E4
:10298000FE01B1967F018AE0882E912CA12CB12CFA
:10299000CA01B901A50194010E94461E605DD701DC
:1029A0006E937D01211531054105510589F790E0B0
:1029B00080E0109759F2BD01C8010E944614C6CFAD
:1029C000FC01868197819C01295F3F4F37FF02C040
:1029D000295F3F4F83E0359527958A95E1F78481FC
:1029E0009581289FA001299F500D389F500D1124DB
:1029F00070E060E0878D90A10C94AC1F85ED809312
:102A0000BC008091C9019091CA01A091CB01B09105
:102A1000CC010796A11DB11D23E0B695A79597950A
:102A200087952A95D1F72091BC0024FD03C0109210
:102A3000120208954091C9015091CA016091CB01E1
:102A40007091CC01452B462B472B69F30097A105CC
:102A5000B10541F025E32A95F1F700000197A1099E
:102A6000B109E1CF8091C8010C9457111F920F92C8
:102A70000FB60F9211242F933F938F939F93AF9391
:102A8000BF938091F1029091F202A091F302B09174
:102A9000F4023091430223E0230F2D3758F50196BD
:102AA000A11DB11D209343028093F1029093F20285
:102AB000A093F302B093F4028091440290914502F6
:102AC000A0914602B09147020196A11DB11D8093CD
:102AD000440290934502A0934602B0934702BF91EF
:102AE000AF919F918F913F912F910F900FBE0F90BB
:102AF0001F90189526E8230F0296A11DB11DD2CF75
:102B00001F920F920FB60F9211242F933F934F9362
:102B10005F936F937F938F939F93AF93BF93EF9345
:102B2000FF9388E492E00E948C08FF91EF91BF919F
:102B3000AF919F918F917F916F915F914F913F9155
:102B40002F910F900FBE0F901F9018951F920F920C
:102B50000FB60F9211242F938F939F93EF93FF93B0
:102B6000E0915802F09159028081E0915E02F0916B
:102B70005F0282FD1BC09081809161028F5F8F7325
:102B800020916202821741F0E0916102F0E0E85B7F
:102B9000FD4F958F80936102FF91EF919F918F91EF
:102BA0002F910F900FBE0F901F9018958081F4CF3A
:102BB0001F920F920FB60F9211242F933F934F93B2
:102BC0005F936F937F938F939F93AF93BF93EF9395
:102BD000FF938091B900887F803609F44AC0F0F5F0
:102BE000883209F4A7C018F5803109F49BC0B8F405
:102BF000882309F4F9C0883009F494C0FF91EF915B
:102C0000BF91AF919F918F917F916F915F914F9104
:102C10003F912F910F900FBE0F901F901895883104
:102C200009F488C0803251F78093110214C08034B7
:102C300009F49DC040F48033B9F38833F9F68093EA
:102C4000110285ECB0C0803509F485C0883509F4DF
:102C500096C0883499F60E94FE14D0CF883909F4C2
:102C60008CC038F5883729F050F4883611F0803759
:102C700029F683E0809312021092100257C0883820
:102C800009F47BC0803919F0803809F0B7CF809102
:102C90001002803208F071C0E091100281E08E0FC6
:102CA000809310028091BB00F0E0E051FE4F8083E2
:102CB0003DC0803B39F0E0F4803A09F479C0883AAD
:102CC00009F09CCF84E0809312021092EF011092E1
:102CD000EE01E0913B02F0913C0209958091EE01FA
:102CE00081110FC081E08093EE011092CE0109C0E6
:102CF000803C09F4A6CF883C09F4A3CF883B09F0B7
:102D00007DCFE091EF0181E08E0F8093EF01F0E045
:102D1000E253FE4F80818093BB009091EF01809140
:102D2000EE0129C0809137028093BB0085EC80932F
:102D3000BC0064CF9091360280913502981758F507
:102D4000E091360281E08E0F80933602F0E0EB5E78
:102D5000FD4F8081E9CFE091360281E08E0F8093B4
:102D600036028091BB00F0E0EB5EFD4F80839091D6
:102D70003602809135029817C8F285E8D8CFE091E5
:102D8000360281E08E0F809336028091BB00F0E026
:102D9000EB5EFD4F80838091140281115CCF81E056
:102DA0008093130284EA8093BC001092120226CF13
:102DB00085EC8093BC001092120280911002803248
:102DC00030F4E0911002F0E0E051FE4F108260918B
:102DD000100270E0E0913902F0913A0280EF91E048
:102DE0000995109210020ACF1092110234CFAF92BF
:102DF000BF92CF92DF92EF92FF920F931F93CF93E8
:102E0000DF93E8E4F2E01382128288EE93E0A0E020
:102E1000B0E084839583A683B7832AE031E03183D1
:102E2000208325EC30E03587248724EC30E0378799
:102E3000268720EC30E0318B208B21EC30E0338B87
:102E4000228B22EC30E0358B248B26EC30E0378B64
:102E5000268B118E128E138E148E25EEE22E22E01A
:102E6000F22EF7011382128284839583A683B7839F
:102E70008CE191E09183808382E190E00E94821E48
:102E80008C0180E190E00E94821EEC0130E8A32ECC
:102E9000B12CB982A88240E4C42ED12CDB82CA8234
:102EA00080E490E00E94821EFC0113821282B582AF
:102EB000A482D782C682B186A086D386C286168AAD
:102EC000158614861786168681E0858B848B2FEFF6
:102ED0003FEF338B228B318B208B878B108E128EA2
:102EE000118E8EE291E091838083148E138EF68E84
:102EF000E58E10A2178E8FEF84A385A386A387A3E8
:102F000080A780E89AE1A6E0B0E085AB96ABA7ABDE
:102F1000B0AF80EA96E8A1E0B0E081AF92AFA3AF96
:102F2000B4AF80E586AF17AEFD83EC8381E090E01F
:102F30009F838E831986188620E230E03B872A879C
:102F40009D878C871E861F86F801D183C0832FB78B
:102F5000F8948091F1029091F202A091F302B09165
:102F6000F4022FBF82839383A483B58316821782D2
:102F70001086118612861386148615861686178685
:102F8000118A108A61E08CE00E94990661E08BE072
:102F90000E94990661E08AE00E94990660E08CE058
:102FA0000E946B0660E08BE00E946B0660E08AE0A6
:102FB0000E946B061093F8020093F70281E090E004
:102FC0000E94821EEC0161E086E00E94990660E0AA
:102FD00086E00E946B0661E088E00E94990660E04E
:102FE00088E00E946B0661E087E00E94990660E03D
:102FF00087E00E946B06D093F602C093F502DF9142
:10300000CF911F910F91FF90EF90DF90CF90BF90E5
:10301000AF900895CF93DF93CDB7DEB7AE970FB6DD
:10302000F894DEBF0FBECDBF789484B5826084BDB6
:1030300084B5816084BD85B5826085BD85B58160BC
:1030400085BD80916E00816080936E00109281003A
:1030500080918100826080938100809181008160F5
:1030600080938100809180008160809380008091B6
:10307000B10084608093B1008091B0008160809342
:10308000B00080917A00846080937A0080917A0009
:10309000826080937A0080917A00816080937A00C8
:1030A00080917A00806880937A001092C100E0914C
:1030B0005802F091590282E08083E0915402F0912D
:1030C00055021082E0915602F09157028FEC8083F6
:1030D00010926002E0915C02F0915D0286E08083D4
:1030E000E0915A02F0915B02808180618083E091DF
:1030F0005A02F0915B02808188608083E0915A02DD
:10310000F0915B02808180688083E0915A02F091A7
:103110005B0280818F7D808360E08EE00E94990653
:10312000E091F702F091F8020190F081E02DA48087
:10313000B580D5015F968D919C919097892B51F523
:1031400016962D913C91C901079697FD079623E0AD
:10315000959587952A95E1F7F50124813581AC0194
:10316000429FC001439F900D529F900D11240E94D9
:10317000821ED50190969C938E935F97892B51F474
:1031800066E571E088E492E00E94461481E090E0F8
:103190000E94B31FC5010E94E014F501868197814A
:1031A00064817581AC0181970CF48DC24054510942
:1031B00057FF02C04F5F5F4F5595479562557109A4
:1031C00077FF02C06F5F7F4F7595679510E4E12E22
:1031D000F12C02E510E02AE637E0C5010E949305D4
:1031E00082E0D50192968C9392975D968D919C91F9
:1031F0005E97892B09F47FC28CE391968C93109291
:103200003E0210923D021092400210923F020E9434
:1032100039118CE098E090933C0280933B028DE062
:1032200098E090933A0280933902D50198968C9158
:1032300087FD1FC061E00E94990661E0F50180A54D
:103240000E946B0661E070E080E090E00E94EF0673
:1032500060E0D50198968C910E946B066AE070E060
:1032600080E090E00E94EF0661E0F50180A50E94F9
:103270006B06D5015D968D919C915E97892B09F423
:10328000FFC2D5962D913D914D915C91D89760E00C
:1032900074E284EF90E00E94461E205131094109FA
:1032A000510956954795379527952093B80044E0E6
:1032B00066E875E0C5010E94E412F501668161507F
:1032C000C5010E94891344E062E875E0C5010E94CF
:1032D000E412D50192968C9160E1813009F064E1AD
:1032E000C5010E94891344E06EE775E0C5010E94A4
:1032F000E4128FE8F50185AF8481958180389105CE
:1033000009F0D5C2868197818034910509F0DDC22C
:1033100082A1813009F0C9C28FE9D501DD968C9375
:1033200012E16AEDC5010E948913612FC5010E9457
:10333000891361E8C5010E948913F50165ADC501D6
:103340000E94891369EDC5010E948913D5019296E7
:103350008C9162E2813009F061EFC5010E9489130E
:1033600046E068E775E0C5010E94E412F501858D2D
:10337000968D892B09F4ADC221AD32AD43AD54AD6C
:1033800060E074E284EF90E00E94461E2051310913
:103390004109510956954795379527952093B800CF
:1033A000E091F702F091F8020190F081E02D848124
:1033B00095810E94E014FE013196FAA7E9A79E01CB
:1033C000275D3F4F3CA72BA7212C94E2392E94EF89
:1033D000492E512CE091F702F091F8022FB7F894A2
:1033E0008091F1029091F202A091F302B091F40267
:1033F0002FBF86839783A087B187E091F702F09172
:10340000F802E080F18083E00E9442068C0181E0B6
:103410000115110509F480E0D7011E968C931E97C3
:103420000115110509F45FC20E947005A090F70212
:10343000B090F802D501ED91FC911186108621E043
:10344000D7011F962C930091F5021091F60204808B
:10345000F581E02D4EE150E05587448784E190E00E
:103460009787868782E0848B858B81E090E0938BC1
:10347000828B918B808B82E00E942107D8018C93F4
:10348000682F70E0B4E075956795BA95E1F76370C1
:103490007727D501ED91FC91848195810E94551487
:1034A000F80160816F7070E0E091F702F091F8022E
:1034B0000190F081E02D848195810E945514E09166
:1034C000F702F091F8020190F081E02D63E871E0DD
:1034D000848195810E94461481E00E942107D801D1
:1034E0008C9382958F70682F70E0E091F702F091D5
:1034F000F8020190F081E02D848195810E9455149D
:10350000F80160816F7070E0E091F702F091F802CD
:103510000190F081E02D848195810E945514E09105
:10352000F702F091F8020190F081E02D63E871E07C
:10353000848195810E94461480E00E942107D80171
:103540008C93682F70E084E0759567958A95E1F714
:1035500067707727E091F702F091F8020190F0810F
:10356000E02D848195810E945514F80160816F706F
:1035700070E0E091F702F091F8020190F081E02D07
:10358000848195810E945514E091F702F091F80230
:103590000190F081E02D04811581D8015D968D9117
:1035A0009C915E97892B09F4D1C2D5962D913D91BE
:1035B0004D915C91D897C201B1010E94461E2051E5
:1035C000310941095109569547953795279520931B
:1035D000B80045E06AE27AE0C8010E94E412F8010E
:1035E00064816150C8010E948913D80116962D91FB
:1035F0003C91C901079697FD079633E0959587950D
:103600003A95E1F7F80124813581829F5001839F2B
:10361000B00C929FB00C1124E78CF0A0858D968D94
:10362000AE0CBF1C009709F4CDC221A1F1E0F093CC
:103630004202209341021092400210923F02DC01AC
:10364000ED91FC910190F081E02D60E409956624F4
:103650006394712CF801858D968DAE14BF0409F426
:103660008AC2F0E26F167104E8F00E94FD11D801E1
:103670005D968D919C915E9791962C91B1E0B0935F
:103680004202209341021092400210923F02DC015C
:10369000ED91FC910190F081E02D60E409956624A4
:1036A0006394712CF801858D968DD7016D917D0104
:1036B000DC01ED91FC910190F081E02D0995BFEFC7
:1036C0006B1A7B0AC7CF4052510957FF02C04F5FA8
:1036D0005F4F559547956357710977FF02C06F5F3C
:1036E0007F4F75956795F0E2EF2EF12C03E710E020
:1036F0002AE835E072CD61E0F50186A10E949906C5
:1037000061E0D50197968C910E949906F50186A1FA
:10371000082E000C990BFC01E35BF54FE491F0E0FF
:10372000EE0FFF1FE75CF54F25913491D5019E9672
:103730003C932E939D97FC01EF59F54FE491D3965E
:10374000EC93D39797968C91082E000C990BFC0163
:10375000E35BF54FE491F0E0EE0FFF1FE75CF54F00
:10376000A591B491F501B0ABA7A7FC01EF59F54FB6
:103770009491F50194AB8C91E92FE82BEC93D50152
:103780005B968D919C91892B09F434C01FB7F894F6
:1037900080913802811127C0E7E5FAE08491EBE6D9
:1037A000FAE09491E82FF0E0EE0FFF1FE15DF54F96
:1037B000A591B491EC91E92321F461E08AE00E94A3
:1037C0006B0661E08AE00E9499068CB580618CBD31
:1037D0008CB580648CBD61E08DE00E94990661E04B
:1037E0008BE00E949906809138028F5F80933802A7
:1037F0001FBF1BCD61E0F50184A10E94990661E025
:10380000D50195968C910E949906F50184A1082E08
:10381000000C990BFC01E35BF54FE491F0E0EE0F37
:10382000FF1FE75CF54F25913491D5019A963C93A3
:103830002E939997FC01EF59F54FE491D196EC93B3
:10384000D19795968C91082E000C990BFC01E35BA7
:10385000F54FE491F0E0EE0FFF1FE75CF54FA59107
:10386000B491F501B4A7A3A7FC01EF59F54F9491CA
:10387000F50192AB8C91E92FE095E823EC93D5CC40
:10388000F501838D948D892B21F086AD97AD0E9433
:10389000790BD5019F96ED91FC91D0979081D496AC
:1038A0008C9180958923808302CD8FEC36CD803634
:1038B000910559F486819781409739F482A181302E
:1038C00031F480E1D501DD968C9312E02ACD8FEAA8
:1038D000F9CFD50107A4F0A9E02D8081D4969C9161
:1038E000892B80835DCD1F968C91882321F00E94C7
:1038F0007005F70117862091F7023091F8023EA774
:103900002DA788E2A9A5BAA51D928A95E9F7FE011F
:1039100031963F015F0120E420937C0080917A0082
:10392000806480937A0080917A0086FDFCCF90912C
:10393000780080917900892798278927D5018D9370
:103940009D935D01EBA5FCA5EA17FB0729F7FE0196
:10395000319681919191C80ED91E0331110531F430
:10396000C60164E170E00E94321E6B010F5F1F4FC1
:103970000431110571F7E091F702F091F80201901E
:10398000F081E02D20853185C901019691878087DE
:103990008138910574F0848195812F5731093187E1
:1039A00020870E94E01464E670E080E090E00E94CE
:1039B000EF06D3018D919D913D01E091F702F091C9
:1039C000F8020190F081E02D22853385C816D906D2
:1039D0000CF08EC08C199D09281B390B3387228768
:1039E000848195816085718502851385DC01ED9167
:1039F000FC9104A0F5A1E02DEE24E394F12C9B01B1
:103A000040E250E00995A614B70499F6E091F70258
:103A1000F091F802008111818685D8011A962D91C6
:103A20003C91213231050CF469C0882309F44BC064
:103A300086809780A084B18482859385A485B5858E
:103A4000A5019401281B390B4A0B5B0B72E05695BC
:103A50004795379527957A95D1F760E67AEE80E01D
:103A600090E00E94461EEDA5FEA5318B208B2F31E4
:103A70003105ECF0D80114960D911C9185E090E091
:103A8000F801958784879787868781E090E0918BFE
:103A9000808B138A128A82E0848B858BB901C801DE
:103AA0000E94551465E871E0C8010E944614E09137
:103AB000F702F091F80282869386A486B586868501
:103AC00091E089278687EDA5FEA5808991899C01D3
:103AD000225331092E313105B0F461E08AE00E94B1
:103AE0006B0660E08CE00E946B0660E08BE01BC020
:103AF000A601481B590B240F351F70CF8111E3CF4E
:103B0000A1E0A687E0CF9C01205531092A35310577
:103B100068F461E08BE00E946B0660E08CE00E943C
:103B20006B0660E08AE00E946B062ECD9C012A5A4B
:103B300031092233310518F0C2970CF025CD61E030
:103B40008CE00E946B0660E08AE0CDCFF801838DA7
:103B5000948D892B21F086AD97AD0E94790BD80109
:103B60009F96ED91FC91D0979081D4968C91809501
:103B7000892380832ECD0E94FD11F801858D968DBD
:103B8000892B09F465C021AD32AD43AD54ADC201FE
:103B9000B1010E94461E2051310941095109569533
:103BA0004795379527952093B800E0E0F0E0EF2B9C
:103BB00009F410CC0E947808882309F40BCC0E94E9
:103BC000000008CCD80105A4F6A5E02D8081D3968D
:103BD0009C91892B8083AE14BF0479F2F701819107
:103BE0007F01D8015B962D913C91232B19F00E9407
:103BF000720BF1CF28E030E040E8D8019996ED91C2
:103C0000FC919A97D1969C91582F5423E9F05081BA
:103C1000952B9083D8019B96ED91FC919C97908178
:103C2000D2965C91D297952B90839B96ED91FC91C7
:103C30009C975081D2969C91909595239083469520
:103C400021503109D1F6C7CF508190959523E1CF0E
:103C5000D80107A4F0A9E02D8081D4969C91892BEE
:103C60008083A3CF97FB072E16F4009407D077FD2F
:103C700009D00E94681E07FC05D03EF490958195FE
:103C80009F4F0895709561957F4F0895A1E21A2E78
:103C9000AA1BBB1BFD010DC0AA1FBB1FEE1FFF1FF0
:103CA000A217B307E407F50720F0A21BB30BE40B40
:103CB000F50B661F771F881F991F1A9469F7609587
:103CC0007095809590959B01AC01BD01CF01089541
:103CD000AA1BBB1B51E107C0AA1FBB1FA617B70732
:103CE00010F0A61BB70B881F991F5A95A9F780954E
:103CF0009095BC01CD010895EE0FFF1F0590F49142
:103D0000E02D09940F931F93CF93DF938230910599
:103D100010F482E090E0E091FB02F091FC0230E0D0
:103D200020E0B0E0A0E0309799F42115310509F4C6
:103D30004AC0281B390B24303105D8F58A819B8174
:103D40006115710589F1FB0193838283FE0111C026
:103D5000408151810281138148175907E0F04817CB
:103D6000590799F4109761F012960C9312971396D5
:103D70001C933296CF01DF91CF911F910F9108953F
:103D80000093FB021093FC02F4CF2115310551F092
:103D90004217530738F0A901DB019A01BD01DF0189
:103DA000F801C1CFEF01F9CF9093FC028093FB02A1
:103DB000CDCFFE01E20FF31F819391932250310981
:103DC00039832883D7CF2091F9023091FA02232B2F
:103DD00041F420910201309103013093FA022093C3
:103DE000F90220910001309101012115310541F4C2
:103DF0002DB73EB74091040150910501241B350BAE
:103E0000E091F902F091FA02E217F307A0F42E1BF9
:103E10003F0B2817390778F0AC014E5F5F4F24172E
:103E2000350748F04E0F5F1F5093FA024093F90296
:103E3000819391939FCFF0E0E0E09CCFCF93DF930D
:103E40000097E9F0FC01329713821282A091FB02E5
:103E5000B091FC02ED0130E020E01097A1F4208148
:103E60003181820F931F2091F9023091FA022817B5
:103E7000390709F061C0F093FA02E093F902DF918B
:103E8000CF910895EA01CE17DF07E8F54A815B81FB
:103E90009E0141155105B1F7E901FB83EA83499180
:103EA0005991C40FD51FEC17FD0761F480819181F2
:103EB0000296840F951FE9019983888382819381FB
:103EC0009B838A83F0E0E0E012968D919C9113979A
:103ED0000097B9F52D913C911197CD010296820F73
:103EE000931F2091F9023091FA022817390739F609
:103EF000309751F51092FC021092FB02B093FA0237
:103F0000A093F902BCCFD383C28340815181840F37
:103F1000951FC817D90761F44E5F5F4F888199815B
:103F2000480F591F518340838A819B8193838283E9
:103F30002115310509F0B0CFF093FC02E093FB02AC
:103F40009ECFFD01DC01C0CF13821282D7CF81E06A
:103F500090E0F8940C94B31FDC0101C06D934150C4
:0A3F60005040E0F70895F894FFCFF9
:103F6A000000FD02800000000000AE080E083B08B9
:103F7A00FB086C084A085E0800000000CE11A11177
:103F8A00411434109A118711781100000000B70DFE
:103F9A000E0841141111C20A34105D103510511067
:103FAA004510641034107D0BEB13320A7B0A7D0F27
:103FBA00600FE80E890E446973706C61793120696B
:103FCA006E697469616C697A6174696F6E20666181
:103FDA00696C65642C2065786974696E672E2E2E6B
:083FEA002E0A003A000D0A0046
:00000001FF
