:100000000C9446050C946E050C946E050C946E05CC
:100010000C946E050C946E050C946E050C9497155B
:100020000C946E050C946E050C946E050C946E0584
:100030000C946E050C946E050C946E050C946E0574
:100040000C944D150C946E050C943F160C941916D7
:100050000C946E050C946E050C946E050C946E0554
:100060000C9471160C946E0500000000003E5B4F6E
:100070005B3E3E6B4F6B3E1C3E7C3E1C183C7E3C08
:10008000181C577D571C1C5E7F5E1C00183C180016
:10009000FFE7C3E7FF0018241800FFE7DBE7FF30A6
:1000A000483A060E2629792926407F050507407F14
:1000B00005253F5A3CE73C5A7F3E1C1C08081C1C87
:1000C0003E7F14227F22145F5F005F5F06097F017D
:1000D0007F006689956A606060606094A2FFA29468
:1000E00008047E040810207E201008082A1C080836
:1000F0001C2A08081E101010100C1E0C1E0C303884
:100100003E3830060E3E0E06000000000000005F84
:1001100000000007000700147F147F14242A7F2AA0
:100120001223130864623649562050000807030062
:10013000001C2241000041221C002A1C7F1C2A08AE
:10014000083E080800807030000808080808000011
:1001500060600020100804023E5149453E00427F85
:10016000400072494949462141494D331814127FD4
:100170001027454545393C4A494931412111090774
:100180003649494936464949291E000014000000F5
:1001900040340000000814224114141414140041C7
:1001A00022140802015909063E415D594E7C121184
:1001B000127C7F494949363E414141227F414141BC
:1001C0003E7F494949417F090909013E4141517337
:1001D0007F0808087F00417F41002040413F017FA8
:1001E000081422417F404040407F021C027F7F0470
:1001F00008107F3E4141413E7F090909063E4151B9
:10020000215E7F09192946264949493203017F01A8
:10021000033F4040403F1F2040201F3F4038403FA9
:10022000631408146303047804036159494D4300BF
:100230007F4141410204081020004141417F0402F6
:10024000010204404040404000030708002054548D
:1002500078407F284444383844444428384444286B
:100260007F385454541800087E090218A4A49C78BE
:100270007F0804047800447D40002040403D007F1A
:100280001028440000417F40007C047804787C08FA
:100290000404783844444438FC18242418182424CE
:1002A00018FC7C08040408485454542404043F44B3
:1002B000243C4040207C1C2040201C3C4030403CE2
:1002C00044281028444C9090907C4464544C440042
:1002D00008364100000077000000413608000201A6
:1002E0000204023C2623263C1EA1A161123A404092
:1002F000207A38545455592155557941225454780F
:1003000042215554784020545579400C1E527212A7
:100310003955555559395454545939555454580030
:1003200000457C410002457D420001457C407D1234
:1003300011127DF0282528F07C5455450020545496
:100340007C547C0A097F4932494949323A44444441
:100350003A324A4848303A4141217A3A424020787C
:10036000009DA0A07D3D4242423D3D4040403D3C7D
:1003700024FF2424487E4943662B2FFC2F2BFF09A2
:1003800029F620C0887E0903205454794100004496
:100390007D413048484A32384040227A007A0A0A81
:1003A000727D0D19317D2629292F282629292926F4
:1003B00030484D4020380808080808080808382F39
:1003C00010C8ACBA2F102834FA00007B00000814C3
:1003D0002A142222142A14085500550055AA55AA99
:1003E00055AAFF55FF55FF000000FF00101010FF39
:1003F00000141414FF001010FF00FF1010F010F094
:10040000141414FC001414F700FF0000FF00FF1484
:1004100014F404FC141417101F10101F101F1414D0
:10042000141F00101010F0000000001F101010101A
:100430001F10101010F010000000FF10101010100E
:1004400010101010FF10000000FF140000FF00FF4C
:1004500000001F10170000FC04F4141417101714E8
:1004600014F404F40000FF00F7141414141414140A
:10047000F700F7141414171410101F101F1414147D
:10048000F4141010F010F000001F101F0000001FE7
:1004900014000000FC140000F010F01010FF10FF1A
:1004A000141414FF141010101F00000000F010FFAF
:1004B000FFFFFFFFF0F0F0F0F0FFFFFF0000000093
:1004C00000FFFF0F0F0F0F0F3844443844FC4A4A17
:1004D0004A347E02020606027E027E0263554941CC
:1004E000633844443C04407E201E2006027E020203
:1004F00099A5E7A5991C2A492A1C4C7201724C3017
:100500004A4D4D303048784830BC625A463D3E49ED
:100510004949007E0101017E2A2A2A2A2A44445F91
:10052000444440514A444040444A51400000FF0185
:1005300003E080FF000008086B6B08361236243693
:10054000060F090F060000181800000010100030F8
:1005500040FF0101001F01011E00191D1712003C80
:100560003C3C3C0000000000000103070F1F3F7FE0
:100570000080C0E0F0F8FCFEDB40A4A62EAF200017
:10058000A1C8D300408DAED580A800006000000057
:100590000000000000000000000000E0000000007B
:1005A00000000000000000000001E000000000006A
:1005B000000000000000000001F00000000000004A
:1005C0000000000000000003F00000000000000038
:1005D00000000000000007F0000000000000000024
:1005E000000000000007F80000000000000000000C
:1005F000000000000FF800000003C0007E000001B2
:10060000E0007F0FF800000003C000FE000001E0E2
:1006100000FFEFF800000003C000FE000001E00052
:10062000FFFFF800000003C000F00000000F007F93
:10063000FE7FC0000003C000F00000000F003FFE7E
:100640007FF83FF1FBCFFCFEF3BC3DEFE01FFE7FE8
:10065000FF7FFBFFDFFEFEFFBC3DEFE01FC6FFFF9D
:100660007FFBFFDFFEFEFFBC3DEFE00FE3C7FE7840
:100670007BC3DE1EF0FFBC3DEF0007FF87FC787BED
:10068000C3DE1EF0F83C3DEF0001FFFFF0007BC32E
:10069000C01EF0F03C3DEF0001F37FE03FFBC3CF15
:1006A000FEF0F03C3DEF0003E33F807FFBC3DFFE45
:1006B000F0F03C3DEF0007E73C00787BC3DE1EF026
:1006C000F03C3DEF0007FFBE00787BC3DE1EF0F07C
:1006D0003C3DEF0007FFFE00787BC3DE1EF0F03CE0
:1006E0003DEF000FFFFE007FFBFFDFFEF0F03FFD60
:1006F000EFE00FFFFF007FFBFFDFFEF0F03FFDEFBD
:10070000E00FF9FF003E79F9CF9EF0F01F3DE7E0E2
:100710001FF1FF0000000000000000000000001FAB
:1007200080FF007FFFFFFFFFFFFFFFFFFFE01C00D8
:100730007F007FFFFFFFFEB46D888D18E000001F73
:10074000007FFFFFFFFE95AD7DB577E000000F0055
:100750007FFFFFFFFEA5AD9D8D19E0000006007F25
:10076000FFFFFFFEB5ADEDB57EE00000000000012B
:100770008000000000000000000003800000000076
:10078000000000000007C0000000000000000000A2
:1007900007C00000000000000000000FC0000000C3
:1007A0000000000000001FE000000000000000004A
:1007B000001FE00000000000000000003FE000001B
:1007C000000000000000003FF000000000000000FA
:1007D00000007FF0000000000000001FF87FF00024
:1007E0000000000000003FFE7FF00000000000005D
:1007F000003FFF7FF0000000000000001FFFFBE053
:10080000000000000000000FFFF9FFC00000000022
:1008100000000FFFF9FFF800000000000007FFF1E3
:10082000FFFF00000000000003FC73FFFF800000DA
:1008300000000001FE3FFFFF80000000000000FFFD
:100840001E0FFF000000000000007FFE1FFC0000E4
:1008500000000000003FFFFFF80000000000000063
:100860000FDFFFE0000000000000001F19FFC000C4
:100870000000000000003F3CFF00000000000000FE
:10088000007E7CF800000000000000007FFE7C007D
:1008900000000000000000FFFFFC0000000000005E
:1008A0000000FFFFFE0000000000000000FFFFFE50
:1008B0000000000000000001FFEFFE00000000004B
:1008C000000001FFCFFE0000000000000003FF0752
:1008D000FE0000000000000003FC07FE0000000016
:1008E00000000003F003FE00000000000000018093
:1008F00000FE000000000000000000007E0000007C
:10090000000000000000003E0000000000000000A9
:1009100000000C000000000000078000FC00000345
:10092000C0000000078001FC000003C000000007B9
:100930008001FC000003C0000000078001E000000F
:10094000001E000000078001E00000001E007FE3A1
:10095000F79FF9FDE7787BDFC0FFF7FFBFFDFDFFE5
:10096000787BDFC0FFF7FFBFFDFDFF787BDFC0F0C6
:10097000F787BC3DE1FF787BDE00F0F787BC3DE107
:10098000F0787BDE0000F787803DE1E0787BDE00D9
:100990007FF7879FFDE1E0787BDE00FFF787BFFDF3
:1009A000E1E0787BDE00F0F787BC3DE1E0787BDEBC
:1009B00000F0F787BC3DE1E0787BDE00F0F787BC14
:1009C0003DE1E0787BDE00FFF7FFBFFDE1E07FFB6C
:1009D000DFC0FFF7FFBFFDE1E07FFBDFC07CF3F38B
:1009E0009F3DE1E03E7BCFC0000000000000000022
:1009F000000000FFFFFFFFFFFFFFFFFFFFC0FFFF43
:100A0000FFFFFD68DB111A31C0FFFFFFFFFD2B5A0E
:100A1000FB6AEFC0FFFFFFFFFD4B5B3B1A33C0FFDC
:100A2000FFFFFFFD6B5BDB6AFDC0022200FF2100C0
:100A300000000000240027002A000000000025001C
:100A400028002B00000000002300260029000404D9
:100A50000404040404040202020202020303030366
:100A60000303010204081020408001020408102042
:100A70000102040810200000000800020100000329
:100A800004070000000000000000901711241FBEA2
:100A9000CFEFD8E0DEBFCDBF11E0A0E0B1E0ECE4E5
:100AA000F4E502C005900D92A639B107D9F723E00D
:100AB000A6E9B1E001C01D92AA31B207E1F715E045
:100AC000C6E4D5E004C02197FE010E94B426C534D7
:100AD000D107C9F70E94EA180C94242A0C9400004C
:100AE0003F924F925F926F927F928F929F92AF92BE
:100AF000BF92CF92DF92EF92FF920F931F93CF930B
:100B0000DF9300D000D0CDB7DEB79C838B833B0151
:100B10006A015901DC01ED91FC910284F385E02D1D
:100B200009952801B7E04B0E511C93E0559447946A
:100B30009A95E1F7C6018E0D9F1D9A838983912CAA
:100B4000812C312CF12CE12CC70187709927330CB3
:100B5000892B59F4F70183E0F595E7958A95E1F73C
:100B6000E80DF91DEA0DFB1D349037FE10C0AB8176
:100B7000BC81ED91FC9111970484F585E02D21E075
:100B800030E0A601B701660D771DCD010995BFEFD5
:100B9000EB1AFB0A0E151F05B9F68FEFC81AD80A13
:100BA000840C951CA981BA81CA16DB0659F6AB8163
:100BB000BC81ED91FC9111970688F789E02DCD015C
:100BC0000F900F900F900F90DF91CF911F910F9189
:100BD000FF90EF90DF90CF90BF90AF909F908F905D
:100BE0007F906F905F904F903F900994833081F099
:100BF00028F4813099F08230A9F008958730A9F067
:100C00008830C9F08430B1F4809180008F7D03C0BA
:100C1000809180008F7780938000089584B58F77CE
:100C200084BD089584B58F7DFBCF8091B0008F7710
:100C30008093B00008958091B0008F7DF9CFCF935D
:100C4000DF93282F30E0F901EA58F54F8491F9013C
:100C5000EE59F54FD491F901E25BF54FC491CC23E5
:100C6000A1F081110E94F605EC2FF0E0EE0FFF1FBE
:100C7000EC5BF54FA591B491EC91ED2381E090E010
:100C800009F480E0DF91CF91089580E090E0FACF01
:100C90001F93CF93DF93282F30E0F901EA58F54FE7
:100CA0008491F901EE59F54FD491F901E25BF54FCA
:100CB000C491CC23A9F0162F81110E94F605EC2FC8
:100CC000F0E0EE0FFF1FE65CF54FA591B4918FB7F2
:100CD000F894EC91111108C0D095DE23DC938FBFFE
:100CE000DF91CF911F910895DE2BF8CFCF93DF9343
:100CF00090E0FC01EE59F54F2491825B954FFC0189
:100D000084918823D1F090E0880F991FFC01E05D69
:100D1000F54FA591B491FC01E65CF54FC591D491D6
:100D200061110EC09FB7F8948C91E22FE0958E234D
:100D30008C932881E223E8839FBFDF91CF910895B0
:100D40008FB7F894EC91E22BEC938FBFF6CF8E50D7
:100D5000806480937C0080917A00806480937A0024
:100D600080917A0086FDFCCF809178009091790087
:100D700008953FB7F8948091630290916402A09126
:100D80006502B091660226B5A89B05C02F3F19F0F9
:100D90000196A11DB11D3FBFBA2FA92F982F8827FB
:100DA000BC01CD01620F711D811D911D42E0660FD6
:100DB000771F881F991F4A95D1F708958F929F92A8
:100DC000AF92BF92CF92DF92EF92FF924B015C0104
:100DD0000E94B9066B017C010E94B9066C197D095D
:100DE0008E099F09683E734081059105A8F321E0B3
:100DF000821A9108A108B10888EEC80E83E0D81EB7
:100E0000E11CF11C81149104A104B10429F7FF90A5
:100E1000EF90DF90CF90BF90AF909F908F9008950C
:100E2000EF92FF920F931F93CF93DF93082F61E010
:100E300088E00E94480661E070E080E090E00E9457
:100E4000DE0661E087E00E94480661E070E080E035
:100E500090E00E94DE0661E086E00E94480661E0C4
:100E600070E080E090E00E94DE0660E086E00E9494
:100E7000480661E070E080E090E00E94DE06D0E08D
:100E8000C0E0EE24E394F12C10E0B7010C2E02C078
:100E9000660F771F0A94E2F7602371230C2E02C0BD
:100EA000759567950A94E2F787E00E94480661E02D
:100EB00070E080E090E00E94DE0661E086E00E9443
:100EC000480661E070E080E090E00E94DE0660E0AD
:100ED00086E00E94480661E070E080E090E00E94B9
:100EE000DE062196C530D10581F660E087E00E94DC
:100EF000480661E070E080E090E00E94DE0661E07C
:100F000086E00E94480661E070E080E090E00E9488
:100F1000DE0660E086E00E94480661E070E080E066
:100F200090E00E94DE0661E087E00E94480661E0F2
:100F300070E080E090E00E94DE0661E086E00E94C2
:100F4000480661E070E080E090E00E94DE0660E02C
:100F500087E00E94760661E070E080E090E00E9409
:100F6000DE06D0E0C0E010E060E086E00E944806C7
:100F700061E070E080E090E00E94DE0687E00E9481
:100F80001F060C2E01C0880F0A94EAF7180F61E0C3
:100F900086E00E94480661E070E080E090E00E94F8
:100FA000DE062196C830D105F9F660E086E00E94A1
:100FB000480661E070E080E090E00E94DE0660E0BC
:100FC00086E00E94480661E070E080E090E00E94C8
:100FD000DE0661E087E00E94760661E070E080E076
:100FE00090E00E94DE06812FDF91CF911F910F913B
:100FF000FF90EF90089508950895AF92BF92CF9219
:10100000DF92EF92FF920F931F93CF93DF936C01C8
:101010007B018B01040F151FEB015E01AE18BF08A9
:10102000C017D10759F06991D601ED91FC9101905B
:10103000F081E02DC6010995892B79F7C501DF9173
:10104000CF911F910F91FF90EF90DF90CF90BF90C5
:10105000AF900895FC01538D448D252F30E0842FEF
:1010600090E0821B930B541710F0CF9608950197D0
:101070000895FC01918D828D981761F0A28DAE0FBD
:10108000BF2FB11D5D968C91928D9F5F9F73928F44
:1010900090E008958FEF9FEF0895FC01918D828D70
:1010A000981731F0828DE80FF11D858D90E008953D
:1010B0008FEF9FEF0895FC01918D228D892F90E095
:1010C000805C9F4F821B91098F739927089587E653
:1010D00092E00E945B0821E0892B09F420E0822F36
:1010E000089580E090E0892B29F00E946708811123
:1010F0000C9400000895FC01A48DA80FB92FB11D18
:10110000A35ABF4F2C91848D90E001968F7399273D
:10111000848FA689B7892C93A089B1898C9183701B
:1011200080648C93938D848D981306C00288F38914
:10113000E02D80818F7D80830895EF92FF920F9341
:101140001F93CF93DF93EC0181E0888F9B8D8C8D73
:1011500098131AC0E889F989808185FF15C09FB767
:10116000F894EE89FF896083E889F989808183702A
:10117000806480839FBF81E090E0DF91CF911F91D9
:101180000F91FF90EF900895F62E0B8D10E00F5FFA
:101190001F4F0F731127E02E8C8D8E110CC00FB6D0
:1011A00007FCFACFE889F989808185FFF5CFCE0168
:1011B0000E947B08F1CFEB8DEC0FFD2FF11DE35A60
:1011C000FF4FF0829FB7F8940B8FEA89FB898081EB
:1011D0008062CFCFCF93DF93EC01888D8823B9F065
:1011E000AA89BB89E889F9898C9185FD03C0808132
:1011F00086FD0DC00FB607FCF7CF8C9185FFF2CFAF
:10120000808185FFEDCFCE010E947B08E9CFDF9181
:10121000CF910895EF92FF920F931F93CF93DF9397
:10122000EC01EC80FD806E157F050CF070C057FF5F
:1012300004C0240F351F50E040E08E819F81FA01E9
:10124000E20FF31F8E179F071CF49C01241B350B24
:10125000121613060CF05BC0922F842F869586958C
:1012600086958E9DD0018F9DB00D11246A0F7B1F36
:10127000AF8DB8A1A60FB71F477049F188E0841B56
:10128000482F682F70E0FB01E059FA4FE4912817CE
:1012900008F063C0621B71092FEF30E002C0359582
:1012A00027956A95E2F7E2230130110539F0B0F194
:1012B0000230110561F58C91E82702C08C91E82B72
:1012C000EC93941720F12C813D81A20FB31FE92FDD
:1012D000E41BE83078F00230110521F58E2F9C9147
:1012E00090959C932C813D81A20FB31F885088302C
:1012F000B0F7E770EE2359F0F0E0E859FA4FE491C7
:1013000001301105F9F010F10230110519F1DF91EA
:10131000CF911F910F91FF90EF900895E0958C91E0
:10132000E823CECF81E00115110509F480E0819515
:101330009E2F8C932C813D81A20FB31F9850983023
:10134000C0F7D7CF8C91E82BEC93E1CFE0958C914F
:10135000E823FACF8C91E827F7CF0130110509F483
:10136000ADCFE0F20230110509F4A5CFAE0DBF1DDF
:10137000AECF0F931F93CF93DF9377FF04C0260F59
:10138000371F70E060E0DC011496CD91DC91FB0129
:10139000E20FF31FCE17DF071CF49E01261B370B4D
:1013A000121613064CF5FA0157FD3796A3E0F59592
:1013B000E795AA95E1F7EC9FD001ED9FB00DFC9F5A
:1013C000B00D11246A0F7B1FDC015F96ED91FC913B
:1013D000E60FF71F4770552781E090E001C0880FA6
:1013E0004A95EAF7482F0130110559F0A8F02E0F61
:1013F0003F1F02301105E1F0DF91CF911F910F9156
:1014000008952E0F3F1FE217F307B1F38191DF011B
:101410001197842B8C93F7CF80952E0F3F1FE217E7
:10142000F30751F39191DF01119798239C93F7CF24
:10143000E217F30709F38191DF01119784278C9359
:10144000F7CF0F931F93FA01DC0156964C915697F4
:101450004230E9F04330A1F1413061F514964D91ED
:101460005C91DA01AE1BBF0BFD01E21BF30B77FDB4
:101470000BC0DC0116964D915C916417750724F43E
:10148000AB01BF010E94B9091F910F9108951496F5
:101490004D915C91DA01A61BB70BBD01615071093A
:1014A000DC0116964D915C91DA01AE1BBF0BFD017C
:1014B000E21BF30B77FDE8CFAF010E940A09E4CFEE
:1014C00016964D915C91DA01A61BB70BBD016150D8
:1014D0007109CDCF0F931F93FA01DC0156964C9101
:1014E00056974230A9F0433091F1413019F51496E6
:1014F0004D915C91DA01AE1BBF0BFD013197F7FDF9
:1015000004C0AB01BF010E940A091F910F91089509
:1015100014964D915C91DA01A61BB70BBD01DC015D
:1015200016964D915C91DA01AE1BBF0BFD01319710
:10153000621B730BF7FDE9CFDC0116964D915C91B0
:10154000E417F50714F7AF010E94B909DECF16962C
:101550004D915C91DA01A61BB70BBD01621B730BA9
:10156000CECFFC0177FD64C080859185681779072F
:101570000CF05EC057FD5CC0828593854817590703
:101580000CF056C086898230B1F0833029F1813069
:1015900041F484819581841B950BAB01BC016150A2
:1015A00071092130310509F108F443C022303105B9
:1015B00009F463C0089584819581DC01A61BB70BF3
:1015C000BD016150710986819781DC01A41BB50BB7
:1015D000AD0141505109E5CF86819781861B970B5C
:1015E000BA01AC0141505109DCCFCA0157FD079641
:1015F000A3E095958795AA95E1F7A481B5818A9F87
:1016000090018B9F300D9A9F300D1124620F731F34
:10161000078CF0A1E02DE60FF71F4770552721E05A
:1016200030E001C0220F4A95EAF78081822B808347
:101630000895CA0157FD079633E0959587953A9529
:10164000E1F7A481B5818A9F90018B9F300D9A9F0D
:10165000300D1124620F731F078CF0A1E02DE60FEF
:10166000F71F4770552781E090E001C0880F4A9529
:10167000EAF7809590818923DACFCA0157FD079652
:1016800023E0959587952A95E1F7A481B5818A9FF6
:1016900090018B9F300D9A9F300D1124620F731FA4
:1016A000078CF0A1E02DE60FF71F4770552721E0CA
:1016B00030E001C0220F4A95EAF780818227B7CF38
:1016C00008958EBD00000DB407FEFDCF8EB50895C0
:1016D0008CBD9DBD08950895FC016370668B848167
:1016E000958126813781613039F0633029F0918707
:1016F0008087338722870895318720879387828761
:1017000008952F923F924F925F926F927F928F92A5
:101710009F92AF92BF92CF92DF92EF92FF920F9380
:101720001F93CF93DF93CDB7DEB76A970FB6F894C8
:10173000DEBF0FBECDBF9A8F898F7A8369834A013E
:10174000D22E18870F833701BC2CDC0159962D91BE
:101750003C915A972115310509F015C118968D91C4
:101760009C911997681779070CF0D7C11A968D913B
:101770009C91481759070CF0D0C14C2C512CB6E065
:10178000CB9E600D711D11247C876B871616170682
:101790000CF0C3C1EA2DF0E0FA87E98793E0EE0F81
:1017A000FF1F9A95E1F7F88BEF87CF01840F951F04
:1017B000181619060CF0B1C1A98DBA8D58968C91E6
:1017C000811104C0BFEABD1508F4D394A98DBA8D68
:1017D000ED91FC9111970284F385E02DCD010995DF
:1017E000B5E0DB9EC0011124E981FA81FC83EB8323
:1017F000312C212C9C0128593F4F388F2F8B4A2D9B
:1018000050E05E8B4D8BEF89F88DE20DF31D449116
:101810009E828D82D12CC12C69817A81620D731DCB
:101820007A8B698B842F90E09C8B8B8BE98DFA8D62
:10183000A081B18140FF82C0F1E0BF126FC0AF1242
:101840006DC01C96ED91FC912F813885A4014C0D43
:101850005D1D69897A89898D9A8D0995EB89FC8945
:10186000F595E7954E2F5FEFC51AD50A6D817E81FC
:101870008D899E89680F791F7E836D8398E0C916D4
:10188000D10481F6AFEF2A1A3A0AEB81FC81E40D0C
:10189000F51DFC83EB83F5E02F16310409F0B3CF7F
:1018A0002F81388526153705B9F0A98DBA8DED91B0
:1018B000FC91B1E0BB1257C0AB1255C069817A816F
:1018C0006B5F7F4F0088F189E02D830128E030E0D5
:1018D000A401898D9A8D0995A98DBA8DED91FC9100
:1018E00011970688F789E02DCD016A960FB6F89416
:1018F000DEBF0FBECDBFDF91CF911F910F91FF9043
:10190000EF90DF90CF90BF90AF909F908F907F909F
:101910006F905F904F903F902F9009941E96ED919D
:10192000FC91EF80F88409851A8592014D815E81D2
:101930006B817C81898D9A8D099590CF2F81388517
:101940002615370509F48ACF31E0B31207C0A31278
:1019500005C01C96ED91FC91930178CF1E96ED91F8
:10196000FC917301E0CF6B857C8564197509068451
:10197000F785E02D73010F8518899201A401898DE7
:101980009A8D0995A9CFF901349694913297459192
:101990005491D91AB7E0DB9E400D511D1124F90175
:1019A000259134913C8B2B8BFA0125903490FA01D0
:1019B0003296749031963491398B32966490319688
:1019C000449041E04C1518F04A1508F07FC0662D90
:1019D000062C000C770B7C836B83842D042C000C6D
:1019E000990B9E838D83A98DBA8DED91FC911197F2
:1019F0000284F385E02DCD010995512CD12CC12C09
:101A0000EA2DF0E0FA87E9872B2D30E03C872B8721
:101A1000A401440D511D47FC5A95588F4F8B698185
:101A20007A81660D711D67FC7A957E876D8779894D
:101A3000C71608F051CF2C2D30E04D815E81420F4A
:101A4000531FA985BA854A9FC0014B9F900D5A9F8D
:101A5000900D1124FC01E80DF91DF88BEF87852D01
:101A6000612C4F89588D420F531F5E8B4D8B67142D
:101A700008F050C044244394480E877041F4C101DB
:101A80000196EB89FC89E20DF31DD4901C01D7FE71
:101A900019C0A98DBA8DED91FC91662D70E0B1E071
:101AA000BB1219C0AB1217C02D853E85620F731F84
:101AB0000484F585E02D2F8138854D895E89898DD7
:101AC0009A8D0995DD0C6394842DD1CF1E821D82E1
:101AD0001C821B8288CF4B815C81640F751FAB8594
:101AE000BC856A9FC0016B9F900D7A9F900D112459
:101AF00069817A81680F791F0684F785E02DEF8070
:101B0000F88409851A859D014F855889898D9A8D9C
:101B10000995D8CF570CC3948ACF6A960FB6F8941C
:101B2000DEBF0FBECDBFDF91CF911F910F91FF9010
:101B3000EF90DF90CF90BF90AF909F908F907F906D
:101B40006F905F904F903F902F9008958F929F924B
:101B5000AF92CF92EF92FF920F931F93CF93DF93A9
:101B6000EC01262F898D9A8D009709F051C06A30BB
:101B7000D1F41D861C868D8948E0849F9001112434
:101B80008E859F85820F931F9F878E8781E090E0CF
:101B9000DF91CF911F910F91FF90EF90CF90AF9079
:101BA0009F908F9008956D3089F3CC88AD888F8990
:101BB0008823C1F08C859D8536E0C39E800D911DE4
:101BC0001124488559854817590764F44E855F8567
:101BD0001D861C8638E0A39EC0011124840F951F2A
:101BE0009F878E87EA88FB88088919894E855F85DB
:101BF0006C857D85CE010E94810B2C898C859D850D
:101C000046E0249F800D911D11249D878C87BECFB7
:101C10006A3069F41D861C86FC013896E4912D8992
:101C20008E859F85E29F800D911D1124ADCF6D3073
:101C300009F4ACCFFC0134963491631708F4A6CFB5
:101C40003296E491E61708F4A1CFFC013296859014
:101C50009490462F431B342F47E0349F800C911CF7
:101C60001124F401329634913196E4913323A9F191
:101C7000EE2399F1CC88F4013596E491AD884F8933
:101C8000442301F10E2E000CFF0BE30FF11DCE9E3D
:101C9000A001CF9E500D11246C857D85460F571FE6
:101CA00068857985641775076CF44E855F851D8698
:101CB0001C86FC013896E491AE9E400D511D112406
:101CC0005F874E87EA88FB88088919894E855F857A
:101CD0006C857D85CE010E94810BF4013496E491E0
:101CE0002C898C859D85E29F800D911D11248DCFBF
:101CF0006F927F928F929F92AF92BF92CF92DF921C
:101D0000EF92FF920F931F93CF93DF93EC016B0140
:101D10005A0139014801E881F9810284F385E02DF7
:101D20000995E881F9810288F389E02D8701930103
:101D3000A501B601CE010995A501480D591D4150D7
:101D40005109E881F9810288F389E02D9301B601F8
:101D5000CE010995E881F9810088F189E02D94018F
:101D6000A501B601CE010995C60CD71CB60161507C
:101D70007109E881F9810088F189E02D9401A501BC
:101D8000CE010995E881F9810688F789E02DCE0119
:101D9000DF91CF911F910F91FF90EF90DF90CF9047
:101DA000BF90AF909F908F907F906F9009946F92AB
:101DB0007F928F929F92AF92BF92CF92DF92EF92DB
:101DC000FF920F931F93CF93DF935C01EB016A01A6
:101DD000490138018701DC01ED91FC91621773071D
:101DE00019F5641675062CF0962D872D3A01C92E2B
:101DF000D82E9601261937092F5F3F4F048CF58D99
:101E0000E02DA301BE01C5010995DF91CF911F917E
:101E10000F91FF90EF90DF90CF90BF90AF909F9089
:101E20008F907F906F9008954615570591F426176F
:101E3000370724F0892D4B01C22FD82F9E01281976
:101E400039092F5F3F4F068CF78DE02DA601B401B5
:101E5000DACF0284F385E02D0995D501ED91FC914F
:101E60000488F589E02D83019401A601BE01C50116
:101E70000995D501ED91FC910688F789E02DC50102
:101E8000DF91CF911F910F91FF90EF90DF90CF9056
:101E9000BF90AF909F908F907F906F900994EF923A
:101EA000FF920F931F93DC011A960D911C911B97C3
:101EB00018962D913C911997ED91FC9100A0F1A1FC
:101EC000E02D7B0150E040E070E060E009951F915B
:101ED0000F91FF90EF9008954F925F926F927F92D3
:101EE0008F929F92AF92BF92CF92DF92EF92FF922A
:101EF0000F931F93CF93DF936C012B015A0139018C
:101F00004801DC01ED91FC910284F385E02D0995F7
:101F1000E201640C751CD601ED91FC91C615D70544
:101F20005CF40088F189E02D87019401A501BE01D0
:101F3000C60109952196EFCF0688F789E02DC601E5
:101F4000DF91CF911F910F91FF90EF90DF90CF9095
:101F5000BF90AF909F908F907F906F905F904F90C9
:101F600009948F929F92AF92BF92CF92DF92EF929D
:101F7000FF920F931F93CF93DF93EC015B014A0114
:101F80006901E881F9810284F385E02D09959501C5
:101F90002C0D3D1D21503109E881F9810488F58916
:101FA000E02D78018401A401B501CE010995E881F5
:101FB000F9810688F789E02DCE01DF91CF911F913D
:101FC0000F91FF90EF90DF90CF90BF90AF909F90D8
:101FD0008F9009948F929F92AF92BF92CF92DF928F
:101FE000EF92FF920F931F93CF93DF93EC015B016E
:101FF0004A0169017801E881F9810284F385E02DC5
:102000000995C80CD91C860101501109E881F98194
:102010000488F589E02D9501A401B501CE0109954B
:10202000E881F9810688F789E02DCE01DF91CF9113
:102030001F910F91FF90EF90DF90CF90BF90AF90E6
:102040009F908F9009940895EF92FF920F931F93A2
:10205000DC01ED91FC9100A0F1A1E02D09951F910B
:102060000F91FF90EF9008950F931F93DC01ED9176
:10207000FC91068CF78DE02D09951F910F91089525
:102080000F931F93DC01ED91FC91048CF58DE02DF5
:1020900009951F910F910895DC01ED91FC91008449
:1020A000F185E02D09942F923F924F925F926F92AB
:1020B0007F928F929F92AF92BF92CF92DF92EF92D8
:1020C000FF920F931F93CF93DF9300D000D000D0E7
:1020D000CDB7DEB73C016A013E832D83FC82EB82E3
:1020E0005801A41AB50AB7FE03C0B194A194B1086F
:1020F0008D809E80861A970A97FE03C091948194E2
:1021000091088A149B045CF0902F812F0D811E8111
:102110009D838E839C2D8D2D6B01692F782F0C153F
:102120001D055CF09D818E817E836D83692F782FE4
:10213000902F812F8601C92ED82E1601201A310A20
:102140002B012D813E81421A530A57FE03C0519440
:1021500041945108710137FE03C03FEFE31AF30ABF
:10216000F594E7948D819E81861797075CF5A1E031
:10217000B0E0BA83A983C016D1064CF1D301ED912A
:10218000FC910484F585E02D2B813C81A8016D81B3
:102190007E818A149B041CF04D815E81B801C301CD
:1021A0000995E418F508F7FE0AC02D813E81898162
:1021B0009A81280F391F3E832D83E20CF31C0F5F99
:1021C0001F4FD9CF2FEF3FEF3A832983D4CF2696E5
:1021D0000FB6F894DEBF0FBECDBFDF91CF911F9138
:1021E0000F91FF90EF90DF90CF90BF90AF909F90B6
:1021F0008F907F906F905F904F903F902F900895B9
:1022000008952091FC01260F3327331F2132310519
:10221000ECF420912002FC0190E080E0243069F091
:1022200082E00895A091FC012191AC0144525E4FDF
:10223000A40FB52FB11D2C930196861798F38091AA
:10224000FC01680F6093FC0180E0089581E008952F
:102250001092200281E0809322021092210261E01C
:1022600082E10E94480661E083E10E944806E9EBB2
:10227000F0E080818E7F808380818D7F808388E401
:102280008093B80085E48093BC000895CF93DF93DA
:1022900091E09093DB018823B9F0C091B800D09110
:1022A000BA008091BC008A7B8093BC0060E082E130
:1022B0000E94480660E083E10E9448060E942811BF
:1022C000D093BA00C093B800DF91CF910895E09108
:1022D0004C0280914B02E81730F4F0E0EA54FE4FD4
:1022E000808190E008958FEF9FEF089590914C02C8
:1022F00080914B022FEF3FEF981748F4E92FF0E061
:10230000EA54FE4F208130E09F5F90934C02C90158
:10231000089580914B0290914C02891B990B08956E
:10232000CF92DF92EF92FF920F931F93CF93DF93A1
:102330007C01CB018A0120916102222389F0EB010B
:102340006B01C40ED51ECC15DD0569F06991D7016E
:10235000ED91FC910190F081E02DC7010995F3CF3B
:10236000642F0E940111C801DF91CF911F910F913D
:10237000FF90EF90DF90CF900895CF93DF931F925F
:10238000CDB7DEB76983209161022223F9F0209155
:102390005E02203258F021E030E0FC0133832283DA
:1023A00090E080E00F90DF91CF91089580915F02DF
:1023B000E82FF0E0EA56FE4F998190838F5F80937B
:1023C0005F0280935E0281E090E0ECCF61E0CE019D
:1023D00001960E940111F7CFCF92DF92EF92FF9208
:1023E0000F931F93CF93DF93D0915E0281E0D132A0
:1023F00008F09CC0C09160020E94B9066B017C018C
:102400008091200281116CC082E08093200281E0E3
:10241000809322028FEF80931F0210924402D09388
:102420004302A6E9B1E0E3E2F2E080E0D8138DC018
:102430001092450280914502CC0FC82BC0934502F3
:1024400080912102813009F084C0109221020E9403
:10245000B9066B017C01809145028093BB0080919D
:10246000D7019091D801A091D901B091DA01892BBF
:102470008A2B8B2BA1F00E94B9060091D7011091F5
:10248000D8012091D9013091DA016C197D098E09AA
:102490009F09061717072807390708F442C08091DB
:1024A000BC0083FDD8CF85EC8093BC000E94B906A8
:1024B0006B017C0180912002823009F44CC0809134
:1024C0001F028F3F09F469C080911F02803209F416
:1024D00066C080911F02803309F463C084E026C087
:1024E0008091D7019091D801A091D901B091DA01E2
:1024F000892B8A2B8B2B09F483CF0E94B90600917C
:10250000D7011091D8012091D9013091DA016C19CD
:102510007D098E099F09061717072807390708F054
:102520006FCF8091D6010E94461185E010925F0224
:1025300010925E0210926102DF91CF911F910F9174
:10254000FF90EF90DF90CF9008959D9191938F5FD2
:102550006DCF85EEA9CF8091D7019091D801A09140
:10256000D901B091DA01892B8A2B8B2B09F4A2CFE8
:102570000E94B9060091D7011091D8012091D9018C
:102580003091DA016C197D098E099F09061717072A
:102590002807390708F08ECFC4CF80E0C7CF82E08C
:1025A000C5CF83E0C3CFCF92DF92EF92FF920F931C
:1025B0001F93CF93DF93EC016B01142F8D8D9E8DB4
:1025C000009709F454C029A131E0309361022093AF
:1025D000600210925F0210925E02DC01ED91FC91AC
:1025E0000190F081E02D60E009957601CC24C39440
:1025F000D12C01E011508D8D9E8D1F3F71F1B0E205
:10260000CB16D104C0F00E94EC118D8D9E8D29A1B6
:10261000009361022093600210925F0210925E02AA
:10262000DC01ED91FC910190F081E02D60E00995D5
:10263000CC24C394D12C8D8D9E8DF7016491DC0147
:10264000ED91FC910190F081E02D0995BFEFCB1A3F
:10265000DB0AEFEFEE1AFE0ACDCFDF91CF911F918B
:102660000F91FF90EF90DF90CF900C94EC11EDA5BF
:10267000FEA590818BA98095892380837B011150D1
:1026800070F1F70184912B8D3C8D232B31F00E944A
:10269000610BFFEFEF1AFF0AF2CF28E030E040E8CD
:1026A000E9A5FAA599A9582F5423A9F05081952B93
:1026B0009083EBA5FCA590815AA9952B9083EBA55F
:1026C000FCA550819AA99095952390834695215019
:1026D000310931F7DECF508190959523E9CFDF9115
:1026E000CF911F910F91FF90EF90DF90CF900895C1
:1026F0001F93CF93DF93EC018D8D9E8D009721F179
:10270000162F29A131E030936102209360021092CC
:102710005F0210925E02DC01ED91FC910190F0816C
:10272000E02D60E009958D8D9E8DDC01ED91FC9191
:102730000190F081E02D612F09958D8D9E8DDF91A7
:10274000CF911F910C94EC11ADA5BEA59C918BA9C6
:10275000809589238C938B8D9C8D892B31F0862FCE
:10276000DF91CF911F910C94610B28E030E080E85D
:10277000A9A5BAA599A9462F4823C1F04C91942B3D
:102780009C93ABA5BCA59C914AA9942B9C93ABA50B
:10279000BCA54C919AA9909594239C938695215021
:1027A000310931F7DF91CF911F9108954C919095A8
:1027B0009423E6CF1F93CF93DF93EC01162F8D8DDB
:1027C0009E8D892BB1F12DA93EA94FA958AD60E08E
:1027D00074E284EF90E00E945426205131094109AF
:1027E000510956954795379527952093B80066EA85
:1027F000111167EACE010E9478138D8D9E8D892B71
:1028000041F129AD3AAD4BAD5CAD60E074E284EFCF
:1028100090E00E94542620513109410951095695F2
:102820004795379527952093B800DF91CF911F9159
:1028300008958B8D9C8D892B21F08EAD9FAD0E94CC
:10284000680BEFA5F8A990818CA9809589238083D6
:10285000CECFEFA5F8A980819CA9892B8083E5CFF5
:1028600090E080E008950E94182AFB01019000206A
:10287000E9F73197AF01461B570BDC01ED91FC9155
:102880000280F381E02D09944F925F926F927F92C4
:102890008F929F92AF92BF92CF92DF92EF92FF9270
:1028A0000F931F93CF93DF93CDB7DEB7A1970FB6EA
:1028B000F894DEBF0FBECDBF8C016B01770FEE0821
:1028C000FF08F7FE49C0DC01ED91FC910190F08119
:1028D000E02D6DE209955C0122273327A9012C190F
:1028E0003D094E095F0919A2FE01B1967F019AE0E8
:1028F000492E512C612C712CCA01B901A3019201FE
:102900000E945426605DD7016E937D01211531052B
:102910004105510589F790E080E0109721F0BD0155
:10292000C8010E9435148A0D9B1DA1960FB6F8941C
:10293000DEBF0FBECDBFDF91CF911F910F91FF90F2
:10294000EF90DF90CF90BF90AF909F908F907F904F
:102950006F905F904F900895A701960119A2FE0114
:10296000B1967F018AE0882E912CA12CB12CCA014E
:10297000B901A50194010E945426605DD7016E93B0
:102980007D01211531054105510589F790E080E071
:10299000109759F2BD01C8010E943514C6CF0F939C
:1029A0001F93CF93DF93EC010E9444148C016FE5D9
:1029B00071E0CE010E943514800F911FDF91CF91FD
:1029C0001F910F9108950F931F93CF93DF93EC0105
:1029D0000E9435148C016FE571E0CE010E94351420
:1029E000800F911FDF91CF911F910F910895FC01EE
:1029F000868197819C01295F3F4F37FF02C0295F85
:102A00003F4F83E0359527958A95E1F7848195813D
:102A1000289FA001299F500D389F500D112470E070
:102A200060E0878D90A10C941D2A85ED8093BC00F9
:102A30008091D7019091D801A091D901B091DA018C
:102A40000796A11DB11D23E0B695A795979587958B
:102A50002A95D1F72091BC0024FD03C010922002DA
:102A600008954091D7015091D8016091D90170919A
:102A7000DA01452B462B472B69F30097A105B105D9
:102A800041F025E32A95F1F700000197A109B1096A
:102A9000E1CF8091D6010C9446111F920F920FB690
:102AA0000F9211242F933F938F939F93AF93BF93D4
:102AB0008091100390911103A0911203B091130320
:102AC0003091620223E0230F2D3758F50196A11DA6
:102AD000B11D209362028093100390931103A09381
:102AE0001203B09313038091630290916402A0914A
:102AF0006502B09166020196A11DB11D809363022B
:102B000090936402A0936502B0936602BF91AF9167
:102B10009F918F913F912F910F900FBE0F901F901B
:102B2000189526E8230F0296A11DB11DD2CF1F9242
:102B30000F920FB60F9211242F933F934F935F93F1
:102B40006F937F938F939F93AF93BF93EF93FF9375
:102B50008091520290915302A0915402B09155027B
:102B6000892B8A2B8B2BD1F190914D02E0914E0253
:102B7000F0914F0280818927808380915202909149
:102B80005302A0915402B0915502181619061A0664
:102B90001B069CF48091520290915302A091540222
:102BA000B09155020197A109B10980935202909307
:102BB0005302A0935402B0935502FF91EF91BF913D
:102BC000AF919F918F917F916F915F914F913F91C5
:102BD0002F910F900FBE0F901F90189580910001BC
:102BE000EAE2FAE0E4919FEF90930001E13051F0C6
:102BF00030F0E23069F060E00E944806DECF1092CB
:102C00006E00F9CF90916F009D7F90936F00F3CF8E
:102C1000909170009D7F9093700091E09093B00030
:102C20009091B100987F94609093B1001092B3009E
:102C3000E2CF1F920F920FB60F9211242F933F9362
:102C40004F935F936F937F938F939F93AF93BF93B4
:102C5000EF93FF9387E692E00E947B08FF91EF914C
:102C6000BF91AF919F918F917F916F915F914F91A4
:102C70003F912F910F900FBE0F901F9018951F92AC
:102C80000F920FB60F9211242F938F939F93EF9370
:102C9000FF93E0917702F09178028081E0917D02CC
:102CA000F0917E0282FD1BC09081809180028F5F37
:102CB0008F7320918102821741F0E0918002F0E051
:102CC000E959FD4F958F80938002FF91EF919F917D
:102CD0008F912F910F900FBE0F901F9018958081AC
:102CE000F4CF1F920F920FB60F9211242F933F93A0
:102CF0004F935F936F937F938F939F93AF93BF9304
:102D0000EF93FF938091B900887F803609F44AC021
:102D1000F0F5883209F4A7C018F5803109F49BC09A
:102D2000B8F4882309F4F9C0883009F494C0FF91FD
:102D3000EF91BF91AF919F918F917F916F915F9133
:102D40004F913F912F910F900FBE0F901F901895AC
:102D5000883109F488C0803251F780931F0214C073
:102D6000803409F49DC040F48033B9F38833F9F618
:102D700080931F0285ECB0C0803509F485C088358A
:102D800009F496C0883499F60E941515D0CF883979
:102D900009F48CC038F5883729F050F4883611F0E2
:102DA000803729F683E08093200210921E0257C0DC
:102DB000883809F47BC0803919F0803809F0B7CF22
:102DC00080911E02803208F071C0E0911E0281E005
:102DD0008E0F80931E028091BB00F0E0E250FE4F08
:102DE00080833DC0803B39F0E0F4803A09F479C03B
:102DF000883A09F09CCF84E0809320021092FD0174
:102E00001092FC01E0914902F0914A0209958091EB
:102E1000FC0181110FC081E08093FC011092DC0164
:102E200009C0803C09F4A6CF883C09F4A3CF883BB5
:102E300009F07DCFE091FD0181E08E0F8093FD01CF
:102E4000F0E0E452FE4F80818093BB009091FD0141
:102E50008091FC0129C0809145028093BB0085ECE4
:102E60008093BC0064CF90914402809143029817F4
:102E700058F5E091440281E08E0F80934402F0E027
:102E8000ED5DFD4F8081E9CFE091440281E08E0F3E
:102E9000809344028091BB00F0E0ED5DFD4F8083A4
:102EA00090914402809143029817C8F285E8D8CFE8
:102EB000E091440281E08E0F809344028091BB0038
:102EC000F0E0ED5DFD4F80838091220281115CCFA7
:102ED00081E08093210284EA8093BC00109220025A
:102EE00026CF85EC8093BC001092200280911E02B8
:102EF000803230F4E0911E02F0E0E250FE4F10828A
:102F000060911E0270E0E0914702F09148028EEF5E
:102F100091E0099510921E020ACF10921F0234CF41
:102F2000AF92BF92CF92DF92EF92FF920F931F93D7
:102F3000CF93DF93E7E6F2E01382128288EE93E00C
:102F4000A0E0B0E084839583A683B78323E131E0DA
:102F50003183208325EC30E03587248724EC30E072
:102F60003787268720EC30E0318B208B21EC30E056
:102F7000338B228B22EC30E0358B248B26EC30E037
:102F8000378B268B118E128E138E148E24E0E22E38
:102F900023E0F22EF7011382128284839583A683A5
:102FA000B78385E291E0918380838CE590E00E9475
:102FB000F328EC011BA61AA68FE290E00E94F328EA
:102FC0008C018091070190910801A0910901B091B5
:102FD0000A01F801878B908FA18FB28F80910B012E
:102FE00090910C01A0910D01B0910E01838F948FEF
:102FF000A58FB68F30E8A32EB12CB382A28240E415
:10300000C42ED12CD582C48280E490E00E94F328A3
:10301000FC0113821282B582A482D782C682B18655
:10302000A086D386C286168A1586148617861686CB
:1030300081E0858B848B2FEF3FEF338B228B318B9D
:10304000208B878B108E128E118E87E391E09183F7
:103050008083148E138EF68EE58E10A2178E8FEF5E
:1030600084A385A386A387A380A780E89AE1A6E02E
:10307000B0E085AB96ABA7ABB0AF80EA96E8A1E035
:10308000B0E081AF92AFA3AFB4AF80E586AF17AE2B
:10309000D8011196FC93EE9317961C921E921697E8
:1030A00080E290E019969C938E9318971A961C9242
:1030B0001A971B961C921B971C961C921C97F80142
:1030C0001786108A118A128A53961D921D921D929C
:1030D0001C9256971E961C921983088381E090E0FB
:1030E0000E94F3288C0161E086E00E94760660E091
:1030F00086E00E94480661E088E00E94760660E073
:1031000088E00E94480661E087E00E94760660E061
:1031100087E00E9448061B830A832FB7F8948091AA
:10312000100390911103A0911203B09113032FBFCC
:103130008C839D83AE83BF83188619861A861B866F
:103140001C861D861E861F861C8E1F8E1E8E1CA62C
:103150001DA61EA61FA619A218A2188A198A1A8AC5
:103160001B8A8AE090E09BA78AA719A618A660E0B0
:103170008EE00E94760661E08CE00E94760661E0B7
:103180008BE00E94760661E08AE00E94760660E0AD
:103190008CE00E94480660E08BE00E94480660E0F8
:1031A0008AE00E94480661E085E00E94760660E0C1
:1031B00084E00E947606D0931503C0931403DF9138
:1031C000CF911F910F91FF90EF90DF90CF90BF9024
:1031D000AF900895CF93DF93CDB7DEB7E2970FB6E8
:1031E000F894DEBF0FBECDBF789484B5826084BDF5
:1031F00084B5816084BD85B5826085BD85B58160FB
:1032000085BD80916E00816080936E001092810078
:103210008091810082608093810080918100816033
:1032200080938100809180008160809380008091F4
:10323000B10084608093B1008091B0008160809380
:10324000B00080917A00846080937A0080917A0047
:10325000826080937A0080917A00816080937A0006
:1032600080917A00806880937A001092C100E0918A
:103270007702F091780282E08083E0917302F0910E
:1032800074021082E0917502F09176028FEC8083D7
:1032900010927F02E0917B02F0917C0286E08083B5
:1032A000E0917902F0917A02808180618083E091DF
:1032B0007902F0917A02808188608083E0917902BE
:1032C000F0917A02808180688083E0917902F091A8
:1032D0007A0280818F7D8083E0911403F091150341
:1032E0000190F081E02DC080D180D6015F968D9154
:1032F0009C919097892B51F516962D913C91C9017F
:10330000079697FD079623E0959587952A95E1F70F
:10331000F601248135814C01829EC001839E900D6F
:10332000929E900D11240E94F328D60190969C93B2
:103330008E935F97892B51F462E671E087E692E005
:103340000E94351481E090E00E94242AC6010E9468
:10335000F714F6018681978164817581AC018197AC
:103360000CF486C14054510957FF02C04F5F5F4FB4
:10337000559547956255710977FF02C06F5F7F4F82
:103380007595679510E4E12EF12C02E510E02AE630
:1033900037E0C6010E94700582E0D60192968C93B8
:1033A00092975D968D919C915E97892B09F478C1D7
:1033B0008CE391968C9310924C0210924B021092D7
:1033C0005F0210925E020E9428118BEF97E09093AB
:1033D0004A02809349028CEF97E0909348028093D1
:1033E0004702D60198968C9187FD1FC061E00E942C
:1033F000760661E0F60180A50E94480661E070E073
:1034000080E090E00E94DE0660E0D60198968C9104
:103410000E9448066AE070E080E090E00E94DE06CC
:1034200061E0F60180A50E944806D6015D968D9167
:103430009C915E97892B09F4F8C1D5962D913D9109
:103440004D915C91D89760E074E284EF90E00E9427
:103450005426205131094109510956954795379510
:1034600027952093B80044E066E875E0C6010E9405
:10347000D312F60166816150C6010E94781344E0C0
:1034800062E875E0C6010E94D312D60192968C9133
:1034900060E1813009F064E1C6010E94781344E0E4
:1034A0006EE775E0C6010E94D3128FE8F60185AF82
:1034B000848195818038910509F0CEC186819781FC
:1034C0008034910509F0D6C182A1813009F0C2C1D2
:1034D0008FE9D601DD968C9312E16AEDC6010E9458
:1034E0007813612FC6010E94781361E8C6010E941B
:1034F0007813F60165ADC6010E94781369EDC60127
:103500000E947813D60192968C9162E2813009F084
:1035100061EFC6010E94781346E068E775E0C601D6
:103520000E94D312F601858D968D892B09F4A6C1D0
:1035300021AD32AD43AD54AD60E074E284EF90E074
:103540000E94542620513109410951095695479549
:10355000379527952093B800E0911403F091150357
:103560000190F081E02D808191810E94F714E0911B
:103570001403F09115032FB7F894809110039091E4
:103580001103A0911203B09113032FBF808791877D
:10359000A287B387C0901403D0901503F601008171
:1035A000118183E00E941F0621E0009709F420E0CA
:1035B000D8011A962C931A971D961C92892B09F400
:1035C00081C1F60180859185A285B385F801438983
:1035D0005489658976894C015D01841A950AA60A89
:1035E000B70AB501A401493E53406105710530F0A9
:1035F00021E02487838B948BA58BB68BF8012485DF
:10360000222309F445C183889488A588B688AC0133
:10361000BD014159514061097109481959096A09A7
:103620007B09473552406105710508F031C1D6016B
:10363000ED91FC91868591E0D8011D969C931D9794
:103640001C961C921C971B961C9289278687D60174
:103650002C9111969C9181110C942326808191814B
:103660000E94F714D601ED91FC91178216822AC1AF
:103670004052510957FF02C04F5F5F4F5595479524
:103680006357710977FF02C06F5F7F4F759567952C
:10369000F0E2EF2EF12C03E710E02AE835E079CED6
:1036A00061E0F60186A10E94760661E0D601979658
:1036B0008C910E947606F60186A1082E000C990BCB
:1036C000FC01E25BF54FE491F0E0EE0FFF1FE65CDA
:1036D000F54F25913491D6019E963C932E939D975C
:1036E000FC01EE59F54FE491D396EC93D39797965E
:1036F0008C91082E000C990BFC01E25BF54FE491D4
:10370000F0E0EE0FFF1FE65CF54FA591B491F601D6
:10371000B0ABA7A7FC01EE59F54F9491F60194AB1D
:103720008C91E92FE82BEC93D6015B968D919C91BF
:10373000892B09F434C01FB7F89480914602811197
:1037400027C0E8E5FAE08491ECE6FAE09491E82FEE
:10375000F0E0EE0FFF1FE05DF54FA591B491EC9105
:10376000E92321F461E08AE00E94480661E08AE0F2
:103770000E9476068CB580618CBD8CB580648CBD52
:1037800061E08DE00E94760661E08BE00E947606A3
:10379000809146028F5F809346021FBF22CE61E078
:1037A000F60184A10E94760661E0D60195968C917F
:1037B0000E947606F60184A1082E000C990BFC01EC
:1037C000E25BF54FE491F0E0EE0FFF1FE65CF54F92
:1037D00025913491D6019A963C932E939997FC01AA
:1037E000EE59F54FE491D196EC93D19795968C9143
:1037F000082E000C990BFC01E25BF54FE491F0E020
:10380000EE0FFF1FE65CF54FA591B491F601B4A74A
:10381000A3A7FC01EE59F54F9491F60192AB8C9160
:10382000E92FE095E823EC93DCCDF601838D948DB0
:10383000892B21F086AD97AD0E94680BD6019F962B
:10384000ED91FC91D0979081D4968C9180958923AD
:10385000808309CE8FEC3DCE8036910559F4868168
:103860009781409739F482A1813031F480E1D6010B
:10387000DD968C9312E031CE8FEAF9CFD60107A402
:10388000F0A9E02D8081D4969C91892B808364CE11
:10389000F80147855089618972894C015D01841A5C
:1038A000950AA60AB70AB501A401413D5740610532
:1038B000710540F0238531E0232723878787908B8C
:1038C000A18BB28BD601ED91FC918685882309F4FA
:1038D00017C4D60112960D911C91808191810E948E
:1038E000F714D601ED91FC910190F081E02D8BE46D
:1038F00090E095878487EE24E394F12CF786E686A2
:10390000BB24B394B48AB58AF38AE28AF18AE08A46
:1039100082E00E941007F8018083682F70E084E045
:10392000759567958A95E1F763707727D601ED91D4
:10393000FC91808191810E944414F80160816F7034
:1039400070E0E0911403F09115030190F081E02DF7
:10395000808191810E944414E0911403F091150339
:103960000190F081E02D6FE871E0808191810E94EB
:10397000351481E00E941007D8018C9382958F70D6
:10398000682F70E0E0911403F09115030190F0812D
:10399000E02D808191810E944414F80160816F7054
:1039A00070E0E0911403F09115030190F081E02D97
:1039B000808191810E944414E0911403F0911503D9
:1039C0000190F081E02D6FE871E0808191810E948B
:1039D000351480E00E941007D8018C93682F70E0A6
:1039E00094E0759567959A95E1F767707727E09170
:1039F0001403F09115030190F081E02D80819181F5
:103A00000E944414F80160816F7070E0E09114032B
:103A1000F09115030190F081E02D808191810E9449
:103A20004414E0911403F091150320803180F101DA
:103A3000A081B1815496BC9254975596BC925597EB
:103A40005396FC92EE9252975196FC92EE925097BA
:103A5000418D528D6789708D238D348D260F371FD0
:103A6000ED91FC91119704A0F5A1E02D8A01CD0103
:103A70000995D1018D919C91119759964D915C9129
:103A80005A9757966D917C9158975D962D913C91E0
:103A90008A01021B130BDC01ED91FC9104A0F5A13E
:103AA000E02D9B01099580E10E94A706F10190A3FA
:103AB000878F24E630E0DC010E9499262FEF33E067
:103AC00040E050E00E943526D10192963C932E931F
:103AD000919726E0A22EB12C36EFC32EDD24DA9486
:103AE000F10180819181418D528D4C0D5D1D678961
:103AF000708D9B012E5F3F4F62507109DC01ED918B
:103B0000FC9104A0F5A1E02DEE24E394F12C8A01B0
:103B10000995F10180819181218D328D2C0D3D1D02
:103B2000DC011D961C921E921C971F963C932E93AF
:103B30001E97B5010E94CF14BAE0CB1AD108EFEF5F
:103B4000AE1ABE0AF4ECCF16FFEFDF0649F6D1013C
:103B50005B966D917C91072E000C880B990B0E944F
:103B6000D127F10121A132A1233331050CF0ABC1E2
:103B70002AE030E034A323A320E030E040E251E427
:103B80000E942727D1019B966D937D938D939C93E3
:103B90009E97D12CC12CF1010190F081E02DFAA764
:103BA000E9A7D1015996ED90FC905A9757966D91DF
:103BB0007C91072E000C880B990B0E94D1274B019A
:103BC0005C01D1019B968D919D910D90BC91A02D92
:103BD0008FA798ABA9ABBAABF10183A194A1C8168A
:103BE000D9060CF062C0B6010D2C000C880B990BA5
:103BF0000E94D1272B013C01AC019B016FA578A944
:103C000089A99AA90E946228A50194010E94BB2655
:103C10000E949927870102501109A7014E5F5F4F4B
:103C2000A9A5BAA5ED91FC91119704A0F5A1E02DED
:103C3000EE24E394F12C9B01CD010995F101008163
:103C40001181E18CF28CF3E0EF0EF11CD1019B9617
:103C50002D913D914D915C919E97C301B2010E94BF
:103C600062284B015C01F1016789708D072E000C01
:103C7000880B990B0E94D1279B01AC01C501B401AF
:103C80000E94BB260E949927D8011D967C936E93B3
:103C90001C971F96FC92EE921E97B601C8010E94D7
:103CA000CF14BFEFCB1ADB0A76CF20E030E040E143
:103CB00051E46FA578A989A99AA90E946228A50153
:103CC00094010E94BB2620E030E040EC50E40E94CA
:103CD000BB260E949927E9A5FAA575876487F3E0BA
:103CE000EF0EF11CA9A5BAA51F96FC92EE921E97A5
:103CF00061E971E0CD010E94E314F10181A192A17B
:103D0000B12CA12CC3970CF0ADC14AE0C42ED12C2C
:103D1000E0911403F0911503C6014896880F991F8E
:103D2000E80FF91F00811181D1018D919C911197AC
:103D300059964D915C915A9757966D917C91980147
:103D4000245331092033310508F07AC10253110997
:103D5000401B510B6A0D7B1DDC01ED91FC9100A015
:103D6000F1A1E02DEE24E394F12C2CE030E0099554
:103D7000F1E0CF1AD1082CE0A20EB11CC114D1047D
:103D800039F6E0911403F09115030190F081E02DD4
:103D900000811181D8015D968D919C915E97892B50
:103DA00009F465C6D5962D913D914D915C91D897BA
:103DB00060E074E284EF90E00E94542620513109C3
:103DC0004109510956954795379527952093B80095
:103DD00045E06BE27AE0C8010E94D312F8016481E9
:103DE0006150C8010E947813D80116962D913C911C
:103DF000C901079697FD0796F3E095958795FA9583
:103E0000E1F7F80124813581829F6001839FD00C06
:103E1000929FD00C1124E78CF0A0858D968DCE0C4E
:103E2000DF1C009709F464C621A131E030936102E0
:103E30002093600210925F0210925E02DC01ED910D
:103E4000FC910190F081E02D60E40995AA24A394EF
:103E5000B12C99249394F801858D968DCE14DF04AE
:103E600009F41AC6F0E2AF16B104E0F00E94EC11BA
:103E7000D8015D968D919C915E9791962C91909230
:103E800061022093600210925F0210925E02DC01D8
:103E9000ED91FC910190F081E02D60E40995AA2458
:103EA000A394B12CF801858D968DD7016D917D017C
:103EB000DC01ED91FC910190F081E02D0995BFEFBF
:103EC000AB1ABB0AC8CF12A611A62CE330E034A36C
:103ED00023A320E030E040E451E40E942727D101F1
:103EE0009B966D937D938D939C939E97D12CC12C23
:103EF000F1010190F081E02DFAA7E9A7D1015996CF
:103F0000ED90FC905A9757966D917C91072E000C7E
:103F1000880B990B0E94D1272B013C01F10183A44E
:103F200094A4A5A4B6A483A194A1C816D9060CF0A4
:103F30007CC061A572A5072E000C880B990B0E940E
:103F4000D127A50194010E946228A30192010E9439
:103F5000BB260E949927870102501109A7014E5FD5
:103F60005F4FA9A5BAA5ED91FC91119704A0F5A109
:103F7000E02DEE24E394F12C9B01CD010995F10194
:103F800000811181E18CF28CF3E0EF0EF11CD10184
:103F900099966D917C91072E000C880B990B0E94CD
:103FA000D127F10123A534A545A556A50E94622875
:103FB0004B015C01D10157966D917C91072E000C4D
:103FC000880B990B0E94D1279B01AC01C501B4015C
:103FD0000E94BB2620E030E040EA50E40E94BA266E
:103FE0000E949927F80175876487F786E686F5E0D1
:103FF000CF16D10441F029E1C216D10421F047E3E4
:10400000C416D10421F4B601C8010E94CF14D10115
:1040100099968D919C919A9701969A969C938E93DE
:104020009997B5E0CB0ED11C63CF20E030E040E3A0
:1040300051E4C501B4010E946228A301920141CE5E
:1040400028E730E02A193B09620F731FFC017587CE
:104050006487455051095787468763E971E00E949C
:10406000E31486CE0CE0C02ED12CE0911403F09125
:104070001503C6018296880F991FE80FF91F00816A
:104080001181D1018D919C91119759964D915C911F
:104090005A9757966D917C9198012453310920339A
:1040A0003105E0F402531109401B510B6A0D7B1DD1
:1040B000DC01ED91FC9100A0F1A1E02DEE24E39450
:1040C000F12C2AE030E00995F1E0CF1AD1082AE07E
:1040D000A20EB11CC114D10441F653CE28E730E042
:1040E0002A193B09620F731FFC01758764874550CD
:1040F00051095787468763E971E00E94E314E4CFD2
:104100008E010F5F1F4F88E2D8011D928A95E9F753
:1041100048017E01B9E2EB0EF11C58018EE00E94CD
:10412000A706F501819391935F01EE15FF05B1F7A5
:10413000F80130E020E0819191914DA55EA5480FF6
:10414000591F5EA74DA72331310539F4CA0164E137
:1041500070E00E9485267EA76DA72F5F3F4F243118
:10416000310549F7D601ED91FC9126813781C901CE
:104170000196978386838138910544F080819181EF
:104180002F573109378326830E94F714F401819158
:1041900091914F01D601ED91FC91208531854DA57E
:1041A0005EA5481759070CF07AC1841B950B281B94
:1041B000390B3187208780819181668177810085E5
:1041C0001185DC01ED91FC9104A0F5A1E02DEE2418
:1041D000E394F12C9B0140E250E009958A149B0482
:1041E000A9F6F601848D0190F081E02D20853185BE
:1041F000213231050CF45AC1882309F451C00091D1
:10420000140310911503D60118968D909D90AD90D2
:10421000BC901B971C968D919D910D90BC91A02DEB
:10422000A5019401281B390B4A0B5B0B62E05695E4
:104230004795379527956A95D1F760E67AEE80E045
:1042400090E00E945426F601378F268F2F513109B6
:10425000293A3105E0F4D801ED91FC9111970190D4
:10426000F081E02D85E090E09587848797878687A9
:1042700081E090E0918B808B138A128A82E0848B9C
:10428000858B5E966D917C91CF010E94CF14F601D3
:1042900084869586A686B786848D91E08927848F4B
:1042A0000091140310911503F80180859185A28572
:1042B000B385408D518D628D738D841B950BA60B3C
:1042C000B70B893E9340A105B10508F476C0D8012B
:1042D00096962D913C9197975E968D919C915F97C4
:1042E0002A3031050CF0E9C0F9017896EE0FFF1F76
:1042F000E00FF11F91838083E5E0F0E0C901BF0189
:104300000E948526892B09F04AC0232B09F447C057
:10431000D80198962D913C919997D0968D919C912A
:10432000D1972C3031050CF0F3C0D2964D915C91B1
:10433000D397840F951FD4964D915C91D597840F98
:10434000951FD6964D915C91D797840F951FD8965F
:104350004D915C91840F951FBF010E948526C90174
:10436000880F991F800F911FFC01EC5BFF4F718339
:1043700060836536710514F4672B51F421153105FE
:1043800039F08E5B9F4FDC018D919C9191838083EE
:104390002F5F3F4FD80199963C932E939897F80141
:1043A00086A197A1019697A386A380859185A28572
:1043B000B385808F918FA28FB38F84E00E941F06F8
:1043C00021E0009709F420E0D8015D962C935D97D9
:1043D000892B69F118968D919D910D90BC91A02D1E
:1043E000F8014489558966897789841B950BA60B4A
:1043F000B70B893E9340A105B105C8F0D8015E9680
:104400006C915E9792968D919C910E942726F8015F
:1044100082A193A195A384A3019693A382A38085EF
:104420009185A285B385848B958BA68BB78BA09045
:104430001403B0901503D501ED91FC91119783857C
:10444000882309F482C25E960D911C91B801012E59
:10445000000C880B990B0E94D1279B01AC0160E0F6
:1044600070E080E792E40E9427276B017C01F50150
:10447000C4A6D5A6E6A6F7A68FEF90E002331105F5
:104480000CF4D4C0C801C297899708F0C6C08AE569
:1044900090E0D50191969C938E939097C9C0ADA55D
:1044A000BEA5A81BB90B2A0F3B1F83CE8111F8CEE6
:1044B00081E0D6015C968C93F3CEF80142A953A912
:1044C00051AB40AB44A955A953AB42AB46A957A940
:1044D00055AB44AB40AD51AD57AB46AB42AD53AD20
:1044E00051AF40AF44AD55AD53AF42AF46AD57AD00
:1044F00055AF44AFA05CBF4F4D915C91119757AF42
:1045000046AFEE5BFF4F408151814D935C93F2CEFD
:10451000A8014A5B5F4FDA016D917C911197129768
:104520006D937C937801B8E4EB0EF11CD7016D918B
:104530007C91DA016D937C934C5F5F4FDA016D9152
:104540007C91D7016D937C937801BCE4EB0EF11C58
:10455000D7016D917C91DA016D937C934C5F5F4F35
:10456000DA016D917C91D7016D937C937801B0E570
:10457000EB0EF11CD7016D917C91DA016D937C9368
:104580004C5F5F4FDA016D917C91D7016D937C9305
:104590007801B4E5EB0EF11CD7016D917C91DA0145
:1045A0006D937C934C5F5F4FDA016D917C91D701E5
:1045B0006D937C936801B8E5CB0ED11CD6016D914B
:1045C0007C91DA016D937C937801BAE5EB0EF11CD6
:1045D000D7014D915C91D6014D935C93D801D29651
:1045E0004D915C91D397480F591FD4968D919C9112
:1045F000D597480F591FD6968D919C91D797840FC8
:10460000951FD8964D915C91840F951FBF010E9414
:104610008526F70171836083BBCEC8018A55910955
:104620008135910508F098C082E090E091A380A3C5
:10463000F5016085718582859385408851886288FF
:10464000738864197509860997090E94CF272B0181
:104650003C0120E030E04AE754E4C701B6010E9483
:1046600062289B01AC01C301B2010E945D281816AB
:104670000CF06BC10F3111050CF467C1D501909698
:104680008D909C9080910001853009F06EC0EAE227
:10469000FAE0149117FD50C161E085E00E947606B2
:1046A000112319F0123009F06AC12401712C612C18
:1046B00060E072E18AE790E0A30194010E94352650
:1046C00029A73AA74BA75CA769017A01B1E0CB1AE9
:1046D000D108E108F108EFEFCE16D104E104F104AE
:1046E00009F00CF4FFC060E472E48FE090E0A301F5
:1046F00094010E94352669017A01F1E0CF1AD108B0
:10470000E108F108123009F0A2C082E02FEFC216D2
:10471000D104E104F104C9F0C4F060E970ED83E074
:1047200090E0A30194010E94352669017A0161E0BD
:10473000C61AD108E108F1088FEFC816D104E104C8
:10474000F10411F00CF036C283E09091B100987F33
:10475000892B8093B100CDC0C8018B5A9109C197B4
:1047600008F066CF81E090E094CE8F3F09F0E4C07E
:1047700085E080930001EAE2FAE014911F3F09F41A
:10478000DBC0113021F150F0123009F43EC017FDAA
:10479000D3C061E085E00E94760684CF14BC15BCCE
:1047A00084B5826084BD85B5816085BDE3E5FAE0AE
:1047B000E491F0E0EE0FFF1FE65CF54F85919491D8
:1047C000E7E6FAE0E491E093510210E065CF109241
:1047D0008000109281008091810088608093810028
:1047E00080918100816080938100E3E5FAE0E491AB
:1047F000F0E0EE0FFF1FE65CF54F85919491E7E640
:10480000FAE0E491E093500247CF1092B00010928A
:10481000B1008091B00082608093B0008091B100BF
:1048200081608093B100E3E5FAE0E491F0E0EE0FFF
:10483000FF1FE65CF54F8591949190934F02809312
:104840004E02E7E6FAE0E491E0934D0225CF9FEFB8
:10485000C916D104E104F10409F00CF48EC068E437
:1048600078EE81E090E0A30194010E943526690171
:104870007A01A1E0CA1AD108E108F10884E0111117
:10488000C1C183E0BFEFCB16D104E104F10469F1AB
:1048900064F162E17AE780E090E0A30192010E9476
:1048A000352669017A0191E0C91AD108E108F108B9
:1048B00084E0AFEFCA16D104E104F104B1F0A8F02E
:1048C000C9A4DAA4EBA4FCA49AE0F594E794D794E5
:1048D000C7949A95D1F7B1E0CB1AD108E108F10855
:1048E00085E003C081E0111130CF95B5987F892B09
:1048F00085BD9401220F331FA2E3B0E00E9476260B
:1049000028EE33E040E050E00E945426113009F4D4
:1049100068C0123009F477C011110EC0C7BC2093D3
:104920005A0230935B0240935C0250935D02809187
:104930006E00826080936E00F50180859185A2856E
:10494000B385808B918BA28BB38BE0911403F09194
:104950001503868D978D9C0122533109283231052C
:1049600008F061C061E08AE00E94480660E08CE0E7
:104970000E94480660E08BE066C082E0B4CF712CF4
:10498000612C60E072E18AE790E0A30194010E944B
:10499000352669017A01E1E0CE1AD108E108F10873
:1049A00091E0C114D104F1E0EF06F10484F068E471
:1049B00078EE81E090E0A30194010E943526690120
:1049C0007A0161E0C61AD108E108F10893E01130DC
:1049D00009F08FCF80918100887F892B809381009F
:1049E00088CFD0928900C0928800209356023093DD
:1049F0005702409358025093590280916F00826091
:104A000080936F0099CFC092B300209352023093ED
:104A1000530240935402509355028091700082607B
:104A20008093700089CF9C012A55310920353105CA
:104A300068F461E08BE00E94480660E08CE00E9430
:104A4000480660E08AE00E9448069BC99C012A5AF9
:104A500031092233310520F04E9760E0449708F485
:104A600061E08CE00E94480660E08AE081CFF801B6
:104A7000838D948D892B21F086AD97AD0E94680BB4
:104A8000D8019F96ED91FC91D0979081D4968C910E
:104A90008095892380839CC90E94EC11F801858D43
:104AA000968D892B09F46AC021AD32AD43AD54AD6A
:104AB00060E074E284EF90E00E94542620513109B6
:104AC0004109510956954795379527952093B80088
:104AD00080E090E0892B11F40C94B71A0E946708CB
:104AE000882311F40C94B71A0E9400000C94B71A92
:104AF000D80105A4F6A5E02D8081D3969C91892B41
:104B00008083CE14DF0451F2F70181917F01D80137
:104B10005B962D913C91232B19F00E94610BF1CFF4
:104B200028E030E040E8D8019996ED91FC919A9701
:104B3000D1969C91582F5423E9F05081952B908366
:104B4000D8019B96ED91FC919C979081D2965C91B7
:104B5000D297952B90839B96ED91FC919C975081D9
:104B6000D2969C919095952390834695215031093A
:104B7000D1F6C7CF508190959523E1CFD80107A4F6
:104B8000F0A9E02D8081D4969C91892B8083A0CFC1
:104B9000C9A4DAA4EBA4FCA48AE0F594E794D79422
:104BA000C7948A95D1F7E1E0CE1AD108E108F1085F
:104BB00087E0CBCD68E478EE81E090E0A30194013A
:104BC0000E94352669017A01F1E0CF1AD108E10887
:104BD000F10884E02FEFC216D104E104F10409F0DA
:104BE0000CF4B3CD64E274EF80E090E0A301920195
:104BF0000E94352669017A01B1E0CB1AD108E1089B
:104C0000F10885E0EFEFCE16D104E104F10409F0DC
:104C100008F49BCD62E17AE780E090E0A301920185
:104C20000E94352669017A0161E0C61AD108E108BF
:104C3000F1088FEFC816D104E104F10411F008F077
:104C4000A7CF86E082CDE22FF92F0C94691C262F86
:104C5000F999FECF1FBA92BD81BD20BD0FB6F89461
:104C6000FA9AF99A0FBE01960895052E97FB1EF445
:104C700000940E944C2657FD07D00E94542607FC42
:104C800003D04EF40C944C265095409530952195C8
:104C90003F4F4F4F5F4F0895909580957095619568
:104CA0007F4F8F4F9F4F0895A1E21A2EAA1BBB1B67
:104CB000FD010DC0AA1FBB1FEE1FFF1FA217B307E8
:104CC000E407F50720F0A21BB30BE40BF50B661FFE
:104CD000771F881F991F1A9469F7609570958095C2
:104CE00090959B01AC01BD01CF010895A29FB00139
:104CF000B39FC001A39F700D811D1124911DB29F10
:104D0000700D811D1124911D089597FB072E16F437
:104D1000009407D077FD09D00E94A02607FC05D09B
:104D20003EF4909581959F4F0895709561957F4FC2
:104D300008950E947626B7FF0895821B930B08956D
:104D4000AA1BBB1B51E107C0AA1FBB1FA617B707B1
:104D500010F0A61BB70B881F991F5A95A9F78095CD
:104D60009095BC01CD010895EE0FFF1F0590F491C1
:104D7000E02D09945058BB27AA270E94D2260C94F4
:104D800023280E94152838F00E941C2820F039F4AE
:104D90009F3F19F426F40C9412280EF4E095E7FBDB
:104DA0000C940C28E92F0E94342858F3BA17620794
:104DB00073078407950720F079F4A6F50C9456281C
:104DC0000EF4E0950B2EBA2FA02D0B01B901900126
:104DD0000C01CA01A0011124FF27591B99F0593F6A
:104DE00050F4503E68F11A16F040A22F232F342FB2
:104DF0004427585FF3CF469537952795A795F04000
:104E00005395C9F77EF41F16BA0B620B730B840B14
:104E1000BAF09150A1F0FF0FBB1F661F771F881FCC
:104E2000C2F70EC0BA0F621F731F841F48F4879524
:104E300077956795B795F7959E3F08F0B0CF939516
:104E4000880F08F09927EE0F9795879508950E948F
:104E50003B270C9423280E941C2858F00E941528F8
:104E600040F029F45F3F29F00C940C2851110C9468
:104E700057280C9412280E94342868F39923B1F320
:104E8000552391F3951B550BBB27AA276217730770
:104E9000840738F09F5F5F4F220F331F441FAA1F04
:104EA000A9F335D00E2E3AF0E0E832D091505040C0
:104EB000E695001CCAF72BD0FE2F29D0660F771F6E
:104EC000881FBB1F261737074807AB07B0E809F054
:104ED000BB0B802DBF01FF2793585F4F3AF09E3FD9
:104EE000510578F00C940C280C9457285F3FE4F39C
:104EF000983ED4F3869577956795B795F7959F5F1C
:104F0000C9F7880F911D9695879597F90895E1E067
:104F1000660F771F881FBB1F621773078407BA07C6
:104F200020F0621B730B840BBA0BEE1F88F7E09521
:104F300008950E94A0276894B1110C9457280895F1
:104F40000E943C2888F09F5798F0B92F9927B751B5
:104F5000B0F0E1F0660F771F881F991F1AF0BA951D
:104F6000C9F714C0B13091F00E945628B1E00895FD
:104F70000C945628672F782F8827B85F39F0B93FEF
:104F8000CCF3869577956795B395D9F73EF49095D0
:104F90008095709561957F4F8F4F9F4F0895E8944E
:104FA00009C097FB3EF490958095709561957F4F71
:104FB0008F4F9F4F9923A9F0F92F96E9BB2793951F
:104FC000F695879577956795B795F111F8CFFAF42F
:104FD000BB0F11F460FF1BC06F5F7F4F8F4F9F4F60
:104FE00016C0882311F096E911C0772321F09EE8BE
:104FF000872F762F05C0662371F096E8862F70E024
:1050000060E02AF09A95660F771F881FDAF7880FFD
:105010009695879597F9089597F99F6780E870E0CE
:1050200060E008959FEF80EC089500240A9416161E
:10503000170618060906089500240A941216130686
:10504000140605060895092E0394000C11F4882314
:1050500052F0BB0F40F4BF2B11F460FF04C06F5F30
:105060007F4F8F4F9F4F089557FD9058440F551F06
:1050700059F05F3F71F04795880F97FB991F61F0DA
:105080009F3F79F087950895121613061406551F51
:10509000F2CF4695F1DF08C0161617061806991FBD
:1050A000F1CF86957105610508940895E894BB27B2
:1050B00066277727CB0197F908950E94CF2808F437
:1050C0008FEF08950E9475280C9423280E941528BC
:1050D00038F00E941C2820F0952311F00C940C2825
:1050E0000C94122811240C9457280E94342870F331
:1050F000959FC1F3950F50E0551F629FF001729F7D
:10510000BB27F00DB11D639FAA27F00DB11DAA1F8B
:10511000649F6627B00DA11D661F829F2227B00DD8
:10512000A11D621F739FB00DA11D621F839FA00D63
:10513000611D221F749F3327A00D611D231F849FB3
:10514000600D211D822F762F6A2F11249F5750400A
:105150009AF0F1F088234AF0EE0FFF1FBB1F661F85
:10516000771F881F91505040A9F79E3F510580F04E
:105170000C940C280C9457285F3FE4F3983ED4F32A
:10518000869577956795B795F795E7959F5FC1F7F2
:10519000FE2B880F911D9695879597F90895990F85
:1051A0000008550FAA0BE0E8FEEF16161706E807F1
:1051B000F907C0F012161306E407F50798F0621B12
:1051C000730B840B950B39F40A2661F0232B242BE7
:1051D000252B21F408950A2609F4A140A6958FEF06
:1051E000811D811D08950F931F93CF93DF9382300C
:1051F000910510F482E090E0E0911803F09119031A
:1052000030E020E0B0E0A0E0309799F421153105BE
:1052100009F44AC0281B390B24303105D8F58A819E
:105220009B816115710589F1FB0193838283FE01E6
:1052300011C0408151810281138148175907E0F064
:105240004817590799F4109761F012960C9312972A
:1052500013961C933296CF01DF91CF911F910F913E
:1052600008950093180310931903F4CF2115310505
:1052700051F04217530738F0A901DB019A01BD0133
:10528000DF01F801C1CFEF01F9CF909319038093AB
:105290001803CDCFFE01E20FF31F819391932250AB
:1052A000310939832883D7CF209116033091170312
:1052B000232B41F420910301309104013093170313
:1052C000209316032091010130910201211531052F
:1052D00041F42DB73EB74091050150910601241BC2
:1052E000350BE0911603F0911703E217F307A0F4D2
:1052F0002E1B3F0B2817390778F0AC014E5F5F4F2C
:105300002417350748F04E0F5F1F50931703409343
:105310001603819391939FCFF0E0E0E09CCFCF9371
:10532000DF930097E9F0FC01329713821282A0917B
:105330001803B0911903ED0130E020E01097A1F4BB
:1053400020813181820F931F209116033091170322
:105350002817390709F061C0F0931703E09316038B
:10536000DF91CF910895EA01CE17DF07E8F54A8172
:105370005B819E0141155105B1F7E901FB83EA8389
:1053800049915991C40FD51FEC17FD0761F4808135
:1053900091810296840F951FE90199838883828108
:1053A00093819B838A83F0E0E0E012968D919C913B
:1053B00013970097B9F52D913C911197CD01029665
:1053C000820F931F20911603309117032817390776
:1053D00039F6309751F51092190310921803B093D3
:1053E0001703A0931603BCCFD383C283408151819E
:1053F000840F951FC817D90761F44E5F5F4F8881EE
:105400009981480F591F518340838A819B819383DF
:1054100082832115310509F0B0CFF0931903E09391
:1054200018039ECFFD01DC01C0CF13821282D7CFBB
:1054300081E090E0F8940C94242ADC0101C06D9383
:0C54400041505040E0F70895F894FFCF71
:10544C00FF00001A038000050032007800320000D3
:10545C000000009D08FD072A08EA085B0839084D82
:10546C000800000000BD1190113014231089117632
:10547C0011671100000000A60DFD0730140011B1DA
:10548C000A23104C10241040103410531023106CAD
:10549C000BDA13210A6A0A6C0F4F0FD70E780E0D18
:1054AC000A00446973706C61793120696E697469A2
:1054BC00616C697A6174696F6E206661696C656490
:1054CC002C2065786974696E672E2E2E2E0A003A90
:0654DC0000730046000011
:00000001FF
