:100000000C9446050C946E050C946E050C946E05CC
:100010000C946E050C946E050C946E050C9497155B
:100020000C946E050C946E050C946E050C946E0584
:100030000C946E050C946E050C946E050C946E0574
:100040000C944D150C946E050C943F160C941916D7
:100050000C946E050C946E050C946E050C946E0554
:100060000C9471160C946E0500000000003E5B4F6E
:100070005B3E3E6B4F6B3E1C3E7C3E1C183C7E3C08
:10008000181C577D571C1C5E7F5E1C00183C180016
:10009000FFE7C3E7FF0018241800FFE7DBE7FF30A6
:1000A000483A060E2629792926407F050507407F14
:1000B00005253F5A3CE73C5A7F3E1C1C08081C1C87
:1000C0003E7F14227F22145F5F005F5F06097F017D
:1000D0007F006689956A606060606094A2FFA29468
:1000E00008047E040810207E201008082A1C080836
:1000F0001C2A08081E101010100C1E0C1E0C303884
:100100003E3830060E3E0E06000000000000005F84
:1001100000000007000700147F147F14242A7F2AA0
:100120001223130864623649562050000807030062
:10013000001C2241000041221C002A1C7F1C2A08AE
:10014000083E080800807030000808080808000011
:1001500060600020100804023E5149453E00427F85
:10016000400072494949462141494D331814127FD4
:100170001027454545393C4A494931412111090774
:100180003649494936464949291E000014000000F5
:1001900040340000000814224114141414140041C7
:1001A00022140802015909063E415D594E7C121184
:1001B000127C7F494949363E414141227F414141BC
:1001C0003E7F494949417F090909013E4141517337
:1001D0007F0808087F00417F41002040413F017FA8
:1001E000081422417F404040407F021C027F7F0470
:1001F00008107F3E4141413E7F090909063E4151B9
:10020000215E7F09192946264949493203017F01A8
:10021000033F4040403F1F2040201F3F4038403FA9
:10022000631408146303047804036159494D4300BF
:100230007F4141410204081020004141417F0402F6
:10024000010204404040404000030708002054548D
:1002500078407F284444383844444428384444286B
:100260007F385454541800087E090218A4A49C78BE
:100270007F0804047800447D40002040403D007F1A
:100280001028440000417F40007C047804787C08FA
:100290000404783844444438FC18242418182424CE
:1002A00018FC7C08040408485454542404043F44B3
:1002B000243C4040207C1C2040201C3C4030403CE2
:1002C00044281028444C9090907C4464544C440042
:1002D00008364100000077000000413608000201A6
:1002E0000204023C2623263C1EA1A161123A404092
:1002F000207A38545455592155557941225454780F
:1003000042215554784020545579400C1E527212A7
:100310003955555559395454545939555454580030
:1003200000457C410002457D420001457C407D1234
:1003300011127DF0282528F07C5455450020545496
:100340007C547C0A097F4932494949323A44444441
:100350003A324A4848303A4141217A3A424020787C
:10036000009DA0A07D3D4242423D3D4040403D3C7D
:1003700024FF2424487E4943662B2FFC2F2BFF09A2
:1003800029F620C0887E0903205454794100004496
:100390007D413048484A32384040227A007A0A0A81
:1003A000727D0D19317D2629292F282629292926F4
:1003B00030484D4020380808080808080808382F39
:1003C00010C8ACBA2F102834FA00007B00000814C3
:1003D0002A142222142A14085500550055AA55AA99
:1003E00055AAFF55FF55FF000000FF00101010FF39
:1003F00000141414FF001010FF00FF1010F010F094
:10040000141414FC001414F700FF0000FF00FF1484
:1004100014F404FC141417101F10101F101F1414D0
:10042000141F00101010F0000000001F101010101A
:100430001F10101010F010000000FF10101010100E
:1004400010101010FF10000000FF140000FF00FF4C
:1004500000001F10170000FC04F4141417101714E8
:1004600014F404F40000FF00F7141414141414140A
:10047000F700F7141414171410101F101F1414147D
:10048000F4141010F010F000001F101F0000001FE7
:1004900014000000FC140000F010F01010FF10FF1A
:1004A000141414FF141010101F00000000F010FFAF
:1004B000FFFFFFFFF0F0F0F0F0FFFFFF0000000093
:1004C00000FFFF0F0F0F0F0F3844443844FC4A4A17
:1004D0004A347E02020606027E027E0263554941CC
:1004E000633844443C04407E201E2006027E020203
:1004F00099A5E7A5991C2A492A1C4C7201724C3017
:100500004A4D4D303048784830BC625A463D3E49ED
:100510004949007E0101017E2A2A2A2A2A44445F91
:10052000444440514A444040444A51400000FF0185
:1005300003E080FF000008086B6B08361236243693
:10054000060F090F060000181800000010100030F8
:1005500040FF0101001F01011E00191D1712003C80
:100560003C3C3C0000000000000103070F1F3F7FE0
:100570000080C0E0F0F8FCFEDB40A4A62EAF200017
:10058000A1C8D300408DAED580A800006000000057
:100590000000000000000000000000E0000000007B
:1005A00000000000000000000001E000000000006A
:1005B000000000000000000001F00000000000004A
:1005C0000000000000000003F00000000000000038
:1005D00000000000000007F0000000000000000024
:1005E000000000000007F80000000000000000000C
:1005F000000000000FF800000003C0007E000001B2
:10060000E0007F0FF800000003C000FE000001E0E2
:1006100000FFEFF800000003C000FE000001E00052
:10062000FFFFF800000003C000F00000000F007F93
:10063000FE7FC0000003C000F00000000F003FFE7E
:100640007FF83FF1FBCFFCFEF3BC3DEFE01FFE7FE8
:10065000FF7FFBFFDFFEFEFFBC3DEFE01FC6FFFF9D
:100660007FFBFFDFFEFEFFBC3DEFE00FE3C7FE7840
:100670007BC3DE1EF0FFBC3DEF0007FF87FC787BED
:10068000C3DE1EF0F83C3DEF0001FFFFF0007BC32E
:10069000C01EF0F03C3DEF0001F37FE03FFBC3CF15
:1006A000FEF0F03C3DEF0003E33F807FFBC3DFFE45
:1006B000F0F03C3DEF0007E73C00787BC3DE1EF026
:1006C000F03C3DEF0007FFBE00787BC3DE1EF0F07C
:1006D0003C3DEF0007FFFE00787BC3DE1EF0F03CE0
:1006E0003DEF000FFFFE007FFBFFDFFEF0F03FFD60
:1006F000EFE00FFFFF007FFBFFDFFEF0F03FFDEFBD
:10070000E00FF9FF003E79F9CF9EF0F01F3DE7E0E2
:100710001FF1FF0000000000000000000000001FAB
:1007200080FF007FFFFFFFFFFFFFFFFFFFE01C00D8
:100730007F007FFFFFFFFEB46D888D18E000001F73
:10074000007FFFFFFFFE95AD7DB577E000000F0055
:100750007FFFFFFFFEA5AD9D8D19E0000006007F25
:10076000FFFFFFFEB5ADEDB57EE00000000000012B
:100770008000000000000000000003800000000076
:10078000000000000007C0000000000000000000A2
:1007900007C00000000000000000000FC0000000C3
:1007A0000000000000001FE000000000000000004A
:1007B000001FE00000000000000000003FE000001B
:1007C000000000000000003FF000000000000000FA
:1007D00000007FF0000000000000001FF87FF00024
:1007E0000000000000003FFE7FF00000000000005D
:1007F000003FFF7FF0000000000000001FFFFBE053
:10080000000000000000000FFFF9FFC00000000022
:1008100000000FFFF9FFF800000000000007FFF1E3
:10082000FFFF00000000000003FC73FFFF800000DA
:1008300000000001FE3FFFFF80000000000000FFFD
:100840001E0FFF000000000000007FFE1FFC0000E4
:1008500000000000003FFFFFF80000000000000063
:100860000FDFFFE0000000000000001F19FFC000C4
:100870000000000000003F3CFF00000000000000FE
:10088000007E7CF800000000000000007FFE7C007D
:1008900000000000000000FFFFFC0000000000005E
:1008A0000000FFFFFE0000000000000000FFFFFE50
:1008B0000000000000000001FFEFFE00000000004B
:1008C000000001FFCFFE0000000000000003FF0752
:1008D000FE0000000000000003FC07FE0000000016
:1008E00000000003F003FE00000000000000018093
:1008F00000FE000000000000000000007E0000007C
:10090000000000000000003E0000000000000000A9
:1009100000000C000000000000078000FC00000345
:10092000C0000000078001FC000003C000000007B9
:100930008001FC000003C0000000078001E000000F
:10094000001E000000078001E00000001E007FE3A1
:10095000F79FF9FDE7787BDFC0FFF7FFBFFDFDFFE5
:10096000787BDFC0FFF7FFBFFDFDFF787BDFC0F0C6
:10097000F787BC3DE1FF787BDE00F0F787BC3DE107
:10098000F0787BDE0000F787803DE1E0787BDE00D9
:100990007FF7879FFDE1E0787BDE00FFF787BFFDF3
:1009A000E1E0787BDE00F0F787BC3DE1E0787BDEBC
:1009B00000F0F787BC3DE1E0787BDE00F0F787BC14
:1009C0003DE1E0787BDE00FFF7FFBFFDE1E07FFB6C
:1009D000DFC0FFF7FFBFFDE1E07FFBDFC07CF3F38B
:1009E0009F3DE1E03E7BCFC0000000000000000022
:1009F000000000FFFFFFFFFFFFFFFFFFFFC0FFFF43
:100A0000FFFFFD68DB111A31C0FFFFFFFFFD2B5A0E
:100A1000FB6AEFC0FFFFFFFFFD4B5B3B1A33C0FFDC
:100A2000FFFFFFFD6B5BDB6AFDC0022200FF2100C0
:100A300000000000240027002A000000000025001C
:100A400028002B00000000002300260029000404D9
:100A50000404040404040202020202020303030366
:100A60000303010204081020408001020408102042
:100A70000102040810200000000800020100000329
:100A800004070000000000000000901711241FBEA2
:100A9000CFEFD8E0DEBFCDBF11E0A0E0B1E0E4E0F1
:100AA000F4E502C005900D92A43AB107D9F723E00E
:100AB000A4EAB1E001C01D92A832B207E1F715E047
:100AC000C6E4D5E004C02197FE010E949026C534FB
:100AD000D107C9F70E94D6180C94002A0C94000084
:100AE0003F924F925F926F927F928F929F92AF92BE
:100AF000BF92CF92DF92EF92FF920F931F93CF930B
:100B0000DF9300D000D0CDB7DEB79C838B833B0151
:100B10006A015901DC01ED91FC910284F385E02D1D
:100B200009952801B7E04B0E511C93E0559447946A
:100B30009A95E1F7C6018E0D9F1D9A838983912CAA
:100B4000812C312CF12CE12CC70187709927330CB3
:100B5000892B59F4F70183E0F595E7958A95E1F73C
:100B6000E80DF91DEA0DFB1D349037FE10C0AB8176
:100B7000BC81ED91FC9111970484F585E02D21E075
:100B800030E0A601B701660D771DCD010995BFEFD5
:100B9000EB1AFB0A0E151F05B9F68FEFC81AD80A13
:100BA000840C951CA981BA81CA16DB0659F6AB8163
:100BB000BC81ED91FC9111970688F789E02DCD015C
:100BC0000F900F900F900F90DF91CF911F910F9189
:100BD000FF90EF90DF90CF90BF90AF909F908F905D
:100BE0007F906F905F904F903F900994833081F099
:100BF00028F4813099F08230A9F008958730A9F067
:100C00008830C9F08430B1F4809180008F7D03C0BA
:100C1000809180008F7780938000089584B58F77CE
:100C200084BD089584B58F7DFBCF8091B0008F7710
:100C30008093B00008958091B0008F7DF9CFCF935D
:100C4000DF93282F30E0F901EA58F54F8491F9013C
:100C5000EE59F54FD491F901E25BF54FC491CC23E5
:100C6000A1F081110E94F605EC2FF0E0EE0FFF1FBE
:100C7000EC5BF54FA591B491EC91ED2381E090E010
:100C800009F480E0DF91CF91089580E090E0FACF01
:100C90001F93CF93DF93282F30E0F901EA58F54FE7
:100CA0008491F901EE59F54FD491F901E25BF54FCA
:100CB000C491CC23A9F0162F81110E94F605EC2FC8
:100CC000F0E0EE0FFF1FE65CF54FA591B4918FB7F2
:100CD000F894EC91111108C0D095DE23DC938FBFFE
:100CE000DF91CF911F910895DE2BF8CFCF93DF9343
:100CF00090E0FC01EE59F54F2491825B954FFC0189
:100D000084918823D1F090E0880F991FFC01E05D69
:100D1000F54FA591B491FC01E65CF54FC591D491D6
:100D200061110EC09FB7F8948C91E22FE0958E234D
:100D30008C932881E223E8839FBFDF91CF910895B0
:100D40008FB7F894EC91E22BEC938FBFF6CF8E50D7
:100D5000806480937C0080917A00806480937A0024
:100D600080917A0086FDFCCF809178009091790087
:100D700008953FB7F8948091710290917202A0910A
:100D80007302B091740226B5A89B05C02F3F19F0DD
:100D90000196A11DB11D3FBFBA2FA92F982F8827FB
:100DA000BC01CD01620F711D811D911D42E0660FD6
:100DB000771F881F991F4A95D1F708958F929F92A8
:100DC000AF92BF92CF92DF92EF92FF924B015C0104
:100DD0000E94B9066B017C010E94B9066C197D095D
:100DE0008E099F09683E734081059105A8F321E0B3
:100DF000821A9108A108B10888EEC80E83E0D81EB7
:100E0000E11CF11C81149104A104B10429F7FF90A5
:100E1000EF90DF90CF90BF90AF909F908F9008950C
:100E2000EF92FF920F931F93CF93DF93082F61E010
:100E300088E00E94480661E070E080E090E00E9457
:100E4000DE0661E087E00E94480661E070E080E035
:100E500090E00E94DE0661E086E00E94480661E0C4
:100E600070E080E090E00E94DE0660E086E00E9494
:100E7000480661E070E080E090E00E94DE06D0E08D
:100E8000C0E0EE24E394F12C10E0B7010C2E02C078
:100E9000660F771F0A94E2F7602371230C2E02C0BD
:100EA000759567950A94E2F787E00E94480661E02D
:100EB00070E080E090E00E94DE0661E086E00E9443
:100EC000480661E070E080E090E00E94DE0660E0AD
:100ED00086E00E94480661E070E080E090E00E94B9
:100EE000DE062196C530D10581F660E087E00E94DC
:100EF000480661E070E080E090E00E94DE0661E07C
:100F000086E00E94480661E070E080E090E00E9488
:100F1000DE0660E086E00E94480661E070E080E066
:100F200090E00E94DE0661E087E00E94480661E0F2
:100F300070E080E090E00E94DE0661E086E00E94C2
:100F4000480661E070E080E090E00E94DE0660E02C
:100F500087E00E94760661E070E080E090E00E9409
:100F6000DE06D0E0C0E010E060E086E00E944806C7
:100F700061E070E080E090E00E94DE0687E00E9481
:100F80001F060C2E01C0880F0A94EAF7180F61E0C3
:100F900086E00E94480661E070E080E090E00E94F8
:100FA000DE062196C830D105F9F660E086E00E94A1
:100FB000480661E070E080E090E00E94DE0660E0BC
:100FC00086E00E94480661E070E080E090E00E94C8
:100FD000DE0661E087E00E94760661E070E080E076
:100FE00090E00E94DE06812FDF91CF911F910F913B
:100FF000FF90EF90089508950895AF92BF92CF9219
:10100000DF92EF92FF920F931F93CF93DF936C01C8
:101010007B018B01040F151FEB015E01AE18BF08A9
:10102000C017D10759F06991D601ED91FC9101905B
:10103000F081E02DC6010995892B79F7C501DF9173
:10104000CF911F910F91FF90EF90DF90CF90BF90C5
:10105000AF900895FC01538D448D252F30E0842FEF
:1010600090E0821B930B541710F0CF9608950197D0
:101070000895FC01918D828D981761F0A28DAE0FBD
:10108000BF2FB11D5D968C91928D9F5F9F73928F44
:1010900090E008958FEF9FEF0895FC01918D828D70
:1010A000981731F0828DE80FF11D858D90E008953D
:1010B0008FEF9FEF0895FC01918D228D892F90E095
:1010C000805C9F4F821B91098F739927089585E754
:1010D00092E00E945B0821E0892B09F420E0822F36
:1010E000089580E090E0892B29F00E946708811123
:1010F0000C9400000895FC01A48DA80FB92FB11D18
:10110000A35ABF4F2C91848D90E001968F7399273D
:10111000848FA689B7892C93A089B1898C9183701B
:1011200080648C93938D848D981306C00288F38914
:10113000E02D80818F7D80830895EF92FF920F9341
:101140001F93CF93DF93EC0181E0888F9B8D8C8D73
:1011500098131AC0E889F989808185FF15C09FB767
:10116000F894EE89FF896083E889F989808183702A
:10117000806480839FBF81E090E0DF91CF911F91D9
:101180000F91FF90EF900895F62E0B8D10E00F5FFA
:101190001F4F0F731127E02E8C8D8E110CC00FB6D0
:1011A00007FCFACFE889F989808185FFF5CFCE0168
:1011B0000E947B08F1CFEB8DEC0FFD2FF11DE35A60
:1011C000FF4FF0829FB7F8940B8FEA89FB898081EB
:1011D0008062CFCFCF93DF93EC01888D8823B9F065
:1011E000AA89BB89E889F9898C9185FD03C0808132
:1011F00086FD0DC00FB607FCF7CF8C9185FFF2CFAF
:10120000808185FFEDCFCE010E947B08E9CFDF9181
:10121000CF910895EF92FF920F931F93CF93DF9397
:10122000EC01EC80FD806E157F050CF070C057FF5F
:1012300004C0240F351F50E040E08E819F81FA01E9
:10124000E20FF31F8E179F071CF49C01241B350B24
:10125000121613060CF05BC0922F842F869586958C
:1012600086958E9DD0018F9DB00D11246A0F7B1F36
:10127000AF8DB8A1A60FB71F477049F188E0841B56
:10128000482F682F70E0FB01E059FA4FE4912817CE
:1012900008F063C0621B71092FEF30E002C0359582
:1012A00027956A95E2F7E2230130110539F0B0F194
:1012B0000230110561F58C91E82702C08C91E82B72
:1012C000EC93941720F12C813D81A20FB31FE92FDD
:1012D000E41BE83078F00230110521F58E2F9C9147
:1012E00090959C932C813D81A20FB31F885088302C
:1012F000B0F7E770EE2359F0F0E0E859FA4FE491C7
:1013000001301105F9F010F10230110519F1DF91EA
:10131000CF911F910F91FF90EF900895E0958C91E0
:10132000E823CECF81E00115110509F480E0819515
:101330009E2F8C932C813D81A20FB31F9850983023
:10134000C0F7D7CF8C91E82BEC93E1CFE0958C914F
:10135000E823FACF8C91E827F7CF0130110509F483
:10136000ADCFE0F20230110509F4A5CFAE0DBF1DDF
:10137000AECF0F931F93CF93DF9377FF04C0260F59
:10138000371F70E060E0DC011496CD91DC91FB0129
:10139000E20FF31FCE17DF071CF49E01261B370B4D
:1013A000121613064CF5FA0157FD3796A3E0F59592
:1013B000E795AA95E1F7EC9FD001ED9FB00DFC9F5A
:1013C000B00D11246A0F7B1FDC015F96ED91FC913B
:1013D000E60FF71F4770552781E090E001C0880FA6
:1013E0004A95EAF7482F0130110559F0A8F02E0F61
:1013F0003F1F02301105E1F0DF91CF911F910F9156
:1014000008952E0F3F1FE217F307B1F38191DF011B
:101410001197842B8C93F7CF80952E0F3F1FE217E7
:10142000F30751F39191DF01119798239C93F7CF24
:10143000E217F30709F38191DF01119784278C9359
:10144000F7CF0F931F93FA01DC0156964C915697F4
:101450004230E9F04330A1F1413061F514964D91ED
:101460005C91DA01AE1BBF0BFD01E21BF30B77FDB4
:101470000BC0DC0116964D915C916417750724F43E
:10148000AB01BF010E94B9091F910F9108951496F5
:101490004D915C91DA01A61BB70BBD01615071093A
:1014A000DC0116964D915C91DA01AE1BBF0BFD017C
:1014B000E21BF30B77FDE8CFAF010E940A09E4CFEE
:1014C00016964D915C91DA01A61BB70BBD016150D8
:1014D0007109CDCF0F931F93FA01DC0156964C9101
:1014E00056974230A9F0433091F1413019F51496E6
:1014F0004D915C91DA01AE1BBF0BFD013197F7FDF9
:1015000004C0AB01BF010E940A091F910F91089509
:1015100014964D915C91DA01A61BB70BBD01DC015D
:1015200016964D915C91DA01AE1BBF0BFD01319710
:10153000621B730BF7FDE9CFDC0116964D915C91B0
:10154000E417F50714F7AF010E94B909DECF16962C
:101550004D915C91DA01A61BB70BBD01621B730BA9
:10156000CECFFC0177FD64C080859185681779072F
:101570000CF05EC057FD5CC0828593854817590703
:101580000CF056C086898230B1F0833029F1813069
:1015900041F484819581841B950BAB01BC016150A2
:1015A00071092130310509F108F443C022303105B9
:1015B00009F463C0089584819581DC01A61BB70BF3
:1015C000BD016150710986819781DC01A41BB50BB7
:1015D000AD0141505109E5CF86819781861B970B5C
:1015E000BA01AC0141505109DCCFCA0157FD079641
:1015F000A3E095958795AA95E1F7A481B5818A9F87
:1016000090018B9F300D9A9F300D1124620F731F34
:10161000078CF0A1E02DE60FF71F4770552721E05A
:1016200030E001C0220F4A95EAF78081822B808347
:101630000895CA0157FD079633E0959587953A9529
:10164000E1F7A481B5818A9F90018B9F300D9A9F0D
:10165000300D1124620F731F078CF0A1E02DE60FEF
:10166000F71F4770552781E090E001C0880F4A9529
:10167000EAF7809590818923DACFCA0157FD079652
:1016800023E0959587952A95E1F7A481B5818A9FF6
:1016900090018B9F300D9A9F300D1124620F731FA4
:1016A000078CF0A1E02DE60FF71F4770552721E0CA
:1016B00030E001C0220F4A95EAF780818227B7CF38
:1016C00008958EBD00000DB407FEFDCF8EB50895C0
:1016D0008CBD9DBD08950895FC016370668B848167
:1016E000958126813781613039F0633029F0918707
:1016F0008087338722870895318720879387828761
:1017000008952F923F924F925F926F927F928F92A5
:101710009F92AF92BF92CF92DF92EF92FF920F9380
:101720001F93CF93DF93CDB7DEB76A970FB6F894C8
:10173000DEBF0FBECDBF9A8F898F7A8369834A013E
:10174000D22E18870F833701BC2CDC0159962D91BE
:101750003C915A972115310509F015C118968D91C4
:101760009C911997681779070CF0D7C11A968D913B
:101770009C91481759070CF0D0C14C2C512CB6E065
:10178000CB9E600D711D11247C876B871616170682
:101790000CF0C3C1EA2DF0E0FA87E98793E0EE0F81
:1017A000FF1F9A95E1F7F88BEF87CF01840F951F04
:1017B000181619060CF0B1C1A98DBA8D58968C91E6
:1017C000811104C0BFEABD1508F4D394A98DBA8D68
:1017D000ED91FC9111970284F385E02DCD010995DF
:1017E000B5E0DB9EC0011124E981FA81FC83EB8323
:1017F000312C212C9C0128593F4F388F2F8B4A2D9B
:1018000050E05E8B4D8BEF89F88DE20DF31D449116
:101810009E828D82D12CC12C69817A81620D731DCB
:101820007A8B698B842F90E09C8B8B8BE98DFA8D62
:10183000A081B18140FF82C0F1E0BF126FC0AF1242
:101840006DC01C96ED91FC912F813885A4014C0D43
:101850005D1D69897A89898D9A8D0995EB89FC8945
:10186000F595E7954E2F5FEFC51AD50A6D817E81FC
:101870008D899E89680F791F7E836D8398E0C916D4
:10188000D10481F6AFEF2A1A3A0AEB81FC81E40D0C
:10189000F51DFC83EB83F5E02F16310409F0B3CF7F
:1018A0002F81388526153705B9F0A98DBA8DED91B0
:1018B000FC91B1E0BB1257C0AB1255C069817A816F
:1018C0006B5F7F4F0088F189E02D830128E030E0D5
:1018D000A401898D9A8D0995A98DBA8DED91FC9100
:1018E00011970688F789E02DCD016A960FB6F89416
:1018F000DEBF0FBECDBFDF91CF911F910F91FF9043
:10190000EF90DF90CF90BF90AF909F908F907F909F
:101910006F905F904F903F902F9009941E96ED919D
:10192000FC91EF80F88409851A8592014D815E81D2
:101930006B817C81898D9A8D099590CF2F81388517
:101940002615370509F48ACF31E0B31207C0A31278
:1019500005C01C96ED91FC91930178CF1E96ED91F8
:10196000FC917301E0CF6B857C8564197509068451
:10197000F785E02D73010F8518899201A401898DE7
:101980009A8D0995A9CFF901349694913297459192
:101990005491D91AB7E0DB9E400D511D1124F90175
:1019A000259134913C8B2B8BFA0125903490FA01D0
:1019B0003296749031963491398B32966490319688
:1019C000449041E04C1518F04A1508F07FC0662D90
:1019D000062C000C770B7C836B83842D042C000C6D
:1019E000990B9E838D83A98DBA8DED91FC911197F2
:1019F0000284F385E02DCD010995512CD12CC12C09
:101A0000EA2DF0E0FA87E9872B2D30E03C872B8721
:101A1000A401440D511D47FC5A95588F4F8B698185
:101A20007A81660D711D67FC7A957E876D8779894D
:101A3000C71608F051CF2C2D30E04D815E81420F4A
:101A4000531FA985BA854A9FC0014B9F900D5A9F8D
:101A5000900D1124FC01E80DF91DF88BEF87852D01
:101A6000612C4F89588D420F531F5E8B4D8B67142D
:101A700008F050C044244394480E877041F4C101DB
:101A80000196EB89FC89E20DF31DD4901C01D7FE71
:101A900019C0A98DBA8DED91FC91662D70E0B1E071
:101AA000BB1219C0AB1217C02D853E85620F731F84
:101AB0000484F585E02D2F8138854D895E89898DD7
:101AC0009A8D0995DD0C6394842DD1CF1E821D82E1
:101AD0001C821B8288CF4B815C81640F751FAB8594
:101AE000BC856A9FC0016B9F900D7A9F900D112459
:101AF00069817A81680F791F0684F785E02DEF8070
:101B0000F88409851A859D014F855889898D9A8D9C
:101B10000995D8CF570CC3948ACF6A960FB6F8941C
:101B2000DEBF0FBECDBFDF91CF911F910F91FF9010
:101B3000EF90DF90CF90BF90AF909F908F907F906D
:101B40006F905F904F903F902F9008958F929F924B
:101B5000AF92CF92EF92FF920F931F93CF93DF93A9
:101B6000EC01262F898D9A8D009709F051C06A30BB
:101B7000D1F41D861C868D8948E0849F9001112434
:101B80008E859F85820F931F9F878E8781E090E0CF
:101B9000DF91CF911F910F91FF90EF90CF90AF9079
:101BA0009F908F9008956D3089F3CC88AD888F8990
:101BB0008823C1F08C859D8536E0C39E800D911DE4
:101BC0001124488559854817590764F44E855F8567
:101BD0001D861C8638E0A39EC0011124840F951F2A
:101BE0009F878E87EA88FB88088919894E855F85DB
:101BF0006C857D85CE010E94810B2C898C859D850D
:101C000046E0249F800D911D11249D878C87BECFB7
:101C10006A3069F41D861C86FC013896E4912D8992
:101C20008E859F85E29F800D911D1124ADCF6D3073
:101C300009F4ACCFFC0134963491631708F4A6CFB5
:101C40003296E491E61708F4A1CFFC013296859014
:101C50009490462F431B342F47E0349F800C911CF7
:101C60001124F401329634913196E4913323A9F191
:101C7000EE2399F1CC88F4013596E491AD884F8933
:101C8000442301F10E2E000CFF0BE30FF11DCE9E3D
:101C9000A001CF9E500D11246C857D85460F571FE6
:101CA00068857985641775076CF44E855F851D8698
:101CB0001C86FC013896E491AE9E400D511D112406
:101CC0005F874E87EA88FB88088919894E855F857A
:101CD0006C857D85CE010E94810BF4013496E491E0
:101CE0002C898C859D85E29F800D911D11248DCFBF
:101CF0006F927F928F929F92AF92BF92CF92DF921C
:101D0000EF92FF920F931F93CF93DF93EC016B0140
:101D10005A0139014801E881F9810284F385E02DF7
:101D20000995E881F9810288F389E02D8701930103
:101D3000A501B601CE010995A501480D591D4150D7
:101D40005109E881F9810288F389E02D9301B601F8
:101D5000CE010995E881F9810088F189E02D94018F
:101D6000A501B601CE010995C60CD71CB60161507C
:101D70007109E881F9810088F189E02D9401A501BC
:101D8000CE010995E881F9810688F789E02DCE0119
:101D9000DF91CF911F910F91FF90EF90DF90CF9047
:101DA000BF90AF909F908F907F906F9009946F92AB
:101DB0007F928F929F92AF92BF92CF92DF92EF92DB
:101DC000FF920F931F93CF93DF935C01EB016A01A6
:101DD000490138018701DC01ED91FC91621773071D
:101DE00019F5641675062CF0962D872D3A01C92E2B
:101DF000D82E9601261937092F5F3F4F048CF58D99
:101E0000E02DA301BE01C5010995DF91CF911F917E
:101E10000F91FF90EF90DF90CF90BF90AF909F9089
:101E20008F907F906F9008954615570591F426176F
:101E3000370724F0892D4B01C22FD82F9E01281976
:101E400039092F5F3F4F068CF78DE02DA601B401B5
:101E5000DACF0284F385E02D0995D501ED91FC914F
:101E60000488F589E02D83019401A601BE01C50116
:101E70000995D501ED91FC910688F789E02DC50102
:101E8000DF91CF911F910F91FF90EF90DF90CF9056
:101E9000BF90AF909F908F907F906F900994EF923A
:101EA000FF920F931F93DC011A960D911C911B97C3
:101EB00018962D913C911997ED91FC9100A0F1A1FC
:101EC000E02D7B0150E040E070E060E009951F915B
:101ED0000F91FF90EF9008954F925F926F927F92D3
:101EE0008F929F92AF92BF92CF92DF92EF92FF922A
:101EF0000F931F93CF93DF936C012B015A0139018C
:101F00004801DC01ED91FC910284F385E02D0995F7
:101F1000E201640C751CD601ED91FC91C615D70544
:101F20005CF40088F189E02D87019401A501BE01D0
:101F3000C60109952196EFCF0688F789E02DC601E5
:101F4000DF91CF911F910F91FF90EF90DF90CF9095
:101F5000BF90AF909F908F907F906F905F904F90C9
:101F600009948F929F92AF92BF92CF92DF92EF929D
:101F7000FF920F931F93CF93DF93EC015B014A0114
:101F80006901E881F9810284F385E02D09959501C5
:101F90002C0D3D1D21503109E881F9810488F58916
:101FA000E02D78018401A401B501CE010995E881F5
:101FB000F9810688F789E02DCE01DF91CF911F913D
:101FC0000F91FF90EF90DF90CF90BF90AF909F90D8
:101FD0008F9009948F929F92AF92BF92CF92DF928F
:101FE000EF92FF920F931F93CF93DF93EC015B016E
:101FF0004A0169017801E881F9810284F385E02DC5
:102000000995C80CD91C860101501109E881F98194
:102010000488F589E02D9501A401B501CE0109954B
:10202000E881F9810688F789E02DCE01DF91CF9113
:102030001F910F91FF90EF90DF90CF90BF90AF90E6
:102040009F908F9009940895EF92FF920F931F93A2
:10205000DC01ED91FC9100A0F1A1E02D09951F910B
:102060000F91FF90EF9008950F931F93DC01ED9176
:10207000FC91068CF78DE02D09951F910F91089525
:102080000F931F93DC01ED91FC91048CF58DE02DF5
:1020900009951F910F910895DC01ED91FC91008449
:1020A000F185E02D09942F923F924F925F926F92AB
:1020B0007F928F929F92AF92BF92CF92DF92EF92D8
:1020C000FF920F931F93CF93DF9300D000D000D0E7
:1020D000CDB7DEB73C016A013E832D83FC82EB82E3
:1020E0005801A41AB50AB7FE03C0B194A194B1086F
:1020F0008D809E80861A970A97FE03C091948194E2
:1021000091088A149B045CF0902F812F0D811E8111
:102110009D838E839C2D8D2D6B01692F782F0C153F
:102120001D055CF09D818E817E836D83692F782FE4
:10213000902F812F8601C92ED82E1601201A310A20
:102140002B012D813E81421A530A57FE03C0519440
:1021500041945108710137FE03C03FEFE31AF30ABF
:10216000F594E7948D819E81861797075CF5A1E031
:10217000B0E0BA83A983C016D1064CF1D301ED912A
:10218000FC910484F585E02D2B813C81A8016D81B3
:102190007E818A149B041CF04D815E81B801C301CD
:1021A0000995E418F508F7FE0AC02D813E81898162
:1021B0009A81280F391F3E832D83E20CF31C0F5F99
:1021C0001F4FD9CF2FEF3FEF3A832983D4CF2696E5
:1021D0000FB6F894DEBF0FBECDBFDF91CF911F9138
:1021E0000F91FF90EF90DF90CF90BF90AF909F90B6
:1021F0008F907F906F905F904F903F902F900895B9
:10220000089520910A02260F3327331F213231050A
:10221000ECF420912E02FC0190E080E0243069F083
:1022200082E00895A0910A022191AC0146515E4FCF
:10223000A40FB52FB11D2C930196861798F38091AA
:102240000A02680F60930A0280E0089581E0089511
:1022500010922E0281E08093300210922F0261E0F2
:1022600082E10E94480661E083E10E944806E9EBB2
:10227000F0E080818E7F808380818D7F808388E401
:102280008093B80085E48093BC000895CF93DF93DA
:1022900091E09093E9018823B9F0C091B800D09102
:1022A000BA008091BC008A7B8093BC0060E082E130
:1022B0000E94480660E083E10E9448060E942811BF
:1022C000D093BA00C093B800DF91CF910895E09108
:1022D0005A0280915902E81730F4F0E0EC53FE4FB7
:1022E000808190E008958FEF9FEF089590915A02BA
:1022F000809159022FEF3FEF981748F4E92FF0E053
:10230000EC53FE4F208130E09F5F90935A02C90149
:1023100008958091590290915A02891B990B089552
:10232000CF92DF92EF92FF920F931F93CF93DF93A1
:102330007C01CB018A0120916F02222389F0EB01FD
:102340006B01C40ED51ECC15DD0569F06991D7016E
:10235000ED91FC910190F081E02DC7010995F3CF3B
:10236000642F0E940111C801DF91CF911F910F913D
:10237000FF90EF90DF90CF900895CF93DF931F925F
:10238000CDB7DEB7698320916F022223F9F0209147
:102390006C02203258F021E030E0FC0133832283CC
:1023A00090E080E00F90DF91CF91089580916D02D1
:1023B000E82FF0E0EC55FE4F998190838F5F80937A
:1023C0006D0280936C0281E090E0ECCF61E0CE0181
:1023D00001960E940111F7CFCF92DF92EF92FF9208
:1023E0000F931F93CF93DF93D0916C0281E0D13292
:1023F00008F09CC0C0916E020E94B9066B017C017E
:1024000080912E0281116CC082E080932E0281E0C7
:10241000809330028FEF80932D0210925202D0935E
:102420005102A4EAB1E0E1E3F2E080E0D8138DC00C
:102430001092530280915302CC0FC82BC0935302C9
:1024400080912F02813009F084C010922F020E94E7
:10245000B9066B017C01809153028093BB0080918F
:10246000E5019091E601A091E701B091E801892B87
:102470008A2B8B2BA1F00E94B9060091E5011091E7
:10248000E6012091E7013091E8016C197D098E0980
:102490009F09061717072807390708F442C08091DB
:1024A000BC0083FDD8CF85EC8093BC000E94B906A8
:1024B0006B017C0180912E02823009F44CC0809126
:1024C0002D028F3F09F469C080912D02803209F4FA
:1024D00066C080912D02803309F463C084E026C079
:1024E0008091E5019091E601A091E701B091E801AA
:1024F000892B8A2B8B2B09F483CF0E94B90600917C
:10250000E5011091E6012091E7013091E8016C1995
:102510007D098E099F09061717072807390708F054
:102520006FCF8091E4010E94461185E010926D0208
:1025300010926C0210926F02DF91CF911F910F9158
:10254000FF90EF90DF90CF9008959D9191938F5FD2
:102550006DCF85EEA9CF8091E5019091E601A09124
:10256000E701B091E801892B8A2B8B2B09F4A2CFCC
:102570000E94B9060091E5011091E6012091E70162
:102580003091E8016C197D098E099F09061717071C
:102590002807390708F08ECFC4CF80E0C7CF82E08C
:1025A000C5CF83E0C3CFCF92DF92EF92FF920F931C
:1025B0001F93CF93DF93EC016B01142F8D8D9E8DB4
:1025C000009709F454C029A131E030936F022093A1
:1025D0006E0210926D0210926C02DC01ED91FC9182
:1025E0000190F081E02D60E009957601CC24C39440
:1025F000D12C01E011508D8D9E8D1F3F71F1B0E205
:10260000CB16D104C0F00E94EC118D8D9E8D29A1B6
:1026100000936F0220936E0210926D0210926C0272
:10262000DC01ED91FC910190F081E02D60E00995D5
:10263000CC24C394D12C8D8D9E8DF7016491DC0147
:10264000ED91FC910190F081E02D0995BFEFCB1A3F
:10265000DB0AEFEFEE1AFE0ACDCFDF91CF911F918B
:102660000F91FF90EF90DF90CF900C94EC11EDA5BF
:10267000FEA590818BA98095892380837B011150D1
:1026800070F1F70184912B8D3C8D232B31F00E944A
:10269000610BFFEFEF1AFF0AF2CF28E030E040E8CD
:1026A000E9A5FAA599A9582F5423A9F05081952B93
:1026B0009083EBA5FCA590815AA9952B9083EBA55F
:1026C000FCA550819AA99095952390834695215019
:1026D000310931F7DECF508190959523E9CFDF9115
:1026E000CF911F910F91FF90EF90DF90CF900895C1
:1026F0001F93CF93DF93EC018D8D9E8D009721F179
:10270000162F29A131E030936F0220936E021092B0
:102710006D0210926C02DC01ED91FC910190F08150
:10272000E02D60E009958D8D9E8DDC01ED91FC9191
:102730000190F081E02D612F09958D8D9E8DDF91A7
:10274000CF911F910C94EC11ADA5BEA59C918BA9C6
:10275000809589238C938B8D9C8D892B31F0862FCE
:10276000DF91CF911F910C94610B28E030E080E85D
:10277000A9A5BAA599A9462F4823C1F04C91942B3D
:102780009C93ABA5BCA59C914AA9942B9C93ABA50B
:10279000BCA54C919AA9909594239C938695215021
:1027A000310931F7DF91CF911F9108954C919095A8
:1027B0009423E6CF1F93CF93DF93EC01162F8D8DDB
:1027C0009E8D892BB1F12DA93EA94FA958AD60E08E
:1027D00074E284EF90E00E943026205131094109D3
:1027E000510956954795379527952093B80066EA85
:1027F000111167EACE010E9478138D8D9E8D892B71
:1028000041F129AD3AAD4BAD5CAD60E074E284EFCF
:1028100090E00E9430262051310941095109569516
:102820004795379527952093B800DF91CF911F9159
:1028300008958B8D9C8D892B21F08EAD9FAD0E94CC
:10284000680BEFA5F8A990818CA9809589238083D6
:10285000CECFEFA5F8A980819CA9892B8083E5CFF5
:1028600090E080E008950E94F429FB01019000208F
:10287000E9F73197AF01461B570BDC01ED91FC9155
:102880000280F381E02D09944F925F926F927F92C4
:102890008F929F92AF92BF92CF92DF92EF92FF9270
:1028A0000F931F93CF93DF93CDB7DEB7A1970FB6EA
:1028B000F894DEBF0FBECDBF8C016B01770FEE0821
:1028C000FF08F7FE49C0DC01ED91FC910190F08119
:1028D000E02D6DE209955C0122273327A9012C190F
:1028E0003D094E095F0919A2FE01B1967F019AE0E8
:1028F000492E512C612C712CCA01B901A3019201FE
:102900000E943026605DD7016E937D01211531054F
:102910004105510589F790E080E0109721F0BD0155
:10292000C8010E9435148A0D9B1DA1960FB6F8941C
:10293000DEBF0FBECDBFDF91CF911F910F91FF90F2
:10294000EF90DF90CF90BF90AF909F908F907F904F
:102950006F905F904F900895A701960119A2FE0114
:10296000B1967F018AE0882E912CA12CB12CCA014E
:10297000B901A50194010E943026605DD7016E93D4
:102980007D01211531054105510589F790E080E071
:10299000109759F2BD01C8010E943514C6CF0F939C
:1029A0001F93CF93DF93EC010E9444148C016FE5D9
:1029B00071E0CE010E943514800F911FDF91CF91FD
:1029C0001F910F9108950F931F93CF93DF93EC0105
:1029D0000E9435148C016FE571E0CE010E94351420
:1029E000800F911FDF91CF911F910F910895FC01EE
:1029F000868197819C01295F3F4F37FF02C0295F85
:102A00003F4F83E0359527958A95E1F7848195813D
:102A1000289FA001299F500D389F500D112470E070
:102A200060E0878D90A10C94F92985ED8093BC001E
:102A30008091E5019091E601A091E701B091E80154
:102A40000796A11DB11D23E0B695A795979587958B
:102A50002A95D1F72091BC0024FD03C010922E02CC
:102A600008954091E5015091E6016091E701709170
:102A7000E801452B462B472B69F30097A105B105CB
:102A800041F025E32A95F1F700000197A109B1096A
:102A9000E1CF8091E4010C9446111F920F920FB682
:102AA0000F9211242F933F938F939F93AF93BF93D4
:102AB00080911E0390911F03A0912003B0912103E8
:102AC0003091700223E0230F2D3758F50196A11D98
:102AD000B11D2093700280931E0390931F03A09357
:102AE0002003B09321038091710290917202A09112
:102AF0007302B09174020196A11DB11D8093710201
:102B000090937202A0937302B0937402BF91AF913D
:102B10009F918F913F912F910F900FBE0F901F901B
:102B2000189526E8230F0296A11DB11DD2CF1F9242
:102B30000F920FB60F9211242F933F934F935F93F1
:102B40006F937F938F939F93AF93BF93EF93FF9375
:102B50008091600290916102A0916202B091630243
:102B6000892B8A2B8B2BD1F190915B02E0915C0237
:102B7000F0915D028081892780838091600290912D
:102B80006102A0916202B0916302181619061A063A
:102B90001B069CF48091600290916102A0916202F8
:102BA000B09163020197A109B109809360029093EB
:102BB0006102A0936202B0936302FF91EF91BF9113
:102BC000AF919F918F917F916F915F914F913F91C5
:102BD0002F910F900FBE0F901F90189580910001BC
:102BE000EAE2FAE0E4919FEF90930001E13051F0C6
:102BF00030F0E23069F060E00E944806DECF1092CB
:102C00006E00F9CF90916F009D7F90936F00F3CF8E
:102C1000909170009D7F9093700091E09093B00030
:102C20009091B100987F94609093B1001092B3009E
:102C3000E2CF1F920F920FB60F9211242F933F9362
:102C40004F935F936F937F938F939F93AF93BF93B4
:102C5000EF93FF9385E792E00E947B08FF91EF914D
:102C6000BF91AF919F918F917F916F915F914F91A4
:102C70003F912F910F900FBE0F901F9018951F92AC
:102C80000F920FB60F9211242F938F939F93EF9370
:102C9000FF93E0918502F09186028081E0918B02A2
:102CA000F0918C0282FD1BC0908180918E028F5F1B
:102CB0008F7320918F02821741F0E0918E02F0E035
:102CC000EB58FD4F958F80938E02FF91EF919F916E
:102CD0008F912F910F900FBE0F901F9018958081AC
:102CE000F4CF1F920F920FB60F9211242F933F93A0
:102CF0004F935F936F937F938F939F93AF93BF9304
:102D0000EF93FF938091B900887F803609F44AC021
:102D1000F0F5883209F4A7C018F5803109F49BC09A
:102D2000B8F4882309F4F9C0883009F494C0FF91FD
:102D3000EF91BF91AF919F918F917F916F915F9133
:102D40004F913F912F910F900FBE0F901F901895AC
:102D5000883109F488C0803251F780932D0214C065
:102D6000803409F49DC040F48033B9F38833F9F618
:102D700080932D0285ECB0C0803509F485C088357C
:102D800009F496C0883499F60E941515D0CF883979
:102D900009F48CC038F5883729F050F4883611F0E2
:102DA000803729F683E080932E0210922C0257C0C0
:102DB000883809F47BC0803919F0803809F0B7CF22
:102DC00080912C02803208F071C0E0912C0281E0E9
:102DD0008E0F80932C028091BB00F0E0E45FFD4FEA
:102DE00080833DC0803B39F0E0F4803A09F479C03B
:102DF000883A09F09CCF84E080932E0210920B0257
:102E000010920A02E0915702F091580209958091C0
:102E10000A0281110FC081E080930A021092EA0138
:102E200009C0803C09F4A6CF883C09F4A3CF883BB5
:102E300009F07DCFE0910B0281E08E0F80930B02B1
:102E4000F0E0E651FE4F80818093BB0090910B0231
:102E500080910A0229C0809153028093BB0085ECC7
:102E60008093BC0064CF90915202809151029817D8
:102E700058F5E091520281E08E0F80935202F0E00B
:102E8000EF5CFD4F8081E9CFE091520281E08E0F2F
:102E9000809352028091BB00F0E0EF5CFD4F808395
:102EA00090915202809151029817C8F285E8D8CFCC
:102EB000E091520281E08E0F809352028091BB001C
:102EC000F0E0EF5CFD4F80838091300281115CCF98
:102ED00081E080932F0284EA8093BC0010922E023E
:102EE00026CF85EC8093BC0010922E0280912C029C
:102EF000803230F4E0912C02F0E0E45FFD4F10826C
:102F000060912C0270E0E0915502F09156028CE045
:102F100092E0099510922C020ACF10922D0234CF24
:102F2000AF92BF92CF92DF92EF92FF920F931F93D7
:102F3000CF93DF93E5E7F2E01382128288EE93E00D
:102F4000A0E0B0E084839583A683B78323E131E0DA
:102F50003183208325EC30E03587248724EC30E072
:102F60003787268720EC30E0318B208B21EC30E056
:102F7000338B228B22EC30E0358B248B26EC30E037
:102F8000378B268B118E128E138E148E22E1E22E39
:102F900023E0F22EF7011382128284839583A683A5
:102FA000B78385E291E09183808380E490E00E9482
:102FB000CF288C01FC0117A216A28FE290E00E949C
:102FC000CF28EC018091070190910801A09109019F
:102FD000B0910A018F8B988FA98FBA8F80910B01C6
:102FE00090910C01A0910D01B0910E018B8F9C8FDF
:102FF000AD8FBE8F30E8A32EB12CBB82AA8240E4F5
:10300000C42ED12CDD82CC8280E490E00E94CF28B7
:10301000FC0113821282B582A482D782C682B18655
:10302000A086D386C286168A1586148617861686CB
:1030300081E0858B848B2FEF3FEF338B228B318B9D
:10304000208B878B108E128E118E87E391E09183F7
:103050008083148E138EF68EE58E10A2178E8FEF5E
:1030600084A385A386A387A380A780E89AE1A6E02E
:10307000B0E085AB96ABA7ABB0AF80EA96E8A1E035
:10308000B0E081AF92AFA3AFB4AF80E586AF17AE2B
:10309000F983E8831F821E8280E290E09987888707
:1030A0001A861B861C861F86188A198A1A8A1B8A0A
:1030B0001C8A1D8A1E8A1E86F801D183C08381E086
:1030C00090E00E94CF28EC0161E086E00E94760645
:1030D00060E086E00E94480661E088E00E94760693
:1030E00060E088E00E94480661E087E00E94760682
:1030F00060E087E00E944806F801D383C2832FB7BF
:10310000F89480911E0390911F03A0912003B09129
:1031100021032FBF84839583A683B78310861186EE
:10312000128613861486158616861786148E178EB9
:10313000168E10A611A612A613A611A210A2108A0E
:10314000118A128A138A60E08EE00E94760661E09E
:103150008CE00E94760661E08BE00E94760661E0DA
:103160008AE00E94760660E08CE00E94480660E0FB
:103170008BE00E94480660E08AE00E94480661E019
:1031800085E00E94760660E084E00E947606109357
:10319000230300932203DF91CF911F910F91FF90A2
:1031A000EF90DF90CF90BF90AF900895CF93DF93D3
:1031B000CDB7DEB7E4970FB6F894DEBF0FBECDBF34
:1031C000789484B5826084BD84B5816084BD85B502
:1031D000826085BD85B5816085BD80916E0081600E
:1031E00080936E00109281008091810082608093B4
:1031F00081008091810081608093810080918000B6
:103200008160809380008091B10084608093B100E0
:103210008091B00081608093B00080917A008460DA
:1032200080937A0080917A00826080937A00809106
:103230007A00816080937A0080917A008068809320
:103240007A001092C100E0918502F091860282E03E
:103250008083E0918102F09182021082E0918302EA
:10326000F09184028FEC808310928D02E0918902AC
:10327000F0918A0286E08083E0918702F0918802D3
:10328000808180618083E0918702F0918802808153
:1032900088608083E0918702F09188028081806855
:1032A0008083E0918702F091880280818F7D808306
:1032B000E0912203F09123030190F081E02DC08082
:1032C000D180D6015F968D919C919097892B51F575
:1032D00016962D913C91C901079697FD079623E01C
:1032E000959587952A95E1F7F601248135814C0162
:1032F000829EC001839E900D929E900D11240E948B
:10330000CF28D60190969C938E935F97892B51F48A
:1033100062E671E085E792E00E94351481E090E07A
:103320000E94002AC6010E94F714F6018681978147
:1033300064817581AC0181970CF487C140545109B7
:1033400057FF02C04F5F5F4F559547956255710912
:1033500077FF02C06F5F7F4F7595679510E4E12E90
:10336000F12C02E510E02AE637E0C6010E94700564
:1033700082E0D60192968C9392975D968D919C9166
:103380005E97892B09F479C18CE391968C93109206
:103390005A021092590210926D0210926C020E9411
:1033A00028118BEF97E090935802809357028CEF8F
:1033B00097E09093560280935502D60198968C918F
:1033C00087FD1FC061E00E94760661E0F60180A5DE
:1033D0000E94480661E070E080E090E00E94DE0616
:1033E00060E0D60198968C910E9448066AE070E0F1
:1033F00080E090E00E94DE0661E0F60180A50E9478
:103400004806D6015D968D919C915E97892B09F4B3
:10341000F9C1D5962D913D914D915C91D89760E081
:1034200074E284EF90E00E94302620513109410976
:10343000510956954795379527952093B80044E054
:1034400066E875E0C6010E94D312F60166816150FC
:10345000C6010E94781344E062E875E0C6010E944C
:10346000D312D60192968C9160E1813009F064E12B
:10347000C6010E94781344E06EE775E0C6010E9421
:10348000D3128FE8F60185AF84819581803891054C
:1034900009F0CFC1868197818034910509F0D7C1A9
:1034A00082A1813009F0C3C18FE9D601DD968C93EA
:1034B00012E16AEDC6010E947813612FC6010E94D5
:1034C000781361E8C6010E947813F60165ADC60164
:1034D0000E94781369EDC6010E947813D601929676
:1034E0008C9162E2813009F061EFC6010E9478138D
:1034F00046E068E775E0C6010E94D312F601858DAB
:10350000968D892B09F4A7C121AD32AD43AD54ADE1
:1035100060E074E284EF90E00E943026205131098F
:103520004109510956954795379527952093B8003D
:10353000E0912203F09123030190F081E02D80813E
:1035400091810E94F714FE013196FAA7E9A7E09154
:103550002203F09123032FB7F89480911E039091DA
:103560001F03A0912003B09121032FBF8087918773
:10357000A287B387C0902203D0902303D6010D9178
:103580001C9183E00E941F0621E0009709F420E0CF
:10359000F80122871586892B09F481C1F6018085FF
:1035A0009185A285B385F801438954896589768917
:1035B0004C015D01841A950AA60AB70AB501A40157
:1035C000493E53406105710530F021E02487838B2B
:1035D000948BA58BB68BF8012485222309F445C171
:1035E00083889488A588B688AC01BD0141595140B3
:1035F00061097109481959096A097B09473552401F
:103600006105710508F031C1D601ED91FC91868507
:1036100091E0D8011D969C931D971C961C921C97B7
:103620001B961C9289278687D6012C9111969C9116
:1036300081110C94FF25808191810E94F714D6019D
:10364000ED91FC91178216822AC14052510957FF11
:1036500002C04F5F5F4F559547956357710977FFDC
:1036600002C06F5F7F4F75956795F0E2EF2EF12CEA
:1036700003E710E02AE835E078CE61E0F60186A1A4
:103680000E94760661E0D60197968C910E9476069C
:10369000F60186A1082E000C990BFC01E25BF54FA8
:1036A000E491F0E0EE0FFF1FE65CF54F25913491B9
:1036B000D6019E963C932E939D97FC01EE59F54FB3
:1036C000E491D396EC93D39797968C91082E000CA7
:1036D000990BFC01E25BF54FE491F0E0EE0FFF1F68
:1036E000E65CF54FA591B491F601B0ABA7A7FC013C
:1036F000EE59F54F9491F60194AB8C91E92FE82B9C
:10370000EC93D6015B968D919C91892B09F434C082
:103710001FB7F89480915402811127C0E8E5FAE0C0
:103720008491ECE6FAE09491E82FF0E0EE0FFF1FB1
:10373000E05DF54FA591B491EC91E92321F461E0AE
:103740008AE00E94480661E08AE00E9476068CB515
:1037500080618CBD8CB580648CBD61E08DE00E9481
:10376000760661E08BE00E947606809154028F5FBE
:10377000809354021FBF21CE61E0F60184A10E9414
:10378000760661E0D60195968C910E947606F60148
:1037900084A1082E000C990BFC01E25BF54FE4912B
:1037A000F0E0EE0FFF1FE65CF54F25913491D60156
:1037B0009A963C932E939997FC01EE59F54FE4911C
:1037C000D196EC93D19795968C91082E000C990B7D
:1037D000FC01E25BF54FE491F0E0EE0FFF1FE65CC9
:1037E000F54FA591B491F601B4A7A3A7FC01EE593A
:1037F000F54F9491F60192AB8C91E92FE095E82377
:10380000EC93DBCDF601838D948D892B21F086AD71
:1038100097AD0E94680BD6019F96ED91FC91D097D1
:103820009081D4968C9180958923808308CE8FECEB
:103830003CCE8036910559F486819781409739F4C2
:1038400082A1813031F480E1D601DD968C9312E0C3
:1038500030CE8FEAF9CFD60107A4F0A9E02D808100
:10386000D4969C91892B808363CEF801478550893B
:10387000618972894C015D01841A950AA60AB70A0A
:10388000B501A401413D57406105710540F0238514
:1038900031E0232723878787908BA18BB28BD601BA
:1038A000ED91FC918685882309F4CEC4D601129649
:1038B0000D911C91808191810E94F714D601ED91A8
:1038C000FC910190F081E02D8BE490E09587848756
:1038D000EE24E394F12CF786E686BB24B394B48AF5
:1038E000B58AF38AE28AF18AE08A82E00E941007B0
:1038F000F8018083682F70E084E0759567958A955C
:10390000E1F763707727D601ED91FC918081918179
:103910000E944414F80160816F7070E0E09122030E
:10392000F09123030190F081E02D808191810E942C
:103930004414E0912203F09123030190F081E02DE3
:103940006FE871E0808191810E94351481E00E94CE
:103950001007D8018C9382958F70682F70E0E091EA
:103960002203F09123030190F081E02D8081918169
:103970000E944414F80160816F7070E0E0912203AE
:10398000F09123030190F081E02D808191810E94CC
:103990004414E0912203F09123030190F081E02D83
:1039A0006FE871E0808191810E94351480E00E946F
:1039B0001007D8018C93682F70E094E07595679597
:1039C0009A95E1F767707727E0912203F09123033E
:1039D0000190F081E02D808191810E944414F801D2
:1039E00060816F7070E0E0912203F09123030190F9
:1039F000F081E02D808191810E944414E0912203A6
:103A0000F091230320803180F101A081B18154968F
:103A1000BC9254975596BC9255975396FC92EE9251
:103A200052975196FC92EE925097418D528D678934
:103A3000708D238D348D260F371FED91FC911197DA
:103A400004A0F5A1E02D8A01CD010995D1018D9148
:103A50009C91119759964D915C915A9757966D91FB
:103A60007C9158975D962D913C918A01021B130B16
:103A7000DC01ED91FC9104A0F5A1E02D9B010995DD
:103A800080E10E94A706F10190A3878F24E630E031
:103A9000DC010E9475262FEF33E040E050E00E94E9
:103AA0001126D10192963C932E93919726E0A22E57
:103AB000B12C36EFC32EDD24DA94F101808191819F
:103AC000418D528D4C0D5D1D6789708D9B012E5F60
:103AD0003F4F62507109DC01ED91FC9104A0F5A10A
:103AE000E02DEE24E394F12C8A010995F101808107
:103AF0009181218D328D2C0D3D1DDC011D961C9276
:103B00001E921C971F963C932E931E97B5010E9400
:103B1000CF14BAE0CB1AD108EFEFAE1ABE0AF4EC1C
:103B2000CF16FFEFDF0649F6D10191968D919C915A
:103B30009297813291050CF0C9C18AE090E0949689
:103B40009C938E9393975B966D917C91072E000CBE
:103B5000880B990B0E94AD2720E030E040E251E451
:103B60000E940327F10163A774A785A796A7D12C0C
:103B7000C12CD1010D90BC91A02DBCA7ABA7F10128
:103B8000E18CF28C6789708D072E000C880B990BE5
:103B90000E94AD274B015C01D1019B968D919D91B7
:103BA0000D90BC91A02D89AB9AABABABBCABF10136
:103BB00083A194A1C816D9060CF060C0B6010D2CE3
:103BC000000C880B990B0E94AD272B013C0129A901
:103BD0003AA94BA95CA90E943E28A50194010E9424
:103BE00097260E947527870102501109A7014E5F91
:103BF0005F4FABA5BCA5ED91FC91119704A0F5A179
:103C0000E02DEE24E394F12C9B01CD010995F10107
:103C100000811181E18CF28CF3E0EF0EF11CD101F7
:103C20009B962D913D914D915C919E97C301B20160
:103C30000E943E284B015C01F1016789708D072EBF
:103C4000000C880B990B0E94AD279B01AC01C501AC
:103C5000B4010E9497260E947527D8011D967C9377
:103C60006E931C971F96FC92EE921E97B601C801A8
:103C70000E94CF14BFEFCB1ADB0A7BCF20E030E0ED
:103C800040E151E469A97AA98BA99CA90E943E2828
:103C9000A50194010E94972620E030E040EC50E41A
:103CA0000E9497260E947527EBA5FCA5758764875F
:103CB000F3E0EF0EF11CABA5BCA51F96FC92EE92B3
:103CC0001E9761E971E0CD010E94E314B12CA12C93
:103CD000D12CC12CE0912203F091230386010A5ECE
:103CE0001F4F000F111FE00FF11F80819181C497BA
:103CF0000CF491C265E971E085E792E00E94351409
:103D0000B60185E792E00E9444146AE971E085E714
:103D100092E00E943514E0912203F0912303E00F1A
:103D2000F11F6081718185E792E00E94CF14F1015B
:103D3000808191812091220330912303020F131F70
:103D4000D8010D911C9102531109418D528D401BD8
:103D5000510B6789708D6A0D7B1DDC01ED91FC9123
:103D600000A0F1A1E02DEE24E394F12C2CE030E052
:103D70000995BFEFCB1ADB0AECE0AE0EB11CFAE0FE
:103D8000CF16D10409F0A6CFE0912203F0912303CE
:103D90000190F081E02D00811181D8015D968D9117
:103DA0009C915E97892B09F499C6D5962D913D91EA
:103DB0004D915C91D89760E074E284EF90E00E94AE
:103DC00030262051310941095109569547953795BB
:103DD00027952093B80045E06BE27AE0C8010E9485
:103DE000D312F80164816150C8010E947813D80190
:103DF00016962D913C91C901079697FD0796F3E021
:103E000095958795FA95E1F7F80124813581829F90
:103E10006001839FD00C929FD00C1124E78CF0A0FE
:103E2000858D968DCE0CDF1C009709F498C621A1D4
:103E300031E030936F0220936E0210926D02109267
:103E40006C02DC01ED91FC910190F081E02D60E4C9
:103E50000995AA24A394B12C99249394F801858DF3
:103E6000968DCE14DF0409F44EC6F0E2AF16B1040D
:103E7000E0F00E94EC11D8015D968D919C915E97C7
:103E800091962C9190926F0220936E0210926D0287
:103E900010926C02DC01ED91FC910190F081E02D1B
:103EA00060E40995AA24A394B12CF801858D968D20
:103EB000D7016D917D01DC01ED91FC910190F081C4
:103EC000E02D0995BFEFAB1ABB0AC8CF9C01225267
:103ED00031092032310508F0CAC0F10112A611A63D
:103EE0008CE390E094A383A3638D748D072E000C64
:103EF000880B990B0E94AD2720E030E040E451E4AC
:103F00000E940327D1019B966D937D938D939C9383
:103F10009E97D12CC12CF1010190F081E02DFCA7DE
:103F2000EBA7D1015996ED90FC905A9757966D9159
:103F30007C91072E000C880B990B0E94AD272B015A
:103F40003C01F10183A494A4A5A4B6A483A194A1E7
:103F5000C816D9060CF080C061A572A5072E000C0A
:103F6000880B990B0E94AD27A50194010E943E2861
:103F7000A30192010E9497260E9475278701025093
:103F80001109A7014E5F5F4FABA5BCA5ED91FC9158
:103F9000119704A0F5A1E02DEE24E394F12C9B01F0
:103FA000CD010995F10100811181E18CF28CF3E0E2
:103FB000EF0EF11CD10199966D917C91072E000CAA
:103FC000880B990B0E94AD27F10123A534A545A5C7
:103FD00056A50E943E284B015C01D10157966D9178
:103FE0007C91072E000C880B990B0E94AD279B013A
:103FF000AC01C501B4010E94972620E030E040EA00
:1040000050E40E9496260E947527F8017587648700
:10401000F786E686F5E0CF16D10461F02AE0C216F5
:10402000D10441F04EE1C416D10421F057E3C51686
:10403000D10421F4B601C8010E94CF14D101999690
:104040008D919C919A9701969A969C938E939997AD
:10405000B5E0CB0ED11C5FCF20E030E040E351E46F
:10406000C501B4010E943E28A301920113CE8334FE
:1040700091050CF42BCE8AE090E0F10196A385A384
:10408000638D748D072E000C880B990B0E94AD2751
:1040900020E030E040E251E40E940327D1019B96EA
:1040A0006D937D938D939C939E97D12CC12CF101A0
:1040B0000190F081E02DFCA7EBA7D1015996ED907E
:1040C000FC905A9757966D917C91072E000C880BA7
:1040D000990B0E94AD274B015C01D1019B968D91FC
:1040E0009D910D90BC91A02D89AB9AABABABBCABB5
:1040F000F10185A196A1C816D9060CF066C0B601DB
:104100000D2C000C880B990B0E94AD272B013C0154
:1041100029A93AA94BA95CA90E943E28A5019401AE
:104120000E9497260E947527870102501109A70156
:104130004E5F5F4FABA5BCA5ED91FC91119704A01C
:10414000F5A1E02DEE24E394F12C9B01CD0109951E
:10415000F10100811181E18CF28CF3E0EF0EF11C92
:10416000D1019B962D913D914D915C919E97C301FC
:10417000B2010E943E284B015C01F1016789708DFC
:10418000072E000C880B990B0E94AD279B01AC01F8
:10419000C501B4010E94972620E030E040E450E4DD
:1041A0000E9496260E947527D8011D967C936E93D7
:1041B0001C971F96FC92EE921E97B601C8010E94B2
:1041C000CF14BFEFCB1ADB0A72CF20E030E040E122
:1041D00051E469A97AA98BA99CA90E943E28A5014E
:1041E00094010E94972620E030E040E450E40E94D1
:1041F00097260E947527EBA5FCA575876487F3E0D9
:10420000EF0EF11CABA5BCA51F96FC92EE921E977B
:1042100063E971E058CDF10180819181218D328D6A
:10422000255031094789508D4A0D5B1DDC011D96D3
:104230005C934E931C971F963C932E931E9761EAB6
:1042400071E00E94E31495CD88E2A9A5BAA51D925C
:104250008A95E9F7FE0131964F018E01075D1F4FE8
:104260005F018EE00E94A706D5018D939D935D01AD
:104270000A171B07B1F7FE01319630E020E081916B
:104280009191EFA4F8A8E80EF91EF8AAEFA6233141
:10429000310539F4C70164E170E00E94612678AB12
:1042A0006FA72F5F3F4F2431310549F7D601ED91BC
:1042B000FC9126813781C9010196978386838138D5
:1042C000910544F0808191812F57310937832683EE
:1042D0000E94F714F401819191914F01D601ED9163
:1042E000FC9120853185EFA4F8A8E816F9060CF0BA
:1042F00018C18E199F09281B390B318720878081AF
:1043000091816681778100851185DC01ED91FC91B9
:1043100004A0F5A1E02DEE24E394F12C9B0140E2F2
:1043200050E00995A814B904A9F6F601848D01900E
:10433000F081E02D20853185213231050CF4F8C063
:10434000882309F44FC00091220310912303D60162
:1043500018968D909D90AD90BC901B971C968D915A
:104360009D910D90BC91A02DA5019401281B390BA6
:104370004A0B5B0BB2E05695479537952795BA9552
:10438000D1F760E67AEE80E090E00E943026F601F8
:10439000378F268F2F313105E4F0D801ED91FC9154
:1043A00011970190F081E02D85E090E0958784875A
:1043B0009787868781E090E0918B808B138A128AA1
:1043C00082E0848B858B5E966D917C91CF010E94FB
:1043D000CF14F60184869586A686B786848D91E0F3
:1043E0008927848F0091220310912303F8014085CF
:1043F000518562857385808D918DA28DB38D4A0123
:104400005B01881A990AAA0ABB0AD501C401893E30
:104410009340A105B105C0F086A197A1268D378DE7
:104420008A3091050CF08BC0FC017696EE0FFF1FD1
:10443000E00FF11F318320830196F80197A386A333
:10444000408F518F628F738F84E00E941F0621E09E
:10445000009709F420E0F801258F892B51F1808520
:104460009185A285B3854489558966897789841B9E
:10447000950BA60BB70B893E9340A105B105C8F07B
:10448000D8015E966C915E9792968D919C910E9458
:104490000326F80182A193A195A384A3019693A377
:1044A00082A380859185A285B385848B958BA68B0D
:1044B000B78BA0902203B0902303D501ED91FC911E
:1044C00011978385882309F477C25E960D911C911C
:1044D000B801012E000C880B990B0E94AD279B019F
:1044E000AC0160E070E080E792E40E9403276B017A
:1044F0007C01F501C0A6D1A6E2A6F3A68FEF90E05D
:10450000023311050CF471C0C801C297899708F0F5
:1045100063C08AE590E0D50191969C938E93909725
:1045200066C04FA558A9481B590B240F351FE5CE6F
:10453000811158CF81E0D6015C968C9353CFD8017E
:1045400006A4F7A5E02D9D96FC93EE939C97D0963C
:10455000ED91FC91D1979F96FC93EE939E97D29606
:10456000ED91FC91D397D196FC93EE93D097D4968E
:10457000ED91FC91D597D396FC93EE93D297D69676
:10458000ED91FC91D797D596FC93EE93D497D8965E
:10459000ED91FC91D997D796FC93EE93D697DA9646
:1045A000ED91FC91DB97D996FC93EE93D897DC962E
:1045B000ED91FC91DD97DB96FC93EE93DA97DE9616
:1045C000ED91FC91DF97DD96FC93EE93DC97DF96FF
:1045D0003C932E93DE9730CFC8018A5591098135DF
:1045E000910508F0F0C082E090E091A380A3F5016E
:1045F000608571858285938540885188628873883B
:1046000064197509860997090E94AB272B013C01A3
:1046100020E030E04AE754E4C701B6010E943E289A
:104620009B01AC01C301B2010E94392818160CF09D
:10463000C3C10F3111050CF4BFC1D50190968D9007
:104640009C9080910001853009F0C6C0EAE2FAE052
:10465000149117FDA8C161E085E00E947606112340
:1046600019F0123009F0C2C12401712C612C60E0F4
:1046700072E18AE790E0A30194010E9411262BA722
:104680003CA74DA75EA769017A01B1E0CB1AD1081A
:10469000E108F108EFEFCE16D104E104F10409F0CE
:1046A0000CF457C160E472E48FE090E0A301940140
:1046B0000E94112669017A01F1E0CF1AD108E108C0
:1046C000F108123009F0FAC082E02FEFC216D104CF
:1046D000E104F10409F00CF46FC060E970ED83E0CF
:1046E00090E0A30194010E94112669017A0181E002
:1046F000C81AD108E108F10883E09FEFC916D10478
:10470000E104F10409F00CF457C068E478EE81E0AC
:1047100090E0A30194010E94112669017A01F1E061
:10472000CF1AD108E108F10884E02FEFC216D104B6
:10473000E104F10409F00CF43FC064E274EF80E09E
:1047400090E0A30192010E94112669017A01E1E043
:10475000CE1AD108E108F10885E0FFEFCF16D104A9
:10476000E104F10449F140F162E17AE780E090E090
:10477000A30192010E94112669017A01B1E0CB1ACE
:10478000D108E108F10886E0EFEFCE16D104E1048C
:10479000F10491F088F0CBA4DCA4EDA4FEA48AE09F
:1047A000F594E794D794C7948A95D1F7E1E0CE1AAF
:1047B000D108E108F10887E09091B100987F892B3A
:1047C0008093B100CDC0C8018B5A9109C19708F000
:1047D0000ECF81E090E09FCE8F3F09F0E4C085E0EE
:1047E00080930001EAE2FAE014911F3F09F4DBC074
:1047F000113021F150F0123009F43EC017FDD3C042
:1048000061E085E00E9476062CCF14BC15BC84B50F
:10481000826084BD85B5816085BDE3E5FAE0E49101
:10482000F0E0EE0FFF1FE65CF54F85919491E7E60F
:10483000FAE0E491E0935F0210E00DCF1092800067
:104840001092810080918100886080938100809126
:104850008100816080938100E3E5FAE0E491F0E07B
:10486000EE0FFF1FE65CF54F85919491E7E6FAE0C5
:10487000E491E0935E02EFCE1092B0001092B1008E
:104880008091B00082608093B0008091B10081601F
:104890008093B100E3E5FAE0E491F0E0EE0FFF1F52
:1048A000E65CF54F8591949190935D0280935C0254
:1048B000E7E6FAE0E491E0935B02CDCEAFEFCA16F3
:1048C000D104E104F10409F00CF48EC068E478EE40
:1048D00081E090E0A30194010E94112669017A0110
:1048E000B1E0CB1AD108E108F10884E0111135CF0D
:1048F00083E0AFEFCA16D104E104F10469F164F179
:1049000062E17AE780E090E0A30192010E94112623
:1049100069017A0181E0C81AD108E108F10884E050
:104920009FEFC916D104E104F104B1F0A8F0CBA4C3
:10493000DCA4EDA4FEA49AE0F594E794D794C79480
:104940009A95D1F7B1E0CB1AD108E108F10885E0DA
:1049500003C081E0111130CF95B5987F892B85BDBB
:104960009401220F331FA2E3B0E00E94522628EEEA
:1049700033E040E050E00E943026113009F468C076
:10498000123009F477C011110EC0C7BC2093680221
:104990003093690240936A0250936B0280916E00DB
:1049A000826080936E00F50180859185A285B38534
:1049B000808B918BA28BB38BE0912203F091230328
:1049C000868D978D9C01225331092832310508F0DC
:1049D00061C061E08AE00E94480660E08CE00E94CD
:1049E000480660E08BE066C082E0B4CF712C612C99
:1049F00060E072E18AE790E0A30194010E94112631
:104A000069017A01F1E0CF1AD108E108F10891E0DB
:104A1000C114D10421E0E206F10484F068E478EEE8
:104A200081E090E0A30194010E94112669017A01BE
:104A300081E0C81AD108E108F10893E0113009F0CB
:104A40008FCF80918100887F892B8093810088CFD0
:104A5000D0928900C092880020936402309365024E
:104A6000409366025093670280916F00826080934A
:104A70006F0099CFC092B30020936002309361021F
:104A80004093620250936302809170008260809331
:104A9000700089CF9C012A5531092035310568F411
:104AA00061E08BE00E94480660E08CE00E944806CE
:104AB00060E08AE00E94480667C99C012A5A3109D1
:104AC0002233310520F04E9760E0449708F461E00E
:104AD0008CE00E94480660E08AE081CFF801838D77
:104AE000948D892B21F086AD97AD0E94680BD8017B
:104AF0009F96ED91FC91D0979081D4968C91809562
:104B00008923808368C90E94EC11F801858D968DF8
:104B1000892B09F46AC021AD32AD43AD54AD60E0DC
:104B200074E284EF90E00E9430262051310941095F
:104B3000510956954795379527952093B80080E001
:104B400090E0892B11F40C94A71A0E94670888231F
:104B500011F40C94A31A0E9400000C94A31AD8011B
:104B600005A4F6A5E02D8081D3969C91892B8083A6
:104B7000CE14DF0451F2F70181917F01D8015B96D9
:104B80002D913C91232B19F00E94610BF1CF28E06D
:104B900030E040E8D8019996ED91FC919A97D19632
:104BA0009C91582F5423E9F05081952B9083D80184
:104BB0009B96ED91FC919C979081D2965C91D297B7
:104BC000952B90839B96ED91FC919C975081D2966A
:104BD0009C91909595239083469521503109D1F66B
:104BE000C7CF508190959523E1CFD80107A4F0A9B4
:104BF000E02D8081D4969C91892B8083A0CFE22FD9
:104C0000F92F0C94561C262FF999FECF1FBA92BD8E
:104C100081BD20BD0FB6F894FA9AF99A0FBE01969D
:104C20000895052E97FB1EF400940E94282657FD38
:104C300007D00E94302607FC03D04EF40C9428269F
:104C400050954095309521953F4F4F4F5F4F0895B8
:104C500090958095709561957F4F8F4F9F4F0895E8
:104C6000A1E21A2EAA1BBB1BFD010DC0AA1FBB1F70
:104C7000EE1FFF1FA217B307E407F50720F0A21BE2
:104C8000B30BE40BF50B661F771F881F991F1A944F
:104C900069F760957095809590959B01AC01BD0179
:104CA000CF010895A29FB001B39FC001A39F700DD3
:104CB000811D1124911DB29F700D811D1124911D24
:104CC000089597FB072E16F4009407D077FD09D0BE
:104CD0000E947C2607FC05D03EF4909581959F4F5D
:104CE0000895709561957F4F08950E945226B7FFF1
:104CF0000895821B930B0895AA1BBB1B51E107C0AB
:104D0000AA1FBB1FA617B70710F0A61BB70B881F5B
:104D1000991F5A95A9F780959095BC01CD010895EA
:104D2000EE0FFF1F0590F491E02D09945058BB271A
:104D3000AA270E94AE260C94FF270E94F12738F084
:104D40000E94F82720F039F49F3F19F426F40C94C0
:104D5000EE270EF4E095E7FB0C94E827E92F0E947C
:104D6000102858F3BA17620773078407950720F0D5
:104D700079F4A6F50C9432280EF4E0950B2EBA2F98
:104D8000A02D0B01B90190010C01CA01A001112451
:104D9000FF27591B99F0593F50F4503E68F11A16FD
:104DA000F040A22F232F342F4427585FF3CF46958E
:104DB00037952795A795F0405395C9F77EF41F16B0
:104DC000BA0B620B730B840BBAF09150A1F0FF0F7A
:104DD000BB1F661F771F881FC2F70EC0BA0F621F66
:104DE000731F841F48F4879577956795B795F79556
:104DF0009E3F08F0B0CF9395880F08F09927EE0FEB
:104E00009795879508950E9417270C94FF270E9475
:104E1000F82758F00E94F12740F029F45F3F29F06D
:104E20000C94E82751110C9433280C94EE270E941F
:104E3000102868F39923B1F3552391F3951B550B73
:104E4000BB27AA2762177307840738F09F5F5F4F5D
:104E5000220F331F441FAA1FA9F335D00E2E3AF09C
:104E6000E0E832D091505040E695001CCAF72BD0B4
:104E7000FE2F29D0660F771F881FBB1F2617370705
:104E80004807AB07B0E809F0BB0B802DBF01FF2737
:104E900093585F4F3AF09E3F510578F00C94E82705
:104EA0000C9433285F3FE4F3983ED4F386957795CE
:104EB0006795B795F7959F5FC9F7880F911D9695F0
:104EC000879597F90895E1E0660F771F881FBB1F4C
:104ED000621773078407BA0720F0621B730B840BF9
:104EE000BA0BEE1F88F7E09508950E947C2768941E
:104EF000B1110C94332808950E94182888F09F5708
:104F000098F0B92F9927B751B0F0E1F0660F771FED
:104F1000881F991F1AF0BA95C9F714C0B13091F0E3
:104F20000E943228B1E008950C943228672F782F20
:104F30008827B85F39F0B93FCCF3869577956795A8
:104F4000B395D9F73EF490958095709561957F4F14
:104F50008F4F9F4F0895E89409C097FB3EF49095BA
:104F60008095709561957F4F8F4F9F4F9923A9F042
:104F7000F92F96E9BB279395F695879577956795D1
:104F8000B795F111F8CFFAF4BB0F11F460FF1BC015
:104F90006F5F7F4F8F4F9F4F16C0882311F096E9A8
:104FA00011C0772321F09EE8872F762F05C0662356
:104FB00071F096E8862F70E060E02AF09A95660F0F
:104FC000771F881FDAF7880F9695879597F90895C8
:104FD00097F99F6780E870E060E008959FEF80ECAC
:104FE000089500240A94161617061806090608954F
:104FF00000240A9412161306140605060895092EB5
:105000000394000C11F4882352F0BB0F40F4BF2B23
:1050100011F460FF04C06F5F7F4F8F4F9F4F089563
:1050200057FD9058440F551F59F05F3F71F0479559
:10503000880F97FB991F61F09F3F79F0879508953E
:10504000121613061406551FF2CF4695F1DF08C05D
:10505000161617061806991FF1CF8695710561057A
:1050600008940895E894BB2766277727CB0197F922
:1050700008950E94AB2808F48FEF08950E945128EC
:105080000C94FF270E94F12738F00E94F82720F0A7
:10509000952311F00C94E8270C94EE2711240C941E
:1050A00033280E94102870F3959FC1F3950F50E0AC
:1050B000551F629FF001729FBB27F00DB11D639FCA
:1050C000AA27F00DB11DAA1F649F6627B00DA11D70
:1050D000661F829F2227B00DA11D621F739FB00D16
:1050E000A11D621F839FA00D611D221F749F332786
:1050F000A00D611D231F849F600D211D822F762F1F
:105100006A2F11249F5750409AF0F1F088234AF0FB
:10511000EE0FFF1FBB1F661F771F881F9150504067
:10512000A9F79E3F510580F00C94E8270C94332892
:105130005F3FE4F3983ED4F3869577956795B795EE
:10514000F795E7959F5FC1F7FE2B880F911D969508
:10515000879597F90895990F0008550FAA0BE0E875
:10516000FEEF16161706E807F907C0F01216130629
:10517000E407F50798F0621B730B840B950B39F469
:105180000A2661F0232B242B252B21F408950A26CF
:1051900009F4A140A6958FEF811D811D08950F93FD
:1051A0001F93CF93DF938230910510F482E090E05B
:1051B000E0912603F091270330E020E0B0E0A0E08A
:1051C000309799F42115310509F44AC0281B390B91
:1051D00024303105D8F58A819B816115710589F1EB
:1051E000FB0193838283FE0111C0408151810281C2
:1051F000138148175907E0F04817590799F4109799
:1052000061F012960C93129713961C933296CF016D
:10521000DF91CF911F910F91089500932603109372
:105220002703F4CF2115310551F04217530738F009
:10523000A901DB019A01BD01DF01F801C1CFEF0136
:10524000F9CF9093270380932603CDCFFE01E20F81
:10525000F31F819391932250310939832883D7CF4B
:105260002091240330912503232B41F42091030145
:1052700030910401309325032093240320910101F0
:10528000309102012115310541F42DB73EB740910F
:10529000050150910601241B350BE0912403F09188
:1052A0002503E217F307A0F42E1B3F0B281739073D
:1052B00078F0AC014E5F5F4F2417350748F04E0F72
:1052C0005F1F5093250340932403819391939FCFB5
:1052D000F0E0E0E09CCFCF93DF930097E9F0FC0192
:1052E000329713821282A0912603B0912703ED0119
:1052F00030E020E01097A1F420813181820F931FCC
:1053000020912403309125032817390709F061C043
:10531000F0932503E0932403DF91CF910895EA01F0
:10532000CE17DF07E8F54A815B819E0141155105E3
:10533000B1F7E901FB83EA8349915991C40FD51F65
:10534000EC17FD0761F4808191810296840F951F0F
:10535000E90199838883828193819B838A83F0E02A
:10536000E0E012968D919C9113970097B9F52D91DD
:105370003C911197CD010296820F931F2091240337
:10538000309125032817390739F6309751F51092D7
:10539000270310922603B0932503A0932403BCCFC8
:1053A000D383C28340815181840F951FC817D907C9
:1053B00061F44E5F5F4F88819981480F591F518377
:1053C00040838A819B81938382832115310509F073
:1053D000B0CFF0932703E09326039ECFFD01DC01BD
:1053E000C0CF13821282D7CF81E090E0F8940C9462
:1053F000002ADC0101C06D9341505040E0F7089550
:04540000F894FFCF4E
:10540400FF0000280380000500320078003200000D
:105414000000009D08FD072A08EA085B0839084DCA
:105424000800000000BD119011301423108911767A
:1054340011671100000000A60DFD0730140011B122
:105444000A23104C10241040103410531023106CF5
:105454000BDA13210A6A0A6C0F4F0FD70E780E0D60
:105464000A00446973706C61793120696E697469EA
:10547400616C697A6174696F6E206661696C6564D8
:105484002C2065786974696E672E2E2E2E0A003AD8
:105494000073006D0069203A200062706D203A208C
:0454A40000460000BE
:00000001FF
