:100000000C9446050C946E050C946E050C946E05CC
:100010000C946E050C946E050C946E050C94BE1336
:100020000C946E050C946E050C946E050C946E0584
:100030000C946E050C946E050C946E050C946E0574
:100040000C9474130C946E050C9466140C94401468
:100050000C946E050C946E050C946E050C946E0554
:100060000C9498140C946E0500000000003E5B4F49
:100070005B3E3E6B4F6B3E1C3E7C3E1C183C7E3C08
:10008000181C577D571C1C5E7F5E1C00183C180016
:10009000FFE7C3E7FF0018241800FFE7DBE7FF30A6
:1000A000483A060E2629792926407F050507407F14
:1000B00005253F5A3CE73C5A7F3E1C1C08081C1C87
:1000C0003E7F14227F22145F5F005F5F06097F017D
:1000D0007F006689956A606060606094A2FFA29468
:1000E00008047E040810207E201008082A1C080836
:1000F0001C2A08081E101010100C1E0C1E0C303884
:100100003E3830060E3E0E06000000000000005F84
:1001100000000007000700147F147F14242A7F2AA0
:100120001223130864623649562050000807030062
:10013000001C2241000041221C002A1C7F1C2A08AE
:10014000083E080800807030000808080808000011
:1001500060600020100804023E5149453E00427F85
:10016000400072494949462141494D331814127FD4
:100170001027454545393C4A494931412111090774
:100180003649494936464949291E000014000000F5
:1001900040340000000814224114141414140041C7
:1001A00022140802015909063E415D594E7C121184
:1001B000127C7F494949363E414141227F414141BC
:1001C0003E7F494949417F090909013E4141517337
:1001D0007F0808087F00417F41002040413F017FA8
:1001E000081422417F404040407F021C027F7F0470
:1001F00008107F3E4141413E7F090909063E4151B9
:10020000215E7F09192946264949493203017F01A8
:10021000033F4040403F1F2040201F3F4038403FA9
:10022000631408146303047804036159494D4300BF
:100230007F4141410204081020004141417F0402F6
:10024000010204404040404000030708002054548D
:1002500078407F284444383844444428384444286B
:100260007F385454541800087E090218A4A49C78BE
:100270007F0804047800447D40002040403D007F1A
:100280001028440000417F40007C047804787C08FA
:100290000404783844444438FC18242418182424CE
:1002A00018FC7C08040408485454542404043F44B3
:1002B000243C4040207C1C2040201C3C4030403CE2
:1002C00044281028444C9090907C4464544C440042
:1002D00008364100000077000000413608000201A6
:1002E0000204023C2623263C1EA1A161123A404092
:1002F000207A38545455592155557941225454780F
:1003000042215554784020545579400C1E527212A7
:100310003955555559395454545939555454580030
:1003200000457C410002457D420001457C407D1234
:1003300011127DF0282528F07C5455450020545496
:100340007C547C0A097F4932494949323A44444441
:100350003A324A4848303A4141217A3A424020787C
:10036000009DA0A07D3D4242423D3D4040403D3C7D
:1003700024FF2424487E4943662B2FFC2F2BFF09A2
:1003800029F620C0887E0903205454794100004496
:100390007D413048484A32384040227A007A0A0A81
:1003A000727D0D19317D2629292F282629292926F4
:1003B00030484D4020380808080808080808382F39
:1003C00010C8ACBA2F102834FA00007B00000814C3
:1003D0002A142222142A14085500550055AA55AA99
:1003E00055AAFF55FF55FF000000FF00101010FF39
:1003F00000141414FF001010FF00FF1010F010F094
:10040000141414FC001414F700FF0000FF00FF1484
:1004100014F404FC141417101F10101F101F1414D0
:10042000141F00101010F0000000001F101010101A
:100430001F10101010F010000000FF10101010100E
:1004400010101010FF10000000FF140000FF00FF4C
:1004500000001F10170000FC04F4141417101714E8
:1004600014F404F40000FF00F7141414141414140A
:10047000F700F7141414171410101F101F1414147D
:10048000F4141010F010F000001F101F0000001FE7
:1004900014000000FC140000F010F01010FF10FF1A
:1004A000141414FF141010101F00000000F010FFAF
:1004B000FFFFFFFFF0F0F0F0F0FFFFFF0000000093
:1004C00000FFFF0F0F0F0F0F3844443844FC4A4A17
:1004D0004A347E02020606027E027E0263554941CC
:1004E000633844443C04407E201E2006027E020203
:1004F00099A5E7A5991C2A492A1C4C7201724C3017
:100500004A4D4D303048784830BC625A463D3E49ED
:100510004949007E0101017E2A2A2A2A2A44445F91
:10052000444440514A444040444A51400000FF0185
:1005300003E080FF000008086B6B08361236243693
:10054000060F090F060000181800000010100030F8
:1005500040FF0101001F01011E00191D1712003C80
:100560003C3C3C0000000000000103070F1F3F7FE0
:100570000080C0E0F0F8FCFEDB40A4A62EAF200017
:10058000A1C8D300408DAED580A800006000000057
:100590000000000000000000000000E0000000007B
:1005A00000000000000000000001E000000000006A
:1005B000000000000000000001F00000000000004A
:1005C0000000000000000003F00000000000000038
:1005D00000000000000007F0000000000000000024
:1005E000000000000007F80000000000000000000C
:1005F000000000000FF800000003C0007E000001B2
:10060000E0007F0FF800000003C000FE000001E0E2
:1006100000FFEFF800000003C000FE000001E00052
:10062000FFFFF800000003C000F00000000F007F93
:10063000FE7FC0000003C000F00000000F003FFE7E
:100640007FF83FF1FBCFFCFEF3BC3DEFE01FFE7FE8
:10065000FF7FFBFFDFFEFEFFBC3DEFE01FC6FFFF9D
:100660007FFBFFDFFEFEFFBC3DEFE00FE3C7FE7840
:100670007BC3DE1EF0FFBC3DEF0007FF87FC787BED
:10068000C3DE1EF0F83C3DEF0001FFFFF0007BC32E
:10069000C01EF0F03C3DEF0001F37FE03FFBC3CF15
:1006A000FEF0F03C3DEF0003E33F807FFBC3DFFE45
:1006B000F0F03C3DEF0007E73C00787BC3DE1EF026
:1006C000F03C3DEF0007FFBE00787BC3DE1EF0F07C
:1006D0003C3DEF0007FFFE00787BC3DE1EF0F03CE0
:1006E0003DEF000FFFFE007FFBFFDFFEF0F03FFD60
:1006F000EFE00FFFFF007FFBFFDFFEF0F03FFDEFBD
:10070000E00FF9FF003E79F9CF9EF0F01F3DE7E0E2
:100710001FF1FF0000000000000000000000001FAB
:1007200080FF007FFFFFFFFFFFFFFFFFFFE01C00D8
:100730007F007FFFFFFFFEB46D888D18E000001F73
:10074000007FFFFFFFFE95AD7DB577E000000F0055
:100750007FFFFFFFFEA5AD9D8D19E0000006007F25
:10076000FFFFFFFEB5ADEDB57EE00000000000012B
:100770008000000000000000000003800000000076
:10078000000000000007C0000000000000000000A2
:1007900007C00000000000000000000FC0000000C3
:1007A0000000000000001FE000000000000000004A
:1007B000001FE00000000000000000003FE000001B
:1007C000000000000000003FF000000000000000FA
:1007D00000007FF0000000000000001FF87FF00024
:1007E0000000000000003FFE7FF00000000000005D
:1007F000003FFF7FF0000000000000001FFFFBE053
:10080000000000000000000FFFF9FFC00000000022
:1008100000000FFFF9FFF800000000000007FFF1E3
:10082000FFFF00000000000003FC73FFFF800000DA
:1008300000000001FE3FFFFF80000000000000FFFD
:100840001E0FFF000000000000007FFE1FFC0000E4
:1008500000000000003FFFFFF80000000000000063
:100860000FDFFFE0000000000000001F19FFC000C4
:100870000000000000003F3CFF00000000000000FE
:10088000007E7CF800000000000000007FFE7C007D
:1008900000000000000000FFFFFC0000000000005E
:1008A0000000FFFFFE0000000000000000FFFFFE50
:1008B0000000000000000001FFEFFE00000000004B
:1008C000000001FFCFFE0000000000000003FF0752
:1008D000FE0000000000000003FC07FE0000000016
:1008E00000000003F003FE00000000000000018093
:1008F00000FE000000000000000000007E0000007C
:10090000000000000000003E0000000000000000A9
:1009100000000C000000000000078000FC00000345
:10092000C0000000078001FC000003C000000007B9
:100930008001FC000003C0000000078001E000000F
:10094000001E000000078001E00000001E007FE3A1
:10095000F79FF9FDE7787BDFC0FFF7FFBFFDFDFFE5
:10096000787BDFC0FFF7FFBFFDFDFF787BDFC0F0C6
:10097000F787BC3DE1FF787BDE00F0F787BC3DE107
:10098000F0787BDE0000F787803DE1E0787BDE00D9
:100990007FF7879FFDE1E0787BDE00FFF787BFFDF3
:1009A000E1E0787BDE00F0F787BC3DE1E0787BDEBC
:1009B00000F0F787BC3DE1E0787BDE00F0F787BC14
:1009C0003DE1E0787BDE00FFF7FFBFFDE1E07FFB6C
:1009D000DFC0FFF7FFBFFDE1E07FFBDFC07CF3F38B
:1009E0009F3DE1E03E7BCFC0000000000000000022
:1009F000000000FFFFFFFFFFFFFFFFFFFFC0FFFF43
:100A0000FFFFFD68DB111A31C0FFFFFFFFFD2B5A0E
:100A1000FB6AEFC0FFFFFFFFFD4B5B3B1A33C0FFDC
:100A2000FFFFFFFD6B5BDB6AFDC0020000000023DF
:100A300000260029002200FF210000000000240001
:100A400027002A0000000000250028002B000404D5
:100A50000404040404040202020202020303030366
:100A60000303010204081020408001020408102042
:100A70000102040810200000000800020100000329
:100A800004070000000000000000B71511241FBE7D
:100A9000CFEFD8E0DEBFCDBF11E0A0E0B1E0E6EDE2
:100AA000F4E402C005900D92A838B107D9F723E00D
:100AB000A8E8B1E001C01D92AC30B207E1F715E043
:100AC000C6E4D5E004C02197FE010E949C1FC534F6
:100AD000D107C9F70E94E2160C9469220C94000019
:100AE0003F924F925F926F927F928F929F92AF92BE
:100AF000BF92CF92DF92EF92FF920F931F93CF930B
:100B0000DF9300D000D0CDB7DEB79C838B833B0151
:100B10006A015901DC01ED91FC910284F385E02D1D
:100B200009952801B7E04B0E511C93E0559447946A
:100B30009A95E1F7C6018E0D9F1D9A838983912CAA
:100B4000812C312CF12CE12CC70187709927330CB3
:100B5000892B59F4F70183E0F595E7958A95E1F73C
:100B6000E80DF91DEA0DFB1D349037FE10C0AB8176
:100B7000BC81ED91FC9111970484F585E02D21E075
:100B800030E0A601B701660D771DCD010995BFEFD5
:100B9000EB1AFB0A0E151F05B9F68FEFC81AD80A13
:100BA000840C951CA981BA81CA16DB0659F6AB8163
:100BB000BC81ED91FC9111970688F789E02DCD015C
:100BC0000F900F900F900F90DF91CF911F910F9189
:100BD000FF90EF90DF90CF90BF90AF909F908F905D
:100BE0007F906F905F904F903F900994833081F099
:100BF00028F4813099F08230A9F008958730A9F067
:100C00008830C9F08430B1F4809180008F7D03C0BA
:100C1000809180008F7780938000089584B58F77CE
:100C200084BD089584B58F7DFBCF8091B0008F7710
:100C30008093B00008958091B0008F7DF9CF1F930D
:100C4000CF93DF93282F30E0F901EA58F54F8491D4
:100C5000F901EE59F54FD491F901E25BF54FC491DA
:100C6000CC23A9F0162F81110E94F605EC2FF0E09D
:100C7000EE0FFF1FEC5BF54FA591B4918FB7F89481
:100C8000EC91111108C0D095DE23DC938FBFDF916A
:100C9000CF911F910895DE2BF8CFCF93DF9390E093
:100CA000FC01EE59F54F2491825B954FFC01849134
:100CB0008823D1F090E0880F991FFC01E65CF54F86
:100CC000A591B491FC01EC5BF54FC591D4916111F4
:100CD0000EC09FB7F8948C91E22FE0958E238C93F1
:100CE0002881E223E8839FBFDF91CF9108958FB7DA
:100CF000F894EC91E22BEC938FBFF6CF3FB7F894CA
:100D00008091550290915602A0915702B0915802DD
:100D100026B5A89B05C02F3F19F00196A11DB11D56
:100D20003FBFBA2FA92F982F8827BC01CD01620F92
:100D3000711D811D911D42E0660F771F881F991F4D
:100D40004A95D1F708958F929F92AF92BF92CF921A
:100D5000DF92EF92FF924B015C010E947E066B01D5
:100D60007C010E947E066C197D098E099F09683EF0
:100D7000734081059105A8F321E0821A9108A1082A
:100D8000B10888EEC80E83E0D81EE11CF11C811466
:100D90009104A104B10429F7FF90EF90DF90CF9068
:100DA000BF90AF909F908F90089508950895AF924F
:100DB000BF92CF92DF92EF92FF920F931F93CF9348
:100DC000DF936C017B018B01040F151FEB015E01AA
:100DD000AE18BF08C017D10759F06991D601ED913F
:100DE000FC910190F081E02DC6010995892B79F7DE
:100DF000C501DF91CF911F910F91FF90EF90DF9090
:100E0000CF90BF90AF900895FC01538D448D252F56
:100E100030E0842F90E0821B930B541710F0CF9694
:100E2000089501970895FC01918D828D981761F0C6
:100E3000A28DAE0FBF2FB11D5D968C91928D9F5FDD
:100E40009F73928F90E008958FEF9FEF0895FC01BC
:100E5000918D828D981731F0828DE80FF11D858D6F
:100E600090E008958FEF9FEF0895FC01918D228D02
:100E7000892F90E0805C9F4F821B91098F73992787
:100E8000089589E592E00E94350721E0892B09F455
:100E900020E0822F089580E090E0892B29F00E94C5
:100EA000410781110C9400000895FC01A48DA80F46
:100EB000B92FB11DA35ABF4F2C91848D90E001969C
:100EC0008F739927848FA689B7892C93A089B189BC
:100ED0008C91837080648C93938D848D981306C05D
:100EE0000288F389E02D80818F7D80830895EF92C1
:100EF000FF920F931F93CF93DF93EC0181E0888FD4
:100F00009B8D8C8D98131AC0E889F989808185FFA3
:100F100015C09FB7F894EE89FF896083E889F98945
:100F200080818370806480839FBF81E090E0DF9147
:100F3000CF911F910F91FF90EF900895F62E0B8D9A
:100F400010E00F5F1F4F0F731127E02E8C8D8E1155
:100F50000CC00FB607FCFACFE889F989808185FFBC
:100F6000F5CFCE010E945507F1CFEB8DEC0FFD2F91
:100F7000F11DE35AFF4FF0829FB7F8940B8FEA8977
:100F8000FB8980818062CFCFCF93DF93EC01888D86
:100F90008823B9F0AA89BB89E889F9898C9185FDF4
:100FA00003C0808186FD0DC00FB607FCF7CF8C9182
:100FB00085FFF2CF808185FFEDCFCE010E945507DE
:100FC000E9CFDF91CF910895EF92FF920F931F9396
:100FD000CF93DF93EC01EC80FD806E157F050CF064
:100FE00070C057FF04C0240F351F50E040E08E81D1
:100FF0009F81FA01E20FF31F8E179F071CF49C01DB
:10100000241B350B121613060CF05BC0922F842F95
:101010008695869586958E9DD0018F9DB00D112465
:101020006A0F7B1FAF8DB8A1A60FB71F477049F19C
:1010300088E0841B482F682F70E0FB01E059FA4FCD
:10104000E491281708F063C0621B71092FEF30E0AC
:1010500002C0359527956A95E2F7E2230130110524
:1010600039F0B0F10230110561F58C91E82702C02A
:101070008C91E82BEC93941720F12C813D81A20FE9
:10108000B31FE92FE41BE83078F00230110521F599
:101090008E2F9C9190959C932C813D81A20FB31F24
:1010A00088508830B0F7E770EE2359F0F0E0E85947
:1010B000FA4FE49101301105F9F010F102301105F9
:1010C00019F1DF91CF911F910F91FF90EF9008954B
:1010D000E0958C91E823CECF81E00115110509F44C
:1010E00080E081959E2F8C932C813D81A20FB31FB0
:1010F00098509830C0F7D7CF8C91E82BEC93E1CF84
:10110000E0958C91E823FACF8C91E827F7CF013056
:10111000110509F4ADCFE0F20230110509F4A5CFB5
:10112000AE0DBF1DAECF0F931F93CF93DF9377FF0D
:1011300004C0260F371F70E060E0DC011496CD91EB
:10114000DC91FB01E20FF31FCE17DF071CF49E01B9
:10115000261B370B121613064CF5FA0157FD37966E
:10116000A3E0F595E795AA95E1F7EC9FD001ED9FF7
:10117000B00DFC9FB00D11246A0F7B1FDC015F9640
:10118000ED91FC91E60FF71F4770552781E090E045
:1011900001C0880F4A95EAF7482F0130110559F030
:1011A000A8F02E0F3F1F02301105E1F0DF91CF9123
:1011B0001F910F9108952E0F3F1FE217F307B1F310
:1011C0008191DF011197842B8C93F7CF80952E0F9F
:1011D0003F1FE217F30751F39191DF011197982315
:1011E0009C93F7CFE217F30709F38191DF01119781
:1011F00084278C93F7CF0F931F93FA01DC01569647
:101200004C9156974230E9F04330A1F1413061F5FD
:1012100014964D915C91DA01AE1BBF0BFD01E21BF0
:10122000F30B77FD0BC0DC0116964D915C916417B2
:10123000750724F4AB01BF010E9493081F910F9121
:10124000089514964D915C91DA01A61BB70BBD0170
:1012500061507109DC0116964D915C91DA01AE1B6B
:10126000BF0BFD01E21BF30B77FDE8CFAF010E943E
:10127000E407E4CF16964D915C91DA01A61BB70BFB
:10128000BD0161507109CDCF0F931F93FA01DC01AD
:1012900056964C9156974230A9F0433091F1413027
:1012A00019F514964D915C91DA01AE1BBF0BFD014F
:1012B0003197F7FD04C0AB01BF010E94E4071F9105
:1012C0000F91089514964D915C91DA01A61BB70B0E
:1012D000BD01DC0116964D915C91DA01AE1BBF0B8E
:1012E000FD013197621B730BF7FDE9CFDC01169608
:1012F0004D915C91E417F50714F7AF010E94930834
:10130000DECF16964D915C91DA01A61BB70BBD019D
:10131000621B730BCECFFC0177FD64C08085918585
:10132000681779070CF05EC057FD5CC08285938515
:10133000481759070CF056C086898230B1F08330C7
:1013400029F1813041F484819581841B950BAB0197
:10135000BC01615071092130310509F108F443C025
:101360002230310509F463C0089584819581DC0140
:10137000A61BB70BBD016150710986819781DC0105
:10138000A41BB50BAD0141505109E5CF8681978172
:10139000861B970BBA01AC0141505109DCCFCA0141
:1013A00057FD0796A3E095958795AA95E1F7A48147
:1013B000B5818A9F90018B9F300D9A9F300D11242B
:1013C000620F731F078CF0A1E02DE60FF71F477027
:1013D000552721E030E001C0220F4A95EAF78081CD
:1013E000822B80830895CA0157FD079633E09595B7
:1013F00087953A95E1F7A481B5818A9F90018B9FEB
:10140000300D9A9F300D1124620F731F078CF0A1CD
:10141000E02DE60FF71F4770552781E090E001C0EF
:10142000880F4A95EAF7809590818923DACFCA011F
:1014300057FD079623E0959587952A95E1F7A481B6
:10144000B5818A9F90018B9F300D9A9F300D11249A
:10145000620F731F078CF0A1E02DE60FF71F477096
:10146000552721E030E001C0220F4A95EAF780813C
:101470008227B7CF08958EBD00000DB407FEFDCFC3
:101480008EB508958CBD9DBD08950895FC016370CF
:10149000668B8481958126813781613039F0633094
:1014A00029F09187808733872287089531872087A5
:1014B0009387828708952F923F924F925F926F9207
:1014C0007F928F929F92AF92BF92CF92DF92EF92D4
:1014D000FF920F931F93CF93DF93CDB7DEB76A9739
:1014E0000FB6F894DEBF0FBECDBF9A8F898F7A8377
:1014F00069834A01D22E18870F833701BC2CDC0187
:1015000059962D913C915A972115310509F015C135
:1015100018968D919C911997681779070CF0D7C18F
:101520001A968D919C91481759070CF0D0C14C2CFC
:10153000512CB6E0CB9E600D711D11247C876B870A
:10154000161617060CF0C3C1EA2DF0E0FA87E987FA
:1015500093E0EE0FFF1F9A95E1F7F88BEF87CF012D
:10156000840F951F181619060CF0B1C1A98DBA8DFC
:1015700058968C91811104C0BFEABD1508F4D3942C
:10158000A98DBA8DED91FC9111970284F385E02D20
:10159000CD010995B5E0DB9EC0011124E981FA81F6
:1015A000FC83EB83312C212C9C0128593F4F388F31
:1015B0002F8B4A2D50E05E8B4D8BEF89F88DE20D1D
:1015C000F31D44919E828D82D12CC12C69817A8138
:1015D000620D731D7A8B698B842F90E09C8B8B8BB3
:1015E000E98DFA8DA081B18140FF82C0F1E0BF1288
:1015F0006FC0AF126DC01C96ED91FC912F813885A4
:10160000A4014C0D5D1D69897A89898D9A8D099592
:10161000EB89FC89F595E7954E2F5FEFC51AD50A42
:101620006D817E818D899E89680F791F7E836D8390
:1016300098E0C916D10481F6AFEF2A1A3A0AEB8175
:10164000FC81E40DF51DFC83EB83F5E02F163104DE
:1016500009F0B3CF2F81388526153705B9F0A98D4C
:10166000BA8DED91FC91B1E0BB1257C0AB1255C0E1
:1016700069817A816B5F7F4F0088F189E02D83015A
:1016800028E030E0A401898D9A8D0995A98DBA8D45
:10169000ED91FC9111970688F789E02DCD016A96AE
:1016A0000FB6F894DEBF0FBECDBFDF91CF911F9173
:1016B0000F91FF90EF90DF90CF90BF90AF909F90F1
:1016C0008F907F906F905F904F903F902F900994F4
:1016D0001E96ED91FC91EF80F88409851A859201A0
:1016E0004D815E816B817C81898D9A8D099590CF2A
:1016F0002F8138852615370509F48ACF31E0B312DA
:1017000007C0A31205C01C96ED91FC91930178CF00
:101710001E96ED91FC917301E0CF6B857C85641979
:1017200075090684F785E02D73010F8518899201EC
:10173000A401898D9A8D0995A9CFF90134969491C8
:10174000329745915491D91AB7E0DB9E400D511D57
:101750001124F901259134913C8B2B8BFA012590B2
:101760003490FA013296749031963491398B3296D6
:1017700064903196449041E04C1518F04A1508F0F9
:101780007FC0662D062C000C770B7C836B83842D29
:10179000042C000C990B9E838D83A98DBA8DED913D
:1017A000FC9111970284F385E02DCD010995512C10
:1017B000D12CC12CEA2DF0E0FA87E9872B2D30E0FF
:1017C0003C872B87A401440D511D47FC5A95588F27
:1017D0004F8B69817A81660D711D67FC7A957E87D2
:1017E0006D877989C71608F051CF2C2D30E04D81D7
:1017F0005E81420F531FA985BA854A9FC0014B9F46
:10180000900D5A9F900D1124FC01E80DF91DF88BE5
:10181000EF87852D612C4F89588D420F531F5E8BAA
:101820004D8B671408F050C044244394480E8770D1
:1018300041F4C1010196EB89FC89E20DF31DD490BE
:101840001C01D7FE19C0A98DBA8DED91FC91662DB2
:1018500070E0B1E0BB1219C0AB1217C02D853E85F8
:10186000620F731F0484F585E02D2F8138854D8923
:101870005E89898D9A8D0995DD0C6394842DD1CF75
:101880001E821D821C821B8288CF4B815C81640F6B
:10189000751FAB85BC856A9FC0016B9F900D7A9FB9
:1018A000900D112469817A81680F791F0684F7856C
:1018B000E02DEF80F88409851A859D014F855889B0
:1018C000898D9A8D0995D8CF570CC3948ACF6A9683
:1018D0000FB6F894DEBF0FBECDBFDF91CF911F9141
:1018E0000F91FF90EF90DF90CF90BF90AF909F90BF
:1018F0008F907F906F905F904F903F902F900895C2
:101900008F929F92AF92CF92EF92FF920F931F937D
:10191000CF93DF93EC01262F898D9A8D009709F0E4
:1019200051C06A30D1F41D861C868D8948E0849FA1
:10193000900111248E859F85820F931F9F878E872C
:1019400081E090E0DF91CF911F910F91FF90EF9098
:10195000CF90AF909F908F9008956D3089F3CC8891
:10196000AD888F898823C1F08C859D8536E0C39E24
:10197000800D911D1124488559854817590764F435
:101980004E855F851D861C8638E0A39EC00111240C
:10199000840F951F9F878E87EA88FB88088919899D
:1019A0004E855F856C857D85CE010E945B0A2C8902
:1019B0008C859D8546E0249F800D911D11249D8777
:1019C0008C87BECF6A3069F41D861C86FC01389670
:1019D000E4912D898E859F85E29F800D911D1124B4
:1019E000ADCF6D3009F4ACCFFC0134963491631760
:1019F00008F4A6CF3296E491E61708F4A1CFFC01D3
:101A0000329685909490462F431B342F47E0349FA5
:101A1000800C911C1124F401329634913196E4919A
:101A20003323A9F1EE2399F1CC88F4013596E491A2
:101A3000AD884F89442301F10E2E000CFF0BE30FFC
:101A4000F11DCE9EA001CF9E500D11246C857D8589
:101A5000460F571F68857985641775076CF44E85A6
:101A60005F851D861C86FC013896E491AE9E400D74
:101A7000511D11245F874E87EA88FB8808891989E0
:101A80004E855F856C857D85CE010E945B0AF401E1
:101A90003496E4912C898C859D85E29F800D911D63
:101AA00011248DCF6F927F928F929F92AF92BF92AF
:101AB000CF92DF92EF92FF920F931F93CF93DF931A
:101AC000EC016B015A0139014801E881F981028476
:101AD000F385E02D0995E881F9810288F389E02DED
:101AE00087019301A501B601CE010995A501480D15
:101AF000591D41505109E881F9810288F389E02D8F
:101B00009301B601CE010995E881F9810088F18938
:101B1000E02D9401A501B601CE010995C60CD71C94
:101B2000B60161507109E881F9810088F189E02DE1
:101B30009401A501CE010995E881F9810688F7890C
:101B4000E02DCE01DF91CF911F910F91FF90EF908B
:101B5000DF90CF90BF90AF909F908F907F906F90CD
:101B600009946F927F928F929F92AF92BF92CF9281
:101B7000DF92EF92FF920F931F93CF93DF935C015D
:101B8000EB016A01490138018701DC01ED91FC910B
:101B90006217730719F5641675062CF0962D872DBC
:101BA0003A01C92ED82E9601261937092F5F3F4FCB
:101BB000048CF58DE02DA301BE01C5010995DF91CF
:101BC000CF911F910F91FF90EF90DF90CF90BF903A
:101BD000AF909F908F907F906F9008954615570516
:101BE00091F42617370724F0892D4B01C22FD82FE7
:101BF0009E01281939092F5F3F4F068CF78DE02D84
:101C0000A601B401DACF0284F385E02D0995D50150
:101C1000ED91FC910488F589E02D83019401A601E2
:101C2000BE01C5010995D501ED91FC910688F789A2
:101C3000E02DC501DF91CF911F910F91FF90EF90A3
:101C4000DF90CF90BF90AF909F908F907F906F90DC
:101C50000994EF92FF920F931F93DC011A960D9156
:101C60001C911B9718962D913C911997ED91FC9121
:101C700000A0F1A1E02D7B0150E040E070E060E0C9
:101C800009951F910F91FF90EF9008954F925F92E9
:101C90006F927F928F929F92AF92BF92CF92DF927C
:101CA000EF92FF920F931F93CF93DF936C012B0161
:101CB0005A0139014801DC01ED91FC910284F38560
:101CC000E02D0995E201640C751CD601ED91FC91A3
:101CD000C615D7055CF40088F189E02D87019401D1
:101CE000A501BE01C60109952196EFCF0688F789A7
:101CF000E02DC601DF91CF911F910F91FF90EF90E2
:101D0000DF90CF90BF90AF909F908F907F906F901B
:101D10005F904F9009948F929F92AF92BF92CF9213
:101D2000DF92EF92FF920F931F93CF93DF93EC011B
:101D30005B014A016901E881F9810284F385E02DA4
:101D4000099595012C0D3D1D21503109E881F9813E
:101D50000488F589E02D78018401A401B501CE0144
:101D60000995E881F9810688F789E02DCE01DF9198
:101D7000CF911F910F91FF90EF90DF90CF90BF9088
:101D8000AF909F908F9009948F929F92AF92BF9245
:101D9000CF92DF92EF92FF920F931F93CF93DF9337
:101DA000EC015B014A0169017801E881F981028453
:101DB000F385E02D0995C80CD91C86010150110945
:101DC000E881F9810488F589E02D9501A401B50128
:101DD000CE010995E881F9810688F789E02DCE01C9
:101DE000DF91CF911F910F91FF90EF90DF90CF90F7
:101DF000BF90AF909F908F9009940895EF92FF92BB
:101E00000F931F93DC01ED91FC9100A0F1A1E02D57
:101E100009951F910F91FF90EF9008950F931F93D5
:101E2000DC01ED91FC91068CF78DE02D09951F9159
:101E30000F9108950F931F93DC01ED91FC91048C99
:101E4000F58DE02D09951F910F910895DC01ED911D
:101E5000FC910084F185E02D09942F923F924F92DE
:101E60005F926F927F928F929F92AF92BF92CF922A
:101E7000DF92EF92FF920F931F93CF93DF9300D0E7
:101E800000D000D0CDB7DEB73C016A013E832D8380
:101E9000FC82EB825801A41AB50AB7FE03C0B194C4
:101EA000A194B1088D809E80861A970A97FE03C080
:101EB0009194819491088A149B045CF0902F812F57
:101EC0000D811E819D838E839C2D8D2D6B01692F2D
:101ED000782F0C151D055CF09D818E817E836D83AE
:101EE000692F782F902F812F8601C92ED82E1601A9
:101EF000201A310A2B012D813E81421A530A57FEC6
:101F000003C0519441945108710137FE03C03FEF63
:101F1000E31AF30AF594E7948D819E81861797075B
:101F20005CF5A1E0B0E0BA83A983C016D1064CF1FC
:101F3000D301ED91FC910484F585E02D2B813C814A
:101F4000A8016D817E818A149B041CF04D815E8105
:101F5000B801C3010995E418F508F7FE0AC02D8100
:101F60003E8189819A81280F391F3E832D83E20C9F
:101F7000F31C0F5F1F4FD9CF2FEF3FEF3A83298319
:101F8000D4CF26960FB6F894DEBF0FBECDBFDF913B
:101F9000CF911F910F91FF90EF90DF90CF90BF9066
:101FA000AF909F908F907F906F905F904F903F90F9
:101FB0002F90089508952091EE01260F3327331FA7
:101FC00021323105ECF420911202FC0190E080E016
:101FD000243069F082E00895A091EE012191AC01D6
:101FE00042535E4FA40FB52FB11D2C930196861757
:101FF00098F38091EE01680F6093EE0180E0089500
:1020000081E008951092120281E0809314021092F0
:10201000130261E082E10E941F0661E083E10E94F9
:102020001F06E9EBF0E080818E7F808380818D7FC9
:10203000808388E48093B80085E48093BC00089591
:10204000CF93DF9391E09093CD018823B9F0C091B5
:10205000B800D091BA008091BC008A7B8093BC000C
:1020600060E082E10E941F0660E083E10E941F069B
:102070000E940210D093BA00C093B800DF91CF91B4
:102080000895E0913E0280913D02E81730F4F0E0BF
:10209000E855FE4F808190E008958FEF9FEF0895FF
:1020A00090913E0280913D022FEF3FEF981748F448
:1020B000E92FF0E0E855FE4F208130E09F5F9093DC
:1020C0003E02C901089580913D0290913E02891B14
:1020D000990B0895CF92DF92EF92FF920F931F9387
:1020E000CF93DF937C01CB018A01209153022223FD
:1020F00089F0EB016B01C40ED51ECC15DD0569F02E
:102100006991D701ED91FC910190F081E02DC7011B
:102110000995F3CF642F0E94DB0FC801DF91CF91A7
:102120001F910F91FF90EF90DF90CF900895CF9384
:10213000DF931F92CDB7DEB769832091530222232C
:10214000F9F020915002203258F021E030E0FC01FB
:102150003383228390E080E00F90DF91CF91089548
:1021600080915102E82FF0E0E857FE4F998190836B
:102170008F5F809351028093500281E090E0ECCF1A
:1021800061E0CE0101960E94DB0FF7CFCF92DF9284
:10219000EF92FF920F931F93CF93DF93D091500252
:1021A00081E0D13208F09CC0C09152020E947E06AC
:1021B0006B017C018091120281116CC082E08093DE
:1021C000120281E0809314028FEF8093110210922B
:1021D0003602D0933502A8E8B1E0E5E1F2E080E014
:1021E000D8138DC01092370280913702CC0FC82BC4
:1021F000C093370280911302813009F084C010929D
:1022000013020E947E066B017C018091370280934D
:10221000BB008091C9019091CA01A091CB01B091FE
:10222000CC01892B8A2B8B2BA1F00E947E0600917A
:10223000C9011091CA012091CB013091CC016C19D8
:102240007D098E099F09061717072807390708F423
:1022500042C08091BC0083FDD8CF85EC8093BC0048
:102260000E947E066B017C0180911202823009F48B
:102270004CC0809111028F3F09F469C08091110216
:10228000803209F466C080911102803309F463C082
:1022900084E026C08091C9019091CA01A091CB0130
:1022A000B091CC01892B8A2B8B2B09F483CF0E9410
:1022B0007E060091C9011091CA012091CB01309195
:1022C000CC016C197D098E099F090617170728078D
:1022D000390708F06FCF8091C8010E94201085E077
:1022E000109251021092500210925302DF91CF913E
:1022F0001F910F91FF90EF90DF90CF9008959D91E7
:1023000091938F5F6DCF85EEA9CF8091C901909198
:10231000CA01A091CB01B091CC01892B8A2B8B2BC8
:1023200009F4A2CF0E947E060091C9011091CA0152
:102330002091CB013091CC016C197D098E099F0948
:10234000061717072807390708F08ECFC4CF80E09B
:10235000C7CF82E0C5CF83E0C3CFCF92DF92EF92A9
:10236000FF920F931F93CF93DF93EC016B01142F18
:102370008D8D9E8D009709F454C029A131E03093D2
:102380005302209352021092510210925002DC012B
:10239000ED91FC910190F081E02D60E009957601CE
:1023A000CC24C394D12C01E011508D8D9E8D1F3F04
:1023B00071F1B0E2CB16D104C0F00E94C6108D8D31
:1023C0009E8D29A100935302209352021092510234
:1023D00010925002DC01ED91FC910190F081E02D12
:1023E00060E00995CC24C394D12C8D8D9E8DF7018E
:1023F0006491DC01ED91FC910190F081E02D099553
:10240000BFEFCB1ADB0AEFEFEE1AFE0ACDCFDF915A
:10241000CF911F910F91FF90EF90DF90CF900C9490
:10242000C610EDA5FEA590818BA980958923808398
:102430007B01115070F1F70184912B8D3C8D232B82
:1024400031F00E943B0AFFEFEF1AFF0AF2CF28E0BB
:1024500030E040E8E9A5FAA599A9582F5423A9F03E
:102460005081952B9083EBA5FCA590815AA9952BC3
:102470009083EBA5FCA550819AA990959523908314
:1024800046952150310931F7DECF50819095952343
:10249000E9CFDF91CF911F910F91FF90EF90DF90E7
:1024A000CF9008951F93CF93DF93EC018D8D9E8D78
:1024B000009721F1162F29A131E030935302209388
:1024C00052021092510210925002DC01ED91FC91E7
:1024D0000190F081E02D60E009958D8D9E8DDC01ED
:1024E000ED91FC910190F081E02D612F09958D8D8A
:1024F0009E8DDF91CF911F910C94C610ADA5BEA506
:102500009C918BA9809589238C938B8D9C8D892B95
:1025100031F0862FDF91CF911F910C943B0A28E078
:1025200030E080E8A9A5BAA599A9462F4823C1F0B3
:102530004C91942B9C93ABA5BCA59C914AA9942B40
:102540009C93ABA5BCA54C919AA9909594239C9380
:1025500086952150310931F7DF91CF911F91089570
:102560004C9190959423E6CF1F93CF93DF93EC018A
:10257000162F8D8D9E8D892BB1F12DA93EA94FA9C6
:1025800058AD60E074E284EF90E00E94381F205163
:10259000310941095109569547953795279520935B
:1025A000B80066EA111167EACE010E9452128D8DC1
:1025B0009E8D892B41F129AD3AAD4BAD5CAD60E00C
:1025C00074E284EF90E00E94381F205131094109E4
:1025D000510956954795379527952093B800DF9177
:1025E000CF911F9108958B8D9C8D892B21F08EADFD
:1025F0009FAD0E94420AEFA5F8A990818CA9809511
:1026000089238083CECFEFA5F8A980819CA9892B4F
:102610008083E5CF90E080E008950E945D22FB0179
:1026200001900020E9F73197AF01461B570BDC0101
:10263000ED91FC910280F381E02D0994FC018681EB
:1026400097819C01295F3F4F37FF02C0295F3F4FB1
:1026500083E0359527958A95E1F784819581289FB8
:10266000A001299F500D389F500D112470E060E0AB
:10267000878D90A10C94622285ED8093BC0080919F
:10268000C9019091CA01A091CB01B091CC010796EC
:10269000A11DB11D23E0B695A795979587952A951D
:1026A000D1F72091BC0024FD03C0109212020895BE
:1026B0004091C9015091CA016091CB017091CC0148
:1026C000452B462B472B69F30097A105B10541F037
:1026D00025E32A95F1F700000197A109B109E1CF9F
:1026E0008091C8010C9420101F920F920FB60F9288
:1026F00011242F933F938F939F93AF93BF93809118
:10270000020390910303A0910403B091050330915B
:10271000540223E0230F2D3758F50196A11DB11D5A
:10272000209354028093020390930303A093040325
:10273000B09305038091550290915602A0915702E3
:10274000B09158020196A11DB11D8093550290933E
:102750005602A0935702B0935802BF91AF919F9138
:102760008F913F912F910F900FBE0F901F90189552
:1027700026E8230F0296A11DB11DD2CF1F920F9202
:102780000FB60F9211242F933F934F935F936F9344
:102790007F938F939F93AF93BF93EF93FF9380911A
:1027A000440290914502A0914602B0914702892BC4
:1027B0008A2B8B2BD1F190913F02E0914002F09156
:1027C0004102808189278083809144029091450253
:1027D000A0914602B0914702181619061A061B0668
:1027E0009CF48091440290914502A0914602B091E0
:1027F00047020197A109B1098093440290934502D1
:10280000A0934602B0934702FF91EF91BF91AF9121
:102810009F918F917F916F915F914F913F912F91F8
:102820000F900FBE0F901F90189580910001EAE263
:10283000FAE0E4919FEF90930001E13051F030F025
:10284000E23069F060E00E941F06DECF10926E0059
:10285000F9CF90916F009D7F90936F00F3CF90918F
:1028600070009D7F9093700091E09093B0009091E4
:10287000B100987F94609093B1001092B300E2CFC2
:102880001F920F920FB60F9211242F933F934F93E5
:102890005F936F937F938F939F93AF93BF93EF93C8
:1028A000FF9389E592E00E945507FF91EF91BF9158
:1028B000AF919F918F917F916F915F914F913F91D8
:1028C0002F910F900FBE0F901F9018951F920F928F
:1028D0000FB60F9211242F938F939F93EF93FF9333
:1028E000E0916902F0916A028081E0916F02F091BB
:1028F000700282FD1BC09081809172028F5F8F7386
:1029000020917302821741F0E0917202F0E0E75AE1
:10291000FD4F958F80937202FF91EF919F918F9160
:102920002F910F900FBE0F901F9018958081F4CFBC
:102930001F920F920FB60F9211242F933F934F9334
:102940005F936F937F938F939F93AF93BF93EF9317
:10295000FF938091B900887F803609F44AC0F0F572
:10296000883209F4A7C018F5803109F49BC0B8F487
:10297000882309F4F9C0883009F494C0FF91EF91DD
:10298000BF91AF919F918F917F916F915F914F9187
:102990003F912F910F900FBE0F901F901895883187
:1029A00009F488C0803251F78093110214C080343A
:1029B00009F49DC040F48033B9F38833F9F680936D
:1029C000110285ECB0C0803509F485C0883509F462
:1029D00096C0883499F60E943C13D0CF883909F408
:1029E0008CC038F5883729F050F4883611F08037DC
:1029F00029F683E0809312021092100257C08838A3
:102A000009F47BC0803919F0803809F0B7CF809184
:102A10001002803208F071C0E091100281E08E0F48
:102A2000809310028091BB00F0E0E051FE4F808364
:102A30003DC0803B39F0E0F4803A09F479C0883A2F
:102A400009F09CCF84E0809312021092EF01109263
:102A5000EE01E0913B02F0913C0209958091EE017C
:102A600081110FC081E08093EE011092CE0109C068
:102A7000803C09F4A6CF883C09F4A3CF883B09F039
:102A80007DCFE091EF0181E08E0F8093EF01F0E0C8
:102A9000E253FE4F80818093BB009091EF018091C3
:102AA000EE0129C0809137028093BB0085EC8093B2
:102AB000BC0064CF9091360280913502981758F58A
:102AC000E091360281E08E0F80933602F0E0EB5EFB
:102AD000FD4F8081E9CFE091360281E08E0F809337
:102AE00036028091BB00F0E0EB5EFD4F8083909159
:102AF0003602809135029817C8F285E8D8CFE09168
:102B0000360281E08E0F809336028091BB00F0E0A8
:102B1000EB5EFD4F80838091140281115CCF81E0D8
:102B20008093130284EA8093BC001092120226CF95
:102B300085EC8093BC0010921202809110028032CA
:102B400030F4E0911002F0E0E051FE4F108260910D
:102B5000100270E0E0913902F0913A0280EF91E0CA
:102B60000995109210020ACF1092110234CFAF9241
:102B7000BF92CF92DF92EF92FF920F931F93CF936A
:102B8000DF93E9E5F2E01382128288EE93E0A0E0A1
:102B9000B0E084839583A683B7832BE031E0318353
:102BA000208325EC30E03587248724EC30E037871C
:102BB000268720EC30E0318B208B21EC30E0338B0A
:102BC000228B22EC30E0358B248B26EC30E0378BE7
:102BD000268B118E128E138E148E26EFE22E22E09B
:102BE000F22EF7011382128284839583A683B78322
:102BF0008DE191E0918380838CE190E00E94382107
:102C0000EC0185E190E00E9438218C0130E8A32E90
:102C1000B12CDC011196BC92AE9240E4C42ED12CB2
:102C20001396DC92CE92129780E490E00E943821B5
:102C3000FC0113821282B582A482D782C682B18639
:102C4000A086D386C286168A1586148617861686AF
:102C500081E0858B848B2FEF3FEF338B228B318B81
:102C6000208B878B108E128E118E8FE291E09183D4
:102C70008083148E138EF68EE58E10A2178E8FEF42
:102C800084A385A386A387A380A780E89AE1A6E012
:102C9000B0E085AB96ABA7ABB0AF80EA96E8A1E019
:102CA000B0E081AF92AFA3AFB4AF80E586AF17AE0F
:102CB000D8011596FC93EE93149781E090E0179657
:102CC0009C938E93169719961C921E92189720E249
:102CD00030E01B963C932E931A971D969C938E93EF
:102CE0001C971E961C921E971F961C921F9750961B
:102CF0001C92198308832FB7F89480910203909156
:102D00000303A0910403B09105032FBF8A839B8323
:102D1000AC83BD831E821F82188619861A861B8685
:102D20001C861D861E861F86198A188A1A8A1B8A87
:102D30001C8A1D8A1F8A1E8A188E198E1A8E1B8E57
:102D400061E08CE00E944D0661E08BE00E944D0640
:102D500061E08AE00E944D0660E08CE00E941F0660
:102D600060E08BE00E941F0660E08AE00E941F0680
:102D700061E085E00E944D06D0930703C0930603EF
:102D800061E086E00E944D0660E086E00E941F063A
:102D900061E088E00E944D0660E088E00E941F0626
:102DA00061E087E00E944D0660E087E0DF91CF910F
:102DB0001F910F91FF90EF90DF90CF90BF90AF9059
:102DC0000C941F06CF93DF93CDB7DEB7CF54D10954
:102DD0000FB6F894DEBF0FBECDBF789484B5826085
:102DE00084BD84B5816084BD85B5826085BD85B5AF
:102DF000816085BD80916E00816080936E0010922D
:102E000081008091810082608093810080918100A7
:102E10008160809381008091800081608093800038
:102E20008091B10084608093B1008091B000816096
:102E30008093B00080917A00846080937A008091C2
:102E40007A00826080937A0080917A00816080931A
:102E50007A0080917A00806880937A001092C10095
:102E6000E0916902F0916A0282E08083E09165025C
:102E7000F09166021082E0916702F09168028FEC97
:102E8000808310927102E0916D02F0916E0286E0F3
:102E90008083E0916B02F0916C028081806180837D
:102EA000E0916B02F0916C02808188608083E091F8
:102EB0006B02F0916C02808180688083E0916B02EC
:102EC000F0916C0280818F7D808360E08EE00E94B3
:102ED0004D06E0910603F09107030190F081E02D8B
:102EE000C480D580D6015F968D919C919097892B57
:102EF00051F516962D913C91C901079697FD0796BD
:102F000023E0959587952A95E1F7F601248135818F
:102F10005C01A29EC001A39E900DB29E900D112453
:102F20000E943821D60190969C938E935F97892BAF
:102F300051F467E571E089E592E00E940F1381E0AA
:102F400090E00E946922C6010E941E13F60186814C
:102F5000978164817581AC0181970CF433C2405430
:102F6000510957FF02C04F5F5F4F55954795625516
:102F7000710977FF02C06F5F7F4F7595679510E409
:102F8000E12EF12C02E510E02AE637E0C6010E94AE
:102F9000700582E0D60192968C9392975D968D9102
:102FA0009C915E97892B09F425C28CE391968C93B2
:102FB00010923E0210923D02109251021092500265
:102FC0000E94021085ED96E090933C0280933B02B4
:102FD00086ED96E090933A0280933902D601989656
:102FE0008C9187FD1FC061E00E944D0661E0F601F3
:102FF00080A50E941F0661E070E080E090E00E94E2
:10300000A30660E0D60198968C910E941F066AE0A4
:1030100070E080E090E00E94A30661E0F60180A5E8
:103020000E941F06D6015D968D919C915E97892B1B
:1030300009F4A5C2D5962D913D914D915C91D897FB
:1030400060E074E284EF90E00E94381F2051310963
:103050004109510956954795379527952093B80012
:1030600044E066E875E0C6010E94AD11F601668194
:103070006150C6010E94521244E062E875E0C60148
:103080000E94AD11D60192968C9160E1813009F0D9
:1030900064E1C6010E94521244E06EE775E0C60189
:1030A0000E94AD118FE8F60185AF8481958180384B
:1030B000910509F07BC2868197818034910509F0E2
:1030C00083C282A1813009F06FC28FE9D601DD96FB
:1030D0008C9312E16AEDC6010E945212612FC60163
:1030E0000E94521261E8C6010E945212F60165ADBB
:1030F000C6010E94521269EDC6010E945212D60109
:1031000092968C9162E2813009F061EFC6010E94D3
:10311000521246E068E775E0C6010E94AD11F60163
:10312000858D968D892B09F453C221AD32AD43AD07
:1031300054AD60E074E284EF90E00E94381F2051AB
:10314000310941095109569547953795279520939F
:10315000B800E0910603F09107030190F081E02DA3
:10316000848195810E941E13FE01B9962C96FFAFB3
:10317000EEAF2C97E0910603F09107032FB7F89478
:103180008091020390910303A0910403B091050381
:103190002FBF86839783A087B187A0900603B09046
:1031A0000703FE01319688E2DF011D928A95E9F757
:1031B0004F016F0120E420937C0080917A008064AD
:1031C00080937A0080917A0086FDFCCF9091780000
:1031D00080917900892798278927D6018D939D931F
:1031E0006D012C964EAD5FAD2C974A175B0719F712
:1031F00030E020E081919191280E391E2331310574
:1032000031F4C10164E170E00E94241F1B012F5FB3
:103210003F4F2431310571F7E0910603F091070328
:103220000190F081E02D20853185C90101969187BB
:1032300080878138910544F0848195812F57310929
:10324000318720870E941E13D4018D919D914D01DD
:10325000E0910603F09107030190F081E02D2285B3
:103260003385281639060CF0BDC182199309281B35
:10327000390B33872287848195816085718502852A
:103280001385DC01ED91FC9104A0F5A1E02DEE2465
:10329000E394F12C9B0140E250E00995C814D90455
:1032A00099F6E0910603F09107030081118186856C
:1032B000D8011A962D913C91213231050CF498C118
:1032C000882309F46AC046805780608471848285AF
:1032D0009385A485B585A3019201281B390B4A0B60
:1032E0005B0B62E056954795379527956A95D1F720
:1032F00060E67AEE80E090E00E94381FF501318BA5
:10330000208B2F313105ECF1D8011496ED90FC9013
:1033100085E090E0F701958784879787868781E02D
:1033200090E0918B808B138A128A82E0848B858B4C
:10333000032E000C440B550B2A961FAE2A9709E268
:1033400010E00C0F1D1F005E1F4FCA01B9012AE0DB
:1033500030E040E050E00E94381F605DD8016E937D
:103360008D01211531054105510579F7109721F09F
:10337000BD01C7010E940F1364E871E0C7010E94FC
:103380000F13E0910603F09107034286538664868B
:103390007586868591E089278687F50180899189E0
:1033A0009C01225331092832310508F025C161E022
:1033B0008AE00E941F0660E08CE00E941F0660E029
:1033C0008BE02BC14052510957FF02C04F5F5F4F46
:1033D000559547956357710977FF02C06F5F7F4F1F
:1033E00075956795F0E2EF2EF12C03E710E02AE8DF
:1033F00035E0CCCD61E0F60186A10E944D0661E08A
:10340000D60197968C910E944D06F60186A1082E52
:10341000000C990BFC01E25BF54FE491F0E0EE0F3C
:10342000FF1FEC5BF54F25913491D6019E963C939E
:103430002E939D97FC01EE59F54FE491D396EC93B2
:10344000D39797968C91082E000C990BFC01E25BA8
:10345000F54FE491F0E0EE0FFF1FEC5BF54FA59107
:10346000B491F601B0ABA7A7FC01EE59F54F9491CA
:10347000F60194AB8C91E92FE82BEC93D6015B9687
:103480008D919C91892B09F434C01FB7F8948091D9
:103490003802811127C0E8E5FAE08491ECE6FAE011
:1034A0009491E82FF0E0EE0FFF1FE65CF54FA59139
:1034B000B491EC91E92321F461E08AE00E941F06B7
:1034C00061E08AE00E944D068CB580618CBD8CB5B0
:1034D00080648CBD61E08DE00E944D0661E08BE070
:1034E0000E944D06809138028F5F809338021FBF83
:1034F00075CD61E0F60184A10E944D0661E0D60120
:1035000095968C910E944D06F60184A1082E000C20
:10351000990BFC01E25BF54FE491F0E0EE0FFF1F29
:10352000EC5BF54F25913491D6019A963C932E93FE
:103530009997FC01EE59F54FE491D196EC93D19710
:1035400095968C91082E000C990BFC01E25BF54FCF
:10355000E491F0E0EE0FFF1FEC5BF54FA591B49105
:10356000F601B4A7A3A7FC01EE59F54F9491F6011B
:1035700092AB8C91E92FE095E823EC932FCDF601E7
:10358000838D948D892B21F086AD97AD0E94420AE0
:10359000D6019F96ED91FC91D0979081D4968C9115
:1035A0008095892380835CCD8FEC90CD803691050A
:1035B00059F486819781409739F482A1813031F4A2
:1035C00080E1D601DD968C9312E084CD8FEAF9CFAD
:1035D000D60107A4F0A9E02D8081D4969C91892B77
:1035E0008083B7CDA101481B590B240F351F41CE55
:1035F0008111D3CE81E0D0CE9C012A5531092035EE
:10360000310508F041C061E08BE00E941F0660E0D8
:103610008CE00E941F0660E08AE00E941F06A090D6
:103620000603B0900703D501ED91FC9111978089B5
:10363000882309F44FC25096ED90FC90B7010F2CEF
:10364000000C880B990B0E9416209B01AC0160E0D6
:1036500070E080E792E40E94A21F2B013C01F5017B
:10366000428A538A648A758A8FEF90E0F2E3EF16FC
:10367000F10424F1C701C2978997B8F48AE590E074
:10368000F501978B868B1FC09C012A5A3109223382
:10369000310520F04E9760E0449708F461E08CE03B
:1036A0000E941F0660E08AE088CEC7018A55910912
:1036B0008135910508F015C182E090E0D50157965B
:1036C0009C938E935697D50116966D917D918D9111
:1036D0009C91199758960D911D912D913C915B9756
:1036E000601B710B820B930B0E94142060966CAFD1
:1036F0007DAF8EAF9FAF609720E030E04AE754E4A3
:10370000C301B2010E94A7209B01AC0160966CAD81
:103710007DAD8EAD9FAD60970E94A22018160CF073
:10372000D9C1BFE1EB16F1040CF4D4C1EAE2FAE02E
:10373000D50156968D909C9080910001853009F0BE
:10374000D9C0149117FDBDC161E085E00E944D060E
:103750001123A1F0712C612C60E072E18AE790E006
:10376000A30194010E945A1F69017A01B1E0CB1AAA
:10377000D108E108F108123009F058C22401712C77
:10378000612C60E072E18AE790E0A30194010E945D
:103790005A1F60962CAF3DAF4EAF5FAF6097690187
:1037A0007A01E1E0CE1AD108E108F108FFEFCF1667
:1037B000D104E104F10409F00CF459C160E472E4AD
:1037C0008FE090E0A30194010E945A1F69017A01E1
:1037D00081E0C81AD108E108F108123009F0FAC0F6
:1037E00082E09FEFC916D104E104F10409F00CF462
:1037F00071C060E970ED83E090E0A30194010E9444
:103800005A1F69017A01A1E0CA1AD108E108F1083A
:1038100083E0BFEFCB16D104E104F10409F00CF40E
:1038200059C068E478EE81E090E0A30194010E9421
:103830005A1F69017A01F1E0CF1AD108E108F108B5
:1038400084E02FEFC216D104E104F10409F00CF476
:1038500041C064E274EF80E090E0A30192010E9415
:103860005A1F69017A0181E0C81AD108E108F108FC
:1038700085E0BFEFCB16D104E104F10459F150F11A
:1038800062E17AE780E090E0A30192010E945A1F72
:1038900069017A0181E0C81AD108E108F10886E0DF
:1038A0009FEFC916D104E104F104A1F098F06096ED
:1038B000CCACDDACEEACFFAC60978AE0F594E7945D
:1038C000D794C7948A95D1F7E1E0CE1AD108E108E0
:1038D000F10887E09091B100987F892B8093B10027
:1038E000CDC0C7018B5A9109C19708F0ECCE81E099
:1038F00090E0C6CE8F3F09F0E4C085E080930001E0
:1039000014911F3F09F4DDC0113021F150F0123045
:1039100009F43EC017FDD5C061E085E00E944D0668
:1039200019CF14BC15BC84B5826084BD85B5816097
:1039300085BDE3E5FAE0E491F0E0EE0FFF1FEC5BFC
:10394000F54F85919491E7E6FAE0E491E093430224
:1039500010E0FACE109280001092810080918100D8
:1039600088608093810080918100816080938100D4
:10397000E3E5FAE0E491F0E0EE0FFF1FEC5BF54FBA
:1039800085919491E7E6FAE0E491E0934202DCCE7F
:103990001092B0001092B1008091B00082608093CC
:1039A000B0008091B10081608093B100E3E5FAE05E
:1039B000E491F0E0EE0FFF1FEC5BF54F85919491E1
:1039C0009093410280934002E7E6FAE0E491E093AD
:1039D0003F02BACEEFEFCE16D104E104F10409F0B4
:1039E0000CF422C168E478EE81E090E0A301940138
:1039F0000E945A1F69017A01F1E0CF1AD108E1084B
:103A0000F10884E0111135CF83E0AFEFCA16D1047D
:103A1000E104F10479F174F162E17AE780E090E089
:103A2000A30192010E945A1F69017A0191E0C91A0B
:103A3000D108E108F10884E0AFEFCA16D104E1042F
:103A4000F104C1F0B8F06096CCACDDACEEACFFACEC
:103A500060979AE0F594E794D794C7949A95D1F734
:103A6000B1E0CB1AD108E108F10885E003C081E09C
:103A7000111130CF95B5987F892B85BD9401220F08
:103A8000331FA2E3B0E00E94791F28EE33E040E04C
:103A900050E00E94381F113009F4E9C0123009F4D7
:103AA000F8C011110EC0C7BC20934C0230934D02D8
:103AB00040934E0250934F0280916E00826080933B
:103AC0006E00F50186819781A085B185808F918FE9
:103AD000A28FB38F0091060310910703D801ED90D8
:103AE000FC90E9E7FAE08491E5E6FAE0C490E1E5CC
:103AF000FAE0D490D110DDC0F7011686D801ED911F
:103B0000FC91E480F580F701858D968D892B09F471
:103B10000EC125A936A947A950AD60E074E284EF33
:103B200090E00E94381F20513109410951095695F2
:103B30004795379527952093B80045E065E37AE0EF
:103B4000C7010E94AD11F70164816150C7010E9455
:103B50005212D70116962D913C91C901079697FDF7
:103B6000079673E0959587957A95E1F7F70124819B
:103B70003581829F5001839FB00C929FB00C11241D
:103B8000C78CD0A0858D968DAC0CBD1C009709F418
:103B90000BC121A131E030935302209352021092C5
:103BA000510210925002DC01ED91FC910190F081E4
:103BB000E02D60E4099501E010E099249394F70169
:103BC000858D968DAC14BD0409F4C5C00032110575
:103BD000D8F00E94C610D7015D968D919C915E979A
:103BE00091962C919092530220935202109251027E
:103BF00010925002DC01ED91FC910190F081E02DDA
:103C000060E4099501E010E0F701858D968DD601FD
:103C10006D916D01DC01ED91FC910190F081E02D41
:103C200009950F5F1F4FCBCF82E022CF91E0C114E7
:103C3000D104B1E0EB06F10484F068E478EE81E0B1
:103C400090E0A30194010E945A1F69017A01E1E00A
:103C5000CE1AD108E108F10893E0113009F00ECF37
:103C600080918100887F892B8093810007CFD0923B
:103C70008900C09288002093480230934902409303
:103C80004A0250934B0280916F00826080936F00D4
:103C900018CFC092B3002093440230934502409362
:103CA00046025093470280917000826080937000BA
:103CB00008CF81110E94F605ED2DF0E0EE0FFF1FF9
:103CC000E55DF54FA591B491EC91CE2281E009F428
:103CD00080E0D7011E968C931E97CC2009F40ECF5E
:103CE000F801468157816085718551968D919D912E
:103CF0000D90BC91A02D5A016B01A81AB90ACA0AED
:103D0000DB0AD601C501893E9340A105B10508F43F
:103D1000F5CED70150968C91509791E08927509617
:103D20008C93F701418B528B638B748BE7CE838D21
:103D3000948D892B21F086AD97AD0E94420AD70160
:103D40009F96ED91FC91D0979081D4968C9180951F
:103D500089238083F2CE0E94C610F701858D968D4F
:103D6000892B09F467C021AD32AD43AD54AD60E09D
:103D700074E284EF90E00E94381F2051310941091C
:103D8000510956954795379527952093B80080E0BF
:103D900090E0892B09F4EEC90E944107882309F4B9
:103DA000E3C90E940000E0C9D70105A4F6A5E02DF3
:103DB0008081D3969C91892B8083AC14BD0469F2D9
:103DC000F60181916F01D7015B962D913C91232BD8
:103DD00019F00E943B0AF1CF28E030E040E8D7011B
:103DE0009996ED91FC919A97D1969C91582F5423D6
:103DF000E9F05081952B9083D7019B96ED91FC9132
:103E00009C979081D2965C91D297952B90839B96AC
:103E1000ED91FC919C975081D2969C919095952321
:103E20009083469521503109D1F6C7CF50819095A6
:103E30009523E1CFD70107A4F0A9E02D8081D49686
:103E40009C91892B8083A3CF97FB072E16F40094B7
:103E500007D077FD09D00E94881F07FC05D03EF4EB
:103E6000909581959F4F0895709561957F4F089526
:103E7000A1E21A2EAA1BBB1BFD010DC0AA1FBB1F6E
:103E8000EE1FFF1FA217B307E407F50720F0A21BE0
:103E9000B30BE40BF50B661F771F881F991F1A944D
:103EA00069F760957095809590959B01AC01BD0177
:103EB000CF010895052E97FB1EF400940E94711FF8
:103EC00057FD07D00E94381F07FC03D04EF40C9416
:103ED000711F50954095309521953F4F4F4F5F4F43
:103EE000089590958095709561957F4F8F4F9F4F66
:103EF0000895A29FB001B39FC001A39F700D811DC3
:103F00001124911DB29F700D811D1124911D0895E2
:103F1000AA1BBB1B51E107C0AA1FBB1FA617B707EF
:103F200010F0A61BB70B881F991F5A95A9F780950B
:103F30009095BC01CD010895EE0FFF1F0590F491FF
:103F4000E02D09940E94B61F0C9468200E94612005
:103F500058F00E945A2040F029F45F3F29F00C9459
:103F6000512051110C949C200C9457200E947920D0
:103F700068F39923B1F3552391F3951B550BBB2798
:103F8000AA2762177307840738F09F5F5F4F220FDD
:103F9000331F441FAA1FA9F335D00E2E3AF0E0E8D4
:103FA00032D091505040E695001CCAF72BD0FE2F1E
:103FB00029D0660F771F881FBB1F261737074807B2
:103FC000AB07B0E809F0BB0B802DBF01FF2793586A
:103FD0005F4F3AF09E3F510578F00C9451200C94BD
:103FE0009C205F3FE4F3983ED4F3869577956795E0
:103FF000B795F7959F5FC9F7880F911D969587959F
:1040000097F90895E1E0660F771F881FBB1F6217BD
:1040100073078407BA0720F0621B730B840BBA0B7B
:10402000EE1F88F7E0950895E89409C097FB3EF4E9
:1040300090958095709561957F4F8F4F9F4F9923F5
:10404000A9F0F92F96E9BB279395F6958795779573
:104050006795B795F111F8CFFAF4BB0F11F460FF33
:104060001BC06F5F7F4F8F4F9F4F16C0882311F08B
:1040700096E911C0772321F09EE8872F762F05C09F
:10408000662371F096E8862F70E060E02AF09A953A
:10409000660F771F881FDAF7880F9695879597F92F
:1040A000089597F99F6780E870E060E008959FEFBA
:1040B00080EC089500240A941616170618060906BF
:1040C000089500240A94121613061406050608958E
:1040D000092E0394000C11F4882352F0BB0F40F416
:1040E000BF2B11F460FF04C06F5F7F4F8F4F9F4F56
:1040F000089557FD9058440F551F59F05F3F71F0D8
:104100004795880F97FB991F61F09F3F79F087953E
:104110000895121613061406551FF2CF4695F1DFC7
:1041200008C0161617061806991FF1CF8695710557
:10413000610508940895E894BB2766277727CB018B
:1041400097F908950E94142108F48FEF08950E94B2
:10415000BA200C9468200E945A2038F00E946120F6
:1041600020F0952311F00C9451200C945720112429
:104170000C949C200E94792070F3959FC1F3950FB9
:1041800050E0551F629FF001729FBB27F00DB11DDB
:10419000639FAA27F00DB11DAA1F649F6627B00D6B
:1041A000A11D661F829F2227B00DA11D621F739F54
:1041B000B00DA11D621F839FA00D611D221F749F62
:1041C0003327A00D611D231F849F600D211D822FA9
:1041D000762F6A2F11249F5750409AF0F1F08823D0
:1041E0004AF0EE0FFF1FBB1F661F771F881F9150FD
:1041F0005040A9F79E3F510580F00C9451200C943B
:104200009C205F3FE4F3983ED4F3869577956795BD
:10421000B795F795E7959F5FC1F7FE2B880F911D26
:104220009695879597F90895990F0008550FAA0B51
:10423000E0E8FEEF16161706E807F907C0F01216B9
:104240001306E407F50798F0621B730B840B950BBC
:1042500039F40A2661F0232B242B252B21F4089511
:104260000A2609F4A140A6958FEF811D811D0895AE
:104270000F931F93CF93DF938230910510F482E068
:1042800090E0E0910A03F0910B0330E020E0B0E011
:10429000A0E0309799F42115310509F44AC0281B94
:1042A000390B24303105D8F58A819B816115710560
:1042B00089F1FB0193838283FE0111C0408151810A
:1042C0000281138148175907E0F04817590799F4FC
:1042D000109761F012960C93129713961C933296D6
:1042E000CF01DF91CF911F910F91089500930A03A1
:1042F00010930B03F4CF2115310551F042175307EA
:1043000038F0A901DB019A01BD01DF01F801C1CF3D
:10431000EF01F9CF90930B0380930A03CDCFFE01F9
:10432000E20FF31F8193919322503109398328833F
:10433000D7CF2091080330910903232B41F420911A
:104340000301309104013093090320930803209165
:104350000101309102012115310541F42DB73EB71D
:104360004091050150910601241B350BE091080393
:10437000F0910903E217F307A0F42E1B3F0B281757
:10438000390778F0AC014E5F5F4F2417350748F0CE
:104390004E0F5F1F5093090340930803819391933D
:1043A0009FCFF0E0E0E09CCFCF93DF930097E9F060
:1043B000FC01329713821282A0910A03B0910B0381
:1043C000ED0130E020E01097A1F420813181820FCF
:1043D000931F20910803309109032817390709F02A
:1043E00061C0F0930903E0930803DF91CF91089532
:1043F000EA01CE17DF07E8F54A815B819E0141158E
:104400005105B1F7E901FB83EA8349915991C40F42
:10441000D51FEC17FD0761F4808191810296840F0E
:10442000951FE90199838883828193819B838A8385
:10443000F0E0E0E012968D919C9113970097B9F50A
:104440002D913C911197CD010296820F931F2091DF
:104450000803309109032817390739F6309751F5C9
:1044600010920B0310920A03B0930903A093080360
:10447000BCCFD383C28340815181840F951FC8175D
:10448000D90761F44E5F5F4F88819981480F591FAA
:10449000518340838A819B819383828321153105D7
:1044A00009F0B0CFF0930B03E0930A039ECFFD0118
:1044B000DC01C0CF13821282D7CF81E090E0F89464
:1044C0000C946922DC0101C06D9341505040E0F72B
:0644D0000895F894FFCFEF
:1044D600FF00000C038000000000007707D70604E9
:1044E60007C4073507130727070000000097106A5F
:1044F600100A13FD0E6310501041100000000080DA
:104506000CD7060A13DA0F8B09FD0E260FFE0E1ABC
:104516000F0E0F2D0FFD0E460AB412FB0844094676
:104526000E290EB10D520D446973706C61793120FC
:10453600696E697469616C697A6174696F6E206607
:1045460061696C65642C2065786974696E672E2EC6
:084556002E2E0A000D0A0000E0
:00000001FF
