:100000000C9441050C9469050C9469050C946905E0
:100010000C9469050C9469050C9469050C946905A8
:100020000C9469050C9469050C9469050C94690598
:100030000C9469050C9469050C9469050C94690588
:100040000C9464130C9469050C94D4130C94AE13A3
:100050000C9469050C9469050C9469050C94690568
:100060000C9406140C94690500000000003E5B4FE0
:100070005B3E3E6B4F6B3E1C3E7C3E1C183C7E3C08
:10008000181C577D571C1C5E7F5E1C00183C180016
:10009000FFE7C3E7FF0018241800FFE7DBE7FF30A6
:1000A000483A060E2629792926407F050507407F14
:1000B00005253F5A3CE73C5A7F3E1C1C08081C1C87
:1000C0003E7F14227F22145F5F005F5F06097F017D
:1000D0007F006689956A606060606094A2FFA29468
:1000E00008047E040810207E201008082A1C080836
:1000F0001C2A08081E101010100C1E0C1E0C303884
:100100003E3830060E3E0E06000000000000005F84
:1001100000000007000700147F147F14242A7F2AA0
:100120001223130864623649562050000807030062
:10013000001C2241000041221C002A1C7F1C2A08AE
:10014000083E080800807030000808080808000011
:1001500060600020100804023E5149453E00427F85
:10016000400072494949462141494D331814127FD4
:100170001027454545393C4A494931412111090774
:100180003649494936464949291E000014000000F5
:1001900040340000000814224114141414140041C7
:1001A00022140802015909063E415D594E7C121184
:1001B000127C7F494949363E414141227F414141BC
:1001C0003E7F494949417F090909013E4141517337
:1001D0007F0808087F00417F41002040413F017FA8
:1001E000081422417F404040407F021C027F7F0470
:1001F00008107F3E4141413E7F090909063E4151B9
:10020000215E7F09192946264949493203017F01A8
:10021000033F4040403F1F2040201F3F4038403FA9
:10022000631408146303047804036159494D4300BF
:100230007F4141410204081020004141417F0402F6
:10024000010204404040404000030708002054548D
:1002500078407F284444383844444428384444286B
:100260007F385454541800087E090218A4A49C78BE
:100270007F0804047800447D40002040403D007F1A
:100280001028440000417F40007C047804787C08FA
:100290000404783844444438FC18242418182424CE
:1002A00018FC7C08040408485454542404043F44B3
:1002B000243C4040207C1C2040201C3C4030403CE2
:1002C00044281028444C9090907C4464544C440042
:1002D00008364100000077000000413608000201A6
:1002E0000204023C2623263C1EA1A161123A404092
:1002F000207A38545455592155557941225454780F
:1003000042215554784020545579400C1E527212A7
:100310003955555559395454545939555454580030
:1003200000457C410002457D420001457C407D1234
:1003300011127DF0282528F07C5455450020545496
:100340007C547C0A097F4932494949323A44444441
:100350003A324A4848303A4141217A3A424020787C
:10036000009DA0A07D3D4242423D3D4040403D3C7D
:1003700024FF2424487E4943662B2FFC2F2BFF09A2
:1003800029F620C0887E0903205454794100004496
:100390007D413048484A32384040227A007A0A0A81
:1003A000727D0D19317D2629292F282629292926F4
:1003B00030484D4020380808080808080808382F39
:1003C00010C8ACBA2F102834FA00007B00000814C3
:1003D0002A142222142A14085500550055AA55AA99
:1003E00055AAFF55FF55FF000000FF00101010FF39
:1003F00000141414FF001010FF00FF1010F010F094
:10040000141414FC001414F700FF0000FF00FF1484
:1004100014F404FC141417101F10101F101F1414D0
:10042000141F00101010F0000000001F101010101A
:100430001F10101010F010000000FF10101010100E
:1004400010101010FF10000000FF140000FF00FF4C
:1004500000001F10170000FC04F4141417101714E8
:1004600014F404F40000FF00F7141414141414140A
:10047000F700F7141414171410101F101F1414147D
:10048000F4141010F010F000001F101F0000001FE7
:1004900014000000FC140000F010F01010FF10FF1A
:1004A000141414FF141010101F00000000F010FFAF
:1004B000FFFFFFFFF0F0F0F0F0FFFFFF0000000093
:1004C00000FFFF0F0F0F0F0F3844443844FC4A4A17
:1004D0004A347E02020606027E027E0263554941CC
:1004E000633844443C04407E201E2006027E020203
:1004F00099A5E7A5991C2A492A1C4C7201724C3017
:100500004A4D4D303048784830BC625A463D3E49ED
:100510004949007E0101017E2A2A2A2A2A44445F91
:10052000444440514A444040444A51400000FF0185
:1005300003E080FF000008086B6B08361236243693
:10054000060F090F060000181800000010100030F8
:1005500040FF0101001F01011E00191D1712003C80
:100560003C3C3C0000000000000103070F1F3F7FE0
:100570000080C0E0F0F8FCFEDB40A4A62EAF200017
:10058000A1C8D300408DAED580A800006000000057
:100590000000000000000000000000E0000000007B
:1005A00000000000000000000001E000000000006A
:1005B000000000000000000001F00000000000004A
:1005C0000000000000000003F00000000000000038
:1005D00000000000000007F0000000000000000024
:1005E000000000000007F80000000000000000000C
:1005F000000000000FF800000003C0007E000001B2
:10060000E0007F0FF800000003C000FE000001E0E2
:1006100000FFEFF800000003C000FE000001E00052
:10062000FFFFF800000003C000F00000000F007F93
:10063000FE7FC0000003C000F00000000F003FFE7E
:100640007FF83FF1FBCFFCFEF3BC3DEFE01FFE7FE8
:10065000FF7FFBFFDFFEFEFFBC3DEFE01FC6FFFF9D
:100660007FFBFFDFFEFEFFBC3DEFE00FE3C7FE7840
:100670007BC3DE1EF0FFBC3DEF0007FF87FC787BED
:10068000C3DE1EF0F83C3DEF0001FFFFF0007BC32E
:10069000C01EF0F03C3DEF0001F37FE03FFBC3CF15
:1006A000FEF0F03C3DEF0003E33F807FFBC3DFFE45
:1006B000F0F03C3DEF0007E73C00787BC3DE1EF026
:1006C000F03C3DEF0007FFBE00787BC3DE1EF0F07C
:1006D0003C3DEF0007FFFE00787BC3DE1EF0F03CE0
:1006E0003DEF000FFFFE007FFBFFDFFEF0F03FFD60
:1006F000EFE00FFFFF007FFBFFDFFEF0F03FFDEFBD
:10070000E00FF9FF003E79F9CF9EF0F01F3DE7E0E2
:100710001FF1FF0000000000000000000000001FAB
:1007200080FF007FFFFFFFFFFFFFFFFFFFE01C00D8
:100730007F007FFFFFFFFEB46D888D18E000001F73
:10074000007FFFFFFFFE95AD7DB577E000000F0055
:100750007FFFFFFFFEA5AD9D8D19E0000006007F25
:10076000FFFFFFFEB5ADEDB57EE00000000000012B
:100770008000000000000000000003800000000076
:10078000000000000007C0000000000000000000A2
:1007900007C00000000000000000000FC0000000C3
:1007A0000000000000001FE000000000000000004A
:1007B000001FE00000000000000000003FE000001B
:1007C000000000000000003FF000000000000000FA
:1007D00000007FF0000000000000001FF87FF00024
:1007E0000000000000003FFE7FF00000000000005D
:1007F000003FFF7FF0000000000000001FFFFBE053
:10080000000000000000000FFFF9FFC00000000022
:1008100000000FFFF9FFF800000000000007FFF1E3
:10082000FFFF00000000000003FC73FFFF800000DA
:1008300000000001FE3FFFFF80000000000000FFFD
:100840001E0FFF000000000000007FFE1FFC0000E4
:1008500000000000003FFFFFF80000000000000063
:100860000FDFFFE0000000000000001F19FFC000C4
:100870000000000000003F3CFF00000000000000FE
:10088000007E7CF800000000000000007FFE7C007D
:1008900000000000000000FFFFFC0000000000005E
:1008A0000000FFFFFE0000000000000000FFFFFE50
:1008B0000000000000000001FFEFFE00000000004B
:1008C000000001FFCFFE0000000000000003FF0752
:1008D000FE0000000000000003FC07FE0000000016
:1008E00000000003F003FE00000000000000018093
:1008F00000FE000000000000000000007E0000007C
:10090000000000000000003E0000000000000000A9
:1009100000000C000000000000078000FC00000345
:10092000C0000000078001FC000003C000000007B9
:100930008001FC000003C0000000078001E000000F
:10094000001E000000078001E00000001E007FE3A1
:10095000F79FF9FDE7787BDFC0FFF7FFBFFDFDFFE5
:10096000787BDFC0FFF7FFBFFDFDFF787BDFC0F0C6
:10097000F787BC3DE1FF787BDE00F0F787BC3DE107
:10098000F0787BDE0000F787803DE1E0787BDE00D9
:100990007FF7879FFDE1E0787BDE00FFF787BFFDF3
:1009A000E1E0787BDE00F0F787BC3DE1E0787BDEBC
:1009B00000F0F787BC3DE1E0787BDE00F0F787BC14
:1009C0003DE1E0787BDE00FFF7FFBFFDE1E07FFB6C
:1009D000DFC0FFF7FFBFFDE1E07FFBDFC07CF3F38B
:1009E0009F3DE1E03E7BCFC0000000000000000022
:1009F000000000FFFFFFFFFFFFFFFFFFFFC0FFFF43
:100A0000FFFFFD68DB111A31C0FFFFFFFFFD2B5A0E
:100A1000FB6AEFC0FFFFFFFFFD4B5B3B1A33C0FFDC
:100A2000FFFFFFFD6B5BDB6AFDC02200FF210000C2
:100A3000000000240027002A0000000000250028F4
:100A4000002B000404040404040404020202020251
:100A50000203030303030301020408102040800182
:100A60000204081020010204081020000000080001
:100A70000201000003040700000000000000000065
:100A8000251511241FBECFEFD8E0DEBFCDBF11E08A
:100A9000A0E0B1E0EAE5F9E302C005900D92AA38C2
:100AA000B107D9F723E0AAE8B1E001C01D92A63052
:100AB000B207E1F715E0C1E4D5E004C02197FE01DB
:100AC0000E94741BC034D107C9F70E94D8150C943A
:100AD000AB1C0C9400003F924F925F926F927F92FA
:100AE0008F929F92AF92BF92CF92DF92EF92FF923E
:100AF0000F931F93CF93DF9300D000D0CDB7DEB715
:100B00009C838B833B016A015901DC01ED91FC91CF
:100B10000284F385E02D09952801B7E04B0E511CA6
:100B200093E0559447949A95E1F7C6018E0D9F1D69
:100B30009A838983912C812C312CF12CE12CC701D3
:100B400087709927330C892B59F4F70183E0F595C9
:100B5000E7958A95E1F7E80DF91DEA0DFB1D349044
:100B600037FE10C0AB81BC81ED91FC9111970484DC
:100B7000F585E02D21E030E0A601B701660D771D77
:100B8000CD010995BFEFEB1AFB0A0E151F05B9F64B
:100B90008FEFC81AD80A840C951CA981BA81CA168D
:100BA000DB0659F6AB81BC81ED91FC91119706886B
:100BB000F789E02DCD010F900F900F900F90DF91EE
:100BC000CF911F910F91FF90EF90DF90CF90BF904A
:100BD000AF909F908F907F906F905F904F903F90DD
:100BE000099490E0FC01E559F54F2491FC01E95A84
:100BF000F54F3491FC01ED5BF54FE491EE23C9F024
:100C0000222339F0233001F1A8F4213019F12230E8
:100C100029F1F0E0EE0FFF1FE75CF54FA591B491CD
:100C20008FB7F894EC91611126C030953E233C9328
:100C30008FBF08952730A9F02830C9F0243049F734
:100C4000809180008F7D03C0809180008F7780939A
:100C50008000DFCF84B58F7784BDDBCF84B58F7DF7
:100C6000FBCF8091B0008F778093B000D2CF80917E
:100C7000B0008F7DF9CF3E2BDACFCF93DF9390E09A
:100C8000FC01E95AF54F24918D5B954FFC0184914D
:100C90008823D1F090E0880F991FFC01E15DF54FAA
:100CA000A591B491FC01E75CF54FC591D491611118
:100CB0000EC09FB7F8948C91E22FE0958E238C9311
:100CC0002881E223E8839FBFDF91CF9108958FB7FA
:100CD000F894EC91E22BEC938FBFF6CF3FB7F894EA
:100CE0008091530290915402A0915502B091560206
:100CF00026B5A89B05C02F3F19F00196A11DB11D77
:100D00003FBFBA2FA92F982F8827BC01CD01620FB2
:100D1000711D811D911D42E0660F771F881F991F6D
:100D20004A95D1F708958F929F92AF92BF92CF923A
:100D3000DF92EF92FF924B015C010E946E066B0105
:100D40007C010E946E066C197D098E099F09683E20
:100D5000734081059105A8F321E0821A9108A1084A
:100D6000B10888EEC80E83E0D81EE11CF11C811486
:100D70009104A104B10429F7FF90EF90DF90CF9088
:100D8000BF90AF909F908F90089508950895AF926F
:100D9000BF92CF92DF92EF92FF920F931F93CF9368
:100DA000DF936C017B018B01040F151FEB015E01CA
:100DB000AE18BF08C017D10759F06991D601ED915F
:100DC000FC910190F081E02DC6010995892B79F7FE
:100DD000C501DF91CF911F910F91FF90EF90DF90B0
:100DE000CF90BF90AF900895FC01538D448D252F77
:100DF00030E0842F90E0821B930B541710F0CF96B5
:100E0000089501970895FC01918D828D981761F0E6
:100E1000A28DAE0FBF2FB11D5D968C91928D9F5FFD
:100E20009F73928F90E008958FEF9FEF0895FC01DC
:100E3000918D828D981731F0828DE80FF11D858D8F
:100E400090E008958FEF9FEF0895FC01918D228D22
:100E5000892F90E0805C9F4F821B91098F739927A7
:100E6000089587E592E00E94250721E0892B09F487
:100E700020E0822F089580E090E0892B29F00E94E5
:100E8000310781110C9400000895FC01A48DA80F76
:100E9000B92FB11DA35ABF4F2C91848D90E00196BC
:100EA0008F739927848FA689B7892C93A089B189DC
:100EB0008C91837080648C93938D848D981306C07D
:100EC0000288F389E02D80818F7D80830895EF92E1
:100ED000FF920F931F93CF93DF93EC0181E0888FF4
:100EE0009B8D8C8D98131AC0E889F989808185FFC4
:100EF00015C09FB7F894EE89FF896083E889F98966
:100F000080818370806480839FBF81E090E0DF9167
:100F1000CF911F910F91FF90EF900895F62E0B8DBA
:100F200010E00F5F1F4F0F731127E02E8C8D8E1175
:100F30000CC00FB607FCFACFE889F989808185FFDC
:100F4000F5CFCE010E944507F1CFEB8DEC0FFD2FC1
:100F5000F11DE35AFF4FF0829FB7F8940B8FEA8997
:100F6000FB8980818062CFCFCF93DF93EC01888DA6
:100F70008823B9F0AA89BB89E889F9898C9185FD14
:100F800003C0808186FD0DC00FB607FCF7CF8C91A2
:100F900085FFF2CF808185FFEDCFCE010E9445070E
:100FA000E9CFDF91CF910895EF92FF920F931F93B6
:100FB000CF93DF93EC01EC80FD806E157F050CF084
:100FC00070C057FF04C0240F351F50E040E08E81F1
:100FD0009F81FA01E20FF31F8E179F071CF49C01FB
:100FE000241B350B121613060CF05BC0922F842FB6
:100FF0008695869586958E9DD0018F9DB00D112486
:101000006A0F7B1FAF8DB8A1A60FB71F477049F1BC
:1010100088E0841B482F682F70E0FB01E059FA4FED
:10102000E491281708F063C0621B71092FEF30E0CC
:1010300002C0359527956A95E2F7E2230130110544
:1010400039F0B0F10230110561F58C91E82702C04A
:101050008C91E82BEC93941720F12C813D81A20F09
:10106000B31FE92FE41BE83078F00230110521F5B9
:101070008E2F9C9190959C932C813D81A20FB31F44
:1010800088508830B0F7E770EE2359F0F0E0E85967
:10109000FA4FE49101301105F9F010F10230110519
:1010A00019F1DF91CF911F910F91FF90EF9008956B
:1010B000E0958C91E823CECF81E00115110509F46C
:1010C00080E081959E2F8C932C813D81A20FB31FD0
:1010D00098509830C0F7D7CF8C91E82BEC93E1CFA4
:1010E000E0958C91E823FACF8C91E827F7CF013077
:1010F000110509F4ADCFE0F20230110509F4A5CFD6
:10110000AE0DBF1DAECF0F931F93CF93DF9377FF2D
:1011100004C0260F371F70E060E0DC011496CD910B
:10112000DC91FB01E20FF31FCE17DF071CF49E01D9
:10113000261B370B121613064CF5FA0157FD37968E
:10114000A3E0F595E795AA95E1F7EC9FD001ED9F17
:10115000B00DFC9FB00D11246A0F7B1FDC015F9660
:10116000ED91FC91E60FF71F4770552781E090E065
:1011700001C0880F4A95EAF7482F0130110559F050
:10118000A8F02E0F3F1F02301105E1F0DF91CF9143
:101190001F910F9108952E0F3F1FE217F307B1F330
:1011A0008191DF011197842B8C93F7CF80952E0FBF
:1011B0003F1FE217F30751F39191DF011197982335
:1011C0009C93F7CFE217F30709F38191DF011197A1
:1011D00084278C93F7CF0F931F93FA01DC01569667
:1011E0004C9156974230E9F04330A1F1413061F51E
:1011F00014964D915C91DA01AE1BBF0BFD01E21B11
:10120000F30B77FD0BC0DC0116964D915C916417D2
:10121000750724F4AB01BF010E9483081F910F9151
:10122000089514964D915C91DA01A61BB70BBD0190
:1012300061507109DC0116964D915C91DA01AE1B8B
:10124000BF0BFD01E21BF30B77FDE8CFAF010E945E
:10125000D407E4CF16964D915C91DA01A61BB70B2B
:10126000BD0161507109CDCF0F931F93FA01DC01CD
:1012700056964C9156974230A9F0433091F1413047
:1012800019F514964D915C91DA01AE1BBF0BFD016F
:101290003197F7FD04C0AB01BF010E94D4071F9135
:1012A0000F91089514964D915C91DA01A61BB70B2E
:1012B000BD01DC0116964D915C91DA01AE1BBF0BAE
:1012C000FD013197621B730BF7FDE9CFDC01169628
:1012D0004D915C91E417F50714F7AF010E94830864
:1012E000DECF16964D915C91DA01A61BB70BBD01BE
:1012F000621B730BCECFFC0177FD64C080859185A6
:10130000681779070CF05EC057FD5CC08285938535
:10131000481759070CF056C086898230B1F08330E7
:1013200029F1813041F484819581841B950BAB01B7
:10133000BC01615071092130310509F108F443C045
:101340002230310509F463C0089584819581DC0160
:10135000A61BB70BBD016150710986819781DC0125
:10136000A41BB50BAD0141505109E5CF8681978192
:10137000861B970BBA01AC0141505109DCCFCA0161
:1013800057FD0796A3E095958795AA95E1F7A48167
:10139000B5818A9F90018B9F300D9A9F300D11244B
:1013A000620F731F078CF0A1E02DE60FF71F477047
:1013B000552721E030E001C0220F4A95EAF78081ED
:1013C000822B80830895CA0157FD079633E09595D7
:1013D00087953A95E1F7A481B5818A9F90018B9F0B
:1013E000300D9A9F300D1124620F731F078CF0A1EE
:1013F000E02DE60FF71F4770552781E090E001C010
:10140000880F4A95EAF7809590818923DACFCA013F
:1014100057FD079623E0959587952A95E1F7A481D6
:10142000B5818A9F90018B9F300D9A9F300D1124BA
:10143000620F731F078CF0A1E02DE60FF71F4770B6
:10144000552721E030E001C0220F4A95EAF780815C
:101450008227B7CF08958EBD00000DB407FEFDCFE3
:101460008EB508958CBD9DBD08950895FC016370EF
:10147000668B8481958126813781613039F06330B4
:1014800029F09187808733872287089531872087C5
:101490009387828708952F923F924F925F926F9227
:1014A0007F928F929F92AF92BF92CF92DF92EF92F4
:1014B000FF920F931F93CF93DF93CDB7DEB76A9759
:1014C0000FB6F894DEBF0FBECDBF9A8F898F7A8397
:1014D00069834A01D22E18870F833701BC2CDC01A7
:1014E00059962D913C915A972115310509F015C156
:1014F00018968D919C911997681779070CF0D7C1B0
:101500001A968D919C91481759070CF0D0C14C2C1C
:10151000512CB6E0CB9E600D711D11247C876B872A
:10152000161617060CF0C3C1EA2DF0E0FA87E9871A
:1015300093E0EE0FFF1F9A95E1F7F88BEF87CF014D
:10154000840F951F181619060CF0B1C1A98DBA8D1C
:1015500058968C91811104C0BFEABD1508F4D3944C
:10156000A98DBA8DED91FC9111970284F385E02D40
:10157000CD010995B5E0DB9EC0011124E981FA8116
:10158000FC83EB83312C212C9C0128593F4F388F51
:101590002F8B4A2D50E05E8B4D8BEF89F88DE20D3D
:1015A000F31D44919E828D82D12CC12C69817A8158
:1015B000620D731D7A8B698B842F90E09C8B8B8BD3
:1015C000E98DFA8DA081B18140FF82C0F1E0BF12A8
:1015D0006FC0AF126DC01C96ED91FC912F813885C4
:1015E000A4014C0D5D1D69897A89898D9A8D0995B3
:1015F000EB89FC89F595E7954E2F5FEFC51AD50A63
:101600006D817E818D899E89680F791F7E836D83B0
:1016100098E0C916D10481F6AFEF2A1A3A0AEB8195
:10162000FC81E40DF51DFC83EB83F5E02F163104FE
:1016300009F0B3CF2F81388526153705B9F0A98D6C
:10164000BA8DED91FC91B1E0BB1257C0AB1255C001
:1016500069817A816B5F7F4F0088F189E02D83017A
:1016600028E030E0A401898D9A8D0995A98DBA8D65
:10167000ED91FC9111970688F789E02DCD016A96CE
:101680000FB6F894DEBF0FBECDBFDF91CF911F9193
:101690000F91FF90EF90DF90CF90BF90AF909F9011
:1016A0008F907F906F905F904F903F902F90099414
:1016B0001E96ED91FC91EF80F88409851A859201C0
:1016C0004D815E816B817C81898D9A8D099590CF4A
:1016D0002F8138852615370509F48ACF31E0B312FA
:1016E00007C0A31205C01C96ED91FC91930178CF21
:1016F0001E96ED91FC917301E0CF6B857C8564199A
:1017000075090684F785E02D73010F85188992010C
:10171000A401898D9A8D0995A9CFF90134969491E8
:10172000329745915491D91AB7E0DB9E400D511D77
:101730001124F901259134913C8B2B8BFA012590D2
:101740003490FA013296749031963491398B3296F6
:1017500064903196449041E04C1518F04A1508F019
:101760007FC0662D062C000C770B7C836B83842D49
:10177000042C000C990B9E838D83A98DBA8DED915D
:10178000FC9111970284F385E02DCD010995512C30
:10179000D12CC12CEA2DF0E0FA87E9872B2D30E01F
:1017A0003C872B87A401440D511D47FC5A95588F47
:1017B0004F8B69817A81660D711D67FC7A957E87F2
:1017C0006D877989C71608F051CF2C2D30E04D81F7
:1017D0005E81420F531FA985BA854A9FC0014B9F66
:1017E000900D5A9F900D1124FC01E80DF91DF88B06
:1017F000EF87852D612C4F89588D420F531F5E8BCB
:101800004D8B671408F050C044244394480E8770F1
:1018100041F4C1010196EB89FC89E20DF31DD490DE
:101820001C01D7FE19C0A98DBA8DED91FC91662DD2
:1018300070E0B1E0BB1219C0AB1217C02D853E8518
:10184000620F731F0484F585E02D2F8138854D8943
:101850005E89898D9A8D0995DD0C6394842DD1CF95
:101860001E821D821C821B8288CF4B815C81640F8B
:10187000751FAB85BC856A9FC0016B9F900D7A9FD9
:10188000900D112469817A81680F791F0684F7858C
:10189000E02DEF80F88409851A859D014F855889D0
:1018A000898D9A8D0995D8CF570CC3948ACF6A96A3
:1018B0000FB6F894DEBF0FBECDBFDF91CF911F9161
:1018C0000F91FF90EF90DF90CF90BF90AF909F90DF
:1018D0008F907F906F905F904F903F902F900895E2
:1018E0008F929F92AF92CF92EF92FF920F931F939E
:1018F000CF93DF93EC01262F898D9A8D009709F005
:1019000051C06A30D1F41D861C868D8948E0849FC1
:10191000900111248E859F85820F931F9F878E874C
:1019200081E090E0DF91CF911F910F91FF90EF90B8
:10193000CF90AF909F908F9008956D3089F3CC88B1
:10194000AD888F898823C1F08C859D8536E0C39E44
:10195000800D911D1124488559854817590764F455
:101960004E855F851D861C8638E0A39EC00111242C
:10197000840F951F9F878E87EA88FB8808891989BD
:101980004E855F856C857D85CE010E944B0A2C8932
:101990008C859D8546E0249F800D911D11249D8797
:1019A0008C87BECF6A3069F41D861C86FC01389690
:1019B000E4912D898E859F85E29F800D911D1124D4
:1019C000ADCF6D3009F4ACCFFC0134963491631780
:1019D00008F4A6CF3296E491E61708F4A1CFFC01F3
:1019E000329685909490462F431B342F47E0349FC6
:1019F000800C911C1124F401329634913196E491BB
:101A00003323A9F1EE2399F1CC88F4013596E491C2
:101A1000AD884F89442301F10E2E000CFF0BE30F1C
:101A2000F11DCE9EA001CF9E500D11246C857D85A9
:101A3000460F571F68857985641775076CF44E85C6
:101A40005F851D861C86FC013896E491AE9E400D94
:101A5000511D11245F874E87EA88FB880889198900
:101A60004E855F856C857D85CE010E944B0AF40111
:101A70003496E4912C898C859D85E29F800D911D83
:101A800011248DCF6F927F928F929F92AF92BF92CF
:101A9000CF92DF92EF92FF920F931F93CF93DF933A
:101AA000EC016B015A0139014801E881F981028496
:101AB000F385E02D0995E881F9810288F389E02D0D
:101AC00087019301A501B601CE010995A501480D35
:101AD000591D41505109E881F9810288F389E02DAF
:101AE0009301B601CE010995E881F9810088F18959
:101AF000E02D9401A501B601CE010995C60CD71CB5
:101B0000B60161507109E881F9810088F189E02D01
:101B10009401A501CE010995E881F9810688F7892C
:101B2000E02DCE01DF91CF911F910F91FF90EF90AB
:101B3000DF90CF90BF90AF909F908F907F906F90ED
:101B400009946F927F928F929F92AF92BF92CF92A1
:101B5000DF92EF92FF920F931F93CF93DF935C017D
:101B6000EB016A01490138018701DC01ED91FC912B
:101B70006217730719F5641675062CF0962D872DDC
:101B80003A01C92ED82E9601261937092F5F3F4FEB
:101B9000048CF58DE02DA301BE01C5010995DF91EF
:101BA000CF911F910F91FF90EF90DF90CF90BF905A
:101BB000AF909F908F907F906F9008954615570536
:101BC00091F42617370724F0892D4B01C22FD82F07
:101BD0009E01281939092F5F3F4F068CF78DE02DA4
:101BE000A601B401DACF0284F385E02D0995D50171
:101BF000ED91FC910488F589E02D83019401A60103
:101C0000BE01C5010995D501ED91FC910688F789C2
:101C1000E02DC501DF91CF911F910F91FF90EF90C3
:101C2000DF90CF90BF90AF909F908F907F906F90FC
:101C30000994EF92FF920F931F93DC011A960D9176
:101C40001C911B9718962D913C911997ED91FC9141
:101C500000A0F1A1E02D7B0150E040E070E060E0E9
:101C600009951F910F91FF90EF9008954F925F9209
:101C70006F927F928F929F92AF92BF92CF92DF929C
:101C8000EF92FF920F931F93CF93DF936C012B0181
:101C90005A0139014801DC01ED91FC910284F38580
:101CA000E02D0995E201640C751CD601ED91FC91C3
:101CB000C615D7055CF40088F189E02D87019401F1
:101CC000A501BE01C60109952196EFCF0688F789C7
:101CD000E02DC601DF91CF911F910F91FF90EF9002
:101CE000DF90CF90BF90AF909F908F907F906F903C
:101CF0005F904F9009948F929F92AF92BF92CF9234
:101D0000DF92EF92FF920F931F93CF93DF93EC013B
:101D10005B014A016901E881F9810284F385E02DC4
:101D2000099595012C0D3D1D21503109E881F9815E
:101D30000488F589E02D78018401A401B501CE0164
:101D40000995E881F9810688F789E02DCE01DF91B8
:101D5000CF911F910F91FF90EF90DF90CF90BF90A8
:101D6000AF909F908F9009948F929F92AF92BF9265
:101D7000CF92DF92EF92FF920F931F93CF93DF9357
:101D8000EC015B014A0169017801E881F981028473
:101D9000F385E02D0995C80CD91C86010150110965
:101DA000E881F9810488F589E02D9501A401B50148
:101DB000CE010995E881F9810688F789E02DCE01E9
:101DC000DF91CF911F910F91FF90EF90DF90CF9017
:101DD000BF90AF909F908F9009940895EF92FF92DB
:101DE0000F931F93DC01ED91FC9100A0F1A1E02D78
:101DF00009951F910F91FF90EF9008950F931F93F6
:101E0000DC01ED91FC91068CF78DE02D09951F9179
:101E10000F9108950F931F93DC01ED91FC91048CB9
:101E2000F58DE02D09951F910F910895DC01ED913D
:101E3000FC910084F185E02D09942F923F924F92FE
:101E40005F926F927F928F929F92AF92BF92CF924A
:101E5000DF92EF92FF920F931F93CF93DF9300D007
:101E600000D000D0CDB7DEB73C016A013E832D83A0
:101E7000FC82EB825801A41AB50AB7FE03C0B194E4
:101E8000A194B1088D809E80861A970A97FE03C0A0
:101E90009194819491088A149B045CF0902F812F77
:101EA0000D811E819D838E839C2D8D2D6B01692F4D
:101EB000782F0C151D055CF09D818E817E836D83CE
:101EC000692F782F902F812F8601C92ED82E1601C9
:101ED000201A310A2B012D813E81421A530A57FEE6
:101EE00003C0519441945108710137FE03C03FEF84
:101EF000E31AF30AF594E7948D819E81861797077C
:101F00005CF5A1E0B0E0BA83A983C016D1064CF11C
:101F1000D301ED91FC910484F585E02D2B813C816A
:101F2000A8016D817E818A149B041CF04D815E8125
:101F3000B801C3010995E418F508F7FE0AC02D8120
:101F40003E8189819A81280F391F3E832D83E20CBF
:101F5000F31C0F5F1F4FD9CF2FEF3FEF3A83298339
:101F6000D4CF26960FB6F894DEBF0FBECDBFDF915B
:101F7000CF911F910F91FF90EF90DF90CF90BF9086
:101F8000AF909F908F907F906F905F904F903F9019
:101F90002F90089508952091F001260F3327331FC5
:101FA00021323105ECF420911402FC0190E080E034
:101FB000243069F082E00895A091F0012191AC01F4
:101FC00040535E4FA40FB52FB11D2C930196861779
:101FD00098F38091F001680F6093F00180E008951C
:101FE00081E008951092140281E08093160210920D
:101FF000150261E082E10E94F10561E083E10E9447
:10200000F105E9EBF0E080818E7F808380818D7F18
:10201000808388E48093B80085E48093BC000895B1
:10202000CF93DF9391E09093CF018823B9F0C091D3
:10203000B800D091BA008091BC008A7B8093BC002C
:1020400060E082E10E94F10560E083E10E94F10519
:102050000E94F20FD093BA00C093B800DF91CF91E5
:102060000895E091400280913F02E81730F4F0E0DB
:10207000E655FE4F808190E008958FEF9FEF089521
:102080009091400280913F022FEF3FEF981748F464
:10209000E92FF0E0E655FE4F208130E09F5F9093FE
:1020A0004002C901089580913F0290914002891B2E
:1020B000990B0895CF92DF92EF92FF920F931F93A7
:1020C000CF93DF937C01CB018A0120914902222327
:1020D00089F0EB016B01C40ED51ECC15DD0569F04E
:1020E0006991D701ED91FC910190F081E02DC7013C
:1020F0000995F3CF642F0E94CB0FC801DF91CF91D8
:102100001F910F91FF90EF90DF90CF900895CF93A4
:10211000DF931F92CDB7DEB7698320914902222356
:10212000F9F020914602203258F021E030E0FC0125
:102130003383228390E080E00F90DF91CF91089568
:1021400080914702E82FF0E0E657FE4F9981908397
:102150008F5F809347028093460281E090E0ECCF4E
:1021600061E0CE0101960E94CB0FF7CFCF92DF92B4
:10217000EF92FF920F931F93CF93DF93D09146027C
:1021800081E0D13208F09CC0C09148020E946E06E6
:102190006B017C018091140281116CC082E08093FC
:1021A000140281E0809316028FEF80931302109245
:1021B0003802D0933702AAE8B1E0E7E1F2E080E02C
:1021C000D8138DC01092390280913902CC0FC82BE0
:1021D000C093390280911502813009F084C01092B9
:1021E00015020E946E066B017C018091390280937A
:1021F000BB008091CB019091CC01A091CD01B09119
:10220000CE01892B8A2B8B2BA1F00E946E060091A8
:10221000CB011091CC012091CD013091CE016C19F0
:102220007D098E099F09061717072807390708F443
:1022300042C08091BC0083FDD8CF85EC8093BC0068
:102240000E946E066B017C0180911402823009F4B9
:102250004CC0809113028F3F09F469C08091130232
:10226000803209F466C080911302803309F463C0A0
:1022700084E026C08091CB019091CC01A091CD014A
:10228000B091CE01892B8A2B8B2B09F483CF0E942E
:102290006E060091CB011091CC012091CD013091BF
:1022A000CE016C197D098E099F09061717072807AB
:1022B000390708F06FCF8091CA010E94101085E0A5
:1022C000109247021092460210924902DF91CF917C
:1022D0001F910F91FF90EF90DF90CF9008959D9107
:1022E00091938F5F6DCF85EEA9CF8091CB019091B7
:1022F000CC01A091CD01B091CE01892B8A2B8B2BE3
:1023000009F4A2CF0E946E060091CB011091CC017E
:102310002091CD013091CE016C197D098E099F0964
:10232000061717072807390708F08ECFC4CF80E0BB
:10233000C7CF82E0C5CF83E0C3CFCF92DF92EF92C9
:10234000FF920F931F93CF93DF93EC016B01142F38
:102350008D8D9E8D009709F454C029A131E03093F2
:102360004902209348021092470210924602DC0173
:10237000ED91FC910190F081E02D60E009957601EE
:10238000CC24C394D12C01E011508D8D9E8D1F3F24
:1023900071F1B0E2CB16D104C0F00E94B6108D8D61
:1023A0009E8D29A100934902209348021092470272
:1023B00010924602DC01ED91FC910190F081E02D3C
:1023C00060E00995CC24C394D12C8D8D9E8DF701AE
:1023D0006491DC01ED91FC910190F081E02D099573
:1023E000BFEFCB1ADB0AEFEFEE1AFE0ACDCFDF917B
:1023F000CF911F910F91FF90EF90DF90CF900C94B1
:10240000B610EDA5FEA590818BA9809589238083C8
:102410007B01115070F1F70184912B8D3C8D232BA2
:1024200031F00E942B0AFFEFEF1AFF0AF2CF28E0EB
:1024300030E040E8E9A5FAA599A9582F5423A9F05E
:102440005081952B9083EBA5FCA590815AA9952BE3
:102450009083EBA5FCA550819AA990959523908334
:1024600046952150310931F7DECF50819095952363
:10247000E9CFDF91CF911F910F91FF90EF90DF9007
:10248000CF9008951F93CF93DF93EC018D8D9E8D98
:10249000009721F1162F29A131E0309349022093B2
:1024A00048021092470210924602DC01ED91FC9125
:1024B0000190F081E02D60E009958D8D9E8DDC010D
:1024C000ED91FC910190F081E02D612F09958D8DAA
:1024D0009E8DDF91CF911F910C94B610ADA5BEA536
:1024E0009C918BA9809589238C938B8D9C8D892BB6
:1024F00031F0862FDF91CF911F910C942B0A28E0A9
:1025000030E080E8A9A5BAA599A9462F4823C1F0D3
:102510004C91942B9C93ABA5BCA59C914AA9942B60
:102520009C93ABA5BCA54C919AA9909594239C93A0
:1025300086952150310931F7DF91CF911F91089590
:102540004C9190959423E6CF1F93CF93DF93EC01AA
:10255000162F8D8D9E8D892BB1F12DA93EA94FA9E6
:1025600058AD60E074E284EF90E00E943E1B205181
:10257000310941095109569547953795279520937B
:10258000B80066EA111167EACE010E9442128D8DF1
:102590009E8D892B41F129AD3AAD4BAD5CAD60E02C
:1025A00074E284EF90E00E943E1B20513109410902
:1025B000510956954795379527952093B800DF9197
:1025C000CF911F9108958B8D9C8D892B21F08EAD1D
:1025D0009FAD0E94320AEFA5F8A990818CA9809541
:1025E00089238083CECFEFA5F8A980819CA9892B70
:1025F0008083E5CF90E080E008950E949F1CFB015E
:1026000001900020E9F73197AF01461B570BDC0121
:10261000ED91FC910280F381E02D0994FC0186810B
:1026200097819C01295F3F4F37FF02C0295F3F4FD1
:1026300083E0359527958A95E1F784819581289FD8
:10264000A001299F500D389F500D112470E060E0CB
:10265000878D90A10C94A41C85ED8093BC00809183
:10266000CB019091CC01A091CD01B091CE01079604
:10267000A11DB11D23E0B695A795979587952A953D
:10268000D1F72091BC0024FD03C0109214020895DC
:102690004091CB015091CC016091CD017091CE0160
:1026A000452B462B472B69F30097A105B10541F057
:1026B00025E32A95F1F700000197A109B109E1CFBF
:1026C0008091CA010C9410101F920F920FB60F92B6
:1026D00011242F933F938F939F93AF93BF93809138
:1026E0004F0290915002A0915102B091520230914C
:1026F0004E0223E0230F2D3758F50196A11DB11D81
:1027000020934E0280934F0290935002A093510267
:10271000B09352028091530290915402A0915502BD
:10272000B09156020196A11DB11D80935302909362
:102730005402A0935502B0935602BF91AF919F915E
:102740008F913F912F910F900FBE0F901F90189572
:1027500026E8230F0296A11DB11DD2CF1F920F9222
:102760000FB60F9211242F933F934F935F936F9364
:102770007F938F939F93AF93BF93EF93FF9387E5DF
:1027800092E00E944507FF91EF91BF91AF919F9119
:102790008F917F916F915F914F913F912F910F900A
:1027A0000FBE0F901F9018951F920F920FB60F92A9
:1027B00011242F938F939F93EF93FF93E0916702E0
:1027C000F09168028081E0916D02F0916E0282FDCD
:1027D0001BC09081809170028F5F8F732091710276
:1027E000821741F0E0917002F0E0E95AFD4F958FB9
:1027F00080937002FF91EF919F918F912F910F9095
:102800000FBE0F901F9018958081F4CF1F920F92EA
:102810000FB60F9211242F933F934F935F936F93B3
:102820007F938F939F93AF93BF93EF93FF93809189
:10283000B900887F803609F44AC0F0F5883209F47F
:10284000A7C018F5803109F49BC0B8F4882309F4B7
:10285000F9C0883009F494C0FF91EF91BF91AF9116
:102860009F918F917F916F915F914F913F912F91A8
:102870000F900FBE0F901F901895883109F488C0F3
:10288000803251F78093130214C0803409F49DC044
:1028900040F48033B9F38833F9F68093130285EC62
:1028A000B0C0803509F485C0883509F496C08834F5
:1028B00099F60E942C13D0CF883909F48CC038F5D2
:1028C000883729F050F4883611F0803729F683E0F4
:1028D000809314021092120257C0883809F47BC00A
:1028E000803919F0803809F0B7CF80911202803218
:1028F00008F071C0E091120281E08E0F8093120205
:102900008091BB00F0E0EE50FE4F80833DC0803BE5
:1029100039F0E0F4803A09F479C0883A09F09CCFA4
:1029200084E0809314021092F1011092F001E09182
:102930003D02F0913E0209958091F00181110FC096
:1029400081E08093F0011092D00109C0803C09F42D
:10295000A6CF883C09F4A3CF883B09F07DCFE09156
:10296000F10181E08E0F8093F101F0E0E053FE4F22
:1029700080818093BB009091F1018091F00129C08A
:10298000809139028093BB0085EC8093BC0064CFBA
:102990009091380280913702981758F5E0913802EB
:1029A00081E08E0F80933802F0E0E95EFD4F808178
:1029B000E9CFE091380281E08E0F80933802809158
:1029C000BB00F0E0E95EFD4F80839091380280917A
:1029D00037029817C8F285E8D8CFE091380281E035
:1029E0008E0F809338028091BB00F0E0E95EFD4FCE
:1029F00080838091160281115CCF81E08093150263
:102A000084EA8093BC001092140226CF85EC809358
:102A1000BC001092140280911202803230F4E091D6
:102A20001202F0E0EE50FE4F10826091120270E050
:102A3000E0913B02F0913C0282EF91E00995109207
:102A400012020ACF1092130234CFCF92DF92EF928C
:102A5000FF920F931F93CF93DF93E7E5F2E013828A
:102A6000128288EE93E0A0E0B0E084839583A68391
:102A7000B7832AE031E03183208325EC30E03587CD
:102A8000248724EC30E03787268720EC30E0318B38
:102A9000208B21EC30E0338B228B22EC30E0358B25
:102AA000248B26EC30E0378B268B118E128E138E02
:102AB000148E04EF12E0F80113821282848395834E
:102AC000A683B7838CE191E09183808380E190E0DD
:102AD0000E947A1BEC0180E8C82ED12CD982C882D2
:102AE00090E4E92EF12CFB82EA8280E490E00E94DF
:102AF0007A1BFC0113821282D582C482F782E6829D
:102B0000D186C086F386E286168A158614861786D5
:102B1000168681E0858B848B2FEF3FEF338B228BE2
:102B2000318B208B878B108E128E118E8EE291E06E
:102B300091838083148E138E168F058F10A2178EAB
:102B40008FEF84A385A386A387A380A780E89AE15B
:102B5000A6E0B0E085AB96ABA7ABB0AF80EA96E855
:102B6000A1E0B0E081AF92AFA3AFB4AF80E586AF94
:102B700017AEFD83EC8389E891E09F838E8381E02B
:102B800090E0998788871B861A8620E230E03D878F
:102B90002C879F878E87D0930103C0930003DF911A
:102BA000CF911F910F91FF90EF90DF90CF900895FC
:102BB000CF93DF93CDB7DEB7CB54D1090FB6F894DE
:102BC000DEBF0FBECDBF789484B5826084BD84B56E
:102BD000816084BD85B5826085BD85B5816085BD18
:102BE00080916E00816080936E00109281008091D0
:102BF0008100826080938100809181008160809358
:102C00008100809180008160809380008091B1007C
:102C100084608093B1008091B00081608093B000A7
:102C200080917A00846080937A0080917A0082603B
:102C300080937A0080917A00816080937A008091FD
:102C40007A00806880937A001092C100E091670258
:102C5000F091680282E08083E0916302F091640267
:102C60001082E0916502F09166028FEC80831092F1
:102C70006F02E0916B02F0916C0286E08083E0913C
:102C80006902F0916A02808180618083E09169022B
:102C9000F0916A02808188608083E0916902F091FE
:102CA0006A02808180688083E0916902F0916A0203
:102CB00080818F7D808360E08EE00E943D06E09100
:102CC0000003F0910103A480B580D5015F968D913A
:102CD0009C919097892B51F516962D913C91C901A5
:102CE000079697FD079623E0959587952A95E1F736
:102CF000F50124813581AC01429FC001439F900DB5
:102D0000529F900D11240E947A1BD50190969C939E
:102D10008E935F97892B51F466E571E087E592E029
:102D20000E94FF1281E090E00E94AB1CC5010E944E
:102D30000E13F5018681978164817581AC018197BD
:102D40000CF499C14054510957FF02C04F5F5F4FC7
:102D5000559547956255710977FF02C06F5F7F4FA8
:102D60007595679510E4E12EF12C02E510E02AE656
:102D700037E0C5010E946B0582E0D50192968C93E5
:102D800092975D968D919C915E97892B09F48BC1EA
:102D90008CE391968C931092400210923F02109215
:102DA0004702109246020E94F20F85EC96E0909343
:102DB0003E0280933D0286EC96E090933C02809325
:102DC0003B02D50198968C9187FD1FC061E00E945F
:102DD0003D0661E0F50180A50E94F10561E070E02B
:102DE00080E090E00E94930660E0D50198968C9177
:102DF0000E94F1056AE070E080E090E00E94930696
:102E000061E0F50180A50E94F105D5015D968D91E7
:102E10009C915E97892B09F40BC2D5962D913D911B
:102E20004D915C91D89760E074E284EF90E00E944D
:102E30003E1B205131094109510956954795379557
:102E400027952093B80044E066E875E0C5010E942C
:102E50009D11F50166816150C5010E94421244E056
:102E600062E875E0C5010E949D11D50192968C9192
:102E700060E1813009F064E1C5010E94421244E042
:102E80006EE775E0C5010E949D118FE8F50185AFE1
:102E9000848195818038910509F0E1C1868197810F
:102EA0008034910509F0E9C182A1813009F0D5C1D2
:102EB0008FE9D501DD968C9312E16AEDC5010E9480
:102EC0004212612FC5010E94421261E8C5010E94B1
:102ED0004212F50165ADC5010E94421269EDC501BE
:102EE0000E944212D50192968C9162E2813009F0E3
:102EF00061EFC5010E94421246E068E775E0C50136
:102F00000E949D11F501858D968D892B09F4B9C11B
:102F100021AD32AD43AD54AD60E074E284EF90E09A
:102F20000E943E1B20513109410951095695479590
:102F3000379527952093B800E0910003F0910103A5
:102F4000848195810E940E138FB7F89440914F02AF
:102F50005091500260915102709152028FBFFE0158
:102F600031961F01412CB4E25B2EB4EF6B2E712C15
:102F70009E01275D3F4F2C963FAF2EAF2C972FB76A
:102F8000F89480914F0290915002A0915102B0911B
:102F900052022FBF80934A0290934B02A0934C029F
:102FA000B0934D0288E2D1011D928A95E9F7410163
:102FB000510120E420937C0080917A00806480930A
:102FC0007A0080917A0086FDFCCF90917800809104
:102FD0007900892798278927F501819391935F01CB
:102FE0002C964EAD5FAD2C97E417F50719F7F1015C
:102FF00030E020E081919191C80ED91E2331310536
:1030000031F4C60164E170E00E942A1B6B012F5F5E
:103010003F4F2431310571F7E0910003F091010336
:10302000828593859C012F5F3F4F213831050CF03D
:1030300032C133872287D4010D911D914D010C15AA
:103040001D0509F031C162E871E087E592E00E9458
:10305000FF1267E871E087E592E00E94FF12E091BD
:103060000003F09101039601201B310B84859585A7
:10307000820F931F27C14052510957FF02C04F5F73
:103080005F4F559547956357710977FF02C06F5F92
:103090007F4F75956795F0E2EF2EF12C03E710E076
:1030A0002AE835E066CE61E0F50186A10E943D0682
:1030B00061E0D50197968C910E943D06F50186A1AD
:1030C000082E000C990BFC01ED5BF54FE491F0E04C
:1030D000EE0FFF1FE75CF54F25913491D5019E96C9
:1030E0003C932E939D97FC01E95AF54FE491D396BA
:1030F000EC93D39797968C91082E000C990BFC01BA
:10310000ED5BF54FE491F0E0EE0FFF1FE75CF54F4C
:10311000A591B491F501B0ABA7A7FC01E95AF54F11
:103120009491F50194AB8C91E92FE82BEC93D501A8
:103130005B968D919C91892B09F434C01FB7F8944C
:1031400080913A02811127C0EDE4FAE08491E1E632
:10315000FAE09491E82FF0E0EE0FFF1FE15DF54FEC
:10316000A591B491EC91E92321F461E08AE00E94F9
:10317000F10561E08AE00E943D068CB580618CBD5E
:103180008CB580648CBD61E08DE00E943D0661E0FD
:103190008BE00E943D0680913A028F5F80933A0255
:1031A0001FBF0FCE61E0F50184A10E943D0661E0E2
:1031B000D50195968C910E943D06F50184A1082EBB
:1031C000000C990BFC01ED5BF54FE491F0E0EE0F84
:1031D000FF1FE75CF54F25913491D5019A963C93FA
:1031E0002E939997FC01E95AF54FE491D196EC930F
:1031F000D19795968C91082E000C990BFC01ED5BF4
:10320000F54FE491F0E0EE0FFF1FE75CF54FA5915D
:10321000B491F501B4A7A3A7FC01E95AF54F949125
:10322000F50192AB8C91E92FE095E823EC93C9CDA1
:10323000F501838D948D892B21F086AD97AD0E9489
:10324000320AD5019F96ED91FC91D0979081D4964A
:103250008C91809589238083F6CD8FEC2ACE8036A1
:10326000910559F486819781409739F482A1813084
:1032700031F480E1D501DD968C9312E01ECE8FEA09
:10328000F9CFD50107A4F0A9E02D8081D4969C91B7
:10329000892B808351CE8F579109938782878481B0
:1032A00095810E940E13C7CEC016D1060CF0D7CE62
:1032B000E0910003F09101030C191D0984859585A7
:1032C000801B910B95878487E0910003F0910103A7
:1032D000848195816285738504851585DC01ED9176
:1032E000FC9104A0F5A1E02DEE24E394F12C9B01C8
:1032F00040E250E00995A814B90409F09CCE009171
:1033000000031091010380914502F8012485358561
:10331000213231050CF40FC1882309F474C0809068
:103320004A0290904B02A0904C02B0904D028091C6
:10333000410290914202A0914302B0914402A50142
:103340009401281B390B4A0B5B0BE2E0569547951D
:1033500037952795EA95D1F760E67AEE80E090E020
:103360000E943E1B2F3131050CF43FC0D80114964A
:103370000D911C9185E090E0F801958784879787EF
:10338000868781E090E0918B808B138A128A82E09D
:10339000848B858B032E000C440B550B2A961FAE95
:1033A0002A9779E2E72EF12CEC0EFD1E90E2E90E51
:1033B000F11CCA01B9012AE030E040E050E00E946F
:1033C0003E1B605DD7016E937D01211531054105DE
:1033D000510579F7109721F0BD01C8010E94FF1235
:1033E00067E871E0C8010E94FF128092410290924A
:1033F0004202A0924302B09244028091450291E0C1
:10340000892780934502E0910003F0910103048134
:103410001581F801858D968D892B09F490C025A919
:1034200036A947A950ADC301B2010E943E1B2051ED
:1034300031094109510956954795379527952093AC
:10344000B80045E06AE27AE0C8010E949D11F801E7
:1034500064816150C8010E944212D80116962D91D4
:103460003C91C901079697FD079633E0959587959E
:103470003A95E1F7F80124813581829F5001839FBD
:10348000B00C929FB00C1124E78CF0A0858D968D26
:10349000AE0CBF1C009709F48DC021A131E0309320
:1034A0004902209348021092470210924602DC0122
:1034B000ED91FC910190F081E02D60E40995882464
:1034C0008394912CF801858D968DAE14BF0409F478
:1034D0004AC0F0E28F169104E8F00E94B610D801BD
:1034E0005D968D919C915E9791962C91B1E0B093F1
:1034F0004902209348021092470210924602DC01D2
:10350000ED91FC910190F081E02D60E40995882413
:103510008394912CF801858D968DD7016D917D0155
:10352000DC01ED91FC910190F081E02D0995BFEF58
:103530008B1A9B0AC7CF811166CF81E062CF838D42
:10354000948D892B21F086AD97AD0E94320AD80167
:103550009F96ED91FC91D0979081D4968C91809517
:10356000892380836ECF0E94B610F801858D968DD9
:10357000892B09F465C021AD32AD43AD54ADC30113
:10358000B2010E943E1B2051310941095109569553
:103590004795379527952093B800E0E0F0E0EF2BB2
:1035A00009F4EDCC0E943107882309F4E8CC0E948D
:1035B0000000DECCD80105A4F6A5E02D8081D396CD
:1035C0009C91892B8083AE14BF0479F2F70181911D
:1035D0007F01D8015B962D913C91232B19F00E941D
:1035E0002B0AF1CF28E030E040E8D8019996ED9120
:1035F000FC919A97D1969C91582F5423E9F05081D1
:10360000952B9083D8019B96ED91FC919C9790818E
:10361000D2965C91D297952B90839B96ED91FC91DD
:103620009C975081D2969C91909595239083469536
:1036300021503109D1F6C7CF508190959523E1CF24
:10364000D80107A4F0A9E02D8081D4969C91892B04
:103650008083A3CF97FB072E16F4009407D077FD45
:1036600009D00E94601B07FC05D03EF4909581951F
:103670009F4F0895709561957F4F0895A1E21A2E8E
:10368000AA1BBB1BFD010DC0AA1FBB1FEE1FFF1F06
:10369000A217B307E407F50720F0A21BB30BE40B56
:1036A000F50B661F771F881F991F1A9469F760959D
:1036B0007095809590959B01AC01BD01CF01089557
:1036C000AA1BBB1B51E107C0AA1FBB1FA617B70748
:1036D00010F0A61BB70B881F991F5A95A9F7809564
:1036E0009095BC01CD010895EE0FFF1F0590F49158
:1036F000E02D09940F931F93CF93DF9382309105B0
:1037000010F482E090E0E0910403F091050330E0D2
:1037100020E0B0E0A0E0309799F42115310509F4DC
:103720004AC0281B390B24303105D8F58A819B818A
:103730006115710589F1FB0193838283FE0111C03C
:10374000408151810281138148175907E0F04817E1
:10375000590799F4109761F012960C9312971396EB
:103760001C933296CF01DF91CF911F910F91089555
:103770000093040310930503F4CF2115310551F094
:103780004217530738F0A901DB019A01BD01DF019F
:10379000F801C1CFEF01F9CF9093050380930403A3
:1037A000CDCFFE01E20FF31F819391932250310997
:1037B00039832883D7CF2091020330910303232B31
:1037C00041F42091020130910301309303032093CF
:1037D000020320910001309101012115310541F4CE
:1037E0002DB73EB74091040150910501241B350BC4
:1037F000E0910203F0910303E217F307A0F42E1BFC
:103800003F0B2817390778F0AC014E5F5F4F241744
:10381000350748F04E0F5F1F509303034093020398
:10382000819391939FCFF0E0E0E09CCFCF93DF9323
:103830000097E9F0FC01329713821282A0910403F1
:10384000B0910503ED0130E020E01097A1F4208154
:103850003181820F931F20910203309103032817B7
:10386000390709F061C0F0930303E0930203DF918D
:10387000CF910895EA01CE17DF07E8F54A815B8111
:103880009E0141155105B1F7E901FB83EA83499196
:103890005991C40FD51FEC17FD0761F48081918108
:1038A0000296840F951FE901998388838281938111
:1038B0009B838A83F0E0E0E012968D919C911397B0
:1038C0000097B9F52D913C911197CD010296820F89
:1038D000931F20910203309103032817390739F60B
:1038E000309751F51092050310920403B09303032F
:1038F000A0930203BCCFD383C28340815181840F44
:10390000951FC817D90761F44E5F5F4F8881998171
:10391000480F591F518340838A819B8193838283FF
:103920002115310509F0B0CFF0930503E0930403AE
:103930009ECFFD01DC01C0CF13821282D7CF81E080
:1039400090E0F8940C94AB1CDC0101C06D934150E5
:0A3950005040E0F70895F894FFCF0F
:10395A00000006038000000000006707C706F4069F
:10396A00B4072507030717070000000087105A103D
:10397A00FA12ED0E53104010311000000000700CC6
:10398A00C706FA12CA0F7B09ED0E160FEE0E0A0FC2
:10399A00FE0E1D0FED0E360AA412EB083409360E80
:1039AA00190EA10D420D446973706C617920696E1C
:1039BA00697469616C697A6174696F6E206661699C
:1039CA006C65642C2065786974696E672E2E2E2EBC
:0A39DA000A006567616C000D0A0029
:00000001FF
